:020000040800F2
:1000000028000120AD010008710B000881030008E1
:100010006D0B000893030008832D0008000000000A
:10002000000000000000000000000000352700086C
:100030008D07000800000000010C00084D28000892
:10004000C7010008C7010008C7010008C701000870
:10005000C7010008C7010008C7010008C701000860
:10006000C7010008C7010008C7010008C701000850
:10007000C7010008C7010008C7010008C701000840
:10008000C7010008C7010008C7010008C701000830
:10009000C7010008C7010008C7010008C701000820
:1000A000C7010008C7010008C7010008C701000810
:1000B000C7010008B9280008D5290008C7010008B1
:1000C000C7010008C7010008C7010008C7010008F0
:1000D000C7010008652B0008C7010008C701000818
:1000E000C7010008C7010008C7010008C7010008D0
:1000F000C7010008C7010008C7010008C7010008C0
:10010000C7010008950E0008C7010008C7010008D4
:10011000C7010008C7010008C7010008C70100089F
:10012000C7010008C7010008C7010008C70100088F
:10013000C7010008C7010008C7010008C70100087F
:10014000C7010008C7010008C7010008C70100086F
:10015000C7010008C7010008C7010008C70100085F
:10016000C7010008C7010008C7010008C70100084F
:10017000C7010008C7010008C7010008C70100083F
:10018000C7010008C7010008DFF80CD000F0BAF87A
:1001900000480047C56000082800012030BF72B643
:1001A000704762B6704780F30888704706488047FA
:1001B00006480047FEE7FEE7FEE7FEE7FEE7FEE74C
:1001C000FEE7FEE7FEE7FEE7512800088901000888
:1001D0002DE9F0410024061B254671F1000605DAE1
:1001E00001240027D0EB070067EB0101161E73F115
:1001F000000605DA0027D2EB0702012567EB0303AF
:1002000000F030F886460E4617469C46AC4204D0B5
:100210000025D0EB050E65EB010624B10020D2EBE2
:10022000000760EB030C704631463A466346BDE872
:10023000F08140EA01039B0703D009E008C9121FBF
:1002400008C0042AFAD203E011F8013B00F8013B90
:10025000521EF9D27047421C10F8011B0029FBD135
:10026000801A70472DE9F05F0546002092469B46B4
:1002700088460646814640241BE0284641464746BC
:10028000224600F02FF853465A46C01A914110D327
:1002900011461846224600F016F82D1A67EB0108A1
:1002A0004F4622460120002100F00DF817EB00090F
:1002B0004E41201EA4F10104DFDC484631462A46A7
:1002C0004346BDE8F09F202A04DB203A00FA02F101
:1002D000002070479140C2F1200320FA03F3194334
:1002E00090407047202A04DB203A21FA02F00021D6
:1002F000704721FA02F3D040C2F120029140084336
:1003000019467047064C074D06E0E06840F00103CF
:1003100094E8070098471034AC42F6D3FFF738FF53
:10032000783103089831030870B58C1810F8015B18
:1003300015F0070301D110F8013B2A1106D110F87E
:10034000012B03E010F8016B01F8016B5B1EF9D182
:100350002B0705D40023521E0DD401F8013BFAE708
:1003600010F8013BCB1A921C03E013F8015B01F873
:10037000015B521EF9D5A142D8D3002070BD000008
:100380001EF0040F0CBFEFF30880EFF3098000F0BC
:1003900043BB00BFFEE770B500254FF4803404E096
:1003A000802000F063FD00B103E0201EA4F10104F1
:1003B000F6D100BF0CB9032070BD40F2FF5000F031
:1003C0002BFD2846F8E7000070B5044605E0164806
:1003D000056805F0450000B100E0F8E700BF042023
:1003E00000F044FD20B1042000F016FD032070BD94
:1003F000012000F03BFD20B1012000F00DFD0120A7
:10040000F5E7094824380068A04201D01020EEE743
:1004100040F2FF5000F000FD03482038006808213A
:100420000840C0B2E3E70000342C014070B500265C
:100430004FF4803505E01148046804F0450000B130
:1004400003E0281EA5F10105F5D100BF15B104F0A8
:10045000040028B10326042000F0DEFC304670BD05
:10046000012000F003FD18B10126012000F0D4FCAA
:1004700040F2FF5000F0D0FC3046F0E7342C014051
:1004800010B505E00B48046804F0450000B100E039
:10049000F8E700BF042000F0E9FC20B1042000F0E0
:1004A000BBFC032010BD40F2FF5000F0B5FC002063
:1004B000F8E70000342C01402DE9F04105460E46D6
:1004C0004FF0000805E02048076807F0450000B13C
:1004D00000E0F8E700BF042000F0C8FC28B10420C9
:1004E00000F09AFC0320BDE8F081012000F0BEFC82
:1004F00020B1012000F090FC0120F4E712482438DC
:100500000068A84201D01020EDE740F2FF5000F053
:1005100083FC0D482038046804F4604018B9200CAE
:1005200030804046DFE704F4005008B11320DAE7DA
:1005300004F4804008B11020D5E704F4004008B16D
:100540000F20D0E74046CEE7342C014070B500269E
:100550004FF4803505E00F48046804F0450000B111
:1005600003E0281EA5F10105F5D100BF15B104F087
:10057000040028B10326042000F04EFC304670BD74
:1005800004F0400018B10026402000F045FC304641
:10059000F5E70000342C014021B1026842F001026D
:1005A000026003E0026822F001020260704700006E
:1005B000016821F00101016000210160416081605A
:1005C000C1600161212141614A49884204D13D2134
:1005D000484A103A91608CE046491831884205D16A
:1005E0004FF47461434A103A916082E041493031DE
:1005F000884205D14FF474113E4A103A916078E078
:100600003C494831884205D14FF07461394A103A6B
:1006100091606EE037496031884204D13649354AED
:10062000103AD16065E033497831884204D13349CA
:10063000304A103AD1605CE02E499031884204D1B2
:100640002F492C4A103AD16053E02A49A8318842F8
:1006500005D14FF03D51274A103AD16049E0294970
:10066000884204D13D21274A083A116041E02549DA
:100670001831884205D14FF47461224A083A11605A
:1006800037E020493031884205D14FF474111D4ABA
:10069000083A11602DE01B494831884205D14FF0DE
:1006A0007461184A083A116023E0164960318842A3
:1006B00004D11149134A121F11601AE0114978310F
:1006C000884204D10D490F4A121F116011E00D49F3
:1006D0009031884204D10A490A4A121F116008E089
:1006E0000849A831884204D14FF03D51054A121FF4
:1006F00011607047106002403D000020400F002054
:1007000000003D201064024021B1026842F0200246
:10071000026003E0026822F0200202607047014696
:1007200000200A6802F001020AB1012000E0002066
:100730007047000010B500220268134B1A40CC68C5
:100740000B6823434C6923438C692343CC692343BF
:100750000C6A23434C6A23438C6A23434C6B234328
:100760008C6B23431A430260426922F00702D1E9ED
:100770000B3423431A4342610B6943604B68836027
:100780008B68C36010BD00003F801CF07047000004
:100790002DE9FC4107460D4600260024002000906C
:1007A000019008205B490860102048604020886064
:1007B0000020C8604FF480600861084600F0A2FB8A
:1007C0001020FFF701FE044614B12046BDE8FC816D
:1007D0005148008800044F49086037204860402095
:1007E00088600020C8604FF480600861084600F00F
:1007F00089FB3720FFF7E8FD04460CB12046E5E70A
:100800004FF0FF304549086008204860302088607C
:100810000220C8600020086101204861084600F0FD
:100820000BFB00203B490860332048604020886073
:100830000020C8604FF480600861084600F062FB49
:100840003320FFF7C1FD04460CB12046BEE70CE0A3
:100850004FF4001000F00AFB38B1314800684DF841
:100860002600761C022E00D307E02D484C38006885
:1008700040F22A6108400028EAD000BF082000F0BA
:10088000F5FA20B1082000F0C7FA04209EE7022004
:1008900000F0ECFA20B1022000F0BEFA022095E749
:1008A000202000F0E3FA20B1202000F0B5FA062065
:1008B0008CE74FF4007000F0D9FA28B14FF40070C3
:1008C00000F0AAFA072081E740F2FF5000F0A4FAF6
:1008D00000980006009901F47F4140EA0120009948
:1008E00001F47F0140EA1120009940EA116068603C
:1008F00001980006019901F47F4140EA0120019925
:1009000001F47F0140EA1120019940EA116028605A
:1009100020465BE768020020100000207C020020D7
:10092000802C014010B5044602A002F02DFAE043ED
:10093000C0B210BD7465737421210A00F0B50A4677
:1009400000210023002400BF3DE0012505FA01F34A
:10095000156805EA03049C4234D105684F0003265C
:10096000BE40B543056015794E00B5400668354375
:1009700005601579012D02D01579022D16D18568F3
:100980004F000326BE40B543856055794E00B54003
:10099000866835438560456801268E40B5434560CD
:1009A000456896798E40B6B235434560C5684F00BC
:1009B0000326BE40B543C560D5794E00B540C66834
:1009C0003543C560491C1029BFD3F0BDF0B50023E5
:1009D00000244D07ED0E02FA05F3CE1000F12005BC
:1009E00055F826504E07F70E0F26BE40B543CF10E0
:1009F00000F1200646F82750CE1000F1200555F8EA
:100A0000265045EA0304CE1000F1200545F82640A3
:100A1000F0BD0183704700002949096801F00041D9
:100A200049B12749096841F00041254A11608169AF
:100A3000891C81617047224908390968214A11627D
:100A40001F49091F097882F824101D49C91E097819
:100A500091621B490C310968D1621949891E0988C4
:100A600011861749096851631549091D0968916381
:100A7000134910310968D1630021134A116000BF86
:100A8000114909680029FBD00E4A016811604168CC
:100A9000516081689160C168D160016911614169EB
:100AA000516181699161C169D1610021064A11607A
:100AB00000BF054909680029FBD000BFBAE7000064
:100AC0002CED00E020070020400200201CB5044669
:100AD000002001900090224800880004214908600D
:100AE0000D204860402088600020C8604FF480607E
:100AF0000861084600F006FA1B480068009002E012
:100B0000194800680090009800F045000028F7D0D0
:100B1000012000F0ABF920B1012000F07DF90120A7
:100B20001CBD042000F0A2F920B1042000F074F9EB
:100B30000320F5E70C48243800680D2801D0102068
:100B4000EEE740F2FF5000F067F9074820380068F0
:100B500001900198C0F3432020700020E0E70000DE
:100B60001000002068020020342C014000BFFEE786
:100B70007047000070B5002100230F22C4781CB319
:100B8000174C246804F4E064C4F5E064C4F307215E
:100B9000C1F10404E3B20A4144789C40E1B2847894
:100BA000144021430C07210E0E4C05786155047842
:100BB00004F01F050124AC4005786D11AD0005F16E
:100BC000E025C5F8004109E0047804F01F05012480
:100BD000AC40054D0678761145F8264070BD000002
:100BE0000CED00E000E400E080E100E00249014398
:100BF000024A1160704700000000FA050CED00E0A9
:100C00007047000029B1064A12680243044B1A607B
:100C100004E0034A12688243014B1A6070470000E7
:100C20003038024029B1064A12680243044B1A6068
:100C300004E0034A12688243014B1A6070470000C7
:100C40004038024029B1064A12680243044B1A6038
:100C500004E0034A12688243014B1A6070470000A7
:100C60004438024029B1064A12680243044B1A6014
:100C700004E0034A12688243014B1A607047000087
:100C800024380240F0B5002100220024022500266D
:100C90000223324F3F6807F00C0121B1042905D02F
:100CA000082937D105E02E4F076036E02D4F076049
:100CB00033E02A4F3F1F3F68C7F38056274F3F1F3F
:100CC0003F6807F03F036EB1264FB7FBF3F7DFF83D
:100CD0008CC0ACF1040CDCF800C0CCF3881C07FB22
:100CE0000CF40CE01E4FB7FBF3F7DFF870C0ACF16B
:100CF000040CDCF800C0CCF3881C07FB0CF4174F85
:100D00003F1F3F68C7F301477F1C7D00B4FBF5F729
:100D1000076002E0124F076000BF00BF0F4F3F683F
:100D200007F0F0010909104F7A5C0768D740476067
:100D30000A4F3F6807F4E051890A0B4F7A5C476815
:100D4000D7408760054F3F6807F46041490B064F65
:100D50007A5C4768D740C760F0BD000008380240A1
:100D60000024F40000127A002E0200207CB5054613
:100D7000002400200090019000260DB1022600E022
:100D800000262248006800F0007008B10E207CBDEB
:100D90001F49098888B26946FFF7FAFC04460CB17E
:100DA0002046F4E7019800F4802060B318480088DA
:100DB00000041849086037204860402088600020FF
:100DC000C8604FF480600861084600F09BF8372047
:100DD000FFF7FAFA04460CB12046D8E70D48066042
:100DE00006200C494860402088600020C8604FF40D
:100DF00080600861084600F085F80620FFF7E4FAF5
:100E000004462046C3E72520C1E70000142C01401A
:100E100010000020680200200149086070470000AF
:100E2000382C01400146034A106820F0FF000843B7
:100E300010607047042C014000210B4B02681A60BF
:100E40001B1D42681A601A1D116821F0F701D0E9D4
:100E500002231A4303691A4343691A431143024A9E
:100E60000832116070470000242C01400146002028
:100E7000034A12680A400AB1012000E000207047CE
:100E8000342C01400248006800F003007047000065
:100E9000002C014010B500F08DFC10BD00210A4A65
:100EA000116847F6FF629143027D83681A434368E5
:100EB0001A43C3681A4303681A4303691A43114368
:100EC000014A116070470000042C014000200B49CA
:100ED0000860091D0860091D0860091D08600749B0
:100EE00024310860091D0860091D08600448034991
:100EF000383108600020091D08607047002C01404F
:100F0000FF07C0000021094B02681A601A1D116812
:100F10006FF30A01D0E901231A43C3681A43036936
:100F20001A431143014A121D11607047082C0140F9
:100F30000149086070470000002C014070B590B076
:100F400004460E46154600BF1A48FFF7E8FB002886
:100F5000FAD11848FFF72CFB4FF0006001901648BB
:100F60000290039404950020059006904FF4806051
:100F70000790800008908000099000200A904FF4AC
:100F800040300B9004200C9003200D904FF4000093
:100F90000E9080100F9001A90648FFF7CBFB20218F
:100FA0000448FFF7B1FB01210248FFF7F5FA10B042
:100FB00070BD000058640240802C014070B50446AA
:100FC000002516480078032802D12725284670BD41
:100FD0001248007838B111480078012803D00F4832
:100FE0000078022817D1B4F5805F02D12725284662
:100FF000EDE7E0B2FFF7BAFE054665B908480068BC
:1010000020F4C05006490860084600682043086084
:101010000846006808602846D9E700000C00002058
:10102000042C0140F0B5014600200022BE4B1B7885
:1010300081F85630BD4B1B88A1F85430BC4B1B685F
:101040001A0E93090B70C2F383034B7002F0030373
:101050008B70B74B1B68C3F30742CA70B44B1B8835
:10106000C3F307220A71B24B1A784A715B681A0EF1
:101070001301CB80AE4B5B68C3F30742CB8843EAD6
:101080001213CB8002F00F030B72A94B9B88C3F3A2
:101090000722D3094B72C2F380138B72C2F3401341
:1010A000CB72C2F300130B7300234B739E4B1B7860
:1010B0003BB19D4B1B78012B03D09B4B1B78032B23
:1010C0004FD193071B0D0B61994B1A790B6943EABA
:1010D00082030B61964B9B681A0E0B6943EA9213CD
:1010E0000B61C2F3C2030B7502F007034B75904B03
:1010F0009B68C3F3074253098B75C2F38203CB7518
:1011000093075B0F0B768A4B1B89C3F307220B7E79
:1011100043EAD2130B760B695B1C0024C1E912343D
:101120000B7E9B1C012404FA03F3DC17D1E9125651
:10113000A5FB037C06FB03C305FB0433C1E9127363
:101140000C7A0123A3400B650024D1E912650B6DD5
:10115000A6FB037C05FB03C306FB0433C1E9127342
:101160002EE0714B1B78022B2AD1714B1A79930612
:101170009B0A0B616E4B9B681A0E0B6943EA0223B4
:101180000B616B4B9B68C3F307420B6913430B6105
:10119000674B1B89C3F307220B695B1C4FF4007478
:1011A000A3FB04464FF480630025A4FB037C06FBED
:1011B00003C304FB0533C1E912734FF400730B65DD
:1011C000C2F3801301F8193F93065B0E4B70584B26
:1011D0001A7A4B7843EAD2134B7002F07F038B707C
:1011E000534BDB681A0ED309CB70C2F341130B715A
:1011F000C2F382034B7193071B0F8B714C4BDB685F
:10120000C3F307428B7943EA92138B71C2F3401305
:10121000CB7100230B7202F001034B72444B9B898C
:10122000C3F30722D3098B72C2F38013CB72C2F3CC
:1012300040130B73C2F300134B73C2F381038B7320
:1012400002F00303CB733A4B1A7B53080B74012350
:101250004B74384B1B681A0ECA741939354B1B680E
:10126000C3F307421402CC85324B1B88C3F3072219
:10127000CB8D1343CB852F4B1A7814060C635B6818
:101280001A0E0B6B43EA02440C632A4B5B68C3F3F0
:1012900007420B6B43EA02240C63264B9B88C3F383
:1012A00007220B6B13430B63224B1A7934235A54D6
:1012B000204B9B681A0E35235A541E4B9B68C3F370
:1012C000074214068C631B4B1B89C3F307228B6BED
:1012D00043EA02448C63174B1A7A8B6B43EA02246D
:1012E0008C63144BDB681A0E8B6B13438B63114BAF
:1012F000DB68C3F307423C235B5C43EA12143C23E4
:101300005C5413071C0DCC870A4B9B89C3F307223F
:10131000CB8F1343CB87074B1A7B540840235C5475
:10132000012441235C54F0BD0C000020100000207B
:1013300094020020A40200203EB5002500240121D3
:101340004548FFF75FFC0121C802FFF77BFC012144
:10135000C802FFF787FC4FF4F850019002208DF887
:1013600008008DF8090000208DF80A0001208DF892
:101370000B0001A93948FFF7E1FA0420019001A907
:101380003748FFF7DBFA0C2208213448FFF71EFB31
:101390000C2209213148FFF719FB0C220A212F48A2
:1013A000FFF714FB0C220B212C48FFF70FFB0C223C
:1013B00011462A48FFF70AFB0C2202212848FFF7B2
:1013C00005FB00214FF40060FFF74CFCFFF77EFDAA
:1013D00031208DF8000000208DF801008DF802000A
:1013E00001208DF803006846FFF7C4FB00F0F0F819
:1013F000044614B900F03AF804461CB91948FFF73E
:1014000011FE044634B91749B1F85410080400F02D
:1014100075FD044624B94FF40060FFF7CFFD044684
:101420001CB111480078032813D100BF0D4890F873
:10143000560020B10B4890F85600012801D1022532
:1014400000E000252846FFF7EDFC012000F06EFDCE
:10145000044620463EBD00000C004000000802404B
:10146000000C0240B80200200C00002038B5002417
:1014700001200090FFF706FD10B92524204638BD55
:101480004D480078042824D000204C4908600220F0
:101490004860C02088600020C8604FF48060086108
:1014A0000846FFF72FFDFEF7C1FF04460CB12046AA
:1014B000E5E743480068434908604148001D00686B
:1014C00048603F480830006888603D480C3000683C
:1014D000C8603948007858B137480078012807D0EB
:1014E00035480078062803D033480078022816D102
:1014F00000203249086003204860402088600020B6
:10150000C8604FF4806008610846FFF7FBFC69463D
:101510000320FEF7D1FF04460CB12046AFE7264872
:101520000078032816D1BDF80000000423490860A4
:1015300003204860402088600020C8604FF480602D
:1015400008610846FFF7DEFCFEF770FF04460CB1A9
:10155000204694E71848007804282AD0BDF80000F7
:1015600019490860BDF8000000041449086009200A
:101570004860C02088600020C8604FF48060086127
:101580000846FFF7BFFCFEF751FF04460CB12046AA
:1015900075E70B4800680D4908600948001D0068A0
:1015A0004860074808300068886005480C300068CB
:1015B000C860002063E700000C00002068020020E3
:1015C000142C0140A40200201000002094020020EE
:1015D0002DE9F0470027002400260025A046A1465B
:1015E00076206E4908750020086048608860C860F1
:1015F00008610846FFF752FC0320FFF799FC684892
:10160000006840F480706649086000BF12E0002066
:101610006449086048608860C8604FF48060086171
:101620000846FFF76FFCFEF7B6FE044604B903E078
:10163000781CC7B24A2FEADB00BF14B12046BDE8D0
:10164000F0874FF4D5705749086008204860402063
:1016500088600020C8604FF4806008610846FFF78A
:1016600051FCFEF773FF044624B901204E4908706F
:101670004FF0804900204B490860372048604020E7
:1016800088600020C8604FF4806008610846FFF75A
:1016900039FC3720FEF798FE0446002C4CD135E08B
:1016A00000204049086037204860402088600020C2
:1016B000C8604FF4806008610846FFF723FC3720BC
:1016C000FEF782FE04460CB12046B8E7374849EAE7
:1016D00000003449086029204860402088600020CC
:1016E000C8604FF4806008610846FFF70BFCFEF706
:1016F000C7FE04460CB12046A1E729481030066811
:10170000012080EAD67080F001086D1CB8F1000F4E
:1017100003D14FF6FF708542C2D34FF6FF7085426A
:1017200002D31B2420468AE706F08040061E33D0F1
:1017300002201D4908702FE01DE01D48194908606E
:1017400001204860402088600020C8604FF480601D
:1017500008610846FFF7D6FBFEF792FE04460CB17F
:1017600020466CE70E4810300668012080EAD670EB
:1017700080F001086D1CB8F1000F03D14FF6FF7027
:101780008542DAD34FF6FF70854202D31B242046F0
:1017900055E7032004490870204650E75002002016
:1017A000042C0140680200200C0000200000108082
:1017B0000080FF8010B54FF48070FFF757FB78B3BF
:1017C0004C480078012814D100204B4908600C20B7
:1017D0004860402088600020C8604FF48060086145
:1017E0000846FFF78FFB0C20FEF7EEFD434908701B
:1017F00002E00020414908704148006840F48070D0
:101800003F490860081D00684CF23A3188433C4962
:10181000091D086001203B4908703848007810BD58
:10182000FFE70220FFF722FB78B10220FFF7F4FA6E
:101830003348001D00684CF23A3188433049091D95
:10184000086002202D490870E9E70820FFF70EFB29
:1018500078B10820FFF7E0FA2948001D00684CF233
:101860003A3188432649091D08600420234908703D
:10187000D5E72020FFF7FAFA78B12020FFF7CCFA5D
:101880001F48001D00684CF23A3188431C49091D6D
:101890000860062019490870C1E71020FFF7E6FA32
:1018A00078B11020FFF7B8FA1548001D00684CF217
:1018B0003A3188431249091D086005200F49087014
:1018C000ADE74FF40070FFF7D1FA80B14FF400702C
:1018D000FFF7A2FA0A48001D00684CF23A3188432B
:1018E0000749091D086007200449087097E7002090
:1018F00095E7000015000020680200201600002077
:10190000382C0140170000202DE9F84F814617467A
:1019100098460A9C4FF0000AD3464D464FF0FF36DA
:10192000B9F1000F02D12620BDE8F88F00208649CA
:10193000086086480078022805D10402780A40EA47
:10194000C8574FEA68280020814988604860401ED7
:101950000860012048610020C86008610846FFF760
:101960006BFA79481838006800F0007008B10E2052
:10197000DAE7002C21DDB4F5006F1EDC601E20408C
:10198000D8B9204601F074FD009072480460102020
:1019900070494860402088600020C8604FF4806033
:1019A00008610846FFF7AEFA1020FEF70DFD8246EB
:1019B000BAF1000F03D05046B6E72620B4E70098EE
:1019C000000163498860084644604FF0FF300860BA
:1019D000012048610220C860002008610846FFF726
:1019E0002BFA5C48076011205A4948604020886003
:1019F0000020C8604FF4806008610846FFF782FA53
:101A00001120FEF7E1FC8246BAF1000F01D05046EA
:101A10008AE75148007800285CD1FEF7C0FB18E047
:101A20004FF40040FFF722FA78B14FF0000B06E0C8
:101A300045485430006845F82B000BF1010BBBF111
:101A4000080FF5D32035454E03E00EB904206BE7AF
:101A5000761E3D480830006840F22A6108400028A0
:101A6000DED00820FFF702FA20B10820FFF7D4F9F2
:101A7000042059E70220FFF7F9F920B10220FFF70F
:101A8000CBF9022050E72020FFF7F0F920B1202009
:101A9000FFF7C2F9062047E74FF40070FFF7E6F9B9
:101AA00028B14FF40070FFF7B7F907203CE704E0D6
:101AB00025485430006828602D1D4FF40010FFF7B2
:101AC000D5F90028F4D1FEF76CFB40F2FF50FFF788
:101AD000A3F936E020480078012832D100202049BF
:101AE00008702049087020490870174810300068B5
:101AF00040F22A3108431449103108601248006846
:101B000040F0080010490860002221464846FFF7CF
:101B100015FA00E0761E1548006800F0006038B93C
:101B20001148007820B90E48007808B9002EF1D18C
:101B30000EB90420F8E60A48007810B1084890F879
:101B400000A05046F0E600002C2C01400C000020C4
:101B50007C0200206802002014000020FFFF7F00AC
:101B6000160000201500002017000020006402402D
:101B70002DE9FE4F83460C46914600200290002638
:101B800025462C46700240EAD5566D020BF0030044
:101B9000F0B14FF0000A18E04FF4007000904FEAE7
:101BA0004A20471946EBE0733A461648FFF7ACFE69
:101BB00002904FF4007213495846FEF73AFB0BF5BA
:101BC000007B0AF1010000F0FF0ACA45E4DB16E0E1
:101BD000B9F1010F09D14FF400702A463346009045
:101BE0005846FFF791FE029009E04FF400702A4634
:101BF0003346CDE90009584600F006F802900298F5
:101C0000BDE8FE8F100300202DE9FF5F17469846C0
:101C1000DDE90E464FF00009CA464FF0FF35AC49EA
:101C2000009808600020AB490860AB4800780228A3
:101C300005D10402780A40EAC8574FEA6828002014
:101C4000A64988604860401E086001204861002065
:101C5000C86008610846FFF7EFF89E48183800682A
:101C600000F0007018B10E2004B0BDE8F09F002C09
:101C700021DDB4F5006F1EDC601E2040D8B920467F
:101C800001F0F6FB834696480460102094494860B2
:101C9000402088600020C8604FF4806008610846DA
:101CA000FFF730F91020FEF78FFB8146B9F1000FE6
:101CB00003D04846D8E72620D6E7012E71D906FB87
:101CC00004F0B0F1007F01D32620CDE74FEA0B10DE
:101CD0008249886006FB04F048604FF0FF300860DE
:101CE000012048610220C860002008610846FFF713
:101CF000A3F87B480760122079494860402088603B
:101D00000020C8604FF4806008610846FFF7FAF8C9
:101D10001220FEF759FB8146B9F1000F01D0484669
:101D2000A2E77048007800287ED1FEF738FA1EE05E
:101D30004FF40040FFF79AF8A8B14FF0000A08E00E
:101D40006448543000686249096841F82A000AF181
:101D5000010ABAF1080FF3D35D48006820305C49EE
:101D60000860614D03E00DB904207DE76D1E594800
:101D70000830006840F22A3108400028D8D00820F6
:101D8000FFF774F820B10820FFF746F804206BE74E
:101D90000220FFF76BF828B10220FFF73DF8022080
:101DA00062E792E02020FFF761F820B12020FFF7E2
:101DB00033F8062058E74FF40070FFF757F828B1C2
:101DC0004FF40070FFF728F807204DE70AE041487C
:101DD000543000683E49096808603D480068001DAD
:101DE0003B4908604FF40010FFF740F80028EED19F
:101DF0004FF48070FFF73AF820B33748007838B1D5
:101E000035480078012803D033480078022819D1DA
:101E10000020334908600C20486040208860002082
:101E2000C8604FF4806000E013E008610846FFF7E7
:101E300069F80C20FEF7C8FA8146B9F1000F01D00D
:101E4000484611E7FEF7ADF940F2FF50FEF7E4FF18
:101E50003BE024480078012837D10020234908704E
:101E600001202349087000202249087019481030C9
:101E7000006840F22A3108431649103108601548BD
:101E8000006840F008001349086006FB04F10022D6
:101E90000098FFF753F800E06D1E1748006800F047
:101EA000006008B9002DF7D10DB90420DCE600BFB1
:101EB0001048007818B90D4800780028F8D00B4871
:101EC000007810B1094890F800904846CCE6000030
:101ED000180000202C2C01400C0000207C02002067
:101EE0006802002014000020FFFF7F001600002081
:101EF00015000020170000200064024010B50446C1
:101F00000948046007200849486040208860002094
:101F1000C8604FF4806008610846FEF7F3FF0720B1
:101F2000FEF752FA10BD00006802002001460020B2
:101F3000012900D011B9024B197000E0262070472A
:101F4000140000202DE9FF5F86B017469846149DC7
:101F500000260020059004900024814603908246CC
:101F600002900195DDF818B0DDF818B0BBF1000F54
:101F700003D126200AB0BDE8F09F0020C9490860BF
:101F8000C94988604860401E0860012048610020FF
:101F9000C86008610846FEF74FFFC248183800685D
:101FA00000F0007008B10E20E4E7C0480078022875
:101FB00005D10502780A40EAC8574FEA6828002D83
:101FC0001FDDB5F5006F1CDC681E2840C8B9284627
:101FD00001F04EFA0590B64805601020B4494860FB
:101FE000402088600020C8604FF480600861084687
:101FF000FEF788FF1020FEF7E7F906461EB13046CF
:10200000B8E72620B6E7AB4800880004A849086076
:102010000D204860402088600020C8604FF4806038
:1020200008610846FEF76EFF0D20FEF7CDF9064663
:102030000EB130469EE79B481838006803904FF079
:10204000FF341CE0641E9B48008800049849086027
:102050000D204860402088600020C8604FF48060F8
:1020600008610846FEF74EFF0D20FEF7ADF9064663
:102070000EB130467EE78B4818380068039003980D
:1020800000F4807008B9002CDCD10CB9292071E76C
:1020900087480760182086494860402088600020F3
:1020A000C8604FF4806008610846FEF72BFF1820D7
:1020B000FEF78AF906460EB130465BE700207E49FE
:1020C00008700598000178498860084645604FF01F
:1020D000FF300860012048610020C86008610846A0
:1020E000FEF7AAFE4FF0FF347448007800287ED136
:1020F000FEF755F845E04FF48040FEF7B7FED8B341
:102100000198A0EB0900202822D20198A0EB090039
:1021100000F0030020B90198A0EB0900800804E05A
:102120000198A0EB09008008401C02904FF0000AC3
:102130000AE05C495431DBF8000008600AF1010A4A
:102140000BF1040B09F1040902988245F1D310E068
:102150004FF0000A06E05BF82A005249543108604B
:102160000AF1010ABAF1080FF5D30BF1200B09F1BE
:1021700020096FF0404404E0FFE70CB90420F9E6C1
:10218000641E48480830006840F21A610840002880
:10219000B1D00820FEF76AFE20B10820FEF73CFE11
:1021A0000420E7E60220FEF761FE20B10220FEF7E0
:1021B00033FE0220DEE61020FEF758FE20B110208C
:1021C000FEF72AFE0520D5E64FF40070FEF74EFE1E
:1021D00030B14FF40070FEF71FFE0720CAE606E09C
:1021E000FDF7DFFF40F2FF50FEF716FE41E03348F7
:1021F000007801283DD10020314908702E4908702F
:102200003049087027481030006840F21A310843FE
:10221000244910310860402229460698FEF78EFEB8
:102220002048006840F008001E49086000E0641E75
:102230002548006800F0006008B9002CF7D11CB9EF
:10224000FFF77AF8042095E64FF0FF3400E0641EB3
:102250001C48007820B91A48007808B9002CF6D13B
:102260000CB9042086E61648007810B114480078AE
:1022700080E640F2FF50FEF7CFFD04A8FEF726FCF3
:10228000064603E004A8FEF721FC06463EB99DF889
:1022900010000728F6D09DF810000628F2D030462E
:1022A00068E600002C2C01407C0200200C0000207D
:1022B00068020020100000201500002014000020FB
:1022C0001600002017000020006402402DE9FE4F98
:1022D00081460C46924600200290002625462C4658
:1022E000700240EAD5566D0209F00300F0B14FF0DC
:1022F000000B18E04FF4007249461948FDF799FFAA
:102300004FF4007000904FEA4B20471946EBE07302
:102310003A461348FFF716FE029009F500790BF1D3
:10232000010000F0FF0BD345E4DB16E0BAF1010F2A
:1023300009D14FF400702A46334600904846FFF713
:1023400001FE029009E04FF400702A463346CDE9C1
:10235000000A484600F006F802900298BDE8FE8F99
:10236000100300202DE9FF5F84B0DDE9124700264D
:10237000002003900290002580468146019007FBD3
:1023800004FBDDF810A0DDF810A0BAF1000F03D1B6
:10239000262008B0BDE8F09F0020DC490860DC4939
:1023A00088604860401E0860012048610020C860C5
:1023B00008610846FEF740FDD4481838006800F070
:1023C000007008B10E20E4E7D2480078022808D156
:1023D0000402DDE90601400A40EAC1504912CDE994
:1023E0000601002C1FDDB4F5006F1CDC601E2040D0
:1023F000C8B9204601F03CF80390C748046010209B
:10240000C5494860402088600020C8604FF4806063
:1024100008610846FEF776FD1020FDF7D5FF064659
:102420001EB13046B5E72620B3E7012F6FD907FB71
:1024300004F0B0F1007F01D32620AAE7B548007868
:1024400038B1B4480078012803D0B2480078022897
:102450002DD1B24800880004AF4908603720486099
:10246000402088600020C8604FF480600861084602
:10247000FEF748FD3720FDF7A7FF06460EB13046B0
:1024800087E7A54807601720A34948604020886077
:102490000020C8604FF4806008610846FEF732FDF6
:1024A0001720FDF791FF06460EB1304671E79A49B5
:1024B0000698086019204860402088600020C860A5
:1024C0004FF4806008610846FEF71CFD1920FDF7F7
:1024D0007BFF06460EB130465BE7039800018C494E
:1024E000886007FB04F048604FF0FF30086001206F
:1024F00048610020C86008610846FEF79DFC8848D6
:102500000078002874D1451EFDF749FE42E0E4E062
:102510004FF48040FEF7AAFCB8B3ABEB08002028CC
:102520001FD2ABEB080000F0030018B9ABEB0800BA
:10253000800803E0ABEB08008008401C01904FF0DE
:1025400000090AE071495431DAF80000086009F125
:1025500001090AF1040A08F1040801988145F1D340
:1025600010E04FF0000906E05AF82900674954319D
:10257000086009F10109B9F1080FF5D30AF1200A41
:1025800008F120086FF0404504E0FFE70DB9042092
:10259000FFE66D1E5D480830006840F21A310840C1
:1025A0000028B5D00820FEF761FC20B10820FEF716
:1025B00033FC0420EDE60220FEF758FC20B1022097
:1025C000FEF72AFC0220E4E61020FEF74FFC20B1C3
:1025D0001020FEF721FC0520DBE64FF40070FEF72B
:1025E00045FC30B14FF40070FEF716FC0720D0E632
:1025F0002CE04FF48070FEF739FC00B345480078BA
:1026000038B144480078012803D0424800780228B5
:1026100015D10020404908600C20486040208860A7
:102620000020C8604FF4806008610846FEF76AFC2D
:102630000C20FDF7C9FE06460EB13046A9E6FDF7AF
:10264000B0FD40F2FF50FEF7E7FB46E0344800786B
:10265000012842D100203349087001203249087016
:1026600000203249087029481030006840F21A31C1
:10267000084326491031086007FB04F14022049802
:10268000FEF75CFC2148006840F008001F49086024
:102690004FF0FF3500E06D1E2548006800F0006037
:1026A00008B9002DF7D11DB9FEF746FE042070E6EB
:1026B0004FF0FF3500E06D1E1C48007820B9194826
:1026C000007808B9002DF6D10DB9042061E615484F
:1026D000007810B1134800785BE640F2FF50FEF737
:1026E0009BFB02A8FEF7F2F9064603E002A8FEF7FC
:1026F000EDF906463EB99DF808000728F6D09DF88A
:1027000008000628F2D0304643E600002C2C014099
:102710007C0200200C000020680200201000002035
:1027200014000020160000201500002017000020D3
:1027300000640240704700000CB50020019000903A
:102740003448006840F480303249086000BF3148A6
:10275000006800F4003000900198401C019000983F
:1027600018B90198B0F5A04FF1D12A48006800F4DB
:10277000003010B10120009001E00020009000988E
:10278000012846D123484030006840F0805021495C
:10279000403108602048006840F440401E4908600D
:1027A0001C48083000681B4908310860084600686A
:1027B00040F4004008600846006840F4A0500860FB
:1027C0001648091F0860081F006840F08070091F44
:1027D000086000BF0F48006800F000700028F9D0C2
:1027E00040F205700E4908600A480830006820F081
:1027F00003000849083108600846006840F00200FC
:10280000086000BF03480830006800F00C0008288A
:10281000F8D10CBD00380240007000400854400759
:10282000003C0240042808D14FF0E021096941F042
:1028300004014FF0E022116107E04FF0E021096947
:1028400021F004014FF0E022116170477047000051
:1028500010B51548006840F470001349086013482B
:10286000006840F001001149086000200F4908315C
:1028700008600E4800680E4908400C4908600D4881
:10288000091D0860081F006820F48020091F0860E7
:10289000002006490C310860FFF74EFF4FF0006042
:1028A00001498039086010BD88ED00E00038024021
:1028B000FFFFF6FE1030002410B50121284800F07B
:1028C000C3F8012847D127480088401C25490880C3
:1028D00008460088B0F5FA7F07DD0020088022480E
:1028E000007820F001002049087020480088401C32
:1028F0001E49088008460088B0F5FA6F07DD002001
:1029000008801948007820F002001749087018481C
:102910000088401C1649088008460088B0F5FA7FF8
:1029200007DD002008801048007820F004000E49E0
:10293000087010480088401C0E490880084600882E
:10294000B0F57A7F07DD002008800748007820F086
:102950000800054908700121014800F05AF810BD2F
:1029600000040040040000200000002002000020BD
:1029700006000020080000207FB505460C46012116
:102980000220FEF74FF90295ADF804400020ADF8A3
:102990000600ADF80C0001A90D4800F073F8012203
:1029A00011460B4800F061F80121094800F034F8A5
:1029B0001D208DF8000001208DF8010003208DF806
:1029C000020001208DF803006846FEF7D3F87FBDB2
:1029D0000004004010B501210A4800F035F8012834
:1029E0000AD10949086980470021064800F048F8E3
:1029F0006421044800F042F80121024800F009F87F
:102A000010BD00000008004030010020CA430282CF
:102A10007047CA430282704721B1028842F0010226
:102A2000028004E002884FF6FE731A40028070476D
:102A30000146486A704702460020138A0B400BB1DA
:102A4000012000E00020704730B50246002000233E
:102A50000024158A05EA0103958905EA010413B1EA
:102A60000CB1012000E0002030BD1AB183890B4376
:102A7000838102E083898B4383817047C162704701
:102A80004162704700220288184B98420ED0184BC2
:102A900098420BD0B0F1804F08D0164B984205D029
:102AA000154B984202D0154B984204D14FF68F73C4
:102AB0001A404B881A43124B984207D0114B984248
:102AC00004D04FF6FF431A400B891A4302804B682B
:102AD000C3620B880385054B984202D0044B984291
:102AE00001D18B7A03860123838270470000014065
:102AF000000401400004004000080040000C0040B9
:102B000000100040001400407FB504460D4601212E
:102B10000420FEF787F8ADF800500020ADF8020061
:102B20000194ADF8080069460D48FFF7ABFF01229C
:102B300011460B48FFF799FF01210948FFF76CFF89
:102B40001E208DF80C0003208DF80D008DF80E006E
:102B500001208DF80F0003A8FEF70CF87FBD0000E0
:102B60000008004010B540F225511D4800F04AF819
:102B700010B31B4800F000F9C4B21A48008800F4F2
:102B80000040C8B91748008800F4804060B10A2CA2
:102B900003D000201349088020E01248008840F448
:102BA00000401049088019E00D2C06D10D4800881E
:102BB00040F480400B49088010E00A480088C0F3C8
:102BC0000D0009490C5407480088401C054908803D
:102BD00008460088C72801DD0020088010BD0000DD
:102BE000001001402C0200205806002021B18289EB
:102BF00042F40052828104E082894DF6FF731A404C
:102C00008281704770B50246002400230025002011
:102C100040F66A16B14200D100BFC1F3421501F07F
:102C20001F03012606FA03F3012D02D196893340D2
:102C300006E0022D02D1168A334001E0968A334025
:102C40000C12012606FA04F41688344013B10CB1B4
:102C5000012000E0002070BDF0B5034600240026EE
:102C60000025002040F66A17B94200D100BF18467F
:102C7000C1F3421401F01F06012707FA06F5012CE3
:102C800001D10C3004E0022C01D1103000E01430EE
:102C90001AB107682F43076002E00768AF43076077
:102CA000F0BD00002DE9FF4705460E460024A14671
:102CB00000BFA046B08900B100BF2C8A24F4405464
:102CC000F08804432C82AC8941F20C608443B088C4
:102CD00031890843718908430443AC81AC8A24F4E8
:102CE0004074B0890443AC826846FDF7CBFF2048AE
:102CF000854202D01F48854202D1DDF80C9001E0E8
:102D0000DDF80890A88900F4004040B109EBC90043
:102D100000EB091031684900B0FBF1F707E009EB5F
:102D2000C90000EB091031688900B0FBF1F764209D
:102D3000B7FBF0F004012009642101FB1078A88999
:102D400000F4004040B1322000EBC800B0FBF1F0CD
:102D500000F00700044308E0322000EB0810642173
:102D6000B0FBF1F000F00F0004432C81BDE8FF87B9
:102D7000001001400014014001468888C0F308009B
:102D8000704700BFFEE700000FB4054B10B503A964
:102D9000044A029800F02CF810BC5DF814FB000007
:102DA000995C0008280200200FB4084B10B504A954
:102DB00002AA039800F01CF8044602A9002000F0C3
:102DC00048FA204610BC5DF814FB0000533200089E
:102DD00002E008C8121F08C1002AFAD170477047E4
:102DE000002001E001C1121F002AFBD17047000042
:102DF0002DE9FF4F8DB00F460546002606E0252839
:102E00000BD0DDE90F1290476D1C761C2878002846
:102E1000F5D111B03046BDE8F08F0024A246A1469E
:102E20000122EC4900E0044315F8013F203B02FA7F
:102E300003F00842F7D128782A2810D06FF02F022B
:102E40002878A0F13001092914D80AEB8A0102EB95
:102E5000410144F0020400EB010A6D1CF0E701CFD0
:102E60005FEA000A03D544F40054CAF1000A44F0B2
:102E700002046D1C28782E2817D115F8010F44F094
:102E800004042A280ED06FF02F022878A0F1300118
:102E900009290AD809EB890102EB410100EB01097C
:102EA0006D1CF2E757F8049B6D1C28786C280FD036
:102EB00006DC4C2817D068280DD06A2814D104E00D
:102EC000742810D07A280FD10DE044F400140AE0E1
:102ED00044F4801401E044F440146978814202D142
:102EE00004F580146D1C6D1C2A786E2A1FD00CDC32
:102EF000632A31D004DC002A8BD0582A11D1A3E0F8
:102F0000642A68D0692A0CD165E0732A2ED004DCCB
:102F10006F2A73D0702A04D19BE0752A6FD0782A6B
:102F20006ED01046DDE90F129047761C50E1C4F3D5
:102F30000250022806D0032809D0042801CF09D066
:102F4000066045E101CFF117C0E9006140E101CF22
:102F500006803DE106703BE117F8040B8DF8000098
:102F600000208DF80100EB46012003E057F804BB78
:102F70004FF0FF3061074FF0000102D40DE008F17F
:102F80000101884649450FDA8045F8DB1BF8081037
:102F90000029F4D108E008F1010188468142FADBFA
:102FA0001BF808100029F6D1DDE90F23AAEB080071
:102FB0008146214600F036F9304400EB080604E073
:102FC000DDE90F121BF8010B9047B8F10108F7D2A9
:102FD00021464846F7E00A21C4F302534FF0000BA4
:102FE0000891022B04D001CFC117032B09D00AE0AE
:102FF000FF1D27F00707F7E8020108E032E01FE0B5
:1030000020E000B2C117042B01D140B2C117031E4A
:1030100071F1000307DA4FF0000CD0EB0C006CEB01
:1030200001012D2302E0230504D52B238DF8243044
:10303000012303E0E30701D02023F7E7984658E097
:103040000A2110E010210EE010204FF0000B089034
:103050000CE010214FF0000B44F004044FF008097D
:10306000089103E008214FF0000B0891C4F30253CC
:10307000022B04D001CF0021032B06D006E0FF1D58
:1030800027F00707F7E8020103E080B2042B00D124
:10309000C0B24FF0000823072BD5702A07D0DDF807
:1030A00020C08CF0100C5CEA0B0C05D00EE0402325
:1030B0008DF82430012308E050EA010306D03023C4
:1030C0008DF824308DF8252002239846DDF820C0A5
:1030D0008CF0080C5CEA0B0C0BD150EA010301D117
:1030E000630706D530238DF824304FF00108A9F18D
:1030F0000109582A04D038A20B9208AA0A920BE0C0
:103100003AA2F9E75B46089AFDF7ACF80B9B9B5C8B
:103110000A9A521E0A92137050EA0102F2D10A98DA
:10312000ADEB000000F1200B600702D524F48034E1
:1031300001E04FF00109D94502DDA9EB0B0000E0E9
:10314000002000EB0B0141440890AAEB010AE003C8
:1031500006D4DDE90F232146504600F063F806440B
:103160004FF0000908E009A911F80900DDE90F1284
:10317000904709F10109761CC145F4DBE0030CD549
:10318000DDE90F232146504600F04CF8064404E0E8
:10319000DDE90F1230209047761C0899481E0890F0
:1031A0000029F5DC08E00A980A990078491C0A9180
:1031B000DDE90F129047761CBBF10001ABF1010B6A
:1031C000F1DC21465046DDE90F2300F019F80644F2
:1031D0006D1C1BE609280100303132333435363797
:1031E0003839616263646566000000003031323353
:1031F00034353637383941424344454600000000F3
:103200002DE9F041044600251E461746880404D4E3
:1032100005E039462020B0476D1C641EF9D52846CC
:10322000BDE8F0812DE9F041044600251E46904698
:10323000C80301D5302700E02027880404D505E025
:1032400041463846B0476D1C641EF9D52846BDE896
:10325000F0810A68531C0B601070704710B54FF472
:10326000A060FDF7C3FCA82000F0B2FB00F024F83A
:1032700042F2CF010920FFF77FFB4FF4E13003F06A
:1032800003FF00F033F8542004F030FB00F0D6FFC9
:1032900010BD000006480078064908600448007820
:1032A00008B9012000E000200149087070470000C3
:1032B00001000020B40241421CB501210420FDF7A9
:1032C000A1FC4FF40050009001208DF80400002074
:1032D0008DF806008DF8050001208DF8070069467D
:1032E0000148FDF72BFB1CBD000802401CB5012165
:1032F0000220FDF787FC0320009001208DF80400D8
:1033000000208DF8060003208DF8050001208DF8BF
:10331000070069460348FDF711FB03210148FDF74B
:1033200078FB1CBD0004024070B504460D46002029
:10333000E070401E20632946204603F0A5FB08B13B
:10334000042070BD04F2322002F0B6FE4AF6552188
:10335000884201D00320F4E700BF94F83400E92844
:1033600007D094F83400EB2803D094F83400E82810
:1033700011D1032209A104F16A0002F031FF08B95A
:103380000020DEE7052206A104F1860002F028FFF6
:1033900008B90020D5E70220D3E7000046415400D9
:1033A0004641543332000000024600E0521C1078BF
:1033B00010B110788842F9D1107870470246891E02
:1033C0009069801E884201D8002070475389D06AD6
:1033D00003FB0100F9E700002DE9F04780460C46A9
:1033E00004F11A0002F068FE10B10020BDE8F08779
:1033F000207800F03F00401E00EB800101EBC0058B
:103400004FF00109002621E01849895D081902F0F2
:1034100053FE0746B9F1000F11D0FF2D0BD83846E7
:1034200002F056FB824629466D1C38F8110002F066
:103430004FFB824501D00020D8E7B94605E04FF6A2
:10344000FF70874201D00020D0E7761C0D2EDBD321
:10345000207800F0400038B1B9F1000F04D038F8FE
:10346000150008B10020C1E70120BFE76C82000809
:103470000146002002E04910421CD0B20129FAD1D5
:1034800070472DE9F04782468846DAF80040B8F1E7
:10349000000F06D1276917B1A069B84215D80127D6
:1034A00013E04146504602F093FC0546022D02D23D
:1034B0000120BDE8F087681C08B92846F9E7A06933
:1034C000A84201D92846F4E74746606908B90020B8
:1034D000EFE70026474518D17E1CA069B04200D80E
:1034E00002263146504602F073FC0546012D01D0FC
:1034F000681C08B92846DCE73DB12569022D03D3D5
:10350000A069A84200D92F460026E6B93E4600BF72
:10351000761CA069B04204D80226BE4201D9002020
:10352000C7E73146504602F053FC054605B909E0AD
:10353000012D01D0681C08B92846BAE7BE42E7D180
:103540000020B6E700BF4FF0FF323146204603F0BF
:10355000FBFA8146B9F1000F08D1B8F1000F05D090
:1035600032464146204603F0EFFA8146B9F1000F9A
:103570000DD12661D4E90510801E814202D8606910
:10358000401E6061207940F00100207107E0B9F130
:10359000010F02D14FF0FF3000E001200646304617
:1035A00087E700002DE9F34F85B081460698006853
:1035B0000290D9F80000D0F80CA0002500BF02A8A6
:1035C00003F03BFD83460BF1010018B9062007B05C
:1035D000BDE8F08FBBF5803F05D34FEA1B4228467C
:1035E0006D1C2AF810201FFA8BF4202C03DB2F2CE3
:1035F00001D05C2C00D111E0802C06DA214679A0A4
:10360000FFF7D2FE08B10620E1E7FF2D01D3062027
:10361000DDE728466D1C2AF81040D0E700BF202CBB
:1036200001DA04260CE0002602E00298401C029019
:10363000029800782F28F8D0029800785C28F4D0FF
:1036400002990698016008E0681E3AF81040202CA4
:1036500002D02E2C00D002E06D1E002DF4D100BF50
:1036600000202AF815000DB90620B0E7002700E079
:103670007F1C3AF817002028FAD01FB93AF8170033
:103680002E2801D146F0030600E06D1E25B1681E0C
:103690003AF810002E28F8D10B22202109F1200041
:1036A00002F0BDFD4FF00008CDF810800820039017
:1036B00000BF38467F1C3AF8104004B966E0202C61
:1036C00003D02E2C04D1AF4202D046F00306F0E71F
:1036D000DDE90310884201D2AF4216D103980B28CE
:1036E00002D146F0030651E0AF4201D046F0030696
:1036F000AF4200D94AE02F46082004900B200390E7
:103700004FEA88604FEA1068D3E7802C0ADB46F066
:103710000206204602F0DCF94FF46A71019002F0D3
:103720009DF90446FF2C11DD0398401E0499884240
:1037300004D846F0030603980490BAE722120498CE
:10374000411C049109F120010A5418E024B12146DA
:1037500027A0FFF729FE18B15F2446F003060EE00C
:10376000412C03DB5A2C01DC48F00208612C06DBFB
:103770007A2C04DC48F00108A4F1200084B20498FB
:10378000411C049109F120010C5492E700BF99F803
:103790002000E52802D1052089F820000398082898
:1037A00003D14FEA88604FEA106808F00C000C283B
:1037B00003D008F00300032801D146F0020606F00A
:1037C000020048B908F0010008B146F0100608F000
:1037D000040008B146F008062B2000F8096000201C
:1037E000F5E60000222A3A3C3E3F7C7F00000000C4
:1037F0002B2C3B3D5B5D00002DE9FF4F85B09A46C9
:1038000003AA0121059800F07BFC18B1012009B042
:10381000BDE8F08FDDF80C904FF03F08082701E07D
:103820007806070E37B1B9FBF7F0B0FBF8F0B0F54A
:10383000806FF5D807B9FF274FF40072002150467A
:1038400002F0EDFC0AF5DF764FF0000B444669E02C
:10385000069850F82B50642D07D801D1484603E054
:103860006420B9FBF0F0684305466019484501D86B
:10387000601901D3A9EB040505B959E0214606F109
:10388000080003F04BFB294606F10C0003F046FB51
:1038900007983071B4FBF8F0B0FBF7F00490B4FB7C
:1038A000F8F0B0FBF7F107FB1100C0B20290B4FBD7
:1038B000F8F008FB1040401CC0B2019002987070F4
:1038C000C021049801EA900001990843B07004985F
:1038D000F0706019401EB0FBF8F0B0FBF7F00490F8
:1038E0006019401EB0FBF8F0B0FBF7F107FB1100C8
:1038F000C0B202906019401EB0FBF8F108FB110045
:10390000401CC0B2019002987071C021049801EA75
:10391000900001990843B0710498F07110360BF1D2
:10392000010B2C44BBF1040F02D20CB14C458FD3D8
:1039300000BF4AF655210AF5FF7003F0FBFA012398
:1039400000225146059800F047FC08B101205EE7CF
:1039500000205CE701460B48007888420FDC0948EC
:103960004078884201DB0120704706488078884211
:1039700005DC0448C078884201DB0120F4E7002020
:10398000F2E7000079820008014610480079884279
:1039900019DC0E484079884201DB012070470B4852
:1039A0008079884205DC0948C079884201DB012022
:1039B000F4E70648007A884205DC0448407A8842E9
:1039C00001DB0120EAE70020E8E700007982000837
:1039D00010B504466FF00400FEF724FFE11704EB76
:1039E0005171C1F3C701074A11701046007800EB0E
:1039F0004001C1EBC0104FF6FF7101EAC00002495F
:103A0000088010BD240200202602002070B5044664
:103A10004FF4077094FBF0F0C6B24FF4077094FBBC
:103A2000F0F100FB114085B205E04FF4077000F0A3
:103A30002FF8701EC6B2002EF7D115B1284600F03F
:103A400027F870BD0146114A12784A434FF0E0232F
:103A50005A6100229A611A46126942F001021A6103
:103A600000BF4FF0E022106900F001021AB100F42B
:103A70008032002AF5D04FF0E022126922F00102D4
:103A80004FF0E0231A6100229A617047240200205F
:103A90000146114A12884A434FF0E0235A6100223E
:103AA0009A611A46126942F001021A6100BF4FF092
:103AB000E022106900F001021AB100F48032002AFD
:103AC000F5D04FF0E022126922F001024FF0E0231E
:103AD0001A6100229A617047260200202DE9F04108
:103AE00004460E46D4F800800021204600F0A6FAD5
:103AF0000546EDB9002700BF4046A16902F0C4FFAA
:103B0000054605B113E0E0690078E52802D0E069D8
:103B1000007820B9781C0746B04201D107E00027A1
:103B20000121204600F0EBF80546002DE4D000BF4F
:103B3000042D00D107252846BDE8F0812DE9F04786
:103B400004468946204603F053FA10B10120BDE82F
:103B5000F08749462046FFF731FC074627634FF4BC
:103B60000072002104F1340002F059FB60894FF427
:103B70000041B1EB402F01D8084601E060894002C6
:103B800006464FF0000800E07608B6F5007F05D93C
:103B9000304601F022FFB0F10008F5D0B6F5007F05
:103BA00017D932460021404602F039FB760A00253B
:103BB00000E035446089A84207D97A196078334615
:103BC000414600F009FB0028F3D0404601F00BFF0E
:103BD00010E004F134080126002500E03544608936
:103BE000A84207D97A1960783346414600F0F4FAC2
:103BF0000028F3D06089A84201D00120A7E7002067
:103C0000A5E72DE9F0470446D4F800A0002120469E
:103C100000F014FA064616B13046BDE8F0874FF0C2
:103C2000FF08C1464FF0FF30E06200BF5046A16977
:103C300002F02AFF064606B15EE0E06905780DB99C
:103C4000042659E0E069C07A00F03F07A771E52D2E
:103C500004D007F0080038B10F2F05D04FF0FF084F
:103C60004FF0FF30E06240E00F2F22D12B20005DAB
:103C700000F0400098BB05F0400038B1E06990F8D2
:103C80000D9005F0BF05A8462069E06245450CD1BE
:103C9000E069407B484508D1E169DAF80C00FFF79C
:103CA0009BFB10B1A8F1010000E0FF2000F0FF082D
:103CB0001BE0B8F1000F05D1E06903F041F9484578
:103CC00000D119E02B20005D00F0010040B90B226B
:103CD00004F12001E06902F083FA08B90CE004E085
:103CE0004FF0FF084FF0FF30E0620021204600F067
:103CF00006F80646002E99D000BF30468DE72DE924
:103D0000F041044688462768206900F12006B6F590
:103D1000001F01D30020A061A06910B90420BDE8F4
:103D2000F081C6F30800002845D1A069401CA061BD
:103D3000606938B93889B0EB561F3CD80020A061C3
:103D40000420ECE77889401E00EA562098BB204604
:103D5000616902F03DF80546012D01D80220DEE739
:103D6000681C08B90120DAE7B869A8421DD8B8F183
:103D7000000F03D10020A0610420D0E72046616934
:103D8000FFF77FFB05460DB90720C8E7012D01D1DC
:103D90000220C4E7681C08B90120C0E7294638465C
:103DA000FFF7CCFE08B10120B9E765612946384626
:103DB000FFF704FBA0612661C6F3080107F1340098
:103DC0000844E0610020AAE72DE9F05F0446894637
:103DD0000426D4F800A04FF0FF08C34653E0504635
:103DE000A16902F051FE064606B14FE0E069057890
:103DF0000DB904264AE0E069C07A00F03F07A771D8
:103E0000E52D0AD02E2D08D027F02000082801D15A
:103E1000012000E00020484502D04FF0FF082BE0D1
:103E20000F2F1DD105F0400038B1E06990F80DB0BA
:103E300005F0BF05A8462069E06245450CD1E06960
:103E4000407B584508D1E169DAF80C0002F036FEF3
:103E500010B1A8F1010000E0FF2000F0FF080BE026
:103E6000B8F1000F04D1E06903F06AF8584502D0B8
:103E70004FF0FF30E06209E000212046FFF73FFFEE
:103E8000064606B102E0A0690028A8D100BF0EB125
:103E90000020A0613046BDE8F09F2DE9FE4F0446AA
:103EA00026682B20005D00F0A00010B10620BDE8C0
:103EB000FE8F4FF0000901E009F10109F06830F8C8
:103EC00019000028F8D10C2204F12001684602F004
:103ED00099F99DF80B0000F0010028B340212B2038
:103EE00001554FF001080EE04346694604F12000F9
:103EF000F26801F007FF2046FFF783FE054605B193
:103F000004E008F10108B8F1640FEDD300BFB8F187
:103F1000640F01D10720CAE7042D01D02846C6E767
:103F20009DF80B102B2001559DF80B0000F00200AE
:103F300030B109F10C000D21B0FBF1F0401C00E0A4
:103F40000120074639462046FFF7C8FD05464DBB10
:103F5000781E071E26D02069A0EB4711204600F0EE
:103F60006DF80546F5B904F1200002F0E9FF82463C
:103F700000BF3046A16902F087FD054605B110E09B
:103F8000FAB2E1695346F06802F07AFE0120F0705F
:103F900000212046FFF7B3FE054615B9781E071E1F
:103FA000E7D100BFC5B93046A16902F06DFD0546F5
:103FB00095B920220021E06902F031F90B2204F1C9
:103FC0002001E06902F01EF92B20005D00F01800CE
:103FD000E16908730120F070284668E72DE9F04197
:103FE000044626682769E06A401C08B9002003E0FF
:103FF0002046E16A00F022F80546E5B900BF3046E8
:10400000A16902F041FD054605B110E000BFE520C1
:10401000E16908700120F0702069B84200D306E021
:1040200000212046FFF76BFE0546002DE7D000BFBC
:10403000042D00D102252846BDE8F0812DE9F0418C
:1040400004460D462668B5F5001F02D205F01F0094
:1040500010B10220BDE8F0812561A7681FB9307852
:10406000032800DBB76A47B93089B0EB551F01D888
:104070000220EFE7B06AA0611CE070894FEA402897
:1040800011E03946204601F0A3FE0746781C08B926
:104090000120DFE7022F02D3B069B84201D8022025
:1040A000D8E7A5EB08054545EBD239463046FFF782
:1040B00085F9A0616761A06908B90220CAE7A06913
:1040C00000EB5520A061C5F3080106F13400084457
:1040D000E0610020BEE770B50446002514B1012C54
:1040E00005D103E0FDF728F9054602E001E00125CE
:1040F00000BF00BF0DB1012070BD0020FCE7000033
:104100002DE9F04706468946154646BBB9F1000F32
:1041100009D0B9F1010F13D0B9F1020F05D0B9F1EF
:10412000030F19D106E0002418E04FF40070286056
:10413000002413E00D48B0F85000288000240DE062
:104140000A484FF400720023D0E912713846FCF798
:104150003FF82860002401E0042400BF02E0012EA3
:1041600000D001242046BDE8F0870000B8020020FE
:104170002DE9F04105460E4617461C464FF0000853
:1041800014B90420BDE8F08115B1012D16D112E05B
:10419000E2B239463046FDF7EBFC804607E0FDF71A
:1041A000CBF8E2B239463046FDF7E2FC8046B8F182
:1041B000000FF4D105E04FF0000802E04FF00108D5
:1041C00000BF00BFB8F1000F01D10020DAE70120E5
:1041D000D8E70146002070472DE9F04105460E461C
:1041E00017461C464FF0000814B90420BDE8F081C2
:1041F00015B1012D16D112E0E2B239463046FEF774
:1042000065F8804607E0FDF797F8E2B23946304698
:10421000FEF75CF88046B8F1000FF4D105E04FF0EE
:10422000000802E04FF0010800BF00BFB8F1000F26
:1042300001D10020DAE70120D8E7000010B5002402
:104240000DE04FF40D7001F095FF174941F824007F
:10425000084650F8240000B903E0601CC4B2012CE9
:10426000EFDB00BF4FF40A7001F084FF0F490860D4
:104270004FF40A7001F07EFF0D4908604FF40070A2
:1042800001F078FF0B490860012C0AD1074800684B
:1042900038B10748006820B10846006808B100201E
:1042A00010BD0120FCE700002400002028000020B1
:1042B0002C0000203800002038B50546284601F0C3
:1042C000EBF904463CB96946284603F0AFFF0446C3
:1042D0000CB900202860204638BD38B50446694630
:1042E000204603F0A3FF05460DB9002020602846B4
:1042F00038BD2DE9F74F86B088469246002205A9C1
:1043000006A802F06DFA8146B9F1000F68D1059850
:10431000CAF800000598D0E90510801E814204D833
:1043200005984069C8F800005AE000250598007813
:1043300001281BD102260598019000BF314601A833
:1043400001F046FD0746781C10B94FF001090CE05A
:10435000012F02D14FF0020907E007B96D1C701C54
:104360000646059989698842E8D32FE00598866951
:104370000598D0F824B0002400BF54B959460BF179
:10438000010B059802F080FB8146B9F1000F00D0C7
:104390001BE005980078022808D1059934310819E6
:1043A00001F08AFE00B96D1CA41C09E005993431A6
:1043B000081901F075FE20F0704000B96D1C241D35
:1043C000C4F30804701E061ED7D100BFC8F8005001
:1043D000059845610598007940F00100059908713C
:1043E000484609B0BDE8F08F2DE9F7438EB00D4681
:1043F0001746002201A90EA802F0F2F90446002C8B
:1044000031D1002D2FD0019802900020049000217E
:1044100002A8FFF713FE044604BB012102A8FFF720
:10442000D3FC0446D4B90026B04609E0404608F162
:104430000108099A12F800903046761C05F80090A1
:10444000B8F10B0FF2D300BF0020A85506B904E065
:10445000701E0646285C2028F6D000BF042C02D12E
:10446000002028700024CCB9C7B10198016A02F07D
:104470000BFB044694B901980078032803D0042864
:1044800003D1642603E0432601E0272600BF00BFD6
:1044900001993431881901F003FE3860204611B0CB
:1044A000BDE8F0832DE9FC4780460C469146002587
:1044B0004646641E13E06B46012201A9484600F0FF
:1044C000B1FE0098012800D00BE09DF8047000BFF9
:1044D00006F8017B6D1C0A2F00D102E000BFA54247
:1044E000E9DB00BF0020307015B14046BDE8FC8715
:1044F0000020FBE72DE9F84F04460E4669462046AA
:1045000003F094FE8246BAF1000F01D194F811A095
:10451000BAF1000F02D05046BDE8F88FE068B04213
:1045200004D2207C00F0020000B9E668D4F81490B0
:104530004FF00008C4F81480002E68D0009840891D
:104540004702B9F1000F11D0701EB0FBF7F1A9F1CD
:104550000100B0FBF7F0814208D3A9F10100791EF8
:10456000884360616069361AA56912E0A5687DB963
:1045700000212046FEF785FF0546012D02D10220CD
:104580006074C9E7681C10B901206074C4E7A560B5
:10459000A561002D3BD024E0F61B606938446061C2
:1045A000207C00F0020040B100BF29462046FEF703
:1045B00068FF054635B9002615E02946204601F07A
:1045C00007FC0546681C10B901206074A4E7012DA2
:1045D00003D900988069A84202D8022060749BE742
:1045E000A561BE42D8D800BF606930446061C6F39F
:1045F000080060B129460098FEF7E0FE8046B8F159
:10460000000F02D10220607486E708EB5628E168AB
:104610006069884205D96069E060207C40F0400014
:104620002074A08AC0F3080020B3E069404521D07F
:10463000207C00F0800078B1E2690099487801237D
:1046400004F12801FFF7C8FD10B10120607463E791
:10465000207C00F07F0020740099487801234246B6
:1046600004F12801FFF784FD10B10120607453E7C5
:10467000C4F81C8050464FE72DE9F14191B0022269
:10468000694611A802F0ACF80446002C7BD10098D2
:1046900005904FF4007001F0A0F906461EB91120F4
:1046A00012B0BDE8F0810098C66005A8119901F02C
:1046B000A3FA044604B9082400BF042C69D1009869
:1046C0000190002101A8FEF7DCFE0546002405B993
:1046D0000724012D00D10224681C00B9012401F037
:1046E000E7FB8046BCBB29460098FFF727FA044643
:1046F0008CBB0B2220210098343001F090FD2E203D
:10470000009981F834001021009880F83F1041464C
:1047100000984A3002F002FC2A4600993431009891
:1047200002F0EAFB2022009934310098543001F065
:1047300069FD2E21009880F85510079F3A46009990
:104740005431009802F0D8FB01200099C87005A8E8
:10475000FFF7A3FB0446BCB90C9901F116004146D2
:1047600002F0DCFB2A460C99009802F0C5FB1020F1
:104770000C99C87201200099C8701CB9009802F009
:10478000EFFB044605E007E00022294601A802F0FD
:104790001DFB304601F027F9204681E72DE9FF4F48
:1047A00099B00F46154619A801F040FC03900398F4
:1047B000002803DA0B201DB0BDE8F08FFC490398F8
:1047C00051F8200028B10021F94A039852F820003E
:1047D00001700398C0B216900020159007B9F54FEC
:1047E0001698FFF778FC0290029800F0010008B1DB
:1047F0000320E0E7029800F0040008B10A20DAE79D
:1048000078681390139838B913AA03211698FFF704
:1048100077FC08B101201390139840B11398B0F5BC
:10482000004F04D81398401E1399084008B1012086
:1048300013904FF40079387800F00F0018907878D2
:10484000012804DB7878022801DC787800E0012078
:104850000690B96889B1B968B1F5004F0DD84846DE
:104860004FEAE97109EBD1614911BA68B2FBF1F382
:1048700001FB132109B9B96801E04FF400710591FA
:10488000F868B0F1807F05D8F868411E084008B983
:10489000F86800E0002007900798B0FBF9F0079057
:1048A0001C98B0FBF9F01490149808B9112082E715
:1048B0002C462CB9149901FB09F001F08EF804463E
:1048C0000CB9112077E700201190109000BF11AAB9
:1048D00001211698FFF714FC28B115B9204601F004
:1048E00082F8012067E7189800F0080040B9119895
:1048F0003F2805D93F201090DDE91001081A1190DA
:104900001198802805D215B9204601F06CF80E20C8
:1049100051E700BF00BF0798802801D98020079089
:10492000189800F0020030B1189800F0010010B99A
:104930004FF003080CE0189800F0010028B915B9F1
:10494000204601F050F8132035E74FF0020800BF71
:1049500000BF00BF079EB8F1030F31D1A6B911986F
:104960004FEA504B00200490012603E00498401CBD
:10497000049076009049049831F8100020B1049812
:1049800031F810005845F1D91198B0FBF6FA08201B
:1049900000EB8A004844401EB0FBF9F0099020204B
:1049A0000A90002008904FF6F570824502D983489E
:1049B00082453BD915B9204601F015F80E20FAE6DC
:1049C000A6B911984FEA103B00200490012603E09D
:1049D0000498401C049076007949049831F810003E
:1049E00020B1049831F810005845F1D91198B0FB66
:1049F000F6FA40F6F570824503D9042000EB4A0B25
:104A000007E04FF001080AEB4A00401C032101EBCC
:104A1000500B0BEB0900401EB0FBF9F00990012090
:104A20000A9005984001B0FBF9F008900A99109897
:104A300008440F90069A09990F9801FB0201089803
:104A400008440E9013990E980844401E491E20EA0F
:104A500001010E98A1EB000BB8F1030F06D10A98E3
:104A600058440A900F9858440F9013E00698BBFBE7
:104A7000F0F100FB11B038B1ABF1010B0A98401C0A
:104A80000A900F98401C0F900698BBFBF0F1099814
:104A9000084409900E9800EB06111098081A119915
:104AA000884205D915B9204600F09DFF0E2082E608
:104AB00011990A980A1A0699099800FB1121089879
:104AC000081AB0FBF6FAB8F1030F0FD14FF6F570E4
:104AD00082450BD8079818B97008079000B148E0D4
:104AE00015B9204600F07FFF0E2064E6B8F1020FF2
:104AF00031D14FF6F57082451CD9079830B9402066
:104B0000B0EB460F02D37000079032E0189800F027
:104B1000020010B14FF003082BE0079820B9700095
:104B20000790802800D824E015B9204600F05BFFEC
:104B30000E2040E640F6F57082450CD8079820B963
:104B400070000790802800D813E015B9204600F0C7
:104B50004AFF0E202FE6B8F1010F09D140F6F5709B
:104B6000824505D915B9204600F03DFF0E2022E60A
:104B700000E0EFE600BF4A460021204601F04FFB6F
:104B80000B2210A1204601F03DFB494604F10B0029
:104B900002F0D0F966730A9881B204F10E0002F0B7
:104BA000C9F906982074B8F1030F11D1002010E064
:104BB0001C000020B4820008A4820008F5FFFF0F4B
:104BC00096820008EBFE904D53444F53352E300033
:104BD000059881B204F1110002F0ACF91198B0F51A
:104BE000803F06D2119881B204F1130002F0A2F9BD
:104BF00004E004F12000119902F090F9F8206075AA
:104C00003F2104F1180002F095F9FF2104F11A0088
:104C100002F090F904F11C00109902F07FF9B8F14C
:104C2000030F28D101F044F90146009004F143003C
:104C300002F074F904F12400099902F06FF90221DD
:104C400004F12C0002F06AF9012104F1300002F0B5
:104C500071F9062104F1320002F06CF9802084F829
:104C60004000292084F84200132294A104F1470057
:104C700001F0C8FA19E001F01BF90146009004F1B7
:104C8000270002F04BF9099881B204F1160002F0F6
:104C900051F9802084F82400292084F8260013226A
:104CA0008BA104F12B0001F0ADFA4AF6552104F571
:104CB000FF7002F03FF901232146109A1698FFF782
:104CC0008BFA28B115B9204600F08DFE012072E55F
:104CD000B8F1030F33D10123109A921D2146169883
:104CE000FFF77AFA4A460021204601F098FA7D49FA
:104CF000204602F013F97C4904F5F27002F00EF937
:104D0000AAF1010104F5F47002F008F9022104F59A
:104D1000F67002F003F94AF6552104F5FF7002F02F
:104D200009F90123109AD21D21461698FFF754FA6B
:104D30000123109A521C21461698FFF74DFA149839
:104D400000FB09F20021204601F069FA0F980D904E
:104D50000020049048E0B8F1030F10D16FF0070174
:104D6000204602F0DBF84FF0FF31201D02F0D6F8AC
:104D70006FF0704104F1080002F0D0F80AE0B8F1D9
:104D8000010F01D1594801E06FF0070001462046AC
:104D900002F0C4F80998129000BF14991298884242
:104DA00001D9149800E0129883465B4621460D9A7B
:104DB0001698FFF711FA28B115B9204600F013FE36
:104DC0000120F8E44A460021204601F028FA0D9817
:104DD00058440D901298A0EB0B00129012980028E6
:104DE000DBD10498401C0490069904988842B2D301
:104DF000B8F1030F01D1304600E00898129000BFCF
:104E000014991298884201D9149800E012988346A8
:104E10005B4621460D9A1698FFF7DEF928B115B9C1
:104E2000204600F0E0FD0120C5E40D9858440D90A7
:104E30001298A0EB0B00129012980028E0D100BF4E
:104E4000B8F1030F02D10C2017900DE01198B0F5C6
:104E5000803F02D30620179006E0B8F1020F01D17F
:104E6000042000E00120179000BF189800F008000F
:104E700090B911980B9000200C9023460BA9DDE906
:104E80001602FEF7B9FC0190019828B115B9204629
:104E900000F0A9FD01988EE4002211461698FFF754
:104EA0002FF928B115B9204600F09DFD012082E4BC
:104EB00015B9204600F097FD00207CE44E4F204EAF
:104EC000414D4520202020464154333220202000EF
:104ED0004E4F204E414D4520202020464154202059
:104EE000202020005252614172724161F8FFFF00A0
:104EF000F7B582B016460398019001A801F096F824
:104F00000546002D02DA0B2005B0F0BD0C4850F824
:104F100025400CB100202070029810B100200299A9
:104F200008700749029841F825000EB90020EBE708
:104F3000002202A903A801F053FC07463846E3E724
:104F40001C0000202DE9F74F90B0044616461CB90E
:104F5000092013B0BDE8F08F06F03F06324603A9E2
:104F600011A801F03DFC0546002D6FD10398049077
:104F70004FF4007000F031FD8346BBF1000F01D10A
:104F80001120E6E70398C0F80CB004A8119900F0CE
:104F900033FE05462DB99DF83B0000F0800000B1BE
:104FA000062506F01C00002851D045B1042D03D180
:104FB00004A8FEF772FF054646F008060AE09DF8D1
:104FC000160000F0110008B1072503E006F0040008
:104FD00000B10825002D4BD106F00800002847D06D
:104FE0000B99039801F049F8814600F061FF0190A8
:104FF0000B9901F10E00019901F090FF20200B990F
:10500000C87200220B99039801F076FF0B9901F109
:105010001C00002101F082FF01200399C870B9F142
:10502000000F25D00398D0F830A00022494604A8EC
:1050300001F0CCFE0546DDB95146039801F024FD90
:105040000546A9F101000399086111E079E07DB9F5
:105050009DF8160000F0100008B1042508E006F0E5
:10506000020028B19DF8160000F0010000B10725EC
:105070004DB906F0080008B146F040060398006BF1
:1050800020620B986062002D58D10B99039800F0B4
:10509000F4FFA0600B9901F11C0001F001F8E06041
:1050A000039820600398C088A08026740020607454
:1050B000E06160614FF40072002104F1280001F00A
:1050C000AEF806F0200058B3E06848B3E0686061CD
:1050D0000398408940020290A768D4F80C800DE044
:1050E0003946204600F074FE0746012F00D80225FD
:1050F000781C00B901250298A8EB000815B90298A0
:105100008045EDD8A7615DB9C8F3080040B13946C4
:105110000398FEF753F98246BAF1000F01D1022538
:105120000CE00AEB5820E061E2690399487801231A
:1051300004F12801FFF71CF800B10125584600F0E2
:1051400052FC0DB100202060284602E773B582B002
:10515000044614B9092004B070BD002201A903A8B7
:1051600001F03EFB0546002D30D1019820604FF440
:10517000007000F032FC06460EB91120EBE70198F2
:10518000C6602046039900F037FD0546C5B92B20BF
:10519000005D00F0800050B9A07900F0100028B147
:1051A000E169019800F069FFA06000E005253DB9C4
:1051B0000198C088A08000212046FEF73FFF0546E9
:1051C000304600F010FC042D00D105250DB1002063
:1051D00020602846BFE730B593B004460D46294607
:1051E000684601F0E6FD2146684601F0AAFD6846E2
:1051F00001F0C9FD13B030BD30B593B004460D4683
:105200002946684601F0D5FD04E014F8011B684604
:1052100001F097FD20780028F7D1684601F0B3FD32
:1052200013B030BD2DE9FF4F85B0044615469A46B0
:10523000DDF818B00020CAF8000003A9204602F0EB
:10524000F5FF0490049810B9607C049018B104989C
:1052500009B0BDE8F08F207C00F0010008B90720FC
:10526000F6E76169E068401A01900198854200D92B
:10527000019DA0E0A08AC0F3080000287ED1039819
:105280004089401E616900EA5129B9F1000F17D128
:10529000606910B9A068029004E02046A16900F09E
:1052A00097FD02900298022802D202206074CFE794
:1052B0000298401C10B901206074C9E70298A061EF
:1052C000A1690398FEF77AF8064616B902206074C1
:1052D000BEE74E444FEA5528B8F1000F29D009EB3C
:1052E000080003994989884203D903984089A0EBB3
:1052F000090803994878434632465946FEF738FF75
:1053000010B101206074A3E7207C00F0800068B138
:10531000E069801B404509D2E169891B0BEB412004
:105320004FF4007204F1280100F06CFF4FEA4827A7
:1053300037E0E069B04220D0207C00F0800078B1F6
:10534000E26903994878012304F12801FEF744FF3C
:1053500010B1012060747BE7207C00F07F00207496
:10536000039948780123324604F12801FEF700FF33
:1053700018B1012060746BE700E0E661A08AC0F319
:105380000800C0F50077AF4200D92F46A08AC0F3CD
:10539000080204F1280011183A46584600F032FF7E
:1053A00000BFED1BDAF800003844CAF80000BB4427
:1053B000606938446061002D7FF45CAF002047E7EE
:1053C000F8B507460E466946384602F02FFF0446F8
:1053D00044BB2EB900213846FEF730FE044621E0DA
:1053E0004FF4007000F0F9FA05460DB91120F8BD30
:1053F0000098C56000213846FEF7E6FC0446042C00
:1054000000D100245CB93146384600F053FD00213C
:105410003846FEF774FC0446042C00D100242846CC
:1054200000F0E1FA2046E2E72DE9F341A2B023A81B
:1054300000F0FCFD022209A922A801F0D1F90446DE
:10544000002C7DD1099816904FF4007000F0C5FA39
:1054500007461FB9112024B0BDE8F0810998C76044
:1054600016A8229900F0C8FB04462CB99DF88300C9
:1054700000F0A00000B10624002C6ED1202201A86B
:105480001D9900F0BFFE302216A90AA800F0BAFE4E
:105490000AA8239900F0B0FB04465CB918990C984F
:1054A000884205D11A990E98884201D1042000E063
:1054B00008200446042C46D10AA8FEF7EEFC044658
:1054C000002C40D1119D13220DF1110105F10D00A9
:1054D00000F098FE9DF80F00E872E87A00F01000E6
:1054E00018B9E87A40F02000E87201200999C870E4
:1054F000E87A00F0100030B30C991898884222D056
:105500002946099800F0B9FD804641460998FDF703
:1055100055FF06460EB9022415E03146099801F000
:10552000B3FA0446099800F1540564B968782E2846
:1055300009D129460C9A099801F0DEFC012000E00F
:105540000EE00999C87044B916A8FEF747FD044655
:105550001CB9099801F004FD0446384600F043FAEE
:10556000204678E72DE9F14193B0022206A913A85D
:1055700001F036F905461DB1284614B0BDE8F081AA
:105580000B222021684600F04AFE00242CE013A8DC
:1055900001F053FD0746B7F5803F08D2384600F0CA
:1055A00097FA80464FF46A7100F058FA00E0002044
:1055B00006465EB131463748FDF7F6FE30B9FF2E9C
:1055C00001DD0A2000E00B20A04201D80620D4E72C
:1055D000FF2E04DD32122046641C0DF80020F2B2CA
:1055E0002046641C0DF80020139800782028CED2A5
:1055F0009DF80000E52801D10620BEE700E0641E0A
:1056000024B1601E1DF800002028F8D006980790ED
:1056100000200990002107A8FEF710FD0546BDBB3C
:10562000012107A8FEF7D0FB054695B900BF2CB1B4
:105630000B2269460E9800F0E5FD02E0E5200E9988
:10564000087001200699C870069801F089FC05468B
:105650001EE0042D1CD10025D4B1012107A8FEF7BE
:105660003DFA0546A5B9202200210E9800F0D7FD8D
:1056700000BF08200E99C8720B2269460E9800F0F0
:10568000C1FD01200699C870069801F069FC054625
:10569000284672E783820008F8B50446694620462A
:1056A00002F0C4FD0646002E44D1207C00F04000EC
:1056B00000283FD0207C00F0800070B1E2690099A2
:1056C0004878012304F12801FEF786FD08B1012086
:1056D000F8BD207C00F07F00207400F0E9FB074655
:1056E000216A009801F0D0F906461EBB656AE87A87
:1056F00040F02000E8722946A268206801F0FCFB17
:1057000005F11C00E16801F009FC394605F11600BD
:1057100001F004FC002105F1120001F00BFC012056
:105720000099C870009801F01BFC0646207C00F030
:10573000BF0020743046CBE771B599B00026022235
:10574000694619A801F04CF80446002C54D1009881
:105750000D904FF4007000F040F9054615B9112086
:105760001AB070BD0098C5600DA8199900F044FAF0
:10577000044600BF002C3CD19DF85F0000F0800083
:1057800008B1062405E09DF83A0000F0010000B1E0
:105790000724E4B91499009800F06FFC06469DF8C0
:1057A0003A0000F0100090B100980190039600219B
:1057B00001A8FEF743FC04464CB9002101A8FEF7FE
:1057C00003FB044604B90724042C00D1002484B947
:1057D0000DA8FEF703FC044634B92EB10022314671
:1057E0000DA801F0F3FA04461CB9009801F0B8FBCB
:1057F0000446284600F0F7F82046B1E72DE9FF4FB0
:1058000083B0044615469B46049800900020CBF8D0
:10581000000001A9204602F009FD0290029810B98B
:10582000607C029018B1029807B0BDE8F08F207C30
:1058300000F0020008B90720F6E700BF60692844BD
:105840006169884202D26069C0F1FF35BBE0A08A7D
:10585000C0F30800002875D101984089401E616995
:1058600000EA512ABAF1000F1ED1606938B9A76861
:1058700057B900212046FDF704FE074604E0204604
:10588000A169FDF7FEFD074607B99FE0012F02D190
:1058900002206074C8E7781C10B901206074C3E767
:1058A000A761A06800B9A760207C00F0800078B1F3
:1058B000E26901994878012304F12801FEF78CFC84
:1058C00010B101206074AFE7207C00F07F002074ED
:1058D000A1690198FDF772FD064616B902206074B1
:1058E000A2E756444FEA5529B9F1000F2BD00AEB35
:1058F000090001994989884203D901984089A0EBA0
:105900000A09019948784B4632460099FEF764FC33
:1059100010B10120607487E7E069801B48450ED212
:10592000E069801B009A02EB40214FF4007204F101
:10593000280000F067FC207C00F07F0020744FEA14
:1059400049282BE013E0E069B0420FD0E1686069BC
:1059500088420BD2019948780123324604F128018C
:10596000FEF706FC10B1012060745DE7E661A08AD5
:10597000C0F30800C0F50078A84500D9A846A18A60
:10598000C1F3080204F1280150184246009900F0C2
:1059900039FC207C40F08000207400BFA5EB080596
:1059A000DBF800004044CBF8000000984044009031
:1059B000606940446061E1686069884201D960695A
:1059C00000E0E068E060002D7FF441AF00BF207C84
:1059D00040F040002074002026E710B50446204621
:1059E00000F0C8FB10BD10B50446204600F062F977
:1059F00010BD0000F0B502460E4600200021802AAE
:105A000001DA104627E0B6F56A7F24D1124B45F241
:105A100020570025102414E0A7EB050C05EB5C01D2
:105A20004FEA410C33F81CC0944500D10BE04FEA1B
:105A3000410C33F81CC0944501DA0D4600E00F46D6
:105A4000641E002CE8D100BF2CB14FF0010C0CEB10
:105A5000410C33F81C00F0BD48D701082DE9F04196
:105A600002460F4600200021802A01D290B22BE08E
:105A7000B2F5803F28D2B7F56A7F25D195B2134B96
:105A800045F2205C0026102414E0ACEB060806EB7F
:105A900058014FEA410833F81880A84500D10BE0BF
:105AA0004FEA410833F81880A84501DA0E4600E0B5
:105AB0008C46641E002CE8D100BF2CB14FF00108C9
:105AC00008EB410833F81800BDE8F081C4820008F3
:105AD00070B5B0F5803F4DD281B2B1F5805F01DA8B
