:020000040800F2
:10000000280E002011020008750D00089903000851
:10001000710D0008AB030008271F00080000000056
:10002000000000000000000000000000D9190008D6
:10003000B105000800000000050E0008F11A0008D4
:100040002B0200082B0200082B0200082B020008DC
:100050002B0200082B0200082B0200082B020008CC
:100060002B0200082B0200082B0200082B020008BC
:100070002B0200082B0200082B0200082B020008AC
:100080002B0200082B0200082B0200082B0200089C
:100090002B0200082B0200082B0200082B0200088C
:1000A0002B0200082B0200082B0200082B0200087C
:1000B0002B0200085D1B0008B11C00082B02000881
:1000C0002B0200082B0200082B0200082B0200085C
:1000D0002B020008411E00082B0200082B0200081A
:1000E0002B0200082B0200082B0200082B0200083C
:1000F0002B0200082B0200082B0200082B0200082C
:100100002B0200089D0F00082B0200082B0200089C
:100110002B0200082B0200082B0200082B0200080B
:100120002B0200082B0200082B0200082B020008FB
:100130002B0200082B0200082B0200082B020008EB
:100140002B0200082B0200082B0200082B020008DB
:100150002B0200082B0200082B0200082B020008CB
:100160002B0200082B0200082B0200082B020008BB
:100170002B0200082B0200082B0200082B020008AB
:100180002B0200082B020008DFF80CD000F0C6F8A4
:1001900000480047FD250008280E00200246D2E84E
:1001A0004F0F411CC2E8431F03B1F8E770470246F6
:1001B00052E8000F411C42E8001303B1F8E7704712
:1001C000024652E8000F42E8001303B1F9E7704716
:1001D000024652E8000F830103D3BFF32F8F0020A4
:1001E000704700F00040084342E8000303B1F0E725
:1001F0007047024652E8000F800103D2BFF32F8FF1
:100200000020704742E8001303B1F3E70120704774
:100210000648804706480047FEE7FEE7FEE7FEE7A0
:10022000FEE7FEE7FEE7FEE7FEE7FEE7F51A000859
:100230008901000840EA01039B0703D009E008C9CF
:10024000121F08C0042AFAD203E011F8013B00F89B
:10025000013B521EF9D27047D2B201E000F8012BE7
:10026000491EFBD270470022F6E710B513460A4636
:1002700004461946FFF7F0FF204610BD2DE9F05F58
:100280000546002092469B46884606468146402405
:100290001BE0284641464746224600F02FF85346C9
:1002A0005A46C01A914110D311461846224600F012
:1002B00016F82D1A67EB01084F462246012000214F
:1002C00000F00DF817EB00094E41201EA4F10104C7
:1002D000DFDC484631462A464346BDE8F09F202AE7
:1002E00004DB203A00FA02F1002070479140C2F18D
:1002F000200320FA03F3194390407047202A04DBBF
:10030000203A21FA02F00021704721FA02F3D0408E
:10031000C2F120029140084319467047064C074D30
:1003200006E0E06840F0010394E8070098471034C5
:10033000AC42F6D3FFF72CFFE4390008043A00087A
:1003400070B58C1810F8015B15F0070301D110F897
:10035000013B2A1106D110F8012B03E010F8016BC4
:1003600001F8016B5B1EF9D12B0705D40023521E47
:100370000DD401F8013BFAE710F8013BCB1A921CAF
:1003800003E013F8015B01F8015B521EF9D5A142AD
:10039000D8D3002070BD00001EF0040F0CBFEFF397
:1003A0000880EFF3098000F089BC00BFFEE770B55C
:1003B00000254FF4803404E0802000F0DBFD00B124
:1003C00003E0201EA4F10104F6D100BF0CB9032004
:1003D00070BD40F2FF5000F0ADFD2846F8E7000088
:1003E00070B5044605E01648056805F0450000B103
:1003F00000E0F8E700BF042000F0BCFD20B10420BD
:1004000000F098FD032070BD012000F0B3FD20B185
:10041000012000F08FFD0120F5E70948243800682D
:10042000A04201D01020EEE740F2FF5000F082FD24
:1004300003482038006808210840C0B2E3E7000004
:10044000342C014070B500264FF4803505E011488A
:10045000046804F0450000B103E0281EA5F1010581
:10046000F5D100BF15B104F0040028B10326042023
:1004700000F060FD304670BD012000F07BFD18B13A
:100480000126012000F056FD40F2FF5000F052FD21
:100490003046F0E7342C014010B505E00B48046805
:1004A00004F0450000B100E0F8E700BF042000F0D0
:1004B00061FD20B1042000F03DFD032010BD40F29D
:1004C000FF5000F037FD0020F8E70000342C014019
:1004D0002DE9F04105460E464FF0000805E02048A2
:1004E000076807F0450000B100E0F8E700BF04200E
:1004F00000F040FD28B1042000F01CFD0320BDE801
:10050000F081012000F036FD20B1012000F012FD45
:100510000120F4E7124824380068A84201D01020D6
:10052000EDE740F2FF5000F005FD0D48203804686B
:1005300004F4604018B9200C30804046DFE704F432
:10054000005008B11320DAE704F4804008B110200D
:10055000D5E704F4004008B10F20D0E74046CEE7CD
:10056000342C014070B500264FF4803505E00F486B
:10057000046804F0450000B103E0281EA5F1010560
:10058000F5D100BF15B104F0040028B10326042002
:1005900000F0D0FC304670BD04F0400018B10026D9
:1005A000402000F0C7FC3046F5E70000342C014045
:1005B000704700000146074A12780AB9002008E097
:1005C000054AC1F3C623D25CC1F30223DA4002F02C
:1005D00001007047000A00208009002070B500BFAC
:1005E0000C48866900F00CFA054600BF2946094808
:1005F0001830FFF7E5FD044600BFB442F0D1A54234
:1006000006D200BF03481030FFF7D1FD00BF00BF86
:10061000284670BD000A00202DE9F04104460D4631
:1006200016462046FFF7C6FF10B90120BDE8F0814D
:10063000FFF7D4FF0746A4B200BFEFF3058010B167
:100640004FF4002000E00020044344F040703346A3
:100650002A46394600F08EF880464046E6E72DE906
:10066000FC47044688461546B8F1000F01D0802D9E
:1006700002D90020BDE8FC872046FFF79BFF08B9A0
:100680000120F7E7FFF7AAFF8246A4B200BFEFF30D
:10069000058010B14FF4002000E0002004434646DE
:1006A00045B900231A465146204600F063F8074634
:1006B0003846DFE7082D16D80020009001902A4622
:1006C00031466846FFF7B6FD4FF4E02000EA0540EA
:1006D000044344F040705146DDE9002300F04AF83D
:1006E00007463846C6E700F0E1FA4FF4E02101EA98
:1006F000004930680090706801900836083D44EA6F
:10070000090444F080705146DDE9002300F032F81E
:1007100007460FB90020ADE74FF6017049EA000423
:1007200010E030680090706801900836083D51462E
:100730002046DDE9002300F01DF80746641C0FB9D0
:10074000002097E7082DECD80020009001902A4661
:1007500031466846FFF76EFD24F47F4444EA0524E1
:1007600044F000705146DDE9002300F003F807462D
:1007700038467FE72DE9FF4F81B0884691469A467B
:100780004FF0070B51E000BF2E48FFF710FD064663
:1007900006F03F002C4901EB0014B0094FF4700142
:1007A00001EA00510091DDE9001008434FF080514B
:1007B00001EAD80108434FF0005101EA99010843CA
:1007C0004FF0804101EA5A01084340F04065294654
:1007D00004F10C00FFF7FCFC054605F0806010B347
:1007E00085F0806585F0004505F0004728F0004061
:1007F0003843206029F00040384360602AF0004010
:100800003843A060294604F10C00FFF7F2FC48B120
:1008100000BF0C48001DFFF7CAFC00BF012005B057
:10082000BDE8F08F04E0ABF1010BBBF1000FAAD1E2
:1008300000BF00BF03480830FFF7B9FC00BF00202D
:10084000EDE70000040A002080050020F0B5064610
:100850000C461546FF2C01D2FF2D01D30020F0BD20
:10086000002200231AE0012098403040A0B1214628
:1008700010E002EBD1000B4F385C01F0070C0127B0
:1008800007FA0CF7384302EBD107DFF818C00CF871
:100890000700491CA942ECD920325B1C042BE2D38F
:1008A0000120DCE7800900202DE9F05F82468946BF
:1008B00000204149087080214048FFF7D4FC1821EE
:1008C0003F4801F0E3FD80463B48006A3D498842CD
:1008D00008D00846384908620846A0F8028001207E
:1008E000C8610FE034484088404506D03248A0F83F
:1008F000028001203049C86104E02F48C069401CD3
:100900002D49C8612C48C06901280BD100202A4913
:10091000487048608860C8604FF480612A48FFF7DB
:10092000A2FC0FE000270BE0274800EB0715E86862
:1009300000F0806018B1E86820F04060E8607F1C3B
:10094000402FF1D31C48C06901280FD100F064F892
:1009500004461CB100F05AF8064600E0002616488E
:100960004661002014498861086102E000F054F8F3
:100970000446ECB1FE2200215046FFF767FFEF224C
:1009800011460F20FFF762FFFE2211460420FFF7F9
:100990005DFFFFF723FE8346074800235946C269DF
:1009A0000A48FFF7E7FEB9F1000F01D000F010F898
:1009B0002046BDE8F09F0000000A002080090020CA
:1009C000383900086B27A5E18005002000FF0003EF
:1009D00010B50948007808B1012010BD0120064972
:1009E0000870FFF7FBFD044600231A462146034822
:1009F000FFF7C0FE0120F0E7000A002001FF00031E
:100A00000148406870470000001000E0014800689D
:100A100070470000040000200648006840F0807025
:100A2000044908600448006840F001000249086079
:100A300001207047FCED00E0001000E02DE9FC41D2
:100A400007460D4600260024002000900190082053
:100A50005B49086010204860402088600020C86022
:100A60004FF480600861084600F0D0FA1020FFF7CC
:100A7000B7FC044614B12046BDE8FC81514800880B
:100A800000044F49086037204860402088600020FB
:100A9000C8604FF480600861084600F0B7FA37205C
:100AA000FFF79EFC04460CB12046E5E74FF0FF300F
:100AB0004549086008204860302088600220C860EE
:100AC0000020086101204861084600F039FA002042
:100AD0003B49086033204860402088600020C8609F
:100AE0004FF480600861084600F090FA3320FFF769
:100AF00077FC04460CB12046BEE70CE04FF4001032
:100B000000F038FA38B1314800684DF82600761CFC
:100B1000022E00D307E02D484C38006840F22A61CD
:100B200008400028EAD000BF082000F023FA20B1D6
:100B3000082000F0FFF904209EE7022000F01AFAD6
:100B400020B1022000F0F6F9022095E7202000F005
:100B500011FA20B1202000F0EDF906208CE74FF4C7
:100B6000007000F007FA28B14FF4007000F0E2F9CD
:100B7000072081E740F2FF5000F0DCF90098000602
:100B8000009901F47F4140EA0120009901F47F01BE
:100B900040EA1120009940EA11606860019800065F
:100BA000019901F47F4140EA0120019901F47F019C
:100BB00040EA1120019940EA1160286020465BE775
:100BC0009801002028000020AC010020802C01406A
:100BD000F0B50A4600210023002400BF3DE00125B6
:100BE00005FA01F3156805EA03049C4234D105684F
:100BF0004F000326BE40B543056015794E00B54051
:100C00000668354305601579012D02D01579022D4E
:100C100016D185684F000326BE40B54385605579DF
:100C20004E00B540866835438560456801268E4094
:100C3000B5434560456896798E40B6B23543456008
:100C4000C5684F000326BE40B543C560D5794E0048
:100C5000B540C6683543C560491C1029BFD3F0BDF7
:100C6000F0B5002300244D07ED0E02FA05F3CE1077
:100C700000F1200555F826504E07F70E0F26BE400E
:100C8000B543CF1000F1200646F82750CE1000F1F2
:100C9000200555F8265045EA0304CE1000F1200542
:100CA00045F82640F0BD01837047000010B50248AA
:100CB000FFF774FA10BD0000010A002029490968F5
:100CC00001F0004149B12749096841F00041254A36
:100CD00011608169891C816170472249083909685E
:100CE000214A11621F49091F097882F824101D4901
:100CF000C91E097891621B490C310968D1621949F2
:100D0000891E098811861749096851631549091D0B
:100D100009689163134910310968D1630021134AAE
:100D2000116000BF114909680029FBD00E4A016813
:100D300011604168516081689160C168D16001694A
:100D400011614169516181699161C169D16100217C
:100D5000064A116000BF054909680029FBD000BFA1
:100D6000BAE700002CED00E0080500203C00002060
:100D700000BFFEE77047000070B5002100230F227E
:100D8000C4781CB3174C246804F4E064C4F5E06430
:100D9000C4F30721C1F10404E3B20A4144789C4042
:100DA000E1B28478144021430C07210E0E4C0578E3
:100DB0006155047804F01F050124AC4005786D11DD
:100DC000AD0005F1E025C5F8004109E0047804F024
:100DD0001F050124AC40054D0678761145F82640E4
:100DE00070BD00000CED00E000E400E080E100E0F8
:100DF00002490143024A1160704700000000FA05F1
:100E00000CED00E07047000029B1064A1268024369
:100E1000044B1A6004E0034A12688243014B1A60D3
:100E2000704700003038024029B1064A1268024378
:100E3000044B1A6004E0034A12688243014B1A60B3
:100E4000704700004038024029B1064A1268024348
:100E5000044B1A6004E0034A12688243014B1A6093
:100E6000704700004438024029B1064A1268024324
:100E7000044B1A6004E0034A12688243014B1A6073
:100E800070470000243802407CB50546002400204D
:100E90000090019000260DB1022600E000262248B5
:100EA000006800F0007008B10E207CBD1F49098861
:100EB00088B26946FFF7C2FD04460CB12046F4E74C
:100EC000019800F4802060B3184800880004184995
:100ED000086037204860402088600020C8604FF4D8
:100EE00080600861084600F091F83720FFF778FA33
:100EF00004460CB12046D8E70D48066006200C4990
:100F00004860402088600020C8604FF4806008611D
:100F1000084600F07BF80620FFF762FA04462046F8
:100F2000C3E72520C1E70000142C01402800002061
:100F3000980100200149086070470000382C0140EA
:100F400000210B4B02681A601B1D42681A601A1DB3
:100F5000116821F0F701D0E902231A4303691A430B
:100F600043691A431143024A083211607047000076
:100F7000242C014001460020034A12680A400AB1AD
:100F8000012000E000207047342C01400248006836
:100F900000F0030070470000002C014010B500F085
:100FA0004DFC10BD00210A4A116847F6FF629143CB
:100FB000027D83681A4343681A43C3681A4303686F
:100FC0001A4303691A431143014A11607047000034
:100FD000042C014000200B490860091D0860091D10
:100FE0000860091D0860074924310860091D086070
:100FF000091D086004480349383108600020091DB4
:1010000008607047002C0140FF07C0000021094B19
:1010100002681A601A1D11686FF30A01D0E90123F2
:101020001A43C3681A4303691A431143014A121D44
:1010300011607047082C01400149086070470000AA
:10104000002C014070B5044600251648007803289E
:1010500002D12725284670BD1248007838B11148C2
:101060000078012803D00F480078022817D1B4F582
:10107000805F02D127252846EDE7E0B2FFF704FFA5
:10108000054665B90848006820F4C0500649086064
:101090000846006820430860084600680860284643
:1010A000D9E7000024000020042C0140F0B50146DF
:1010B00000200022BE4B1B7881F85630BD4B1B88A8
:1010C000A1F85430BC4B1B681A0E93090B70C2F385
:1010D00083034B7002F003038B70B74B1B68C3F3A1
:1010E0000742CA70B44B1B88C3F307220A71B24B84
:1010F0001A784A715B681A0E1301CB80AE4B5B689D
:10110000C3F30742CB8843EA1213CB8002F00F03EC
:101110000B72A94B9B88C3F30722D3094B72C2F30E
:1011200080138B72C2F34013CB72C2F300130B73A4
:1011300000234B739E4B1B783BB19D4B1B78012BBF
:1011400003D09B4B1B78032B4FD193071B0D0B61D7
:10115000994B1A790B6943EA82030B61964B9B68A2
:101160001A0E0B6943EA92130B61C2F3C2030B75AB
:1011700002F007034B75904B9B68C3F3074253097A
:101180008B75C2F38203CB7593075B0F0B768A4B8B
:101190001B89C3F307220B7E43EAD2130B760B693C
:1011A0005B1C0024C1E912340B7E9B1C012404FA51
:1011B00003F3DC17D1E91256A5FB037C06FB03C33E
:1011C00005FB0433C1E912730C7A0123A3400B65BC
:1011D0000024D1E912650B6DA6FB037C05FB03C35C
:1011E00006FB0433C1E912732EE0714B1B78022B0E
:1011F0002AD1714B1A7993069B0A0B616E4B9B683F
:101200001A0E0B6943EA02230B616B4B9B68C3F315
:1012100007420B6913430B61674B1B89C3F307221A
:101220000B695B1C4FF40074A3FB04464FF480630E
:101230000025A4FB037C06FB03C304FB0533C1E9C3
:1012400012734FF400730B65C2F3801301F8193F5A
:1012500093065B0E4B70584B1A7A4B7843EAD213C5
:101260004B7002F07F038B70534BDB681A0ED3096F
:10127000CB70C2F341130B71C2F382034B7193071E
:101280001B0F8B714C4BDB68C3F307428B7943EA2E
:1012900092138B71C2F34013CB7100230B7202F0D7
:1012A00001034B72444B9B89C3F30722D3098B7212
:1012B000C2F38013CB72C2F340130B73C2F300135B
:1012C0004B73C2F381038B7302F00303CB733A4B6E
:1012D0001A7B53080B7401234B74384B1B681A0E8E
:1012E000CA741939354B1B68C3F307421402CC8505
:1012F000324B1B88C3F30722CB8D1343CB852F4B77
:101300001A7814060C635B681A0E0B6B43EA0244EE
:101310000C632A4B5B68C3F307420B6B43EA02245E
:101320000C63264B9B88C3F307220B6B13430B63A1
:10133000224B1A7934235A54204B9B681A0E3523BA
:101340005A541E4B9B68C3F3074214068C631B4B15
:101350001B89C3F307228B6B43EA02448C63174B50
:101360001A7A8B6B43EA02248C63144BDB681A0EE7
:101370008B6B13438B63114BDB68C3F307423C2336
:101380005B5C43EA12143C235C5413071C0DCC87AE
:101390000A4B9B89C3F30722CB8F1343CB87074BA1
:1013A0001A7B540840235C54012441235C54F0BD53
:1013B0002400002028000020C4010020D4010020C7
:1013C0003EB50024002501214548FFF71DFD012100
:1013D000C802FFF739FD0121C802FFF745FD4FF4B0
:1013E000F850019002208DF808008DF809000020C7
:1013F0008DF80A0001208DF80B0001A93948FFF78C
:10140000E7FB0420019001A93748FFF7E1FB0C221C
:1014100008213448FFF724FC0C2209213148FFF74A
:101420001FFC0C220A212F48FFF71AFC0C220B216B
:101430002C48FFF715FC0C2211462A48FFF710FC38
:101440000C2202212848FFF70BFC00214FF400601A
:10145000FFF70AFDFFF7BEFD31208DF800000020E8
:101460008DF801008DF8020001208DF80300684618
:10147000FFF782FC00F0F0F8044614B900F03AF8E7
:1014800004461CB91948FFF711FE044634B9174940
:10149000B1F85410080400F07BFA044624B94FF464
:1014A0000060FFF7CFFD04461CB111480078032807
:1014B00013D10E4890F8560020B10C4890F8560011
:1014C000012801D1022500E00025012000F078FA72
:1014D0000446002000F074FA044620463EBD000099
:1014E0000C00400000080240000C0240E80100200F
:1014F0002400002038B5002401200090FFF746FDAD
:1015000010B92524204638BD4D480078042824D041
:1015100000204C49086002204860C02088600020FC
:10152000C8604FF4806008610846FFF76FFDFEF762
:1015300089FF04460CB12046E5E74348006843496B
:1015400008604148001D006848603F480830006856
:1015500088603D480C300068C8603948007858B150
:1015600037480078012807D035480078062803D08E
:1015700033480078022816D1002032490860032041
:101580004860402088600020C8604FF48060086197
:101590000846FFF73BFD69460320FEF799FF044626
:1015A0000CB12046AFE726480078032816D1BDF8D5
:1015B0000000000423490860032048604020886040
:1015C0000020C8604FF4806008610846FFF71EFDE8
:1015D000FEF738FF04460CB1204694E7184800781F
:1015E00004282AD0BDF8000019490860BDF80000A1
:1015F00000041449086009204860C0208860002069
:10160000C8604FF4806008610846FFF7FFFCFEF7F2
:1016100019FF04460CB1204675E70B4800680D49D8
:1016200008600948001D00684860074808300068E5
:10163000886005480C300068C860002063E700003F
:101640002400002098010020142C0140D401002027
:1016500028000020C40100202DE9F04700270024C5
:1016600000260025A046A14676206E490875002078
:10167000086048608860C86008610846FFF792FC0F
:101680000320FFF7D9FC6848006840F48070664981
:10169000086000BF12E0002064490860486088606C
:1016A000C8604FF4806008610846FFF7AFFCFEF7A2
:1016B0007EFE044604B903E0781CC7B24A2FEADB79
:1016C00000BF14B12046BDE8F0874FF4D5705749EC
:1016D000086008204860402088600020C8604FF4FF
:1016E000806008610846FFF791FCFEF73BFF044667
:1016F00024B901204E4908704FF0804900204B4921
:10170000086037204860402088600020C8604FF49F
:10171000806008610846FFF779FC3720FEF760FE1D
:101720000446002C4CD135E00020404908603720A9
:101730004860402088600020C8604FF480600861E5
:101740000846FFF763FC3720FEF74AFE04460CB15B
:101750002046B8E7374849EA0000344908602920A4
:101760004860402088600020C8604FF480600861B5
:101770000846FFF74BFCFEF78FFE04460CB12046EF
:10178000A1E7294810300668012080EAD67080F071
:1017900001086D1CB8F1000F03D14FF6FF708542B0
:1017A000C2D34FF6FF70854202D31B2420468AE73E
:1017B00006F08040061E33D002201D4908702FE03D
:1017C0001DE01D48194908600120486040208860DC
:1017D0000020C8604FF4806008610846FFF716FCDF
:1017E000FEF75AFE04460CB120466CE70E48103056
:1017F0000668012080EAD67080F001086D1CB8F1FF
:10180000000F03D14FF6FF708542DAD34FF6FF7019
:10181000854202D31B24204655E703200449087063
:10182000204650E780010020042C01409801002050
:1018300024000020000010800080FF8010B54FF4CD
:101840008070FFF797FB78B34C480078012814D1DB
:1018500000204B4908600C20486040208860002030
:10186000C8604FF4806008610846FFF7CFFB0C208A
:10187000FEF7B6FD4349087002E0002041490870B8
:101880004148006840F480703F490860081D0068C6
:101890004CF23A3188433C49091D086001203B491C
:1018A00008703848007810BDFFE70220FFF762FBA0
:1018B00078B10220FFF73EFB3348001D00684CF270
:1018C0003A3188433049091D086002202D490870CB
:1018D000E9E70820FFF74EFB78B10820FFF72AFB65
:1018E0002948001D00684CF23A3188432649091DF9
:1018F0000860042023490870D5E72020FFF73AFB51
:1019000078B12020FFF716FB1F48001D00684CF23D
:101910003A3188431C49091D08600620194908709E
:10192000C1E71020FFF726FB78B11020FFF702FB7C
:101930001548001D00684CF23A3188431249091DD0
:10194000086005200F490870ADE74FF40070FFF7FD
:1019500011FB80B14FF40070FFF7ECFA0A48001D4C
:1019600000684CF23A3188430749091D0860072096
:101970000449087097E7002095E700002D0000203B
:10198000980100202E000020382C01402F0000205C
:1019900010B5044609480460072008494860402003
:1019A00088600020C8604FF4806008610846FFF737
:1019B0002DFB0720FEF714FD10BD0000980100204C
:1019C00001460020012900D011B9024B197000E036
:1019D000262070472C000020704700000CB5002026
:1019E000019000903448006840F48030324908602B
:1019F00000BF3148006800F4003000900198401C9E
:101A00000190009818B90198B0F5A04FF1D12A487B
:101A1000006800F4003010B10120009001E00020C7
:101A200000900098012846D123484030006840F0DB
:101A300080502149403108602048006840F440400F
:101A40001E4908601C48083000681B4908310860BE
:101A50000846006840F4004008600846006840F40A
:101A6000A05008601648091F0860081F006840F071
:101A70008070091F086000BF0F48006800F0007008
:101A80000028F9D040F205700E4908600A48083075
:101A9000006820F003000849083108600846006823
:101AA00040F00200086000BF03480830006800F002
:101AB0000C000828F8D10CBD00380240007000402E
:101AC00008544007003C0240042808D14FF0E021B0
:101AD000096941F004014FF0E022116107E04FF085
:101AE000E021096921F004014FF0E0221161704703
:101AF0007047000010B51548006840F470001349A5
:101B000008601348006840F0010011490860002097
:101B10000F49083108600E4800680E4908400C491A
:101B200008600D48091D0860081F006820F4802027
:101B3000091F0860002006490C310860FFF74EFFBE
:101B40004FF0006001498039086010BD88ED00E069
:101B500000380240FFFFF6FE1030002410B50121CE
:101B6000304800F0DFF8012856D12F48008828B906
:101B700038222EA14FF46F40FEF74EFD2A48008810
:101B8000401C2949088008460088B0F5FA7F0DDD21
:101B9000002008803F2225A14EF62070FEF73CFD74
:101BA0002848007820F0010026490870264800885F
:101BB000401C2549088008460088B0F5FA6F07DD0B
:101BC000002008801F48007820F002001D4908709E
:101BD0001E480088401C1D49088008460088B0F552
:101BE000FA7F07DD002008801648007820F0040006
:101BF0001449087016480088401C1549088008469A
:101C00000088B0F57A7F07DD002008800D48007855
:101C100020F008000B4908700121024800F067F825
:101C200010BD0000000400401C0000202E2E5C426D
:101C300053505C5372635C6273705F74696D65725C
:101C40002E630000000000201A0000201E0000206B
:101C5000200000207FB505460C4601210220FFF739
:101C6000E3F80295ADF804400020ADF80600ADF8A9
:101C70000C0001A90D4800F073F8012211460B4831
:101C800000F061F80121094800F034F81D208DF8BA
:101C9000000001208DF8010003208DF802000120D2
:101CA0008DF803006846FFF767F87FBD0004004029
:101CB00010B501210A4800F035F801280AD1094978
:101CC000086980470021064800F048F8642104486C
:101CD00000F042F80121024800F009F810BD0000B0
:101CE000000800407C000020CA4302827047CA43BB
:101CF0000282704721B1028842F00102028004E0B2
:101D000002884FF6FE731A40028070470146486A07
:101D1000704702460020138A0B400BB1012000E0FF
:101D20000020704730B50246002000230024158AA9
:101D300005EA0103958905EA010413B10CB10120FC
:101D400000E0002030BD1AB183890B43838102E09B
:101D500083898B4383817047C162704741627047BA
:101D600000220288184B98420ED0184B98420BD094
:101D7000B0F1804F08D0164B984205D0154B9842D1
:101D800002D0154B984204D14FF68F731A404B88FE
:101D90001A43124B984207D0114B984204D04FF689
:101DA000FF431A400B891A4302804B68C3620B88B9
:101DB0000385054B984202D0044B984201D18B7A9F
:101DC0000386012383827047000001400004014024
:101DD0000004004000080040000C004000100040DB
:101DE000001400407FB504460D4601210420FFF792
:101DF0001BF8ADF800500020ADF802000194ADF8DA
:101E0000080069460D48FFF7ABFF012211460B4859
:101E1000FFF799FF01210948FFF76CFF1E208DF89D
:101E20000C0003208DF80D008DF80E0001208DF8B8
:101E30000F0003A8FEF7A0FF7FBD000000080040D0
:101E400010B540F225511D4800F03EF810B31B4874
:101E500000F064F8C4B21A48008800F40040C8B921
:101E60001748008800F4804060B10A2C03D000209D
:101E70001349088020E01248008840F400401049CF
:101E8000088019E00D2C06D10D48008840F48040F0
:101E90000B49088010E00A480088C0F30D0009498A
:101EA0000C5407480088401C0549088008460088F3
:101EB000C72801DD0020088010BD0000001001408F
:101EC000380000204004002070B5024600240023A2
:101ED0000025002040F66A16B14200D100BFC1F3D0
:101EE000421501F01F03012606FA03F3012D02D16A
:101EF0009689334006E0022D02D1168A334001E074
:101F0000968A33400C12012606FA04F416883440EF
:101F100013B10CB1012000E0002070BD014688889B
:101F2000C0F30800704700BFFEE700000FB4054B88
:101F300010B503A9044A029800F018F810BC5DF827
:101F400014FB0000DD2500087C01002002E008C829
:101F5000121F08C1002AFAD170477047002001E023
:101F600001C1121F002AFBD1704700002DE9FF4F6D
:101F70008DB00F460546002606E025280BD0DDE98A
:101F80000F1290476D1C761C28780028F5D111B0EF
:101F90003046BDE8F08F0024A246A1460122EC495C
:101FA00000E0044315F8013F203B02FA03F0084229
:101FB000F7D128782A2810D06FF02F022878A0F1C6
:101FC0003001092914D80AEB8A0102EB410144F0DF
:101FD000020400EB010A6D1CF0E701CF5FEA000A82
:101FE00003D544F40054CAF1000A44F002046D1C05
:101FF00028782E2817D115F8010F44F004042A2858
:102000000ED06FF02F022878A0F1300109290AD8EC
:1020100009EB890102EB410100EB01096D1CF2E7BC
:1020200057F8049B6D1C28786C280FD006DC4C28D0
:1020300017D068280DD06A2814D104E0742810D075
:102040007A280FD10DE044F400140AE044F480141F
:1020500001E044F440146978814202D104F580140F
:102060006D1C6D1C2A786E2A1FD00CDC632A31D0BF
:1020700004DC002A8BD0582A11D1A3E0642A68D04E
:10208000692A0CD165E0732A2ED004DC6F2A73D044
:10209000702A04D19BE0752A6FD0782A6ED0104642
:1020A000DDE90F129047761C50E1C4F3025002287C
:1020B00006D0032809D0042801CF09D0066045E1E5
:1020C00001CFF117C0E9006140E101CF06803DE199
:1020D00006703BE117F8040B8DF8000000208DF826
:1020E0000100EB46012003E057F804BB4FF0FF303E
:1020F00061074FF0000102D40DE008F101018846AC
:1021000049450FDA8045F8DB1BF808100029F4D1A7
:1021100008E008F1010188468142FADB1BF808104B
:102120000029F6D1DDE90F23AAEB080081462146FC
:1021300000F036F9304400EB080604E0DDE90F1248
:102140001BF8010B9047B8F10108F7D22146484629
:10215000F7E00A21C4F302534FF0000B0891022B61
:1021600004D001CFC117032B09D00AE0FF1D27F0CF
:102170000707F7E8020108E032E01FE020E000B2C4
:10218000C117042B01D140B2C117031E71F1000326
:1021900007DA4FF0000CD0EB0C006CEB01012D23A3
:1021A00002E0230504D52B238DF82430012303E01E
:1021B000E30701D02023F7E7984658E00A2110E012
:1021C00010210EE010204FF0000B08900CE01021C1
:1021D0004FF0000B44F004044FF00809089103E0AD
:1021E00008214FF0000B0891C4F30253022B04D0D6
:1021F00001CF0021032B06D006E0FF1D27F00707C3
:10220000F7E8020103E080B2042B00D1C0B24FF026
:10221000000823072BD5702A07D0DDF820C08CF0EA
:10222000100C5CEA0B0C05D00EE040238DF8243036
:10223000012308E050EA010306D030238DF8243052
:102240008DF8252002239846DDF820C08CF0080C7C
:102250005CEA0B0C0BD150EA010301D1630706D5F0
:1022600030238DF824304FF00108A9F10109582AD4
:1022700004D038A20B9208AA0A920BE03AA2F9E71E
:102280005B46089AFDF7FAFF0B9B9B5C0A9A521E6D
:102290000A92137050EA0102F2D10A98ADEB0000E5
:1022A00000F1200B600702D524F4803401E04FF0E8
:1022B0000109D94502DDA9EB0B0000E0002000EB8D
:1022C0000B0141440890AAEB010AE00306D4DDE9C2
:1022D0000F232146504600F063F806444FF00009F2
:1022E00008E009A911F80900DDE90F12904709F18A
:1022F0000109761CC145F4DBE0030CD5DDE90F23B1
:102300002146504600F04CF8064404E0DDE90F1287
:1023100030209047761C0899481E08900029F5DC6B
:1023200008E00A980A990078491C0A91DDE90F1221
:102330009047761CBBF10001ABF1010BF1DC2146AB
:102340005046DDE90F2300F019F806446D1C1BE62A
:10235000092801003031323334353637383961627B
:10236000636465660000000030313233343536373F
:102370003839414243444546000000002DE9F04110
:10238000044600251E461746880404D405E0394655
:102390002020B0476D1C641EF9D52846BDE8F081A9
:1023A0002DE9F041044600251E469046C80301D59C
:1023B000302700E02027880404D505E04146384650
:1023C000B0476D1C641EF9D52846BDE8F08110B5F4
:1023D000A82000F07DF800F021F801210F20FEF781
:1023E00063FAFEF7F5FA42F2CF010920FFF732FC5B
:1023F00000F02EF810BD000006480078064908607D
:102400000448007808B9012000E000200149087064
:102410007047000018000020B40241421CB50121A1
:102420000420FEF7F1FC4FF40050009001208DF8DD
:10243000040000208DF806008DF8050001208DF8BD
:10244000070069460148FEF7C3FB1CBD00080240B7
:102450001CB501210220FEF7D7FC032000900120CB
:102460008DF8040000208DF8060003208DF805008B
:1024700001208DF8070069460348FEF7A9FB0321F8
:102480000148FEF710FC1CBD0004024030B50246B6
:102490004FF6FF7018E012F8015B80EA0520082370
:1024A0000FE000F400443CB14FF6FF7404EA400032
:1024B00041F22104604003E04FF6FF7404EA40005B
:1024C0005B1E002BEDD1491E0029E4D130BD000078
:1024D00010B504466FF00400FFF7F6FAE11704EBBD
:1024E0005171C1F3C701074A11701046007800EB23
:1024F0004001C1EBC0104FF6FF7101EAC000024974
:10250000088010BD340000203600002070B504465D
:102510004FF4077094FBF0F0C6B24FF4077094FBD1
:10252000F0F100FB114085B205E04FF4077000F0B8
:102530002FF8701EC6B2002EF7D115B1284600F054
:1025400027F870BD0146114A12784A434FF0E02344
:102550005A6100229A611A46126942F001021A6118
:1025600000BF4FF0E022106900F001021AB100F440
:102570008032002AF5D04FF0E022126922F00102E9
:102580004FF0E0231A6100229A6170473400002066
:102590000146114A12884A434FF0E0235A61002253
:1025A0009A611A46126942F001021A6100BF4FF0A7
:1025B000E022106900F001021AB100F48032002A12
:1025C000F5D04FF0E022126922F001024FF0E02333
:1025D0001A6100229A6170473600002070B50546E6
:1025E0000C460548844203D1284600F001F970BD2D
:1025F0004FF0FF30FBE700007C01002000BF4FF4EC
:10260000A060FEF7F5FBFFF7E2FE0DE021A0FFF76B
:102610008DFC4FF4FA70FFF779FF22A0FFF786FCDC
:102620004FF4FA70FFF772FFFEF7CAFE0028EDD1F3
:1026300000F046F82DE01F48007800F0010038B99E
:102640001C48007840F001001A490870FFF7D4FEDA
:102650001848007800F0020028B91648007840F0C9
:102660000200144908701348007800F0040028B9EB
:102670001048007840F004000E4908700D480078BA
:1026800000F0080028B90B48007840F0080009491C
:102690000870D0E753442043617264204572726F22
:1026A00072210A00506C6561736520436865636B35
:1026B000210A000000000020014608687047000061
:1026C00010B51B4890F8560030B1012808D00228F8
:1026D0000AD0032810D10BE016A0FFF727FC0BE06F
:1026E0001AA0FFF723FC07E01EA0FFF71FFC03E082
:1026F00022A0FFF71BFC00BF00BF0D4890F82C1074
:1027000024A0FFF713FC0A48B0F8541028A0FFF7E4
:102710000DFC0748D0E91220030343EA125128A018
:10272000FFF704FC0248016D2BA0FFF7FFFB10BD73
:10273000E80100204361726420547970653A534483
:1027400053432056312E310D0A000000436172645C
:1027500020547970653A534453432056322E300D3D
:102760000A0000004361726420547970653A534452
:1027700048432056322E300D0A0000004361726437
:1027800020547970653A4D4D4320436172640D0ABF
:102790000000000043617264204D616E75666163E4
:1027A000747572657249443A25640D0A0000000090
:1027B00043617264205243413A25640D0A000000CF
:1027C000436172642043617061636974793A25647E
:1027D000204D420D0A0000004361726420426C6F7C
:1027E000636B53697A653A25640D0A0D0A0000008F
:1027F00010B504460F480068082802D34FF0FF3098
:1028000010BD0C4802680068401C0A4B18600A485A
:10281000845418460068082801D00A2C08D10548BD
:10282000054902680548FDF71AFF002001490860C4
:102830002046E5E7700100207401002000FE020040
:1028400030B595B0054613AB12AA09A9284600F089
:1028500039FA044614B1204615B030BD002014905A
:1028600026E0224909689DF8502001EBC20113AB14
:1028700011AA486801A900F025FA04460CB12046C7
:10288000EAE709A901A800F0BBFC60B99DF8440083
:102890009DF84810884201DD0220DDE79DF85000D8
:1028A000124988750AE09DF85000401CC0B214908F
:1028B0000E48007D9DF850108842D2DC00BF0B48C6
:1028C000007D9DF85010884201D10420C4E714A96E
:1028D000284600F0D7FA04460CB12046BCE79DF824
:1028E0005000024948750020B6E700007C00002037
:1028F0002DE9F0419AB09C48847D007DA04202DC25
:102900001AB0BDE8F0819849096801EBC40106AB33
:1029100007AA486808A900F0D5F908A993A0FFF70D
:1029200005FB002644E09048008B0121B14008409F
:10293000D8B122218FA0FFF7F9FA304600F028FB2A
:1029400089492431471839468BA0FFF7EFFA222135
:1029500088A0FFF7EBFA304600F01AFB82492431D9
:10296000084410A941F8260018E0304600F010FB9A
:102970007D492431085810A941F826007A48C07DC5
:1029800030B910A850F826107CA0FFF7CFFA05E068
:1029900010A850F826107AA0FFF7C8FA9DF81C007E
:1029A000401EB04202D078A0FFF7C0FA701CC6B239
:1029B0009DF81C008642B6DB74A0FFF7B7FA00F062
:1029C00039FB6948407D0B280DD2DFE800F0060D89
:1029D000151E27323F4E5F7287006349096851F820
:1029E00034008047054690E05F4A126852F8341080
:1029F00010988847054688E05B4B1B6853F83420E5
:102A0000DDE91001904705467FE0574F3F6857F8D2
:102A1000343010A807C89847054676E0DFF848C16B
:102A2000DCF800C05CF8347010A80FC8B847054641
:102A30006BE01498DFF830C10090DCF800C05CF85F
:102A4000347010A80FC8B84705465EE0DDE91401F0
:102A5000DFF814C1CDE90001DCF800C05CF8347087
:102A600010A80FC8B84705464FE0DDE914121698C4
:102A7000DFF8F4C0CDE900120290DCF800C05CF889
:102A8000347010A80FC8B84705463EE0DDE91423AE
:102A9000DDE91610DFF8D0C0CDE90023CDE9021042
:102AA000DCF800C05CF8347010A80FC8B8470546C1
:102AB0002BE0DDE91523DDE91710CDE90123CDE990
:102AC00003101498DFF8A0C00090DCF800C05CF898
:102AD000347010A80FC8B847054616E0DDE9162384
:102AE000DDE91810CDE90223CDE90410DDE9140178
:102AF000DFF874C0CDE90001DCF800C05CF8347088
:102B000010A80FC8B847054600BF00BF00F050FA34
:102B10009DF8180001280CD11348C07D20B9294622
:102B20001BA0FFF703FA07E029461BA0FFF7FEF9F9
:102B300002E018A0FFF7FAF90B4890F8EC0088B112
:102B40000948D0F8F0000A21B0FBF1F201FB1207AE
:102B50000548D0F8F000B0FBF1F83A46414611A024
:102B6000FFF7E4F900BFCBE67C0000200D0A2573D7
:102B7000280000002563000025730000256C750007
:102B800030582558000000002C00000029000000EB
:102B90003D256C753B0D0A003D305825583B0D0A0C
:102BA0000000000046756E6374696F6E2052756E8A
:102BB0002054696D653A25642E2531646D730D0AC4
:102BC00000000000F0B50346154600200022002654
:102BD000002455E01F782C2F01D104B901221F7861
:102BE000292F01D01F780FB904B94AE0002E34D143
:102BF0001F78302F02DB1F78392F11DD1F78612FEE
:102C000002DB1F78662F0BDD1F78412F02DB1F7858
:102C1000462F05DD1F78582F02D01F78782F0CD152
:102C200002B12EE01F78612F03DB1F78203F0F7069
:102C300001E01F780F70491C1FE01F78222F04D17C
:102C400002B11EE00126012417E01F78202F14D0C6
:102C50001F782C2F11D0FF2613E01F78222F00D1D0
:102C6000002402B10DE044B11F785C2F02D15B1C3F
:102C7000471CF8B21F780F70491C471CF8B25B1C48
:102C8000A8E700BF00270F702E70F0BD10B50446F6
:102C9000002010700BE020780870641C491C10782C
:102CA000401C10701078984201DB012010BD207884
:102CB000202802D020780028EDD10020087000BF25
:102CC000F4E700002DE9FF4F85B0804689460027D4
:102CD000002004900390012002904FF0000B00258B
:102CE00044461DE02078202816D005F07F000528F6
:102CF00012DA0DB945F0800505F07F00042803D1F4
:102D000020782A2800D00EE0207805F07F010DF809
:102D10000100681CC5B202E0852D00D103E0641CEF
:102D200020780028DED100BF8DB1002005F07F01A2
:102D30000DF8010051A1684600F062FA18B90021AF
:102D40000898017002E001210898017000254FF0F9
:102D5000000A444614E0641C0AF1010000F0FF0A76
:102D60002078202802D020782A2809D1204600F097
:102D7000D7F90646282E03D02A2E01D0CDF810A070
:102D80002078282802D020780028E4D144460498EE
:102D900010B10498401C04444FF0000A002654E08F
:102DA000207810B94FF0010A50E02078282803D18C
:102DB00016B9781CC7B213E02078292808D13EB98B
:102DC00017B1781EC7B201E04FF0010A47B93DE0E4
:102DD0002078222804D10EB9012000E00020064608
:102DE00047B9207820282FD0207889F8000009F1F1
:102DF000010929E020782C2804D101200290681CC8
:102E0000C5B214E02078202811D0207828280ED0D0
:102E10004DB9BBF1050F06DA20780DF80B000BF168
:102E2000010000F0FF0B0298401CC0B20290012F7D
:102E30000AD10298022807D10298401CC0B2029021
:102E40000398401CC0B20390641CA9E700BF03981C
:102E5000012809D100200DF80B0008A1684600F0F8
:102E6000CFF908B900200390079903980870002053
:102E700089F80000504609B0BDE8F08F766F6964AC
:102E8000000000002DE9F043B5B005460F460024D0
:102E9000002604E000213D488155701CC6B20A2E70
:102EA000F8DB06E06D1C287818B9012035B0BDE8C4
:102EB000F08328782828F5D16D1C61E034AA694692
:102EC0002846FFF77FFE064635449DF8D00020B126
:102ED000012827D0FF284CD149E09DF8000000B31D
:102EE00033A9684600F027F906460EB10220DDE757
:102EF000204600F04DF825490A31339A0A50A1F1D5
:102F00002400008B0121A140884320491A390883FD
:102F100004211E480155601CC4B20A2C01DD0320A7
:102F2000C4E726E0684600F087F9401C00F0FF087F
:102F3000204600F02DF815490A3100EB01094946F9
:102F4000684600F06EF911481A38018B0120A04044
:102F5000014388B20D491A3908830C4800F80480EF
:102F6000601CC4B20A2C01DD03209FE701E00220AF
:102F70009CE700BF2878292801D0287800B900E014
:102F80009CE700BF3C70002090E700009600002006
:102F900002460020002105E0044B5B5C0344D8B2EC
:102FA0004B1CD9B29142F7DB70470000960000201D
:102FB00010B501210D48FEF7ACFE012808D10C48E0
:102FC000D0F8F0004FF6FF7108440949C1F8F0004D
:102FD0000648FEF79BFE0649D1F8F0100844044964
:102FE000C1F8F0000846D0F8F00010BD000800401D
:102FF0007C00002010B5044604EBC40000EB041074
:103000000122C2EB800081B24FF47A70FEF7EAFE33
:1030100001200149C87510BD7C00002010B5024692
:10302000012000E050430B1EA1F10104E1B2F9D1EF
:1030300010BD000010B501210848FEF755FE4FF6FF
:10304000FF710648FEF788FE00210448FEF786FE61
:1030500000200349C1F8F00010BD00000008004046
:103060007C00002070B51D48008800F40040002856
:1030700033D01A4805780020194948551948816805
:103080001748884704461CB91649C868804721E09C
:10309000134800F0DDF80546012D00D02C46CCB1D8
:1030A000012C06D0022C08D0032C0AD0042C10D1FD
:1030B0000BE00DA0FEF73AFF0BE00EA0FEF736FF87
:1030C00007E00FA0FEF732FF03E010A0FEF72EFF8F
:1030D00000BF00BF00200149088070BD38000020FB
:1030E000400400207C000020BAAFCAFDB4EDCEF34E
:1030F000210D0A00B2CECAFDB4EDCEF3210D0A00B7
:10310000B2CECAFDCCABB6E0210D0A00CEB4D5D20A
:10311000B5BDC6A5C5E4B5C4BAAFCAFD210D0A0048
:103120000146491C00E0491C0878202801D10029EB
:10313000F9D1087870472DE9F04307460E4600257F
:103140004FF00A083C46002030601FE02078392804
:1031500002DC207830280ADA2078462802DC207841
:10316000412804DA2078582809D1012D07D1207888
:10317000412801DB4FF01008681CC5B205E020783B
:1031800000B904E00120BDE8F083641CDEE700BF65
:103190003C46B8F1100F0FD1032D01DA0220F2E7FF
:1031A0002078302806D16078582803D1A41CA81EA6
:1031B000C5B204E00320E6E70DB90420E3E71BE015
:1031C0000DB1681EC5B22078392806DC2078302879
:1031D00003DB2078A0F1300902E02078A0F1370964
:1031E00029464046FFF71AFF316809FB001030609E
:1031F000641C207800B900E0E2E700BF0020C2E7CD
:1032000002460AE010780B78984201D001207047FE
:10321000107800B902E0521C491CF3E700BF0020FF
:10322000F5E706E002780A70027802B902E0401C75
:10323000491CF7E700BF70470146002005E00A7807
:1032400002B903E0421CD0B2491CF8E700BF704746
:1032500010B58CB004461E230BAA03A92046FFF725
:1032600015FD0090009810B101200CB010BD9DF824
:103270002C00044400200B900EE040489DF82C20C8
:1032800050F8221003A8FFF7BBFF00B908E09DF833
:103290002C00401CC0B20B909DF82C000728ECD3EA
:1032A00000BF9DF82C00072863D2DFE800F004057A
:1032B0003C5E6564630000BF31A0FEF737FE31A0BD
:1032C000FEF734FE3FA0FEF731FE4EA0FEF72EFEC5
:1032D0005CA0FEF72BFE6BA0FEF728FE79A0FEF7A0
:1032E00025FE86A0FEF722FE8BA0FEF71FFE90A013
:1032F000FEF71CFE94A0FEF719FE99A0FEF716FE3D
:103300009EA0FEF713FEA4A0FEF710FEB0A0FEF7ED
:103310000DFEBDA0FEF70AFEC8A0FEF707FED4A072
:10332000FEF704FE9AE216A0FEF700FEE0A0FEF70C
:10333000FDFD00200B900EE0ED4800689DF82C206C
:1033400000EBC2004168EBA0FEF7F0FD9DF82C00F9
:10335000401CC0B20B90E648007D9DF82C108842BE
:10336000EADC07A0FEF7E2FD78E205A0FEF7DEFD4D
:10337000C4E171E245E219E2ECE100004000002006
:103380000D0A00002D2D2D2D2D2D2D2D2D2D2D2D0A
:103390002D2D2D2D2D2D2D2D2D2D2D2D55534D41DB
:1033A00052542056332E312D2D2D2D2D2D2D2D2DDA
:1033B0002D2D2D2D2D2D2D2D2D2D2D2D2D2D2D204A
:1033C0000D0A00002020202055534D415254CAC7F9
:1033D000D3C9414C49454E54454BBFAAB7A2B5C4C9
:1033E000D2BBB8F6C1E9C7C9B5C4B4AEBFDAB5F748
:1033F000CAD4BBA5BDBBD7E9BCFE2CCDA8B9FD2066
:103400000D0A0000CBFC2CC4E3BFC9D2D4CDA8B9AF
:10341000FDB4AEBFDAD6FACAD6B5F7D3C3B3CCD0B3
:10342000F2C0EFC3E6B5C4C8CEBACEBAAFCAFD2C5F
:10343000B2A2D6B4D0D02ED2F2B4CB2CC4E3BFC942
:103440000D0A0000D2D4CBE6D2E2B8FCB8C4BAAFC1
:10345000CAFDB5C4CAE4C8EBB2CECAFD28D6A7B32C
:10346000D6CAFDD7D62831302F3136BDF8D6C62979
:10347000A1A2D7D6B7FBB4AEA1A2BAAFCAFDC8EB22
:103480000D0A0000BFDAB5D8D6B7B5C8D7F7CEAAAF
:10349000B2CECAFD292CB5A5B8F6BAAFCAFDD7EE93
:1034A000B6E0D6A7B3D63130B8F6CAE4C8EBB2CE90
:1034B000CAFD2CB2A2D6A7B3D6BAAFCAFDB7B52003
:1034C0000D0A0000BBD8D6B5CFD4CABE2ED0C2D408
:1034D000F6B2CECAFDCFD4CABEBDF8D6C6C9E8D6AC
:1034E000C3B9A6C4DC2CD0C2D4F6BDF8D6C6D7AAC0
:1034F000BBBBB9A6C4DC2E0D0A000000BCBCCAF5DB
:10350000D6A7B3D63A7777772E6F70656E656476F7
:103510002E636F6D0D0A000055534D415254D3D0A8
:1035200037B8F6CFB5CDB3C3FCC1EE3A0D0A0000F3
:103530003F3A202020202020BBF1C8A1B0EFD6FACE
:10354000D0C5CFA20D0A000068656C703A2020201B
:10355000BBF1C8A1B0EFD6FAD0C5CFA20D0A0000CA
:103560006C6973743A202020BFC9D3C3B5C4BAAF05
:10357000CAFDC1D0B1ED0D0A0A00000069643A200D
:1035800020202020BFC9D3C3BAAFCAFDB5C4494467
:10359000C1D0B1ED0D0A0A006865783A20202020DC
:1035A000B2CECAFD3136BDF8D6C6CFD4CABE2CBA0B
:1035B000F3B8FABFD5B8F12BCAFDD7D6BCB4D6B490
:1035C000D0D0BDF8D6C6D7AABBBB0D0A0A000000F2
:1035D0006465633A20202020B2CECAFD3130BDF8A8
:1035E000D6C6CFD4CABE2CBAF3B8FABFD5B8F12B21
:1035F000CAFDD7D6BCB4D6B4D0D0BDF8D6C6D7AAEB
:10360000BBBB0D0A0A00000072756E74696D653AE5
:10361000312CBFAAC6F4BAAFCAFDD4CBD0D0BCC639
:10362000CAB13B302CB9D8B1D5BAAFCAFDD4CBD0D2
:10363000D0BCC6CAB13B0D0A0A000000C7EBB0B44B
:10364000D5D5B3CCD0F2B1E0D0B4B8F1CABDCAE49C
:10365000C8EBBAAFCAFDC3FBBCB0B2CECAFDB2A2C2
:10366000D2D4BBD8B3B5BCFCBDE1CAF82E0D0A005C
:103670002D2D2D2D2D2D2D2D2D2D2D2D2D2D2D2D7A
:103680002D2D2D2D2D2D2D2D2D2D414C49454E54BB
:10369000454B2D2D2D2D2D2D2D2D2D2D2D2D2D2D24
:1036A0002D2D2D2D2D2D2D2D2D2D2D200D0A0000F4
:1036B0002D2D2D2D2D2D2D2D2D2D2D2D2D2D2D2D3A
:1036C0002D2D2D2D2D2D2D2D2DBAAFCAFDC7E5B5D4
:1036D000A52D2D2D2D2D2D2D2D2D2D2D2D2D2D2DA2
:1036E0002D2D2D2D2D2D2D2D2D2D2D2D200D0A0087
:1036F0007C00002025730D0A0000000059A0FEF791
:1037000015FC00200B901AE0664909689DF82C20F2
:1037100001EBC20101AB02AA486803A9FFF7D2FA84
:10372000604800689DF82C1050F8312003A95EA075
:10373000FEF7FCFB9DF82C00401CC0B20B905948D2
:10374000007D9DF82C108842DEDCAFF2CC30FEF715
:10375000EDFB83E0AFF2D830FEF7E8FB0BAA03A93C
:103760002046FFF72FFA9DF82C00C8B9694603A838
:10377000FFF7E1FC0B909DF82C0020B94FA00099B9
:10378000FEF7D4FB0EE09DF82C00042801D00220A7
:103790006BE54DA0FEF7CAFB01204249C87501E068
:1037A000022062E547A0FEF7C1FB57E045A0FEF707
:1037B000BDFB0BAA03A92046FFF704FA9DF82C00D5
:1037C000C8B9694603A8FFF7B6FC0B909DF82C001A
:1037D00020B942A00099FEF7A9FB0EE09DF82C004D
:1037E000042801D0022040E53FA0FEF79FFB002007
:1037F0002C49C87501E0022037E532A0FEF796FBA0
:103800002CE030A0FEF792FB0BAA03A92046FFF79D
:10381000D9F99DF82C00C8B9694603A8FFF78BFCBD
:103820000B909DF82C0078B91E49009881F8EC00A7
:10383000084690F8EC0018B130A0FEF777FB07E0DF
:1038400035A0FEF773FB03E002200EE502200CE535
:103850001CA0FEF76BFB01E0012006E500BF002085
:1038600003E500002D2D2D2D2D2D2D2D2D2D2D2D54
:103870002D2D2D2D2D2D2D2D2D2D2D2D2DBAAFCACC
:10388000FD204944202D2D2D2D2D2D2D2D2D2D2D7F
:103890002D2D2D2D2D2D2D2D2D2D2D2D2D2D2D2D58
:1038A000200D0A007C0000202573206964206973C4
:1038B0003A0D0A3058253038580D0A004845583A14
:1038C000305825580D0A00003136BDF8D6C6B2CEA4
:1038D000CAFDCFD4CABE210D0A0000004445433AB8
:1038E000256C750D0A0000003130BDF8D6C6B2CE89
:1038F000CAFDCFD4CABE210D0A00000052756E2049
:1039000054696D652043616C63756C6174696F6E99
:10391000204F4E0D0A00000052756E2054696D65EF
:103920002043616C63756C6174696F6E204F46460D
:103930000D0A000001607047010001014000000015
:103940008005002080090020000A002000000000FF
:103950003F000000646563006964000072756E7466
:10396000696D650068656C70000000006C697374B7
:103970000000000068657800766F696420777269DE
:1039800074655F61646472287533322061646472A7
:103990002C7533322076616C29000000753332209B
:1039A000726561645F61646472287533322061649A
:1039B00064722900766F69642064656C61795F6D5B
:1039C0007328753136206E6D73290000766F696437
:1039D0002064656C61795F757328753332206E756C
:1039E00073290000043A0008000000208001000054
:1039F00040030008603A000880010020A80C000085
:103A00005C1F000842FF847A030A000914010203C4
:103A100004060708090213011350391B0864041A2D
:103A20006C041A58041A74041A54041A5C0413B966
:103A3000261B089C081A35041A7804130D251B0848
:103A4000B4081A45082ACC24211420F52F14084163
:103A5000281B08F1041365300B1408046701D90012
:040000050800018965
:00000001FF
