:020000040800F2
:10000000A8B001206D020008611E0008CD0900089B
:100010005D1E0008DF0900083B49000800000000E1
:10002000000000000000000000000000AD0100081A
:10003000951000080000000009020008394400087B
:10004000870200088702000887020008870200086C
:10005000870200088702000887020008870200085C
:10006000870200088702000887020008870200084C
:100070008702000887020008E50C0008110D00083F
:100080003D0D00085D0D000887020008870200088A
:10009000870200088702000887020008870200081C
:1000A000870200088702000887020008870200080C
:1000B0008702000887020008B14400088702000890
:1000C00087020008870200088702000887020008EC
:1000D0008702000841460008C94600088702000858
:1000E00099100008870200088702000887020008AC
:1000F00087020008870200088702000887020008BC
:1001000087020008BD210008870200088702000856
:10011000870200088702000887020008870200089B
:10012000870200088702000887020008870200088B
:10013000870200088702000887020008870200087B
:10014000870200088702000887020008870200086B
:10015000870200088702000887020008870200085B
:10016000870200088702000887020008870200084B
:10017000870200088702000887020008870200083B
:100180008702000887020008DFF80CD000F0E0FBCF
:1001900000480047598F0008A8B0012030BF72B650
:1001A000704762B6704780F3088870472C4B196817
:1001B0000868B0E8F04F80F30988BFF36F8F4FF005
:1001C000000080F3118870470000000008480068B4
:1001D000006880F308884FF0000080F3148862B64E
:1001E00061B6BFF34F8FBFF36F8F00DF00BF00BF5B
:1001F00008ED00E0DFF80C00016841F470010160D7
:10020000704700BF88ED00E0EFF30980BFF36F8F08
:10021000134B1A681EF0100F08BF20ED108A20E95A
:10022000F04F106009B44FF0500080F31188BFF315
:100230004F8FBFF36F8F0CF053FF4FF0000080F330
:10024000118809BC19680868B0E8F04F1EF0100F5B
:1002500008BFB0EC108A80F30988BFF36F8F704736
:1002600084030020EFF305807047000006488047B4
:1002700006480047FEE7FEE7FEE7FEE7FEE7FEE78B
:10028000FEE7FEE7FEE7FEE74944000889010008B3
:100290002DE9F0410024061B254671F1000605DA20
:1002A00001240027D0EB070067EB0101161E73F154
:1002B000000605DA0027D2EB0702012567EB0303EE
:1002C00000F06EFA86460E4617469C46AC4204D0B5
:1002D0000025D0EB050E65EB010624B10020D2EB22
:1002E000000760EB030C704631463A466346BDE8B2
:1002F000F08140EA01039B0703D009E008C9121FFF
:1003000008C0042AFAD203E011F8013B00F8013BCF
:10031000521EF9D27047D2B201E000F8012B491EFB
:10032000FBD270470022F6E710B513460A46044692
:100330001946FFF7F0FF204610BD30B505462A46A6
:100340000B4612F8010B13F8014B08B1A042F8D08C
:100350001CB1002802D06D1CF1E7284630BD421CBC
:1003600010F8011B0029FBD1801A704710B500223C
:1003700000E0521C835C8C5CA34201D1002BF8D1BD
:10038000D8B2E1B2401A10BD2DE9FE4F804681EA95
:100390000300C00F0C46009021F0004123F00045FF
:1003A000B8EB0200A94105D24046214690461C46C2
:1003B0000B46024623F00040104347D0270DC7F3F9
:1003C0000A00C3F30A510290401A019040286BDAE8
:1003D000C3F3130040F4801B0098924620B1002321
:1003E000D2EB030A63EB0B0B01985946C0F14002B4
:1003F000504600F006FA06460D4650465946019A08
:1004000000F01EFA10EB08006141002487EA115247
:1004100084EAE7731A4340D0009A62B3019A012A32
:100420004FEA075215DC001B61EB02014FF000425E
:1004300002EA0752CDE90042001C41F58011324624
:100440002B4600F01EFA03B0BDE8F08F404621466F
:10045000F9E7001B61EB0201001C41F58013001855
:100460005B412018A2F5001747EB030140EAD57065
:10047000B6196D4111E06D084FEA360645EAC075C0
:100480004FEA0752001B61EB0201001C41F580118D
:1004900049084FEA30000019514132462B4603B05B
:1004A000BDE8F04F00F0DEB90098012240000023C3
:1004B000D0EB020263EBE073009821464FEAE07450
:1004C000B8EB000061EB0401E9E783F000435BE770
:1004D00081F0004158E72DE9FE4F81EA030404F062
:1004E000004421F0004100944FF0000B23F0004342
:1004F00050EA01045ED052EA03045BD0C3F30A540D
:10050000C1F30A552C44A4F2F3340194A0FB025425
:10051000C1F3130141F48011C3F3130343F48013B7
:1005200001FB024400FB034E840A970A44EA81540B
:1005300047EA8357A4FB076802958D0A05FB0785E8
:100540004FEA932C04FB0C542705029D4FEA0658F2
:1005500047EA1637B5EB08056EEB070C870E920ECF
:1005600047EA811742EA8312A7FB0201B6EB0B01AF
:1005700064EB00042B0D43EA0C335E1844EB1C5073
:10058000DA465146E7FB0201C5F313044FEA0B3389
:1005900043EA14534FEA0432019C43EA0603A4F1F0
:1005A0000C040294009CCDE900B400F06AF903B099
:1005B000BDE8F08F00200146F9E72DE9F04D81EA12
:1005C000030404F0004B21F0004514464FF0000AEC
:1005D00023F0004150EA050220D054EA01021DD068
:1005E000C5F30A570246C5F31303C1F31300C1F361
:1005F0000A5640F4801543F48013A7EB0608101B3D
:10060000D64608F2FD3873EB050002D308F1010865
:1006100001E092185B41B8F1000F03DA00200146B7
:10062000BDE8F08D00204FF48011064684460EE0B0
:10063000171B73EB050705D3121B63EB050306437A
:100640004CEA010C49084FEA300092185B4150EA2D
:100650000107EDD152EA030012D082EA040083EAD6
:100660000501084305D0101BAB4106D2012200232F
:1006700006E000224FF0004302E06FF00102531049
:100680001AEB06004CEB085110EB0A0041EB0B0192
:10069000BDE8F04D00F0E6B80EB5C10F80EAE0709D
:1006A0000844CA07002140F233438DE80E000A4691
:1006B0000B4600F0E6F803B000BD0EB540F2334142
:1006C00002910021CDE900110A460B4600F0D9F84D
:1006D00003B000BD70B5C1F30A5201F0004500241B
:1006E000C1F3130140F2FF3341F480119A4201DA61
:1006F000002070BD40F233439A42A2F2334203DC41
:10070000524200F08DF800E090402C43F1D040427E
:1007100070BDC1F30A5210B5C1F3130140F2FF33AB
:1007200041F480119A4201DA002010BD40F23343B7
:100730009A42A2F2334203DC524200F071F810BD3B
:10074000904010BD30B5041E71F1000404DB4FF081
:100750000044404264EB0101141E73F1000405DB08
:100760001C464FF00043524263EB0403994208BF1A
:10077000904230BD30B50B460146002020220124B6
:1007800009E021FA02F59D4205D303FA02F5491B5F
:1007900004FA02F52844151EA2F10102F1DC30BD75
:1007A0002DE9F05F0546002092469B4688460646A6
:1007B000814640241BE0284641464746224600F039
:1007C0002FF853465A46C01A914110D31146184685
:1007D000224600F016F82D1A67EB01084F46224614
:1007E0000120002100F00DF817EB00094E41201EFA
:1007F000A4F10104DFDC484631462A464346BDE801
:10080000F09F202A04DB203A00FA02F10020704712
:100810009140C2F1200320FA03F31943904070473E
:10082000202A04DB203A21FA02F00021704721FA45
:1008300002F3D040C2F120029140084319467047AC
:10084000202A06DBCB17203A41FA02F043EAE07394
:1008500006E041FA02F3D040C2F120029140084381
:100860001946704710B5141E73F1000408DA401CD5
:1008700041F1000192185B411A4301D120F00100BF
:1008800010BD2DE9F04D92469B4611B1B1FA81F2AF
:1008900002E0B0FA80F220329046FFF7B2FF044641
:1008A0000F4640EA0A0041EA0B0153465A46084304
:1008B00013D0114653EA010019D0C8F14002504646
:1008C000FFF7AEFF05460E46504659464246FFF733
:1008D00098FF084305D0012004E020463946BDE8D2
:1008E000F08D0020054346EAE0762C4337430A9812
:1008F0006305E40AA0EB08000022FD0A44EA47541D
:100900000A3002D500200146E9E7010510196941C6
:10091000DDE9084500196941BDE8F04DA2E7C1F3E2
:100920000A52C1F3130140F2FF3341F480119A429D
:1009300002DA00200146704740F233439A42A2F2A5
:10094000334202DC5242FFF76BBFFFF75ABF000091
:10095000064C074D06E0E06840F0010394E807000C
:1009600098471034AC42F6D3FFF712FCDC4406087B
:10097000FC44060870B58C1810F8015B15F00703ED
:1009800001D110F8013B2A1106D110F8012B03E028
:1009900010F8016B01F8016B5B1EF9D12B0705D430
:1009A0000023521E0DD401F8013BFAE710F8013B79
:1009B000CB1A921C03E013F8015B01F8015B521E95
:1009C000F9D5A142D8D3002070BD00001EF0040F5D
:1009D0000CBFEFF30880EFF3098000F00FBE00BFFB
:1009E000FEE7000010B500231A460221034803F079
:1009F0007BFF092101480AF057FB10BD18080020B1
:100A000070B500254FF4803404E0802001F0C2FB73
:100A100000B103E0201EA4F10104F6D100BF0CB91F
:100A2000032070BD40F2FF5001F08AFB2846F8E732
:100A300070B5044605E01648056805F0450000B1AC
:100A400000E0F8E700BF042001F0A4FB20B104207F
:100A500001F076FB032070BD012001F09BFB20B16B
:100A6000012001F06DFB0120F5E7094824380068FA
:100A7000A04201D01020EEE740F2FF5001F060FBF1
:100A800003482038006808210840C0B2E3E70000AE
:100A9000342C014070B500264FF4803505E0114834
:100AA000046804F0450000B103E0281EA5F101052B
:100AB000F5D100BF15B104F0040028B103260420CD
:100AC00001F03EFB304670BD012001F063FB18B120
:100AD0000126012001F034FB40F2FF5001F030FB11
:100AE0003046F0E7342C014010B505E00B480468AF
:100AF00004F0450000B100E0F8E700BF042001F079
:100B000049FB20B1042001F01BFB032010BD40F283
:100B1000FF5001F015FB0020F8E70000342C0140E5
:100B20002DE9F04105460E464FF0000805E020484B
:100B3000076807F0450000B100E0F8E700BF0420B7
:100B400001F028FB28B1042001F0FAFA0320BDE8E7
:100B5000F081012001F01EFB20B1012001F0F0FA2C
:100B60000120F4E7124824380068A84201D0102080
:100B7000EDE740F2FF5001F0E3FA0D482038046839
:100B800004F4604018B9200C30804046DFE704F4DC
:100B9000005008B11320DAE704F4804008B11020B7
:100BA000D5E704F4004008B10F20D0E74046CEE777
:100BB000342C014070B500264FF4803505E00F4815
:100BC000046804F0450000B103E0281EA5F101050A
:100BD000F5D100BF15B104F0040028B103260420AC
:100BE00001F0AEFA304670BD04F0400018B10026A6
:100BF000402001F0A5FA3046F5E70000342C014012
:100C000010B504460BF066FC0AF078F92046641C27
:100C10000AF098F92046641C0AF094F92046641CF6
:100C20000AF090F92046641C0AF08CF920460AF07C
:100C300089F910BD70B52DED028B04460025012603
:100C40002548FFF7DDFF2448007823494978084408
:100C50002149897808442049C9780844C5B21E480A
:100C60000079A84235D11C4949781B4A127801EB1A
:100C70000220FFF711FD41EC180B9FED180B53EC10
:100C8000102BFFF79AFCC4E900011348807800F0AC
:100C9000800030B11048807820F080000E498870C4
:100CA000B61E0D49C9780C4A927801EB022101FB6E
:100CB00006F0FFF7F1FC41EC180B9FED080B53EC2D
:100CC000102BFFF77AFCC4E902010020BDEC028B77
:100CD00070BDFF20FAE70000DC00002000000000EB
:100CE0000000244010B50749074800F055F90128D5
:100CF00006D10449044800F051F8044800688047D0
:100D000010BD00000080001858600240B8000020AC
:100D100010B50749074800F03FF9012806D10449FA
:100D2000044800F03BF804480068804710BD00000C
:100D30002080002070600240B400002010B50549FA
:100D4000054800F029F9012803D10249024800F0C2
:100D500025F810BD008800208860024010B50C49BD
:100D60000C4800F019F9012810D10949094800F090
:100D700015F800F06BFB044604F0800028B106482B
:100D8000007820F080000449087000BF10BD00000A
:100D900000802020A0600240C00000200246094BD5
:100DA0009A4201D2084801E00648103801F0005389
:100DB0001BB1064B0B40C36002E0044B0B40836049
:100DC0007047000010640240006002407D0F7D0FFC
:100DD00021B1026842F00102026003E0026822F0E1
:100DE0000102026070470000016821F0010101600A
:100DF0000021016041608160C16001612121416188
:100E00004A49884204D13D21484A103A91608CE019
:100E100046491831884205D14FF47461434A103A6B
:100E2000916082E041493031884205D14FF474111C
:100E30003E4A103A916078E03C494831884205D1F9
:100E40004FF07461394A103A91606EE03749603171
:100E5000884204D13649354A103AD16065E03349B9
:100E60007831884204D13349304A103AD1605CE08D
:100E70002E499031884204D12F492C4A103AD16032
:100E800053E02A49A831884205D14FF03D51274A05
:100E9000103AD16049E02949884204D13D21274ACE
:100EA000083A116041E025491831884205D14FF4D4
:100EB0007461224A083A116037E020493031884293
:100EC00005D14FF474111D4A083A11602DE01B49F9
:100ED0004831884205D14FF07461184A083A1160D0
:100EE00023E016496031884204D11149134A121F88
:100EF00011601AE011497831884204D10D490F4A36
:100F0000121F116011E00D499031884204D10A4945
:100F10000A4A121F116008E00849A831884204D12A
:100F20004FF03D51054A121F11607047106002409A
:100F30003D000020400F002000003D2010640240D2
:100F400021B1026842F48022026003E0026822F4C8
:100F500080220260704722B1036843F400230360DB
:100F600003E0036823F4002303600161704721B1AB
:100F7000026842F02002026003E0026822F02002D0
:100F800002607047014600200A6802F001020AB1BF
:100F9000012000E00020704770B5024600200024C8
:100FA0000025124EB24201D2114B01E00F4B103B13
:100FB000104E0E4036B11E2606EAD124166806EA07
:100FC000040502E0566906F0800501F000560EB1F6
:100FD0005C6800E01C68084E344004EA010616B163
:100FE0000DB1012000E0002070BD0000106402403F
:100FF000006002403C0F3C0F7D0F7D0F10B501F0EB
:1010000080034BB122B1436943F08003436103E0A5
:10101000436923F08003436180290BD02AB1036820
:1010200001F01E042343036004E0036801F01E0482
:10103000A343036010BD000010B500220268134BEB
:101040001A40CC680B6823434C6923438C692343C3
:10105000CC6923430C6A23434C6A23438C6A2343A1
:101060004C6B23438C6B23431A430260426922F08A
:101070000702D1E90B3423431A4342610B694360F1
:101080004B6883608B68C36010BD00003F801CF01C
:10109000416070477047000008B54FF4004000F011
:1010A0003BF8012805D04FF4806000F035F80128A6
:1010B00024D11348006820F4004011490860084614
:1010C000006820F4806008600020009069460D48A8
:1010D00000680CF04DFF4FF4004000F017F84FF49B
:1010E000806000F013F8009838B14FF08050064946
:1010F0000860BFF34F8FBFF36F8F00BF08BD0000C4
:10110000003C01401800002004ED00E001490860A7
:1011100070470000143C014001460020034A126859
:101120000A400AB1012000E000207047143C014051
:10113000002123498279002A3AD00A4612680368BE
:101140009A430B461A600A1D126803689A430B1DE6
:101150001A60027911440A6803681A430A60184A3F
:101160000832126803689A43154B08331A601A1D37
:10117000126803689A43124B0C331A604279102AA2
:101180000ED11A1F126803681A430D4B08331A60F8
:101190001A1D126803681A43094B0C331A600DE0DC
:1011A0000749427911440A6803681A430A6005E056
:1011B000027911440A6803689A430A607047000084
:1011C000003C01402DE9FC4107460D460026002465
:1011D00000200090019008205B49086010204860C2
:1011E000402088600020C8604FF480600861084695
:1011F00001F01CF81020FFF71BFC044614B1204638
:10120000BDE8FC815148008800044F490860372040
:101210004860402088600020C8604FF4806008610A
:10122000084601F003F83720FFF702FC04460CB132
:101230002046E5E74FF0FF30454908600820486048
:10124000302088600220C8600020086101204861C9
:10125000084600F085FF00203B49086033204860C5
:10126000402088600020C8604FF480600861084614
:1012700000F0DCFF3320FFF7DBFB04460CB1204617
:10128000BEE70CE04FF4001000F084FF38B13148A5
:1012900000684DF82600761C022E00D307E02D488A
:1012A0004C38006840F22A6108400028EAD000BFAC
:1012B000082000F06FFF20B1082000F041FF04205B
:1012C0009EE7022000F066FF20B1022000F038FF08
:1012D000022095E7202000F05DFF20B1202000F0E3
:1012E0002FFF06208CE74FF4007000F053FF28B169
:1012F0004FF4007000F024FF072081E740F2FF5018
:1013000000F01EFF00980006009901F47F4140EABA
:101310000120009901F47F0140EA1120009940EA80
:101320001160686001980006019901F47F4140EA6C
:101330000120019901F47F0140EA1120019940EA5E
:101340001160286020465BE78804002034000020FC
:101350009C040020802C014010B5044602A003F03C
:1013600083FCE043C0B210BD7465737421210A0090
:10137000F0B50A4600210023002400BF3DE001250E
:1013800005FA01F3156805EA03049C4234D10568A7
:101390004F000326BE40B543056015794E00B540A9
:1013A0000668354305601579012D02D01579022DA7
:1013B00016D185684F000326BE40B5438560557938
:1013C0004E00B540866835438560456801268E40ED
:1013D000B5434560456896798E40B6B23543456061
:1013E000C5684F000326BE40B543C560D5794E00A1
:1013F000B540C6683543C560491C1029BFD3F0BD50
:10140000F0B5002300244D07ED0E02FA05F3CE10CF
:1014100000F1200555F826504E07F70E0F26BE4066
:10142000B543CF1000F1200646F82750CE1000F14A
:10143000200555F8265045EA0304CE1000F120059A
:1014400045F82640F0BD0183704700000148007850
:1014500070470000C0000020F0B504460B46002095
:10146000217862780025A92907D1A12A05DB02F19C
:10147000790605EB46161E602AE0A12911DBA32997
:101480000FDCA12A0DDBA2F1A106A1F1A107C7EB98
:10149000071C0CEB471706EB470605EB46161E60CC
:1014A00016E0B02913DBF72911DCA12A0FDBA2F12A
:1014B000A106A1F1B007C7EB071C0CEB471706EB21
:1014C000470606F24E3605EB46161E6000E0FF208A
:1014D000F0BD000010B502460020064B7F2A07DC55
:1014E000202A05DBA2F1200403EB04140C6000E0C9
:1014F000FF2010BD80CF03002DE9F84307460C46BE
:10150000164669463846FFF7A7FFB0F100082ED10E
:1015100019490860032002F007FB04F8200F009827
:10152000C0F3074002F000FB60700098C0F3072092
:1015300002F0FAFAA0700099C8B202F0F5FAE07071
:10154000203C00250BE026B9FF2002F0EDFA6055A3
:1015500004E0FF2002F0E8FAC04360556D1C202D26
:10156000F1DB0F2005F054F801200349086008F072
:10157000FF00BDE8F8830000A00240422DE9F843D7
:1015800007460C46164669463846FFF7A3FFB0F1FA
:1015900000082CD118490860032002F0C5FA207415
:1015A0000098C0F3074002F0BFFA60740098C0F3DF
:1015B000072002F0B9FAA0740099C8B202F0B4FA98
:1015C000E07400250BE026B9FF2002F0ADFA60556B
:1015D00004E0FF2002F0A8FAC04360556D1C102DF6
:1015E000F1DB322005F014F801200349086008F00F
:1015F000FF00BDE8F8830000A002404229490968C5
:1016000001F0004149B12749096841F00041254AEC
:1016100011608169891C8161704722490839096814
:10162000214A11621F49091F097882F824101D49B7
:10163000C91E097891621B490C310968D1621949A8
:10164000891E098811861749096851631549091DC2
:1016500009689163134910310968D1630021134A65
:10166000116000BF114909680029FBD00E4A0168CA
:1016700011604168516081689160C168D160016901
:1016800011614169516181699161C169D161002133
:10169000064A116000BF054909680029FBD000BF58
:1016A000BAE700002CED00E064AC0020300400201C
:1016B0002DE9FF4104460F4615461E4601218803C9
:1016C00000F026FC0121880300F032FC00214FF4D9
:1016D000804000F02DFCADF80070ADF80240ADF890
:1016E00004600020ADF8060002200290ADF80C5016
:1016F0006946074800F068F901220221044802F017
:1017000047FA0121024800F02BF9BDE8FF810000F3
:101710000038004070B50546002400260A20B5FBBD
:10172000F0F500BF09E004EB84001F4931F8100018
:10173000A84200D103E0601CC4B20B2CF3D300BF5D
:10174000002000F099FC0B2C01D1012070BD04EBAE
:101750008402154B03EB4202918804EB840203EBF5
:101760004202508800F08EFC1048006840F0806013
:101770000E49086000BF0D48006800F000600028B6
:10178000F9D004EB8400084901EB4000C68804EB63
:10179000840001EB4000008946EA002646F400760A
:1017A00003490E800020D1E790EA0008003802408B
:1017B0002038004070B590B004460E461546012111
:1017C000480500F095FB2448FFF70EFB00BF2248B8
:1017D000FFF7D8FB0028FAD120491F48FFF7DEFAAF
:1017E000002000901E480190029440200390049530
:1017F000002005904FF48060069040000790800024
:1018000008904011099040020A9000200B900C9023
:101810000D900E9069461048FFF70EFC00223146ED
:101820000D48FFF798FB01210B48FFF789FB0122C8
:1018300010210948FFF7E2FB0F208DF83C00002043
:101840008DF83D008DF83E0001208DF83F000FA877
:1018500000F008FB10B070BD706002403DF000A0C9
:101860000C3800402DE9FF4104460F4615461E4640
:1018700087F48070ADF80000ADF80240ADF8046068
:101880000020ADF8060002200290ADF80C50694629
:10189000064800F071F801221146044802F078F978
:1018A0000121024800F05CF8BDE8FF8100340040EF
:1018B00070B590B004460E4615460121480500F06B
:1018C00017FB2448FFF790FA00BF2248FFF75AFBA6
:1018D0000028FAD120491F48FFF760FA4FF0C06096
:1018E00000901E48019002940020039004950590FA
:1018F0004FF48060069040000790800008904011EF
:10190000099000020A9000200B900C900D900E9010
:1019100069461048FFF790FB002231460D48FFF75B
:101920001AFB01210B48FFF70BFB0122102109488C
:10193000FFF764FB0E208DF83C0000208DF83D0081
:1019400001208DF83E008DF83F000FA800F08AFAC4
:1019500010B070BD5860024000F0409F0C34004051
:1019600021B1828B42F48062828304E0828B4FF645
:10197000FF331A408283704730B500220023848BE6
:101980004FF240052C40848302240484828B0C880F
:10199000B4F5007F01D00C8814B94FF4807308E0CF
:1019A0000C88B4F5407F03D00C88B4F5807F00D15B
:1019B00000238C888D892C434D882C431C4344F490
:1019C00000642243828330BD2DE9F04F00250223BD
:1019D00000244FF00109002200260027944690467B
:1019E000B0F81CA04FF2400B0AEA0B0AA0F81CA0AA
:1019F0004FF0020AA0F820A0858BD1F808A0BAF118
:101A0000020F01D100BF82E0B1F804A0BAF1000FCB
:101A100002D14FF0010901E04FF00209DFF834A1D3
:101A2000DAF800A00AF4000ABAF1000F09D0DFF8D2
:101A300024A1DAF800A02AF4000ADFF818B1CBF8E4
:101A400000A0DFF810A10AF17C0ADAF800A0CAF3BE
:101A5000881CDFF800A10AF17C0ADAF800A0CAF3BA
:101A60000278DFF8F0A0AAF1040ADAF800A00AF080
:101A70003F07DFF8E0A0AAF1040ADAF800A00AF4B0
:101A8000800ABAF5800F08D1DFF8CCA0BAFBF7FACC
:101A90000AFB0CFABAFBF8F607E0DFF8C0A0BAFBC5
:101AA000F7FA0AFB0CFABAFBF8F6B1F806A0BAF599
:101AB000007F0ED14FEA162A0AEB8A0A4FEA4A0A39
:101AC000D1F808B0BAFBFBFA0AF1050A1FFA8AF24C
:101AD0000FE04FEA491AB6FBFAFA0AEB8A0A4FEA14
:101AE0004A0AD1F808B0BAFBFBFA0AF1050A1FFA54
:101AF0008AF24FF00A0AB2FBFAF202F00104A2EBFA
:101B0000040ACAF34F034FF6FF7A0AEA0424022BB1
:101B100001DBFF2B01DD02230024B1F806A04AEA15
:101B2000040A4AEA030AA0F820A0B1F804A0B1F818
:101B30000CB04AEA0B0AB1F802B04AEA0B0AB1F853
:101B400000B04AEA0B0A4AF4006A4AEA05058583AE
:101B5000BDE8F08F0838024000127A000024F4003B
:101B600010B501210148FFF733F910BD7060024044
:101B700010B500210148FFF72BF910BD706002403D
:101B800010B501210148FFF723F910BD586002404C
:101B900010B500210148FFF71BF910BD5860024045
:101BA0001CB50121022000F0A3F94FF44070009011
:101BB00001208DF8040000208DF8060003208DF828
:101BC000050001208DF8070069460548FFF7D0FBA6
:101BD0000120044908600449C1F8A4021CBD0000AA
:101BE00000040240A08240420080404270B504469A
:101BF0001548006820F44020134908600846006832
:101C000040F480200860002010490860002517E09B
:101C1000E0090E49091D08606006040E022004F068
:101C2000F7FC01200A49C1F8A002022004F0F0FCF0
:101C3000002006490860022004F0EAFC681CC5B2D6
:101C4000082DE5DB70BD000000040240A082404288
:101C50000080404210B50F48006820F440200D4934
:101C600008600846006840F48020086001200A49A6
:101C700008600A49C1F8A002042004F0C9FC002051
:101C800005490860042004F0C3FC00200349C1F8A2
:101C9000A00210BD00040240A482404200804042E5
:101CA00010B50F48006820F440200D490860084630
:101CB000006840F48020086000200A4908600A4952
:101CC000C1F8A402042004F0A3FC01200549086027
:101CD0000549C1F8A402042004F09AFC10BD0000DC
:101CE00000040240A08240420080404210B500241F
:101CF0001348006820F44020114908600846006835
:101D0000086001200F49086004F082FC01200E49A0
:101D1000C1F8A00204F07CFC07E0601CC4B2FA2CFD
:101D200003DDFFF7BDFF012010BD064880380068C5
:101D30000028F2D10349091F086000BFF4E7000042
:101D400000040240A4824042008040421CB50121B0
:101D5000042000F0CDF80220009001208DF804004E
:101D600000208DF806008DF8070003208DF805008F
:101D700069460448FFF7FCFA02210248FFF763FBBB
:101D80001CBD0000000802401CB504460020019064
:101D90000090224800880004214908600D20486016
:101DA000402088600020C8604FF4806008610846C9
:101DB00000F03CFA1B480068009002E019480068F7
:101DC0000090009800F045000028F7D0012000F0B6
:101DD000E1F920B1012000F0B3F901201CBD04207D
:101DE00000F0D8F920B1042000F0AAF90320F5E7AB
:101DF0000C48243800680D2801D01020EEE740F28E
:101E0000FF5000F09DF907482038006801900198C4
:101E1000C0F3432020700020E0E7000034000020E1
:101E200088040020342C01401CB50121102000F052
:101E30005FF81F20009001208DF807008DF8040046
:101E400002208DF8050069460348FFF791FA1F212B
:101E50000148FFF7F8FA1CBD0010024000BFFEE782
:101E60007047000070B5002100230F22C4781CB316
:101E7000174C246804F4E064C4F5E064C4F307215B
:101E8000C1F10404E3B20A4144789C40E1B2847891
:101E9000144021430C07210E0E4C0578615504783F
:101EA00004F01F050124AC4005786D11AD0005F16B
:101EB000E025C5F8004109E0047804F01F0501247D
:101EC000AC40054D0678761145F8264070BD0000FF
:101ED0000CED00E000E400E080E100E00249014395
:101EE000024A1160704700000000FA050CED00E0A6
:101EF00029B1064A12680243044B1A6004E0034AFF
:101F000012688243014B1A6070470000303802406B
:101F100029B1064A12680243044B1A6004E0034ADE
:101F200012688243014B1A6070470000403802403B
:101F300029B1064A12680243044B1A6004E0034ABE
:101F400012688243014B1A6070470000203802403B
:101F500029B1064A12680243044B1A6004E0034A9E
:101F600012688243014B1A607047000044380240F7
:101F700029B1064A12680243044B1A6004E0034A7E
:101F800012688243014B1A607047000024380240F7
:101F9000F0B5002100220024022500260223324F42
:101FA0003F6807F00C0121B1042905D0082937D179
:101FB00005E02E4F076036E02D4F076033E02A4FD3
:101FC0003F1F3F68C7F38056274F3F1F3F6807F00A
:101FD0003F036EB1264FB7FBF3F7DFF88CC0ACF1CF
:101FE000040CDCF800C0CCF3881C07FB0CF40CE0FC
:101FF0001E4FB7FBF3F7DFF870C0ACF1040CDCF850
:1020000000C0CCF3881C07FB0CF4174F3F1F3F6840
:10201000C7F301477F1C7D00B4FBF5F7076002E0C2
:10202000124F076000BF00BF0F4F3F6807F0F0017D
:102030000909104F7A5C0768D74047600A4F3F682C
:1020400007F4E051890A0B4F7A5C4768D7408760F4
:10205000054F3F6807F46041490B064F7A5C4768BB
:10206000D740C760F0BD0000083802400024F400EB
:1020700000127A00200400200149886670470000A1
:1020800000004742820142EA0172014B1A60704728
:10209000843802407CB50546002400200090019061
:1020A00000260DB1022600E000262248006800F05C
:1020B000007008B10E207CBD1F49098888B26946AE
:1020C000FFF780F804460CB12046F4E7019800F4CD
:1020D000802060B318480088000418490860372041
:1020E0004860402088600020C8604FF4806008612C
:1020F000084600F09BF83720FEF79AFC04460CB126
:102100002046D8E70D48066006200C49486040206C
:1021100088600020C8604FF480600861084600F0C5
:1021200085F80620FEF784FC04462046C3E72520F8
:10213000C1E70000142C0140340000208804002076
:102140000149086070470000382C01400146034AED
:10215000106820F0FF00084310607047042C014015
:1021600000210B4B02681A601B1D42681A601A1D81
:10217000116821F0F701D0E902231A4303691A43D9
:1021800043691A431143024A083211607047000044
:10219000242C014001460020034A12680A400AB17B
:1021A000012000E000207047342C01400248006804
:1021B00000F0030070470000002C014010B500F053
:1021C0008DFC10BD00210A4A116847F6FF62914359
:1021D000027D83681A4343681A43C3681A4303683D
:1021E0001A4303691A431143014A11607047000002
:1021F000042C014000200B490860091D0860091DDE
:102200000860091D0860074924310860091D08603D
:10221000091D086004480349383108600020091D81
:1022200008607047002C0140FF07C0000021094BE7
:1022300002681A601A1D11686FF30A01D0E90123C0
:102240001A43C3681A4303691A431143014A121D12
:1022500011607047082C0140014908607047000078
:10226000002C014070B590B004460E46154600BFE4
:102270001A48FEF787FE0028FAD11848FEF7B4FD89
:102280004FF00060019016480290039404950020DE
:10229000059006904FF480600790800008908000C1
:1022A000099000200A904FF440300B9004200C90CD
:1022B00003200D904FF400000E9080100F9001A9A4
:1022C0000648FEF7B9FE20210448FEF750FE012122
:1022D0000248FEF77DFD10B070BD0000586402405A
:1022E000802C014070B5044600251648007803286C
:1022F00002D12725284670BD1248007838B1114810
:102300000078012803D00F480078022817D1B4F5CF
:10231000805F02D127252846EDE7E0B2FFF7BAFE3D
:10232000054665B90848006820F4C05006490860B1
:102330000846006820430860084600680860284690
:10234000D9E7000030000020042C0140F0B5014620
:1023500000200022BE4B1B7881F85630BD4B1B88F5
:10236000A1F85430BC4B1B681A0E93090B70C2F3D2
:1023700083034B7002F003038B70B74B1B68C3F3EE
:102380000742CA70B44B1B88C3F307220A71B24BD1
:102390001A784A715B681A0E1301CB80AE4B5B68EA
:1023A000C3F30742CB8843EA1213CB8002F00F033A
:1023B0000B72A94B9B88C3F30722D3094B72C2F35C
:1023C00080138B72C2F34013CB72C2F300130B73F2
:1023D00000234B739E4B1B783BB19D4B1B78012B0D
:1023E00003D09B4B1B78032B4FD193071B0D0B6125
:1023F000994B1A790B6943EA82030B61964B9B68F0
:102400001A0E0B6943EA92130B61C2F3C2030B75F8
:1024100002F007034B75904B9B68C3F307425309C7
:102420008B75C2F38203CB7593075B0F0B768A4BD8
:102430001B89C3F307220B7E43EAD2130B760B6989
:102440005B1C0024C1E912340B7E9B1C012404FA9E
:1024500003F3DC17D1E91256A5FB037C06FB03C38B
:1024600005FB0433C1E912730C7A0123A3400B6509
:102470000024D1E912650B6DA6FB037C05FB03C3A9
:1024800006FB0433C1E912732EE0714B1B78022B5B
:102490002AD1714B1A7993069B0A0B616E4B9B688C
:1024A0001A0E0B6943EA02230B616B4B9B68C3F363
:1024B00007420B6913430B61674B1B89C3F3072268
:1024C0000B695B1C4FF40074A3FB04464FF480635C
:1024D0000025A4FB037C06FB03C304FB0533C1E911
:1024E00012734FF400730B65C2F3801301F8193FA8
:1024F00093065B0E4B70584B1A7A4B7843EAD21313
:102500004B7002F07F038B70534BDB681A0ED309BC
:10251000CB70C2F341130B71C2F382034B7193076B
:102520001B0F8B714C4BDB68C3F307428B7943EA7B
:1025300092138B71C2F34013CB7100230B7202F024
:1025400001034B72444B9B89C3F30722D3098B725F
:10255000C2F38013CB72C2F340130B73C2F30013A8
:102560004B73C2F381038B7302F00303CB733A4BBB
:102570001A7B53080B7401234B74384B1B681A0EDB
:10258000CA741939354B1B68C3F307421402CC8552
:10259000324B1B88C3F30722CB8D1343CB852F4BC4
:1025A0001A7814060C635B681A0E0B6B43EA02443C
:1025B0000C632A4B5B68C3F307420B6B43EA0224AC
:1025C0000C63264B9B88C3F307220B6B13430B63EF
:1025D000224B1A7934235A54204B9B681A0E352308
:1025E0005A541E4B9B68C3F3074214068C631B4B63
:1025F0001B89C3F307228B6B43EA02448C63174B9E
:102600001A7A8B6B43EA02248C63144BDB681A0E34
:102610008B6B13438B63114BDB68C3F307423C2383
:102620005B5C43EA12143C235C5413071C0DCC87FB
:102630000A4B9B89C3F30722CB8F1343CB87074BEE
:102640001A7B540840235C54012441235C54F0BDA0
:102650003000002034000020B4040020C404002016
:102660003EB50025002401214548FFF741FC01212A
:10267000C802FFF76DFC0121C802FFF779FC4FF497
:10268000F850019002208DF808008DF80900002014
:102690008DF80A0001208DF80B0001A93948FEF7DA
:1026A00067FE0420019001A93748FEF761FE0C2265
:1026B00008213448FEF7A4FE0C2209213148FEF718
:1026C0009FFE0C220A212F48FEF79AFE0C220B21B6
:1026D0002C48FEF795FE0C2211462A48FEF790FE84
:1026E0000C2202212848FEF78BFE00214FF40060E7
:1026F000FFF73EFCFFF77EFD31208DF80000002043
:102700008DF801008DF8020001208DF80300684665
:10271000FFF7A8FB00F0F0F8044614B900F03AF80F
:1027200004461CB91948FFF711FE044634B917498D
:10273000B1F85410080400F075FD044624B94FF4B4
:102740000060FFF7CFFD04461CB111480078032854
:1027500013D100BF0D4890F8560020B10B4890F8F7
:102760005600012801D1022500E000252846FFF788
:10277000EDFC002000F06EFD044620463EBD00004A
:102780000C00400000080240000C0240D804002069
:102790003000002038B5002401200090FFF706FD2E
:1027A00010B92524204638BD4D480078042824D08F
:1027B00000204C49086002204860C020886000204A
:1027C000C8604FF4806008610846FFF72FFDFEF7F0
:1027D00061F904460CB12046E5E7434800684349E7
:1027E00008604148001D006848603F4808300068A4
:1027F00088603D480C300068C8603948007858B19E
:1028000037480078012807D035480078062803D0DB
:1028100033480078022816D100203249086003208E
:102820004860402088600020C8604FF480600861E4
:102830000846FFF7FBFC69460320FEF771F90446E2
:102840000CB12046AFE726480078032816D1BDF822
:10285000000000042349086003204860402088608D
:102860000020C8604FF4806008610846FFF7DEFC76
:10287000FEF710F904460CB1204694E7184800789A
:1028800004282AD0BDF8000019490860BDF80000EE
:1028900000041449086009204860C02088600020B6
:1028A000C8604FF4806008610846FFF7BFFCFEF780
:1028B000F1F804460CB1204675E70B4800680D4955
:1028C00008600948001D0068486007480830006833
:1028D000886005480C300068C860002063E700008D
:1028E0003000002088040020142C0140C404002083
:1028F00034000020B40400202DE9F0470027002414
:1029000000260025A046A14676206E4908750020C5
:10291000086048608860C86008610846FFF752FC9C
:102920000320FFF799FC6848006840F4807066490E
:10293000086000BF12E000206449086048608860B9
:10294000C8604FF4806008610846FFF76FFCFEF72F
:1029500057F8044604B903E0781CC7B24A2FEADBF3
:1029600000BF14B12046BDE8F0874FF4D570574939
:10297000086008204860402088600020C8604FF44C
:10298000806008610846FFF751FCFEF713F9044622
:1029900024B901204E4908704FF0804900204B496E
:1029A000086037204860402088600020C8604FF4ED
:1029B000806008610846FFF739FC3720FEF738F8D9
:1029C0000446002C4CD135E00020404908603720F7
:1029D0004860402088600020C8604FF48060086133
:1029E0000846FFF723FC3720FEF722F804460CB117
:1029F0002046B8E7374849EA0000344908602920F2
:102A00004860402088600020C8604FF48060086102
:102A10000846FFF70BFCFEF767F804460CB12046AA
:102A2000A1E7294810300668012080EAD67080F0BE
:102A300001086D1CB8F1000F03D14FF6FF708542FD
:102A4000C2D34FF6FF70854202D31B2420468AE78B
:102A500006F08040061E33D002201D4908702FE08A
:102A60001DE01D4819490860012048604020886029
:102A70000020C8604FF4806008610846FFF7D6FB6D
:102A8000FEF732F804460CB120466CE70E481030D1
:102A90000668012080EAD67080F001086D1CB8F14C
:102AA000000F03D14FF6FF708542DAD34FF6FF7067
:102AB000854202D31B24204655E7032004490870B1
:102AC000204650E770040020042C014088040020B8
:102AD00030000020000010800080FF8010B54FF40F
:102AE0008070FFF757FB78B34C480078012814D169
:102AF00000204B4908600C2048604020886000207E
:102B0000C8604FF4806008610846FFF78FFB0C2017
:102B1000FDF78EFF4349087002E00020414908702C
:102B20004148006840F480703F490860081D006813
:102B30004CF23A3188433C49091D086001203B4969
:102B400008703848007810BDFFE70220FFF722FB2D
:102B500078B10220FFF7F4FA3348001D00684CF208
:102B60003A3188433049091D086002202D49087018
:102B7000E9E70820FFF70EFB78B10820FFF7E0FA3D
:102B80002948001D00684CF23A3188432649091D46
:102B90000860042023490870D5E72020FFF7FAFADF
:102BA00078B12020FFF7CCFA1F48001D00684CF2D6
:102BB0003A3188431C49091D0860062019490870EC
:102BC000C1E71020FFF7E6FA78B11020FFF7B8FA56
:102BD0001548001D00684CF23A3188431249091D1E
:102BE000086005200F490870ADE74FF40070FFF74B
:102BF000D1FA80B14FF40070FFF7A2FA0A48001D25
:102C000000684CF23A3188430749091D08600720E3
:102C10000449087097E7002095E70000390000207C
:102C2000880400203A000020382C01403B0000209E
:102C30002DE9F84F8146174698460A9C4FF0000A46
:102C4000D3464D464FF0FF36B9F1000F02D1262092
:102C5000BDE8F88F00208649086086480078022881
:102C600005D10402780A40EAC8574FEA68280020D4
:102C7000814988604860401E08600120486100204A
:102C8000C86008610846FFF76BFA79481838006891
:102C900000F0007008B10E20DAE7002C21DDB4F559
:102CA000006F1EDC601E2040D8B9204603F0BEF93C
:102CB000009072480460102070494860402088608D
:102CC0000020C8604FF4806008610846FFF7AEFA44
:102CD0001020FDF7ADFE8246BAF1000F03D050463A
:102CE000B6E72620B4E700980001634988600846EB
:102CF00044604FF0FF300860012048610220C86046
:102D0000002008610846FFF72BFA5C480760112095
:102D10005A494860402088600020C8604FF48060B5
:102D200008610846FFF782FA1120FDF781FE82460E
:102D3000BAF1000F01D050468AE7514800780028C8
:102D40005CD1FDF72CFA18E04FF40040FFF722FAAF
:102D500078B14FF0000B06E045485430006845F864
:102D60002B000BF1010BBBF1080FF5D32035454EBD
:102D700003E00EB904206BE7761E3D48083000687A
:102D800040F22A6108400028DED00820FFF702FA4E
:102D900020B10820FFF7D4F9042059E70220FFF7FB
:102DA000F9F920B10220FFF7CBF9022050E72020EB
:102DB000FFF7F0F920B12020FFF7C2F9062047E71E
:102DC0004FF40070FFF7E6F928B14FF40070FFF7F9
:102DD000B7F907203CE704E0254854300068286034
:102DE0002D1D4FF40010FFF7D5F90028F4D1FDF7A1
:102DF000D8F940F2FF50FFF7A3F936E020480078F9
:102E0000012832D10020204908702049087020494B
:102E1000087017481030006840F22A3108431449FE
:102E2000103108601248006840F00800104908603E
:102E3000002221464846FFF715FA00E0761E1548A5
:102E4000006800F0006038B91148007820B90E48D9
:102E5000007808B9002EF1D10EB90420F8E60A482E
:102E6000007810B1084890F800A05046F0E6000045
:102E70002C2C0140300000209C04002088040020FD
:102E800038000020FFFF7F003A00002039000020BA
:102E90003B000020006402402DE9FE4F83460C46B3
:102EA000914600200290002625462C46700240EAFA
:102EB000D5566D020BF00300F0B14FF0000A18E098
:102EC0004FF4007000904FEA4A20471946EBE07338
:102ED0003A461648FFF7ACFE02904FF400721349D1
:102EE0005846FDF706FA0BF5007B0AF1010000F0E9
:102EF000FF0ACA45E4DB16E0B9F1010F09D14FF42E
:102F000000702A46334600905846FFF791FE029023
:102F100009E04FF400702A463346CDE900095846CF
:102F200000F006F802900298BDE8FE8F3005002000
:102F30002DE9FF5F17469846DDE90E464FF0000980
:102F4000CA464FF0FF35AC49009808600020AB49F5
:102F50000860AB480078022805D10402780A40EAEC
:102F6000C8574FEA68280020A64988604860401E7C
:102F70000860012048610020C86008610846FFF72A
:102F8000EFF89E481838006800F0007018B10E2065
:102F900004B0BDE8F09F002C21DDB4F5006F1EDC0D
:102FA000601E2040D8B9204603F040F8834696487A
:102FB0000460102094494860402088600020C86068
:102FC0004FF4806008610846FFF730F91020FDF7E4
:102FD0002FFD8146B9F1000F03D04846D8E72620DF
:102FE000D6E7012E71D906FB04F0B0F1007F01D3C2
:102FF0002620CDE74FEA0B108249886006FB04F0DB
:1030000048604FF0FF300860012048610220C8602E
:10301000002008610846FFF7A3F87B4807601220EC
:1030200079494860402088600020C8604FF4806083
:1030300008610846FFF7FAF81220FDF7F9FC81460F
:10304000B9F1000F01D04846A2E770480078002887
:103050007ED1FDF7A4F81EE04FF40040FFF79AF888
:10306000A8B14FF0000A08E0644854300068624993
:10307000096841F82A000AF1010ABAF1080FF3D3EE
:103080005D48006820305C490860614D03E00DB97F
:1030900004207DE76D1E59480830006840F22A314F
:1030A00008400028D8D00820FFF774F820B1082085
:1030B000FFF746F804206BE70220FFF76BF828B112
:1030C0000220FFF73DF8022062E792E02020FFF7A0
:1030D00061F820B12020FFF733F8062058E74FF4BD
:1030E0000070FFF757F828B14FF40070FFF728F889
:1030F00007204DE70AE04148543000683E4909681E
:1031000008603D480068001D3B4908604FF400100E
:10311000FFF740F80028EED14FF48070FFF73AF83F
:1031200020B33748007838B135480078012803D0FB
:1031300033480078022819D10020334908600C2058
:103140004860402088600020C8604FF4806000E044
:1031500013E008610846FFF769F80C20FDF768FCEA
:103160008146B9F1000F01D0484611E7FDF719F883
:1031700040F2FF50FEF7E4FF3BE0244800780128CE
:1031800037D100202349087001202349087000200E
:103190002249087019481030006840F22A3108436B
:1031A0001649103108601548006840F008001349BE
:1031B000086006FB04F100220098FFF753F800E0D6
:1031C0006D1E1748006800F0006008B9002DF7D1A7
:1031D0000DB90420DCE600BF1048007818B90D488E
:1031E00000780028F8D00B48007810B1094890F812
:1031F00000904846CCE600003C0000202C2C01400A
:10320000300000209C0400208804002038000020AA
:10321000FFFF7F003A000020390000203B00002023
:103220000064024010B504460948046007200849BC
:103230004860402088600020C8604FF480600861CA
:103240000846FEF7F3FF0720FDF7F2FB10BD000074
:103250008804002001460020012900D011B9024B4A
:10326000197000E026207047380000202DE9FF5F2C
:1032700086B017469846149D0026002005900490BD
:10328000002481460390824602900195DDF818B033
:10329000DDF818B0BBF1000F03D126200AB0BDE85D
:1032A000F09F0020C9490860C94988604860401EF5
:1032B0000860012048610020C86008610846FEF7E8
:1032C0004FFFC2481838006800F0007008B10E20A7
:1032D000E4E7C0480078022805D10502780A40EAF0
:1032E000C8574FEA6828002D1FDDB5F5006F1CDCBC
:1032F000681E2840C8B9284602F098FE0590B648D6
:1033000005601020B4494860402088600020C860F3
:103310004FF4806008610846FEF788FF1020FDF733
:1033200087FB06461EB13046B8E72620B6E7AB4815
:1033300000880004A84908600D204860402088608B
:103340000020C8604FF4806008610846FEF76EFFF9
:103350000D20FDF76DFB06460EB130469EE79B48FB
:103360001838006803904FF0FF341CE0641E9B483F
:1033700000880004984908600D204860402088605B
:103380000020C8604FF4806008610846FEF74EFFD9
:103390000D20FDF74DFB06460EB130467EE78B480B
:1033A000183800680390039800F4807008B9002C66
:1033B000DCD10CB9292071E78748076018208649BD
:1033C0004860402088600020C8604FF48060086139
:1033D0000846FEF72BFF1820FDF72AFB06460EB124
:1033E00030465BE700207E49087005980001784967
:1033F0008860084645604FF0FF3008600120486152
:103400000020C86008610846FEF7AAFE4FF0FF34AE
:103410007448007800287ED1FCF7C1FE45E04FF4E7
:103420008040FEF7B7FED8B30198A0EB0900202832
:1034300022D20198A0EB090000F0030020B9019806
:10344000A0EB0900800804E00198A0EB09008008C7
:10345000401C02904FF0000A0AE05C495431DBF84E
:10346000000008600AF1010A0BF1040B09F10409DC
:1034700002988245F1D310E04FF0000A06E05BF8B5
:103480002A005249543108600AF1010ABAF1080FC2
:10349000F5D30BF1200B09F120096FF0404404E053
:1034A000FFE70CB90420F9E6641E484808300068BC
:1034B00040F21A6108400028B1D00820FEF76AFEE9
:1034C00020B10820FEF73CFE0420E7E60220FEF7CC
:1034D00061FE20B10220FEF733FE0220DEE610205E
:1034E000FEF758FE20B11020FEF72AFE0520D5E693
:1034F0004FF40070FEF74EFE30B14FF40070FEF74F
:103500001FFE0720CAE606E0FCF74BFE40F2FF5024
:10351000FEF716FE41E03348007801283DD1002037
:10352000314908702E49087030490870274810301A
:10353000006840F21A3108432449103108604022E3
:1035400029460698FEF78EFE2048006840F00800E5
:103550001E49086000E0641E2548006800F0006015
:1035600008B9002CF7D11CB9FFF77AF8042095E6CA
:103570004FF0FF3400E0641E1C48007820B91A4860
:10358000007808B9002CF6D10CB9042086E616485C
:10359000007810B11448007880E640F2FF50FEF742
:1035A000CFFD04A8FEF7F0FB064603E004A8FEF7F3
:1035B000EBFB06463EB99DF810000728F6D09DF8B3
:1035C00010000628F2D0304668E600002C2C01409E
:1035D0009C040020300000208804002034000020DB
:1035E00039000020380000203A0000203B00002075
:1035F000006402402DE9FE4F81460C4692460020B1
:103600000290002625462C46700240EAD5566D02EF
:1036100009F00300F0B14FF0000B18E04FF4007216
:1036200049461948FCF765FE4FF4007000904FEAD8
:103630004B20471946EBE0733A461348FFF716FE56
:10364000029009F500790BF1010000F0FF0BD34562
:10365000E4DB16E0BAF1010F09D14FF400702A46FD
:10366000334600904846FFF701FE029009E04FF410
:1036700000702A463346CDE9000A484600F006F8B5
:1036800002900298BDE8FE8F300500202DE9FF5F13
:1036900084B0DDE912470026002003900290002547
:1036A00080468146019007FB04FBDDF810A0DDF8A1
:1036B00010A0BAF1000F03D1262008B0BDE8F09F9A
:1036C0000020DC490860DC4988604860401E0860D2
:1036D000012048610020C86008610846FEF740FDEF
:1036E000D4481838006800F0007008B10E20E4E7F4
:1036F000D2480078022808D10402DDE90601400A18
:1037000040EAC1504912CDE90601002C1FDDB4F595
:10371000006F1CDC601E2040C8B9204602F086FC09
:103720000390C74804601020C54948604020886065
:103730000020C8604FF4806008610846FEF776FDFF
:103740001020FDF775F906461EB13046B5E7262074
:10375000B3E7012F6FD907FB04F0B0F1007F01D36D
:103760002620AAE7B548007838B1B4480078012887
:1037700003D0B248007802282DD1B2480088000456
:10378000AF49086037204860402088600020C8604A
:103790004FF4806008610846FEF748FD3720FDF7CA
:1037A00047F906460EB1304687E7A548076017205F
:1037B000A3494860402088600020C8604FF48060C2
:1037C00008610846FEF732FD1720FDF731F906467D
:1037D0000EB1304671E79A49069808601920486092
:1037E000402088600020C8604FF48060086108466F
:1037F000FEF71CFD1920FDF71BF906460EB13046F9
:103800005BE7039800018C49886007FB04F048607F
:103810004FF0FF300860012048610020C860086157
:103820000846FEF79DFC88480078002874D1451EA4
:10383000FCF7B5FC42E0E4E04FF48040FEF7AAFC60
:10384000B8B3ABEB080020281FD2ABEB080000F0A8
:10385000030018B9ABEB0800800803E0ABEB0800ED
:103860008008401C01904FF000090AE07149543172
:10387000DAF80000086009F101090AF1040A08F108
:10388000040801988145F1D310E04FF0000906E0EB
:103890005AF8290067495431086009F10109B9F162
:1038A000080FF5D30AF1200A08F120086FF040450F
:1038B00004E0FFE70DB90420FFE66D1E5D48083007
:1038C000006840F21A3108400028B5D00820FEF701
:1038D00061FC20B10820FEF733FC0420EDE6022055
:1038E000FEF758FC20B10220FEF72AFC0220E4E695
:1038F0001020FEF74FFC20B11020FEF721FC052020
:10390000DBE64FF40070FEF745FC30B14FF4007079
:10391000FEF716FC0720D0E62CE04FF48070FEF78F
:1039200039FC00B34548007838B144480078012894
:1039300003D042480078022815D100204049086091
:103940000C204860402088600020C8604FF48060F0
:1039500008610846FEF76AFC0C20FDF769F8064688
:103960000EB13046A9E6FCF71CFC40F2FF50FEF712
:10397000E7FB46E034480078012842D10020334973
:103980000870012032490870002032490870294827
:103990001030006840F21A3108432649103108609F
:1039A00007FB04F140220498FEF75CFC2148006804
:1039B00040F008001F4908604FF0FF3500E06D1E21
:1039C0002548006800F0006008B9002DF7D11DB946
:1039D000FEF746FE042070E64FF0FF3500E06D1E56
:1039E0001C48007820B91948007808B9002DF6D194
:1039F0000DB9042061E61548007810B1134800782D
:103A00005BE640F2FF50FEF79BFB02A8FEF7BCF915
:103A1000064603E002A8FEF7B7F906463EB99DF850
:103A200008000728F6D09DF808000628F2D0304696
:103A300043E600002C2C01409C04002030000020B4
:103A40008804002034000020380000203A000020C4
:103A5000390000203B0000200064024000B587B020
:103A600001210846FEF744FA01210803FEF770FA27
:103A7000052211462A48FDF7C3FC052206212848E5
:103A8000FDF7BEFC052207212548FDF7B9FCE02023
:103A9000059002208DF818008DF8190001208DF88E
:103AA0001B0005A91E48FDF763FC4FF480700590CC
:103AB00001208DF8180002208DF8190005A918487A
:103AC000FDF756FC4FF4F0711548FDF7BCFC0020E3
:103AD000ADF800004FF48270ADF802000020ADF8A0
:103AE0000400ADF80600ADF808004FF40070ADF822
:103AF0000A001820ADF80C000020ADF80E000720D9
:103B0000ADF810006946074800F059F80121054852
:103B100000F032F8FF2000F007F807B000BD000009
:103B2000000002400030014070B50546002405E069
:103B3000601CC4B2C82C01DD002070BD02210D48FC
:103B400000F02FF80028F3D029460A4800F035F895
:103B500005E0601CC4B2C82C01DD0020EDE70121A6
:103B6000044800F01EF80028F3D0024800F022F8C4
:103B7000E3E700000030014021B1028842F040023A
:103B8000028004E002884FF6BF731A40028070473B
:103B90001AB183880B43838002E083888B43838040
:103BA00070470246002013890B400BB1012000E052
:103BB000002070470146888970478181704710B5A1
:103BC0000022028802F441520B884C8823438C88DF
:103BD0002343CC8823430C8923434C8923438C897A
:103BE0002343CC8923431A430280838B4FF2FF7413
:103BF000234083830B8A038210BD000030B500226E
:103C00008B071C0F0F2303FA04F20B4B8C1053F895
:103C100024309343084C8D1044F8253023468C10F3
:103C200053F824308C07240F00FA04F42343024C89
:103C30008D1044F8253030BD0838014010B50446D9
:103C400009F046FA034800782043024908700AF058
:103C500005FE10BDC00000200CB5002001900090B2
:103C60003448006840F480303249086000BF314871
:103C7000006800F4003000900198401C019000980A
:103C800018B90198B0F5A04FF1D12A48006800F4A6
:103C9000003010B10120009001E000200090009859
:103CA000012846D123484030006840F08050214927
:103CB000403108602048006840F440401E490860D8
:103CC0001C48083000681B49083108600846006835
:103CD00040F4004008600846006840F4A0500860C6
:103CE0001648091F0860081F006840F08070091F0F
:103CF000086000BF0F48006800F000700028F9D08D
:103D000040F205700E4908600A480830006820F04B
:103D100003000849083108600846006840F00200C6
:103D2000086000BF03480830006800F00C00082855
:103D3000F8D10CBD00380240007000400854400724
:103D4000003C02402DE9F04F2DED048B85B000BF03
:103D500000254FF4C87006F0CDFC8346C82006F05D
:103D6000C9FC064681A000F07FFF002709F066FB32
:103D700004462046FCF7A1FC41EC190B9FED800B9B
:103D800053EC102BFCF7A7FB41EC180BFCF7A2FC43
:103D900082467DA0804940F2016380A2CDE9010AFC
:103DA00000917F480168304600F06EFF3046FCF716
:103DB000D6FA07463819801C7AA37EA2CDE9000600
:103DC00084480168584600F05FFF8020FFF736FF07
:103DD0005846FCF7C4FA07463819811C7EA000F04B
:103DE00043FFB9B2584607F05FF9304608F040FC8F
:103DF00000BFFDF72BFB00F080000028F9D15846EA
:103E000008F036FC642008F0EFFD4FF4FA6006F08D
:103E100071FC83464FF4FA6006F06CFC06461122F2
:103E200071A17548006803F04DFE002004908046A3
:103E300004AB4FF4FA6259466F48006803F0B2FFD2
:103E4000804604980544B8F1000F02D06BA000F042
:103E50000BFF4FF0010941E0B9F1000F17D08020AE
:103E6000FFF7ECFE049881B2584607F01DF904AB49
:103E70004FF4FA6231466048006803F093FF8046D1
:103E8000B8F1000F1AD05DA000F0EEFE16E0802021
:103E9000FFF7D4FE049881B2304607F005F904AB71
:103EA0004FF4FA6259465448006803F07BFF80469D
:103EB000B8F1000F02D051A000F0D6FE00BFFDF710
:103EC000C5FA00F080000028F9D1B9F1000F01D146
:103ED000012000E000208146049805440498B0F5D4
:103EE000FA6FB9D0A542B7D34348006802F0A2FFE9
:103EF000A54221D200231A460221434800F0F4FCD7
:103F00000921414807F0D0F8304608F0B1FB584687
:103F100008F0AEFB3DA000F0A7FE4FF4FA7008F0E9
:103F200063FD00231A461946374800F0DDFC0921DD
:103F3000354807F0B9F80BE73AA1584600F0A4FE5F
:103F40000221584607F0B0F8304608F091FB00BF58
:103F5000FDF77CFA00F080000028F9D1584608F0FF
:103F600087FB05B0BDEC048BBDE8F08FBFAACABCCF
:103F7000B7A2CBCDD3EFD2F4CAB6B1F0B0FC0A00F1
:103F8000000000000000E83F44433441334545361B
:103F900042304439000000001C41060870636D0087
:103FA0006C010020766F702E62616964752E636FFC
:103FB0006D000000687474703A2F2F766F702E6257
:103FC000616964752E636F6D2F7365727665725FBC
:103FD0006170690068010020746F74616C20646115
:103FE00074613A2025640A005370656563685F5206
:103FF00065632E70636D00000C040020B6C1C8A17B
:10400000CAA7B0DC0A0000002208002070636DCA55
:10401000FDBEDDB6C1C8A1D0A1D3DACAB5BCCAD62F
:10402000B50A0000227D00002DE9F04389B08146E9
:104030000F46002008905FB9032008900023021F5C
:1040400008A9AA48006809F01DFE09B0BDE8F08380
:10405000642006F04FFB0546002006900790049070
:104060000590029003904946284608F0BDF929467C
:104070009FA000F0F9FD2846FCF771F9C7B29FA098
:1040800000F0F2FD00240026A04632E02C4624E099
:10409000601B40B206A901F808009F4810F83600DE
:1040A00041B207A800F808109B4901EBC601486817
:1040B000FCF755F906A911F908100144781E814250
:1040C00000D913E0944901EBC6014868FCF747F9B1
:1040D000044408F1010000F0FF088F4800EBC6001F
:1040E00041682046FCF729F9041ED1D100BF701C9D
:1040F000C6B2052ECAD306A804F016FE40B28DF84B
:1041000018000026B0465DE02C464FE0834901EBE5
:10411000C601486882A1FCF729F908BB81A103C93F
:10412000CDE90001A01E6946FCF707F9A11E8842EF
:1041300015D17A4901EBC6014868FCF710F904A9CA
:1041400011F908100144781E814200D937E0734903
:1041500001EBC6014868FCF702F9044426E000BF01
:10416000601B40B204A901F808006C4810F8360042
:1041700041B205A800F80810684901EBC60148687B
:10418000FCF7EDF804A911F908100144781E8142EA
:1041900000D914E0614901EBC6014868FCF7DFF87B
:1041A000044408F1010000F0FF0800BF5B4800EB89
:1041B000C60041682046FCF7C0F8041EA6D100BF27
:1041C000701CC6B2062E9FD304A804F0ADFD40B209
:1041D0008DF810000026B04632E02C4624E0601B2B
:1041E00040B202A901F80800504810F8360041B268
:1041F00003A800F808104D4901EBC6014868FCF718
:10420000AEF802A911F908100144781E814200D9C4
:1042100013E0464901EBC6014868FCF7A0F80444E6
:1042200008F1010000F0FF08404800EBC6004168BB
:104230002046FCF782F8041ED1D100BF701CC6B224
:10424000022ECAD302A804F06FFD40B28DF8080018
:104250009DF908009DF9101088420ED19DF90800C3
:104260009DF91810884208D19DF8180028B19DF8D2
:10427000080010B19DF8100048B9032008900023F1
:10428000021F08A91948006809F0FCFC23E0002679
:1042900018E007A880574FF47A7110FB01F105A8C8
:1042A000805700EB800001EB400103A880570844D1
:1042B000089000235A1E08A90C48006809F0E2FC87
:1042C000701CC6B29DF80810481E40B28DF8080058
:1042D0000029DED100BF00231A460121284604F040
:1042E00086FD284608F0C4F900BFAEE62400002091
:1042F0000A67626B3A25730A000000005370656517
:1043000063685265635561727450617273655F7260
:10431000756E6E696E670A00FC00002024010020A3
:10432000B5C60000CCA8B5C60000000054010020AE
:1043300010B5044614B1012C3BD120E001F0E8FD9A
:104340000123002219461CA004F051FD00231A4647
:1043500003211EA004F04BFD00231A4619462048F5
:1043600000F0C2FA09211E4806F09EFE08F0B0FED9
:1043700009F004F81B4908700AF070FA1AE01948AD
:104380000078A8B900231A46052117A004F02FFDD4
:1043900000231A46072119A004F029FDFF20114926
:1043A000087008F0C1FF322002F012F9FFF7CAFCD2
:1043B00000E000BF00BF10BD205BD3EFD2F4CAB64F
:1043C000B1F0494E464F5D2000000000A2D9BFAABF
:1043D000CABCB2C9BCAFD2F4C6B57E7E0000000034
:1043E0002208002070010020A2DABFAACABCB7A22E
:1043F000CBCDD2F4C6B57E7E20000000C7EBB5C899
:10440000B4FDB7B5BBD8CAFDBEDD7E7E000000009E
:10441000042808D14FF0E021096941F004014FF070
:10442000E022116107E04FF0E021096921F0040169
:104430004FF0E0221161704710B50AF027F801280B
:1044400001D009F075FB10BD10B51548006840F4A7
:104450007000134908601348006840F001001149DA
:10446000086000200F49083108600E4800680E49B6
:1044700008400C4908600D48091D0860081F0068C5
:1044800020F48020091F0860002006490C310860D4
:10449000FFF7E2FB4FF0006001498039086010BD72
:1044A00088ED00E000380240FFFFF6FE10300024E7
:1044B00010B501210A4800F035F801280AD1094950
:1044C000086980470021064800F048F86421044844
:1044D00000F042F80121024800F009F810BD000088
:1044E0000008004084020020CA4302827047CA4389
:1044F0000282704721B1028842F00102028004E08A
:1045000002884FF6FE731A40028070470146486ADF
:10451000704702460020138A0B400BB1012000E0D7
:104520000020704730B50246002000230024158A81
:1045300005EA0103958905EA010413B10CB10120D4
:1045400000E0002030BD1AB183890B43838102E073
:1045500083898B4383817047C16270474162704792
:1045600000220288184B98420ED0184B98420BD06C
:10457000B0F1804F08D0164B984205D0154B9842A9
:1045800002D0154B984204D14FF68F731A404B88D6
:104590001A43124B984207D0114B984204D04FF661
:1045A000FF431A400B891A4302804B68C3620B8891
:1045B0000385054B984202D0044B984201D18B7A77
:1045C00003860123838270470000014000040140FC
:1045D0000004004000080040000C004000100040B3
:1045E000001400407FB504460D4601210420FDF76C
:1045F0008FFCADF800500020ADF802000194ADF83A
:10460000080069460D48FFF7ABFF012211460B4831
:10461000FFF799FF01210948FFF76CFF1E208DF875
:104620000C0004208DF80D0000208DF80E000120F4
:104630008DF80F0003A8FDF715FC7FBD00080040B2
:1046400010B540F225511D4800F07FF810B31B480B
:1046500000F034F9C4B21A48008800F40040C8B928
:104660001748008800F4804060B10A2C03D0002075
:104670001349088020E01248008840F400401049A7
:10468000088019E00D2C06D10D48008840F48040C8
:104690000B49088010E00A480088C0F30D00094962
:1046A0000C5407480088401C0549088008460088CB
:1046B000C72801DD0020088010BD00000010014067
:1046C000800300204708002038B500BF40F2244195
:1046D000104800F03AF8E0B10E48001D0088C4B25E
:1046E00000BF06F063FB0546642106F0C7FC00200E
:1046F000009069460848006809F03AFC009838B113
:104700004FF0805005490860BFF34F8FBFF36F8FA4
:1047100000BF38BD004400402000002004ED00E050
:1047200021B1828942F40052828104E082894DF6EF
:10473000FF731A40828170471AB1838A0B438382C8
:1047400002E0838A8B438382704770B5024600245F
:1047500000230025002040F66A16B14200D100BFB8
:10476000C1F3421501F01F03012606FA03F3012DE0
:1047700002D19689334006E0022D02D1168A3340D9
:1047800001E0968A33400C12012606FA04F41688DA
:10479000344013B10CB1012000E0002070BDF0B531
:1047A0000346002400260025002040F66A17B9427F
:1047B00000D100BF1846C1F3421401F01F060127C3
:1047C00007FA06F5012C01D10C3004E0022C01D1CE
:1047D000103000E014301AB107682F43076002E080
:1047E0000768AF430760F0BD2DE9FF4705460E4659
:1047F0000024A14600BFA046B08900B100BF2C8AAA
:1048000024F44054F08804432C82AC8941F20C60BB
:104810008443B08831890843718908430443AC81DB
:10482000AC8A24F44074B0890443AC826846FDF736
:10483000AFFB2048854202D01F48854202D1DDF8F7
:104840000C9001E0DDF80890A88900F4004040B128
:1048500009EBC90000EB091031684900B0FBF1F722
:1048600007E009EBC90000EB091031688900B0FBD3
:10487000F1F76420B7FBF0F004012009642101FB8B
:104880001078A88900F4004040B1322000EBC80045
:10489000B0FBF1F000F00700044308E0322000EB29
:1048A00008106421B0FBF1F000F00F0004432C81EC
:1048B000BDE8FF87001001400014014001468888D0
:1048C000C0F30800704755230370AA2343701023D8
:1048D00083704BB2C370130C5BB20371130A5BB2EB
:1048E000437153B2837170472DE9F04105460E467E
:1048F00014461F46224631462846FFF7E4FF3B4652
:1049000007222146284600F004F804F10900BDE81A
:10491000F08130B523B1012B06D0022B06D104E083
:1049200000248D18445502E001E000E000BF00BF04
:10493000A5258C18641C055530BD00BFFEE770B579
:1049400005460E46032000F04BF9044615B144F02D
:10495000030401E024F003042146032000F05AF987
:10496000022000F03DF9044616B144F0030401E0D2
:1049700024F003042146022000F04CF970BD70B50C
:10498000044604F007042F2000F02AF9054625F01C
:10499000070545EA04012F2000F03CF9302000F023
:1049A0001FF9054625F0070545EA0401302000F00F
:1049B00031F970BD70B504460D4604F03F0405F0B2
:1049C0003F050CB944F040040DB945F040052146BF
:1049D000342000F01FF945F48071352000F01AF9F9
:1049E00070BD70B504460D4604F0030405F00305E0
:1049F000E00040EA4511042000F00CF970BD000011
:104A00001CB501210620FDF773FA4FF440500090C9
:104A100002208DF8040000208DF8060003208DF898
:104A2000050001208DF8070069463248FCF7A0FC1C
:104A30004C20009002208DF8040000208DF8060024
:104A400003208DF8050001208DF8070069462A48EB
:104A5000FCF78EFC05220C212648FCF7D1FC052230
:104A60000D212448FCF7CCFC052203212248FCF749
:104A7000C7FC052206212048FCF7C2FC06220221C1
:104A80001D48FCF7BDFCFDF78BF80021084600F03F
:104A9000C1F804460CB101201CBD1B21012000F00F
:104AA000B9F84FF4D871022000F0B4F86C2103205B
:104AB00000F0B0F80021062000F0ACF810212B2007
:104AC00000F0A8F84FF480712F2000F0A3F84FF405
:104AD0008071302000F09EF80221312000F09AF819
:104AE00008210A2000F096F808210E2000F092F824
:104AF0000020D1E700040240000802402DE9F04107
:104B000005460E461746022000F06AF8044615B125
:104B100044F00C0401E024F00C042146022000F0D3
:104B200079F82C2000F05CF8044615B144F0330409
:104B300001E024F0330421462C2000F06BF81EB174
:104B4000052000F00EF802E0002000F00AF81FB186
:104B50000720FFF714FF02E00020FFF710FFBDE879
:104B6000F08170B5044604F007042F2000F038F8F7
:104B7000054625F0700545EA04112F2000F04AF89B
:104B8000302000F02DF8054625F0700545EA0411A7
:104B9000302000F03FF870BD10B5044604F03F042B
:104BA00021462D2000F036F844F480712E2000F0CC
:104BB00031F810BD70B506460D4600240EB144F024
:104BC00001041DB144F0020444F0140421463220D3
:104BD00000F020F82146332000F01CF870BD0000E2
:104BE0000146024830F811007047000040000020E4
:104BF00010B5044604F03F040CB944F040042146CB
:104C0000362000F007F844F48071372000F002F8F5
:104C100010BD000070B505460C46FDF71BF83420AA
:104C2000FCF7E4FFFDF762F808B1012070BDC4F3A2
:104C3000002141EA4501C8B2FCF7D8FFFDF756F85C
:104C400008B10220F2E7E0B2FCF7D0FFFDF74EF822
:104C500008B10320EAE7FDF723F8024820F81540E1
:104C60000020E3E7400000200FB4054B10B503A976
:104C7000044A029800F0F8F810BC5DF814FB00003C
:104C8000998800087C0300200FB4084B10B504A9D4
:104C900002AA039800F0E8F8044602A9002000F0F8
:104CA0007AFC204610BC5DF814FB00009755000804
:104CB0002DED020B019820F0004001909DED000BBE
:104CC00002B0704702E008C8121F08C1002AFAD1DA
:104CD00070477047002001E001C1121F002AFBD17C
:104CE000704700002DE9FF5F82B00021DDE904304C
:104CF000020DDDF840B0034318D044F61050A2F284
:104D0000FF3242431514119801281FD0A5EB0B0068
:104D1000401C5FEA000A4FF000064E4FDFF8389162
:104D2000B046504615D5CAF1000413E0119801248D
:104D30004AA3012801D16FEA0B010298119AC0E938
:104D40000031C0E9024206B0BDE8F09FCBF100009F
:104D5000DFE704460021404A491842EB0450CDE900
:104D6000001012E0E00707D032463B464046494675
:104D7000FBF7B1FB8046894632463B461046194652
:104D8000FBF7A9FB06460F466410002CEAD1DDE9CB
:104D90000401DDE90023BAF1000F06DAFBF79BFB03
:104DA00042464B46FBF797FB05E0FBF706FC424605
:104DB0004B46FBF702FC04460E460022284BFBF74D
:104DC000C1FC03D84FF0FF30014607E00022254B1D
:104DD00020463146FBF7D8FAFBF7A1FD102409E085
:104DE000002C0ADB0A220023FBF7DAFC039B30329B
:104DF0001A55641E50EA0102F2D1641C039AC4F1F0
:104E000011031444119A012A03D0012208430DD141
:104E10000AE0084304D000204FF0110B119072E714
:104E2000A3EB0B056D1E0DE05B4504DD4FF00002AA
:104E300005F1010504E003DA4FF00002A5F10105D8
:104E4000002AECD002981199C0E90231C0E900456E
:104E500079E70000000014400000F03F300000003F
:104E60000000F0430000E03F2DE9FF4F95B09B4666
:104E70008946064600250FE2252877D100242746DB
:104E8000F84A0121059400E0044316F8013F203B55
:104E900001FA03F01042F7D130782A2811D06FF0D0
:104EA0002F033078A0F13002092A16D8059A44F071
:104EB000020402EB820203EB42021044761C0590CE
:104EC000EFE759F8042B0592002A03DA504244F424
:104ED0000054059044F00204761C30782E2816D138
:104EE00016F8010F44F004042A280DD06FF02F02A9
:104EF0003078A0F13003092B09D807EB870302EBC8
:104F00004303C718761CF3E759F8047B761C307806
:104F10006C280FD006DC4C2817D068280DD06A28E2
:104F200014D104E0742810D07A280FD10DE044F495
:104F300000140AE044F4801401E044F44014727850
:104F4000824202D104F58014761C761C30786628E3
:104F50000BD013DC582877D009DC002875D0452801
:104F6000F6D04628F4D047281AD19DE118E06328EE
:104F700035D0642879D0652812D195E1702873D096
:104F800008DC6728F1D069286FD06E280DD06F2813
:104F900006D1B5E073282CD0752875D0782874D048
:104FA0005A46179990476D1C75E1C4F302500228C8
:104FB00009D003280DD0D9F8001004280DD00D60B9
:104FC00009F1040967E1D9F80010EA17C1E90052B4
:104FD000F6E7D9F800100D80F2E70D70F0E719F848
:104FE000041B8DF8001000208DF80100EA46012016
:104FF00003E059F804AB4FF0FF3061074FF00001B8
:1050000002D40DE008F101018846B9420FDA80456B
:10501000F8DB1AF808100029F4D108E008F10101C2
:1050200088468142FADB1AF808100029F6D1059863
:105030005B46A0EB080721463846179A00F094FA21
:10504000284400EB080507E04DE029E10DE01AF8DF
:10505000010B5A4617999047B8F10108F7D25B4601
:1050600021463846179A13E142E00A220092C4F31F
:1050700002524FF0000A022A08D059F804CB032A42
:105080004FEAEC710AD00DE029E02AE009F10701AE
:1050900021F00702F2E802C1914609E00FFA8CFC08
:1050A0004FEAEC71042A03D14FFA8CFC4FEAEC7101
:1050B000002907DA0A460021DCF1000C61EB02014D
:1050C0002D2202E0220504D52B228DF80420012296
:1050D00003E0E20701D02022F7E7904659E00A21D9
:1050E00002E010220DE010214FF0000A00910BE0C9
:1050F00010224FF0000A44F004040827009203E055
:1051000008224FF0000A0092C4F30252022A05D08E
:1051100059F804CB0021032A08D009E009F107015E
:1051200021F00702F2E802C1914605E01FFA8CFC6B
:10513000042A01D10CF0FF0C4FF00008220728D5FB
:10514000702806D0009B83F0100353EA0A0305D0B1
:105150000EE040228DF80420012208E05CEA010202
:1051600006D030228DF804208DF8050002229046EA
:10517000009B83F0080353EA0A030AD15CEA0102A8
:1051800001D1620705D530228DF804204FF00108C7
:105190007F1E582804D034A003900EA802900DE082
:1051A00036A0F9E753466046009AFBF7F9FA8446C1
:1051B0000398825C0298401E029002705CEA010033
:1051C000F0D1029806A9081A00F1200A600702D55A
:1051D00024F4803400E00127574502DDA7EB0A00E4
:1051E00000E0002000EB0A01009005984144401ABD
:1051F0000590E00306D45B462146179A059800F017
:10520000B3F90544002706E001A85A46C05D179986
:1052100090476D1C7F1C4745F6DBE0030CD55B46D1
:105220002146179A059800F09FF9054404E03020C4
:105230005A46179990476D1C0099481E0090002906
:10524000F5DC08E0029802995A460078491C029160
:10525000179990476D1CBAF10001AAF1010AF1DC1F
:1052600065E100000928010030313233343536372A
:1052700038396162636465660000000030313233A2
:105280003435363738394142434445460000000042
:1052900000F058F90544761C307800287FF4ECAD16
:1052A00019B02846BDE8F08F620700D4062709F13F
:1052B000070222F0070CFCE80223E14603F0004855
:1052C0005FEA080C02D00FF2702C0DE05FEA045C7C
:1052D00002D50FF2682C07E05FEAC47C02D00FF21F
:1052E000602C01E0AFF2700C4FF0FF3823F0004368
:1052F000CDF850C065280CD006DC452809D04628DA
:105300001DD047283DD13DE0662818D067287ED1C2
:1053100038E00021112F01DB112000E0781CCDE9DD
:10532000000106A90EA8FFF7DDFCDDE90F010E9ACA
:1053300003910021009207F1010A04914DE04FF022
:1053400000400097CDE9011006A90EA8FFF7CAFC9E
:10535000DDE90F0203920E9B11990022DDF80CA0EB
:105360000093049211B9791C00EB010AB7EB0A0013
:1053700004D4C0F1FF3007F1010A0490AAEB070042
:10538000019044E0012F00DA01270021112F01DDF7
:10539000112000E03846CDE9000106A90EA8FFF76C
:1053A000A1FCDDE90F010E9A039100210491009206
:1053B000BA4621070CD40399514500DA8A46BAF15E
:1053C000010F05DD009AAAF10101515C302908D0D6
:1053D000B84202DA10F1040F06DA0121CDE901101A
:1053E00015E0AAF10101E9E7002805DC0499014470
:1053F0000491AAEB000102E0411C514500DD8A4600
:105400000499401A401C01904FF000400290200780
:1054100004D40198504501DBCDF8048000208DF8BC
:105420004F0002980DF14F07B0F1004F25D02B200F
:105430000E9002984FF0020800280CDA40420290C9
:105440002D200E9007E00A210298FBF793F93031E6
:10545000029007F8011DB8F10001A8F10108F2DC83
:1054600002980028EFD1791E0E980870307800F06D
:10547000200040F0450007F8020D12A8C01B00F103
:1054800007081498007800B1012000EB0A01019888
:1054900001EBE07105984144401A401E0590E0037D
:1054A00006D45B462146179A059800F05DF805443E
:1054B0001498007818B15A46179990476D1CE0036C
:1054C00024D55B462146179A059800F04DF805440F
:1054D0001CE00498002807DBDDE90301884203DDB6
:1054E0000098405C179901E0179930205A46904780
:1054F000049805F10105401C04900198401E01909C
:1055000004D12E205A46179990476D1CBAF100011C
:10551000AAF1010ADDDC05E017F8010B5A461799DC
:1055200090476D1CB8F10001A8F10108F4DC5B465E
:105530002146179A0598ABE62D0000002B000000CD
:10554000200000002DE9F041044600251E461746C4
:10555000880404D405E039462020B0476D1C641E41
:10556000F9D52846BDE8F0812DE9F0410446002533
:105570001E469046C80301D5302700E02027880446
:1055800004D505E041463846B0476D1C641EF9D588
:105590002846BDE8F0810A68531C0B601070704704
:1055A00010B5032002490874FCF7DAFA10BD0000B8
:1055B0003608002010B5002002490874FCF7D8FA1C
:1055C00010BD0000360800202DE9F05F2DED0A8B9C
:1055D0000446894692460320B4FBF0F6B4FBF0FB88
:1055E0005846FBF76AF841EC1A0B2046FBF765F8C2
:1055F00041EC1C0B9FED270B53EC102BFAF7DDFF52
:1056000041EC1B0B53EC1A2BFAF75FFF41EC190B23
:10561000B0EE490AF0EE690AFFF74AFBB0EE408AA5
:10562000F0EE608A9FED1D0B53EC102B51EC180B24
:10563000FBF788F800D2761CB00003F0ABFC0546FF
:1056400025B90020BDEC0A8BBDE8F09FB000CAF878
:1056500000002F46C8464FF0000B09E03A4641468D
:10566000032000F01FF808F103083F1D0BF1010BA8
:105670000320B4FBF0F05845F0D80320B4FBF0F160
:1056800000FB114B3A464146584600F00BF82846BD
:10569000D8E7000000000000000008400000000003
:1056A0000000B03C30B504460B460021012C0FD160
:1056B00018780104224800EB9140007810702048CF
:1056C000C1F30535405D50703D209070D07035E0DD
:1056D000022C16D1187800045D7800EB05211848DB
:1056E00000EB9140007810701548C1F30535405D1E
:1056F00050701348C1F38515405D90703D20D07007
:105700001CE0032C1AD1187800045D7800EB05200A
:105710009D7841190A4800EB9140007810700848C4
:10572000C1F30535405D50700548C1F38515405DF6
:10573000907001F03F00024D285CD070002030BD19
:1057400002EB000870B506460D4600240EE009483D
:1057500005F095FA3055681EA04201DD012000E0F9
:1057600000200146034805F06BFA641CAC42EEDBF6
:1057700070BD0000E400002010B504462146044836
:1057800005F0A4FA0121024805F0ECFA10BD000072
:10579000E400002010B50446064805F0B7FA04F10D
:1057A0004600C1B2034805F091FA0121014805F015
:1057B000D9FA10BDE400002010B52DED048B82B0A5
:1057C000044604F0200008B100F03EF80020FFF786
:1057D000E1FF2046FFF7D0FF184805F0B0FA04F0CB
:1057E000030018B1102000F0F3FE02E0782000F072
:1057F000EFFE0120FFF7CEFF00200190022101A85B
:10580000FFF7A0FF0D4805F09AFA9DF805109DF8E6
:10581000042001EB0220FAF73FFF41EC190B9FED4A
:10582000080B53EC102BFAF7C8FE41EC180BFAF7F3
:1058300070FF80B202B0BDEC048B10BDE40000200C
:10584000333333333333F33F10B50020FFF7A2FF78
:105850000020FFF791FF024805F071FA10BD00002B
:10586000E400002010B50021084600F057F864213C
:105870000248006800F004F810BD0000C4000020D9
:1058800030B591B005460C4601214805FCF730FBC8
:10589000012240211F48FEF74FFF00211E48FBF761
:1058A00097FA4FF0006001901A48001D029003958E
:1058B00000200490059406904FF48060079000202B
:1058C000089009900A904FF400300B9000200C9043
:1058D0000D900E900F9001A90F48FBF7ADFB012230
:1058E00010210D48FBF78AFB10208DF840000420A2
:1058F0008DF8410000208DF8420001208DF8430012
:1059000010A8FCF7AFFA01210348FBF761FA11B0C8
:1059100030BD0000004400408860024030B591B0C6
:1059200005460C4601214805FCF7E2FA01228021D8
:105930001D48FEF701FF00211C48FBF749FA4FF014
:10594000006001901848001D0290039540200490CB
:105950000594002006904FF4806007900020089086
:1059600009900A904FF400300B9000200C900D909D
:105970000E900F9001A90D48FBF75EFB012210214C
:105980000A48FBF73BFB11208DF8400004208DF8FE
:10599000410000208DF8420001208DF8430010A83E
:1059A000FCF760FA11B030BD00440040A060024036
:1059B0000EB501218803FCF7CBFA0F210020FEF77A
:1059C0001DF90A210020FEF719F94FF4004000905C
:1059D00000208DF804000C208DF8050001208DF8C2
:1059E00006006846FBF7A4FB4FF48060009000209F
:1059F0008DF804000C208DF8050001208DF80600BC
:105A00006846FBF795FB28208DF8080006208DF8E6
:105A1000090000208DF80A0001208DF80B0002A873
:105A2000FCF720FA0EBD000010B54FF44070FCF7F3
:105A300055FAA82000F0AAFD00F0B4F800F09AF89A
:105A4000FFF7B6FF4FF4E12005F0BAFA06F05AFD71
:105A5000542006F029F8FEF7D3FF3F210846FEF751
:105A6000A9FF3F20FFF7C4F801F0A6F90DE021A03F
:105A7000FFF7FAF84FF4FA7000F0AAFD21A0FFF743
:105A8000F3F84FF4FA7000F0A3FDFCF7E9FD0028ED
:105A9000EDD14FF4E12000F0B1F8FFF7E3FE00F0A4
:105AA0008DF900F015F9FDF7D9FF03F0F9F8FF21A2
:105AB000002000F0C9F900F02BFA00231A4601215A
:105AC00014A003F094F900231A46032116A003F052
:105AD0008EF900231A46052118A003F088F9002347
