:020000040800F2
:10000000688301206D020008BD180008FD08000883
:10001000B91800080F0900081F3A00080000000086
:10002000000000000000000000000000AD0100081A
:10003000610E00080000000009020008E135000818
:10004000870200088702000887020008870200086C
:10005000870200088702000887020008870200085C
:10006000870200088702000887020008870200084C
:100070008702000887020008150B0008410B0008E2
:10008000870200088702000887020008870200082C
:10009000870200088702000887020008870200081C
:1000A000870200088702000887020008870200080C
:1000B00087020008593600087136000887020008D8
:1000C00087020008870200088702000887020008EC
:1000D000870200080138000887020008870200082C
:1000E00087020008870200088702000887020008CC
:1000F00087020008870200088702000887020008BC
:1001000087020008191C00088702000887020008FF
:10011000870200088702000887020008870200089B
:10012000870200088702000887020008870200088B
:10013000870200088702000887020008870200087B
:10014000870200088702000887020008870200086B
:10015000870200088702000887020008870200085B
:10016000870200088702000887020008870200084B
:10017000870200088702000887020008870200083B
:100180008702000887020008DFF80CD000F078FB37
:1001900000480047657600086883012030BF72B6CA
:1001A000704762B6704780F3088870472C4B196817
:1001B0000868B0E8F04F80F30988BFF36F8F4FF005
:1001C000000080F3118870470000000008480068B4
:1001D000006880F308884FF0000080F3148862B64E
:1001E00061B6BFF34F8FBFF36F8F00DF00BF00BF5B
:1001F00008ED00E0DFF80C00016841F470010160D7
:10020000704700BF88ED00E0EFF30980BFF36F8F08
:10021000134B1A681EF0100F08BF20ED108A20E95A
:10022000F04F106009B44FF0500080F31188BFF315
:100230004F8FBFF36F8F0AF067FD4FF0000080F320
:10024000118809BC19680868B0E8F04F1EF0100F5B
:1002500008BFB0EC108A80F30988BFF36F8F704736
:10026000B4020020EFF30580704700000648804785
:1002700006480047FEE7FEE7FEE7FEE7FEE7FEE78B
:10028000FEE7FEE7FEE7FEE7F1350008890100081A
:100290002DE9F0410024061B254671F1000605DA20
:1002A00001240027D0EB070067EB0101161E73F154
:1002B000000605DA0027D2EB0702012567EB0303EE
:1002C00000F006FA86460E4617469C46AC4204D01D
:1002D0000025D0EB050E65EB010624B10020D2EB22
:1002E000000760EB030C704631463A466346BDE8B2
:1002F000F08140EA01039B0703D009E008C9121FFF
:1003000008C0042AFAD203E011F8013B00F8013BCF
:10031000521EF9D27047D2B201E000F8012B491EFB
:10032000FBD270470022F6E710B513460A46044692
:100330001946FFF7F0FF204610BD421C10F8011BC4
:100340000029FBD1801A70472DE9FE4F804681EAD3
:100350000300C00F0C46009021F0004123F000453F
:10036000B8EB0200A94105D24046214690461C4602
:100370000B46024623F00040104347D0270DC7F339
:100380000A00C3F30A510290401A019040286BDA28
:10039000C3F3130040F4801B0098924620B1002361
:1003A000D2EB030A63EB0B0B01985946C0F14002F4
:1003B000504600F0BEF906460D4650465946019A91
:1003C00000F0D6F910EB08006141002487EA1152D1
:1003D00084EAE7731A4340D0009A62B3019A012A73
:1003E0004FEA075215DC001B61EB02014FF000429F
:1003F00002EA0752CDE90042001C41F58011324665
:100400002B4600F0D6F903B0BDE8F08F40462146F8
:10041000F9E7001B61EB0201001C41F58013001895
:100420005B412018A2F5001747EB030140EAD570A5
:10043000B6196D4111E06D084FEA360645EAC07500
:100440004FEA0752001B61EB0201001C41F58011CD
:1004500049084FEA30000019514132462B4603B09B
:10046000BDE8F04F00F096B900980122400000234B
:10047000D0EB020263EBE073009821464FEAE07490
:10048000B8EB000061EB0401E9E783F000435BE7B0
:1004900081F0004158E72DE9FE4F81EA030404F0A2
:1004A000004421F0004100944FF0000B23F0004382
:1004B00050EA01045ED052EA03045BD0C3F30A544D
:1004C000C1F30A552C44A4F2F3340194A0FB025466
:1004D000C1F3130141F48011C3F3130343F48013F8
:1004E00001FB024400FB034E840A970A44EA81544C
:1004F00047EA8357A4FB076802958D0A05FB078529
:100500004FEA932C04FB0C542705029D4FEA065832
:1005100047EA1637B5EB08056EEB070C870E920E0F
:1005200047EA811742EA8312A7FB0201B6EB0B01EF
:1005300064EB00042B0D43EA0C335E1844EB1C50B3
:10054000DA465146E7FB0201C5F313044FEA0B33C9
:1005500043EA14534FEA0432019C43EA0603A4F130
:100560000C040294009CCDE900B400F022F903B021
:10057000BDE8F08F00200146F9E72DE9F04D81EA52
:10058000030404F0004B21F0004514464FF0000A2C
:1005900023F0004150EA050220D054EA01021DD0A8
:1005A000C5F30A570246C5F31303C1F31300C1F3A1
:1005B0000A5640F4801543F48013A7EB0608101B7D
:1005C000D64608F2FD3873EB050002D308F10108A6
:1005D00001E092185B41B8F1000F03DA00200146F8
:1005E000BDE8F08D00204FF48011064684460EE0F1
:1005F000171B73EB050705D3121B63EB05030643BB
:100600004CEA010C49084FEA300092185B4150EA6D
:100610000107EDD152EA030012D082EA040083EA16
:100620000501084305D0101BAB4106D2012200236F
:1006300006E000224FF0004302E06FF00102531089
:100640001AEB06004CEB085110EB0A0041EB0B01D2
:10065000BDE8F04D00F09EB80EB540F23341029176
:100660000021CDE900110A460B4600F0A2F803B0C4
:1006700000BD000030B5041E71F1000404DB4FF032
:100680000044404264EB0101141E73F1000405DBD9
:100690001C464FF00043524263EB0403994208BFEB
:1006A000904230BD30B50B46014600202022012487
:1006B00009E021FA02F59D4205D303FA02F5491B30
:1006C00004FA02F52844151EA2F10102F1DC30BD46
:1006D0002DE9F05F0546002092469B468846064677
:1006E000814640241BE0284641464746224600F00A
:1006F0002FF853465A46C01A914110D31146184656
:10070000224600F016F82D1A67EB01084F462246E4
:100710000120002100F00DF817EB00094E41201ECA
:10072000A4F10104DFDC484631462A464346BDE8D1
:10073000F09F202A04DB203A00FA02F100207047E3
:100740009140C2F1200320FA03F31943904070470F
:10075000202A04DB203A21FA02F00021704721FA16
:1007600002F3D040C2F1200291400843194670477D
:10077000202A06DBCB17203A41FA02F043EAE07365
:1007800006E041FA02F3D040C2F120029140084352
:100790001946704710B5141E73F1000408DA401CA6
:1007A00041F1000192185B411A4301D120F0010090
:1007B00010BD2DE9F04D92469B4611B1B1FA81F280
:1007C00002E0B0FA80F220329046FFF7B2FF044612
:1007D0000F4640EA0A0041EA0B0153465A460843D5
:1007E00013D0114653EA010019D0C8F14002504617
:1007F000FFF7AEFF05460E46504659464246FFF704
:1008000098FF084305D0012004E020463946BDE8A2
:10081000F08D0020054346EAE0762C4337430A98E2
:100820006305E40AA0EB08000022FD0A44EA4754ED
:100830000A3002D500200146E9E701051019694197
:10084000DDE9084500196941BDE8F04DA2E7C1F3B3
:100850000A52C1F3130140F2FF3341F480119A426E
:1008600002DA00200146704740F233439A42A2F276
:10087000334202DC5242FFF76BBFFFF75ABF000062
:10088000064C074D06E0E06840F0010394E80700DD
:1008900098471034AC42F6D3FFF77AFCFC6C03089F
:1008A0001C6D030870B58C1810F8015B15F0070378
:1008B00001D110F8013B2A1106D110F8012B03E0F9
:1008C00010F8016B01F8016B5B1EF9D12B0705D401
:1008D0000023521E0DD401F8013BFAE710F8013B4A
:1008E000CB1A921C03E013F8015B01F8015B521E66
:1008F000F9D5A142D8D3002070BD00001EF0040F2E
:100900000CBFEFF30880EFF3098000F0EDBB00BFF0
:10091000FEE770B500254FF4803404E0802001F03C
:1009200067F900B103E0201EA4F10104F6D100BF75
:100930000CB9032070BD40F2FF5001F02FF928469A
:10094000F8E7000070B5044605E01648056805F0B4
:10095000450000B100E0F8E700BF042001F048F9CD
:1009600020B1042001F01AF9032070BD012001F02C
:100970003FF920B1012001F011F90120F5E7094804
:1009800024380068A04201D01020EEE740F2FF506A
:1009900001F004F903482038006808210840C0B27B
:1009A000E3E70000342C014070B500264FF4803599
:1009B00005E01148046804F0450000B103E0281E7A
:1009C000A5F10105F5D100BF15B104F0040028B16F
:1009D0000326042001F0E2F8304670BD012001F04A
:1009E00007F918B10126012001F0D8F840F2FF50B4
:1009F00001F0D4F83046F0E7342C014010B505E0A2
:100A00000B48046804F0450000B100E0F8E700BFBF
:100A1000042001F0EDF820B1042001F0BFF803201C
:100A200010BD40F2FF5001F0B9F80020F8E70000D7
:100A3000342C01402DE9F04105460E464FF00008E8
:100A400005E02048076807F0450000B100E0F8E73E
:100A500000BF042001F0CCF828B1042001F09EF87A
:100A60000320BDE8F081012001F0C2F820B101208F
:100A700001F094F80120F4E7124824380068A842F5
:100A800001D01020EDE740F2FF5001F087F80D484B
:100A90002038046804F4604018B9200C30804046C7
:100AA000DFE704F4005008B11320DAE704F48040D3
:100AB00008B11020D5E704F4004008B10F20D0E7BA
:100AC0004046CEE7342C014070B500264FF4803507
:100AD00005E00F48046804F0450000B103E0281E5B
:100AE000A5F10105F5D100BF15B104F0040028B14E
:100AF0000326042001F052F8304670BD04F0400097
:100B000018B10026402001F049F83046F5E7000012
:100B1000342C014010B50749074800F025F9012899
:100B200006D10449044800F021F8044800688047D1
:100B300010BD000000800018586002409C0000209A
:100B400010B50749074800F00FF9012806D10449FC
:100B5000044800F00BF804480068804710BD00000E
:100B60002080002070600240980000200246094B5F
:100B70009A4201D2084801E00648103801F00053BB
:100B80001BB1064B0B40C36002E0044B0B4083607B
:100B90007047000010640240006002407D0F7D0F2E
:100BA00021B1026842F00102026003E0026822F013
:100BB0000102026070470000016821F0010101603C
:100BC0000021016041608160C160016121214161BA
:100BD0004A49884204D13D21484A103A91608CE04C
:100BE00046491831884205D14FF47461434A103A9E
:100BF000916082E041493031884205D14FF474114F
:100C00003E4A103A916078E03C494831884205D12B
:100C10004FF07461394A103A91606EE037496031A3
:100C2000884204D13649354A103AD16065E03349EB
:100C30007831884204D13349304A103AD1605CE0BF
:100C40002E499031884204D12F492C4A103AD16064
:100C500053E02A49A831884205D14FF03D51274A37
:100C6000103AD16049E02949884204D13D21274A00
:100C7000083A116041E025491831884205D14FF406
:100C80007461224A083A116037E0204930318842C5
:100C900005D14FF474111D4A083A11602DE01B492B
:100CA0004831884205D14FF07461184A083A116002
:100CB00023E016496031884204D11149134A121FBA
:100CC00011601AE011497831884204D10D490F4A68
:100CD000121F116011E00D499031884204D10A4978
:100CE0000A4A121F116008E00849A831884204D15D
:100CF0004FF03D51054A121F1160704710600240CD
:100D00003D000020400F002000003D201064024004
:100D100021B1026842F48022026003E0026822F4FA
:100D200080220260704722B1036843F4002303600D
:100D300003E0036823F4002303600161704721B1DD
:100D4000026842F02002026003E0026822F0200202
:100D500002607047014600200A6802F001020AB1F1
:100D6000012000E00020704770B5024600200024FA
:100D70000025124EB24201D2114B01E00F4B103B45
:100D8000104E0E4036B11E2606EAD124166806EA39
:100D9000040502E0566906F0800501F000560EB128
:100DA0005C6800E01C68084E344004EA010616B195
:100DB0000DB1012000E0002070BD00001064024071
:100DC000006002403C0F3C0F7D0F7D0F10B501F01D
:100DD00080034BB122B1436943F08003436103E0D8
:100DE000436923F08003436180290BD02AB1036853
:100DF00001F01E042343036004E0036801F01E04B5
:100E0000A343036010BD000010B500220268134B1D
:100E10001A40CC680B6823434C6923438C692343F5
:100E2000CC6923430C6A23434C6A23438C6A2343D3
:100E30004C6B23438C6B23431A430260426922F0BC
:100E40000702D1E90B3423431A4342610B69436023
:100E50004B6883608B68C36010BD00003F801CF04E
:100E6000704700002DE9FC4107460D46002600248E
:100E700000200090019008205B4908601020486025
:100E8000402088600020C8604FF4806008610846F8
:100E900000F0FAFE1020FFF755FD044614B120467D
:100EA000BDE8FC815148008800044F4908603720A4
:100EB0004860402088600020C8604FF4806008616E
:100EC000084600F0E1FE3720FFF73CFD04460CB178
:100ED0002046E5E74FF0FF304549086008204860AC
:100EE000302088600220C86000200861012048612D
:100EF000084600F063FE00203B490860332048604C
:100F0000402088600020C8604FF480600861084677
:100F100000F0BAFE3320FFF715FD04460CB1204661
:100F2000BEE70CE04FF4001000F062FE38B131482B
:100F300000684DF82600761C022E00D307E02D48ED
:100F40004C38006840F22A6108400028EAD000BF0F
:100F5000082000F04DFE20B1082000F01FFE042004
:100F60009EE7022000F044FE20B1022000F016FEB1
:100F7000022095E7202000F03BFE20B1202000F069
:100F80000DFE06208CE74FF4007000F031FE28B112
:100F90004FF4007000F002FE072081E740F2FF509E
:100FA00000F0FCFD00980006009901F47F4140EA42
:100FB0000120009901F47F0140EA1120009940EAE4
:100FC0001160686001980006019901F47F4140EAD0
:100FD0000120019901F47F0140EA1120019940EAC2
:100FE0001160286020465BE788030020180000207D
:100FF0009C030020802C014010B5044602A002F0A2
:10100000A5FEE043C0B210BD7465737421210A00CF
:10101000F0B50A4600210023002400BF3DE0012571
:1010200005FA01F3156805EA03049C4234D105680A
:101030004F000326BE40B543056015794E00B5400C
:101040000668354305601579012D02D01579022D0A
:1010500016D185684F000326BE40B543856055799B
:101060004E00B540866835438560456801268E4050
:10107000B5434560456896798E40B6B235434560C4
:10108000C5684F000326BE40B543C560D5794E0004
:10109000B540C6683543C560491C1029BFD3F0BDB3
:1010A000F0B5002300244D07ED0E02FA05F3CE1033
:1010B00000F1200555F826504E07F70E0F26BE40CA
:1010C000B543CF1000F1200646F82750CE1000F1AE
:1010D000200555F8265045EA0304CE1000F12005FE
:1010E00045F82640F0BD00002949096801F000419B
:1010F00049B12749096841F00041254A11608169D9
:10110000891C81617047224908390968214A1162A6
:101110001F49091F097882F824101D49C91E097842
:1011200091621B490C310968D1621949891E0988ED
:1011300011861749096851631549091D09689163AA
:10114000134910310968D1630021134A116000BFAF
:10115000114909680029FBD00E4A016811604168F5
:10116000516081689160C168D16001691161416914
:10117000516181699161C169D1610021064A1160A3
:1011800000BF054909680029FBD000BFBAE700008D
:101190002CED00E04C5A0020600300202DE9FF41B7
:1011A00004460F4615461E460121880300F0DEFB6B
:1011B0000121880300F0EAFB00214FF4804000F099
:1011C000E5FBADF80070ADF80240ADF8046000201A
:1011D000ADF8060002200290ADF80C5069460748B1
:1011E00000F068F901220221044802F065F90121AA
:1011F000024800F02BF9BDE8FF81000000380040F4
:1012000070B50546002400260A20B5FBF0F500BFA6
:1012100009E004EB84001F4931F81000A84200D116
:1012200003E0601CC4B20B2CF3D300BF002000F01D
:1012300051FC0B2C01D1012070BD04EB8402154B35
:1012400003EB4202918804EB840203EB42025088D4
:1012500000F046FC1048006840F080600E490860CD
:1012600000BF0D48006800F000600028F9D004EBD2
:101270008400084901EB4000C68804EB840001EBC0
:101280004000008946EA002646F4007603490E80B5
:101290000020D1E71CBD0008003802402038004083
:1012A00070B590B004460E4615460121480500F081
:1012B0004DFB2448FFF780FC00BF2248FFF74AFDA2
:1012C0000028FAD120491F48FFF750FC0020009069
:1012D0001E48019002944020039004950020059040
:1012E0004FF4806006904000079080000890401105
:1012F000099040020A9000200B900C900D900E90E7
:1013000069461048FFF780FD002231460D48FFF77F
:101310000AFD01210B48FFF7FBFC012210210948BF
:10132000FFF754FD0F208DF83C0000208DF83D00A4
:101330008DF83E0001208DF83F000FA800F0C0FAA4
:1013400010B070BD706002403DF000A00C3800404D
:101350002DE9FF4104460F4615461E4687F480706E
:10136000ADF80000ADF80240ADF804600020ADF823
:10137000060002200290ADF80C506946064800F0C5
:1013800071F801221146044802F096F80121024842
:1013900000F05CF8BDE8FF810034004070B590B00B
:1013A00004460E4615460121480500F0CFFA2448B0
:1013B000FFF702FC00BF2248FFF7CCFC0028FAD15F
:1013C00020491F48FFF7D2FB4FF0C06000901E4835
:1013D0000190029400200390049505904FF48060E2
:1013E000069040000790800008904011099000028C
:1013F0000A9000200B900C900D900E9069461048BA
:10140000FFF702FD002231460D48FFF78CFC012159
:101410000B48FFF77DFC012210210948FFF7D6FC9D
:101420000E208DF83C0000208DF83D0001208DF845
:101430003E008DF83F000FA800F042FA10B070BDDA
:101440005860024000F0409F0C34004021B1828B74
:1014500042F48062828304E0828B4FF6FF331A40AD
:101460008283704730B500220023848B4FF2400501
:101470002C40848302240484828B0C88B4F5007F82
:1014800001D00C8814B94FF4807308E00C88B4F5CF
:10149000407F03D00C88B4F5807F00D100238C8876
:1014A0008D892C434D882C431C4344F40064224313
:1014B000828330BD2DE9F04F0025022300244FF038
:1014C000010900220026002794469046B0F81CA08F
:1014D0004FF2400B0AEA0B0AA0F81CA04FF0020AD8
:1014E000A0F820A0858BD1F808A0BAF1020F01D195
:1014F00000BF82E0B1F804A0BAF1000F02D14FF0B2
:10150000010901E04FF00209DFF834A1DAF800A088
:101510000AF4000ABAF1000F09D0DFF824A1DAF8C2
:1015200000A02AF4000ADFF818B1CBF800A0DFF819
:1015300010A10AF17C0ADAF800A0CAF3881CDFF8CF
:1015400000A10AF17C0ADAF800A0CAF30278DFF8F9
:10155000F0A0AAF1040ADAF800A00AF03F07DFF8C9
:10156000E0A0AAF1040ADAF800A00AF4800ABAF5A9
:10157000800F08D1DFF8CCA0BAFBF7FA0AFB0CFA0F
:10158000BAFBF8F607E0DFF8C0A0BAFBF7FA0AFBEF
:101590000CFABAFBF8F6B1F806A0BAF5007F0ED146
:1015A0004FEA162A0AEB8A0A4FEA4A0AD1F808B02B
:1015B000BAFBFBFA0AF1050A1FFA8AF20FE04FEABA
:1015C000491AB6FBFAFA0AEB8A0A4FEA4A0AD1F834
:1015D00008B0BAFBFBFA0AF1050A1FFA8AF24FF0CB
:1015E0000A0AB2FBFAF202F00104A2EB040ACAF3FF
:1015F0004F034FF6FF7A0AEA0424022B01DBFF2B8C
:1016000001DD02230024B1F806A04AEA040A4AEAEE
:10161000030AA0F820A0B1F804A0B1F80CB04AEA7F
:101620000B0AB1F802B04AEA0B0AB1F800B04AEA74
:101630000B0A4AF4006A4AEA05058583BDE8F08F83
:101640000838024000127A000024F40010B501218D
:101650000148FFF7A5FA10BD7060024010B50121E6
:101660000148FFF79DFA10BD586002401CB50121EA
:10167000022000F06BF94FF44070009001208DF8CB
:10168000040000208DF8060003208DF805000120DD
:101690008DF8070069460548FFF7BAFC01200449A8
:1016A00008600449C1F8A4021CBD00000004024007
:1016B000A08240420080404270B504461548006850
:1016C00020F44020134908600846006840F4802058
:1016D0000860002010490860002517E0E0090E4965
:1016E000091D08606006040E022003F099FC012029
:1016F0000A49C1F8A002022003F092FC002006492A
:101700000860022003F08CFC681CC5B2082DE5DBE4
:1017100070BD000000040240A082404200804042B0
:1017200010B50F48006820F440200D4908600846B5
:10173000006840F48020086001200A4908600A49D6
:10174000C1F8A002042003F06BFC002005490860EA
:10175000042003F065FC00200349C1F8A00210BD7D
:1017600000040240A48240420080404210B50F486D
:10177000006820F440200D4908600846006840F4E5
:101780008020086000200A4908600A49C1F8A402C4
:10179000042003F045FC0120054908600549C1F813
:1017A000A402042003F03CFC10BD00000004024031
:1017B000A08240420080404210B5002413480068D7
:1017C00020F44020114908600846006808600120A4
:1017D0000F49086003F024FC01200E49C1F8A00263
:1017E00003F01EFC07E0601CC4B2FA2C03DDFFF717
:1017F000BDFF012010BD0648803800680028F2D1E6
:101800000349091F086000BFF4E70000000402401C
:10181000A4824042008040421CB504460020019052
:101820000090224800880004214908600D2048608B
:10183000402088600020C8604FF48060086108463E
:1018400000F022FA1B480068009002E01948006886
:101850000090009800F045000028F7D0012000F02B
:10186000C7F920B1012000F099F901201CBD042026
:1018700000F0BEF920B1042000F090F90320F5E754
:101880000C48243800680D2801D01020EEE740F203
:10189000FF5000F083F90748203800680190019854
:1018A000C0F3432020700020E0E700001800002073
:1018B00088030020342C014000BFFEE77047000081
:1018C00070B5002100230F22C4781CB3174C246884
:1018D00004F4E064C4F5E064C4F30721C1F1040436
:1018E000E3B20A4144789C40E1B284781440214339
:1018F0000C07210E0E4C05786155047804F01F0585
:101900000124AC4005786D11AD0005F1E025C5F866
:10191000004109E0047804F01F050124AC40054DA6
:101920000678761145F8264070BD00000CED00E009
:1019300000E400E080E100E002490143024A116056
:10194000704700000000FA050CED00E029B1064ADE
:1019500012680243044B1A6004E0034A126882438F
:10196000014B1A60704700003038024029B1064A26
:1019700012680243044B1A6004E0034A126882436F
:10198000014B1A60704700004038024029B1064AF6
:1019900012680243044B1A6004E0034A126882434F
:1019A000014B1A60704700002038024029B1064AF6
:1019B00012680243044B1A6004E0034A126882432F
:1019C000014B1A60704700004438024029B1064AB2
:1019D00012680243044B1A6004E0034A126882430F
:1019E000014B1A607047000024380240F0B5002116
:1019F00000220024022500260223324F3F6807F010
:101A00000C0121B1042905D0082937D105E02E4F5A
:101A1000076036E02D4F076033E02A4F3F1F3F68D5
:101A2000C7F38056274F3F1F3F6807F03F036EB153
:101A3000264FB7FBF3F7DFF88CC0ACF1040CDCF8F1
:101A400000C0CCF3881C07FB0CF40CE01E4FB7FB66
:101A5000F3F7DFF870C0ACF1040CDCF800C0CCF395
:101A6000881C07FB0CF4174F3F1F3F68C7F3014763
:101A70007F1C7D00B4FBF5F7076002E0124F0760A2
:101A800000BF00BF0F4F3F6807F0F0010909104F7A
:101A90007A5C0768D74047600A4F3F6807F4E05117
:101AA000890A0B4F7A5C4768D7408760054F3F68CB
:101AB00007F46041490B064F7A5C4768D740C7601E
:101AC000F0BD0000083802400024F40000127A0043
:101AD000500300200149886670470000000047421B
:101AE000820142EA0172014B1A6070478438024059
:101AF0007CB50546002400200090019000260DB121
:101B0000022600E000262248006800F0007008B1BC
:101B10000E207CBD1F49098888B26946FFF7A2F9EB
:101B200004460CB12046F4E7019800F4802060B32D
:101B30001848008800041849086037204860402091
:101B400088600020C8604FF480600861084600F09B
:101B50009BF83720FEF7F6FE04460CB12046D8E786
:101B60000D48066006200C4948604020886000202F
:101B7000C8604FF480600861084600F085F80620D0
:101B8000FEF7E0FE04462046C3E72520C1E700003B
:101B9000142C01401800002088030020014908602F
:101BA00070470000382C01400146034A106820F0BD
:101BB000FF00084310607047042C014000210B4BCC
:101BC00002681A601B1D42681A601A1D116821F014
:101BD000F701D0E902231A4303691A4343691A4300
:101BE0001143024A0832116070470000242C014062
:101BF00001460020034A12680A400AB1012000E0B1
:101C000000207047342C01400248006800F00300B7
:101C100070470000002C014010B500F08DFC10BD95
:101C200000210A4A116847F6FF629143027D8368EA
:101C30001A4343681A43C3681A4303681A43036983
:101C40001A431143014A116070470000042C0140FF
:101C500000200B490860091D0860091D0860091D66
:101C60000860074924310860091D0860091D0860E3
:101C700004480349383108600020091D0860704796
:101C8000002C0140FF07C0000021094B02681A60C8
:101C90001A1D11686FF30A01D0E901231A43C368C2
:101CA0001A4303691A431143014A121D1160704718
:101CB000082C01400149086070470000002C0140D9
:101CC00070B590B004460E46154600BF1A48FFF79F
:101CD00041F80028FAD11848FEF76EFF4FF0006077
:101CE00001901648029003940495002005900690F8
:101CF0004FF48060079080000890800009900020D9
:101D00000A904FF440300B9004200C9003200D906B
:101D10004FF400000E9080100F9001A90648FFF7C5
:101D200073F820210448FFF70AF801210248FEF762
:101D300037FF10B070BD000058640240802C014095
:101D400070B50446002516480078032802D12725DF
:101D5000284670BD1248007838B111480078012833
:101D600003D00F480078022817D1B4F5805F02D164
:101D700027252846EDE7E0B2FFF7BAFE054665B92C
:101D80000848006820F4C05006490860084600680A
:101D9000204308600846006808602846D9E700002C
:101DA00014000020042C0140F0B501460020002260
:101DB000BE4B1B7881F85630BD4B1B88A1F85430C0
:101DC000BC4B1B681A0E93090B70C2F383034B7054
:101DD00002F003038B70B74B1B68C3F30742CA7052
:101DE000B44B1B88C3F307220A71B24B1A784A71AD
:101DF0005B681A0E1301CB80AE4B5B68C3F30742DE
:101E0000CB8843EA1213CB8002F00F030B72A94B6D
:101E10009B88C3F30722D3094B72C2F380138B72E2
:101E2000C2F34013CB72C2F300130B7300234B7346
:101E30009E4B1B783BB19D4B1B78012B03D09B4BDA
:101E40001B78032B4FD193071B0D0B61994B1A790C
:101E50000B6943EA82030B61964B9B681A0E0B6970
:101E600043EA92130B61C2F3C2030B7502F007033E
:101E70004B75904B9B68C3F3074253098B75C2F3B4
:101E80008203CB7593075B0F0B768A4B1B89C3F3D9
:101E900007220B7E43EAD2130B760B695B1C0024EE
:101EA000C1E912340B7E9B1C012404FA03F3DC17F6
:101EB000D1E91256A5FB037C06FB03C305FB0433E3
:101EC000C1E912730C7A0123A3400B650024D1E908
:101ED00012650B6DA6FB037C05FB03C306FB0433F5
:101EE000C1E912732EE0714B1B78022B2AD1714B82
:101EF0001A7993069B0A0B616E4B9B681A0E0B694D
:101F000043EA02230B616B4B9B68C3F307420B69E7
:101F100013430B61674B1B89C3F307220B695B1CDF
:101F20004FF40074A3FB04464FF480630025A4FB28
:101F3000037C06FB03C304FB0533C1E912734FF4B2
:101F400000730B65C2F3801301F8193F93065B0E13
:101F50004B70584B1A7A4B7843EAD2134B7002F00D
:101F60007F038B70534BDB681A0ED309CB70C2F31F
:101F700041130B71C2F382034B7193071B0F8B71DB
:101F80004C4BDB68C3F307428B7943EA92138B71A6
:101F9000C2F34013CB7100230B7202F001034B72AA
:101FA000444B9B89C3F30722D3098B72C2F380137E
:101FB000CB72C2F340130B73C2F300134B73C2F323
:101FC00081038B7302F00303CB733A4B1A7B5308E4
:101FD0000B7401234B74384B1B681A0ECA741939E1
:101FE000354B1B68C3F307421402CC85324B1B8868
:101FF000C3F30722CB8D1343CB852F4B1A781406DE
:102000000C635B681A0E0B6B43EA02440C632A4BA9
:102010005B68C3F307420B6B43EA02240C63264B55
:102020009B88C3F307220B6B13430B63224B1A7974
:1020300034235A54204B9B681A0E35235A541E4B96
:102040009B68C3F3074214068C631B4B1B89C3F3C5
:1020500007228B6B43EA02448C63174B1A7A8B6B13
:1020600043EA02248C63144BDB681A0E8B6B134318
:102070008B63114BDB68C3F307423C235B5C43EA91
:1020800012143C235C5413071C0DCC870A4B9B890C
:10209000C3F30722CB8F1343CB87074B1A7B54081C
:1020A00040235C54012441235C54F0BD1400002003
:1020B00018000020B4030020C40300203EB5002512
:1020C000002401214548FFF741FC0121C802FFF728
:1020D0006DFC0121C802FFF779FC4FF4F850019024
:1020E00002208DF808008DF8090000208DF80A0004
:1020F00001208DF80B0001A93948FEF789FF042063
:10210000019001A93748FEF783FF0C2208213448CB
:10211000FEF7C6FF0C2209213148FEF7C1FF0C2251
:102120000A212F48FEF7BCFF0C220B212C48FEF79A
:10213000B7FF0C2211462A48FEF7B2FF0C220221FB
:102140002848FEF7ADFF00214FF40060FFF73EFC8A
:10215000FFF77EFD31208DF8000000208DF8010092
:102160008DF8020001208DF803006846FFF7A8FBF8
:1021700000F0F0F8044614B900F03AF804461CB92F
:102180001948FFF711FE044634B91749B1F8541045
:10219000080400F075FD044624B94FF40060FFF711
:1021A000CFFD04461CB111480078032813D100BFAD
:1021B0000D4890F8560020B10B4890F856000128C1
:1021C00001D1022500E000252846FFF7EDFC0020A4
:1021D00000F06EFD044620463EBD00000C004000AD
:1021E00000080240000C0240D80300201400002028
:1021F00038B5002401200090FFF706FD10B9252412
:10220000204638BD4D480078042824D000204C4991
:10221000086002204860C02088600020C8604FF439
:10222000806008610846FFF72FFDFEF7BDFB0446FE
:102230000CB12046E5E7434800684349086041483F
:10224000001D006848603F480830006888603D48CD
:102250000C300068C8603948007858B137480078B9
:10226000012807D035480078062803D03348007885
:10227000022816D10020324908600320486040201F
:1022800088600020C8604FF4806008610846FFF74E
:10229000FBFC69460320FEF7CDFB04460CB120464B
:1022A000AFE726480078032816D1BDF800000004E7
:1022B0002349086003204860402088600020C860EF
:1022C0004FF4806008610846FFF7DEFCFEF76CFB08
:1022D00004460CB1204694E71848007804282AD018
:1022E000BDF8000019490860BDF800000004144959
:1022F000086009204860C02088600020C8604FF452
:10230000806008610846FFF7BFFCFEF74DFB0446FE
:102310000CB1204675E70B4800680D490860094874
:10232000001D00684860074808300068886005485C
:102330000C300068C860002063E700001400002033
:1023400088030020142C0140C40300201800002042
:10235000B40300202DE9F0470027002400260025C3
:10236000A046A14676206E490875002008604860A6
:102370008860C86008610846FFF752FC0320FFF739
:1023800099FC6848006840F480706649086000BFA6
:1023900012E000206449086048608860C8604FF41B
:1023A000806008610846FFF76FFCFEF7B2FA04464A
:1023B00004B903E0781CC7B24A2FEADB00BF14B1AE
:1023C0002046BDE8F0874FF4D570574908600820D3
:1023D0004860402088600020C8604FF48060086139
:1023E0000846FFF751FCFEF76FFB044624B90120B5
:1023F0004E4908704FF0804900204B490860372053
:102400004860402088600020C8604FF48060086108
:102410000846FFF739FC3720FEF794FA0446002CF3
:102420004CD135E00020404908603720486040200A
:1024300088600020C8604FF4806008610846FFF79C
:1024400023FC3720FEF77EFA04460CB12046B8E79D
:10245000374849EA00003449086029204860402094
:1024600088600020C8604FF4806008610846FFF76C
:102470000BFCFEF7C3FA04460CB12046A1E729483D
:1024800010300668012080EAD67080F001086D1CCB
:10249000B8F1000F03D14FF6FF708542C2D34FF65B
:1024A000FF70854202D31B2420468AE706F0804055
:1024B000061E33D002201D4908702FE01DE01D4884
:1024C0001949086001204860402088600020C860E9
:1024D0004FF4806008610846FFF7D6FBFEF78EFADE
:1024E00004460CB120466CE70E4810300668012007
:1024F00080EAD67080F001086D1CB8F1000F03D19E
:102500004FF6FF708542DAD34FF6FF70854202D353
:102510001B24204655E7032004490870204650E755
:1025200070030020042C01408803002014000020C8
:10253000000010800080FF8010B54FF48070FFF71E
:1025400057FB78B34C480078012814D100204B4940
:1025500008600C204860402088600020C8604FF46C
:10256000806008610846FFF78FFB0C20FEF7EAF950
:102570004349087002E00020414908704148006862
:1025800040F480703F490860081D00684CF23A3101
:1025900088433C49091D086001203B4908703848C0
:1025A000007810BDFFE70220FFF722FB78B1022080
:1025B000FFF7F4FA3348001D00684CF23A318843C3
:1025C0003049091D086002202D490870E9E70820FC
:1025D000FFF70EFB78B10820FFF7E0FA2948001D4D
:1025E00000684CF23A3188432649091D08600420EE
:1025F00023490870D5E72020FFF7FAFA78B12020A8
:10260000FFF7CCFA1F48001D00684CF23A318843AE
:102610001C49091D0860062019490870C1E71020EF
:10262000FFF7E6FA78B11020FFF7B8FA1548001D59
:1026300000684CF23A3188431249091D08600520B0
:102640000F490870ADE74FF40070FFF7D1FA80B181
:102650004FF40070FFF7A2FA0A48001D00684CF220
:102660003A3188430749091D08600720044908706A
:1026700097E7002095E700001D0000208803002058
:102680001E000020382C01401F0000202DE9F84FCB
:102690008146174698460A9C4FF0000AD3464D469D
:1026A0004FF0FF36B9F1000F02D12620BDE8F88FB8
:1026B00000208649086086480078022805D1040277
:1026C000780A40EAC8574FEA6828002081498860A4
:1026D0004860401E0860012048610020C860086111
:1026E0000846FFF76BFA79481838006800F0007068
:1026F00008B10E20DAE7002C21DDB4F5006F1EDCF6
:10270000601E2040D8B9204602F098F90090724827
:102710000460102070494860402088600020C86034
:102720004FF4806008610846FFF7AEFA1020FEF70C
:1027300009F98246BAF1000F03D05046B6E72620C9
:10274000B4E70098000163498860084644604FF090
:10275000FF300860012048610220C8600020086145
:102760000846FFF72BFA5C48076011205A49486079
:10277000402088600020C8604FF4806008610846EF
:10278000FFF782FA1120FEF7DDF88246BAF1000F5A
:1027900001D050468AE75148007800285CD1FDF707
:1027A000FEFC18E04FF40040FFF722FA78B14FF03A
:1027B000000B06E045485430006845F82B000BF14B
:1027C000010BBBF1080FF5D32035454E03E00EB9E0
:1027D00004206BE7761E3D480830006840F22A610D
:1027E00008400028DED00820FFF702FA20B10820B8
:1027F000FFF7D4F9042059E70220FFF7F9F920B1D7
:102800000220FFF7CBF9022050E72020FFF7F0F974
:1028100020B12020FFF7C2F9062047E74FF40070EF
:10282000FFF7E6F928B14FF40070FFF7B7F907207A
:102830003CE704E025485430006828602D1D4FF423
:102840000010FFF7D5F90028F4D1FDF7AAFC40F2FB
:10285000FF50FFF7A3F936E020480078012832D175
:102860000020204908702049087020490870174846
:102870001030006840F22A310843144910310860D2
:102880001248006840F00800104908600022214604
:102890004846FFF715FA00E0761E1548006800F07C
:1028A000006038B91148007820B90E48007808B99E
:1028B000002EF1D10EB90420F8E60A48007810B1D4
:1028C000084890F800A05046F0E600002C2C01408B
:1028D000140000209C030020880300201C0000201E
:1028E000FFFF7F001E0000201D0000201F000020B1
:1028F000006402402DE9FE4F83460C4691460020BD
:102900000290002625462C46700240EAD5566D02FC
:102910000BF00300F0B14FF0000A18E04FF4007024
:1029200000904FEA4A20471946EBE0733A461648B2
:10293000FFF7ACFE02904FF4007213495846FDF7C2
:10294000D8FC0BF5007B0AF1010000F0FF0ACA4534
:10295000E4DB16E0B9F1010F09D14FF400702A460B
:10296000334600905846FFF791FE029009E04FF47D
:1029700000702A463346CDE90009584600F006F8B3
:1029800002900298BDE8FE8F300400202DE9FF5F21
:1029900017469846DDE90E464FF00009CA464FF04B
:1029A000FF35AC49009808600020AB490860AB488F
:1029B0000078022805D10402780A40EAC8574FEA95
:1029C00068280020A64988604860401E08600120F1
:1029D00048610020C86008610846FFF7EFF89E488C
:1029E0001838006800F0007018B10E2004B0BDE87F
:1029F000F09F002C21DDB4F5006F1EDC601E20402E
:102A0000D8B9204602F01AF8834696480460102090
:102A100094494860402088600020C8604FF480607E
:102A200008610846FFF730F91020FDF78BFF81465B
:102A3000B9F1000F03D04846D8E72620D6E7012E8B
:102A400071D906FB04F0B0F1007F01D32620CDE759
:102A50004FEA0B108249886006FB04F048604FF093
:102A6000FF300860012048610220C8600020086132
:102A70000846FFF7A3F87B480760122079494860B1
:102A8000402088600020C8604FF4806008610846DC
:102A9000FFF7FAF81220FDF755FF8146B9F1000F54
:102AA00001D04846A2E77048007800287ED1FDF7A3
:102AB00076FB1EE04FF40040FFF79AF8A8B14FF004
:102AC000000A08E06448543000686249096841F827
:102AD0002A000AF1010ABAF1080FF3D35D48006831
:102AE00020305C490860614D03E00DB904207DE7AA
:102AF0006D1E59480830006840F22A31084000280D
:102B0000D8D00820FFF774F820B10820FFF746F866
:102B100004206BE70220FFF76BF828B10220FFF7D3
:102B20003DF8022062E792E02020FFF761F820B133
:102B30002020FFF733F8062058E74FF40070FFF726
:102B400057F828B14FF40070FFF728F807204DE739
:102B50000AE04148543000683E49096808603D4831
:102B60000068001D3B4908604FF40010FFF740F873
:102B70000028EED14FF48070FFF73AF820B33748C1
:102B8000007838B135480078012803D03348007800
:102B9000022819D10020334908600C2048604020E9
:102BA00088600020C8604FF4806000E013E0086196
:102BB0000846FFF769F80C20FDF7C4FE8146B9F11D
:102BC000000F01D0484611E7FDF7EBFA40F2FF5045
:102BD000FEF7E4FF3BE024480078012837D10020CD
:102BE00023490870012023490870002022490870F9
:102BF00019481030006840F22A3108431649103154
:102C000008601548006840F008001349086006FB9A
:102C100004F100220098FFF753F800E06D1E1748FA
:102C2000006800F0006008B9002DF7D10DB904204C
:102C3000DCE600BF1048007818B90D48007800287D
:102C4000F8D00B48007810B1094890F80090484639
:102C5000CCE60000200000202C2C014014000020B5
:102C60009C030020880300201C000020FFFF7F0041
:102C70001E0000201D0000201F00002000640240F4
:102C800010B5044609480460072008494860402000
:102C900088600020C8604FF4806008610846FEF735
:102CA000F3FF0720FDF74EFE10BD00008803002053
:102CB00001460020012900D011B9024B197000E033
:102CC000262070471C0000202DE9FF5F86B01746C4
:102CD0009846149D0026002005900490002481460B
:102CE0000390824602900195DDF818B0DDF818B027
:102CF000BBF1000F03D126200AB0BDE8F09F0020F1
:102D0000C9490860C94988604860401E08600120C0
:102D100048610020C86008610846FEF74FFFC248BE
:102D20001838006800F0007008B10E20E4E7C048D1
:102D30000078022805D10502780A40EAC8574FEA10
:102D40006828002D1FDDB5F5006F1CDC681E2840CB
:102D5000C8B9284601F072FE0590B64805601020FB
:102D6000B4494860402088600020C8604FF480600B
:102D700008610846FEF788FF1020FDF7E3FD0646D0
:102D80001EB13046B8E72620B6E7AB4800880004FD
:102D9000A84908600D204860402088600020C86075
:102DA0004FF4806008610846FEF76EFF0D20FDF7C6
:102DB000C9FD06460EB130469EE79B4818380068AC
:102DC00003904FF0FF341CE0641E9B480088000411
:102DD000984908600D204860402088600020C86045
:102DE0004FF4806008610846FEF74EFF0D20FDF7A6
:102DF000A9FD06460EB130467EE78B4818380068BC
:102E00000390039800F4807008B9002CDCD10CB951
:102E1000292071E7874807601820864948604020CC
:102E200088600020C8604FF4806008610846FEF7A3
:102E30002BFF1820FDF786FD06460EB130465BE7F6
:102E400000207E490870059800017849886008468E
:102E500045604FF0FF300860012048610020C860E5
:102E600008610846FEF7AAFE4FF0FF347448007868
:102E700000287ED1FDF793F945E04FF48040FEF73E
:102E8000B7FED8B30198A0EB0900202822D2019800
:102E9000A0EB090000F0030020B90198A0EB0900A5
:102EA000800804E00198A0EB09008008401C029013
:102EB0004FF0000A0AE05C495431DBF8000008607A
:102EC0000AF1010A0BF1040B09F104090298824589
:102ED000F1D310E04FF0000A06E05BF82A005249F7
:102EE000543108600AF1010ABAF1080FF5D30BF169
:102EF000200B09F120096FF0404404E0FFE70CB912
:102F00000420F9E6641E48480830006840F21A615F
:102F100008400028B1D00820FEF76AFE20B1082042
:102F2000FEF73CFE0420E7E60220FEF761FE20B13A
:102F30000220FEF733FE0220DEE61020FEF758FEE8
:102F400020B11020FEF72AFE0520D5E64FF40070D0
:102F5000FEF74EFE30B14FF40070FEF71FFE072063
:102F6000CAE606E0FDF71DF940F2FF50FEF716FE37
:102F700041E03348007801283DD1002031490870F4
:102F80002E4908703049087027481030006840F218
:102F90001A31084324491031086040222946069816
:102FA000FEF78EFE2048006840F008001E490860C9
:102FB00000E0641E2548006800F0006008B9002C9D
:102FC000F7D11CB9FFF77AF8042095E64FF0FF34EB
:102FD00000E0641E1C48007820B91A48007808B93F
:102FE000002CF6D10CB9042086E61648007810B102
:102FF0001448007880E640F2FF50FEF7CFFD04A8A9
:10300000FEF70AFC064603E004A8FEF705FC0646A8
:103010003EB99DF810000728F6D09DF8100006284C
:10302000F2D0304668E600002C2C01409C030020C2
:103030001400002088030020180000201D0000203C
:103040001C0000201E0000201F0000200064024021
:103050002DE9FE4F81460C46924600200290002644
:1030600025462C46700240EAD5566D0209F0030051
:10307000F0B14FF0000B18E04FF4007249461948C8
:10308000FDF737F94FF4007000904FEA4B204719D5
:1030900046EBE0733A461348FFF716FE029009F537
:1030A00000790BF1010000F0FF0BD345E4DB16E0E3
:1030B000BAF1010F09D14FF400702A46334600904F
:1030C0004846FFF701FE029009E04FF400702A46DF
:1030D0003346CDE9000A484600F006F8029002980F
:1030E000BDE8FE8F300400202DE9FF5F84B0DDE9EC
:1030F000124700260020039002900025804681465A
:10310000019007FB04FBDDF810A0DDF810A0BAF178
:10311000000F03D1262008B0BDE8F09F0020DC4955
:103120000860DC4988604860401E086001204861F2
:103130000020C86008610846FEF740FDD4481838F2
:10314000006800F0007008B10E20E4E7D248007873
:10315000022808D10402DDE90601400A40EAC15014
:103160004912CDE90601002C1FDDB4F5006F1CDC0F
:10317000601E2040C8B9204601F060FC0390C7489B
:1031800004601020C5494860402088600020C86065
:103190004FF4806008610846FEF776FD1020FDF7C9
:1031A000D1FB06461EB13046B5E72620B3E7012F16
:1031B0006FD907FB04F0B0F1007F01D32620AAE706
:1031C000B548007838B1B4480078012803D0B24837
:1031D000007802282DD1B24800880004AF49086069
:1031E00037204860402088600020C8604FF480602D
:1031F00008610846FEF748FD3720FDF7A3FB0646A9
:103200000EB1304687E7A54807601720A3494860FC
:10321000402088600020C8604FF480600861084644
:10322000FEF732FD1720FDF78DFB06460EB1304646
:1032300071E79A4906980860192048604020886024
:103240000020C8604FF4806008610846FEF71CFD4E
:103250001920FDF777FB06460EB130465BE7039871
:1032600000018C49886007FB04F048604FF0FF3094
:103270000860012048610020C86008610846FEF728
:103280009DFC88480078002874D1451EFCF787FF14
:1032900042E0E4E04FF48040FEF7AAFCB8B3ABEBA9
:1032A000080020281FD2ABEB080000F0030018B97B
:1032B000ABEB0800800803E0ABEB08008008401C83
:1032C00001904FF000090AE071495431DAF800002A
:1032D000086009F101090AF1040A08F104080198DB
:1032E0008145F1D310E04FF0000906E05AF82900BB
:1032F00067495431086009F10109B9F1080FF5D3A4
:103300000AF1200A08F120086FF0404504E0FFE7C9
:103310000DB90420FFE66D1E5D480830006840F2DC
:103320001A3108400028B5D00820FEF761FC20B112
:103330000820FEF733FC0420EDE60220FEF758FCDF
:1033400020B10220FEF72AFC0220E4E61020FEF75E
:103350004FFC20B11020FEF721FC0520DBE64FF4E6
:103360000070FEF745FC30B14FF40070FEF716FC1C
:103370000720D0E62CE04FF48070FEF739FC00B354
:103380004548007838B144480078012803D04248C5
:103390000078022815D10020404908600C204860C0
:1033A000402088600020C8604FF4806008610846B3
:1033B000FEF76AFC0C20FDF7C5FA06460EB1304652
:1033C000A9E6FCF7EEFE40F2FF50FEF7E7FB46E011
:1033D00034480078012842D1002033490870012088
:1033E00032490870002032490870294810300068BE
:1033F00040F21A31084326491031086007FB04F1F6
:1034000040220498FEF75CFC2148006840F0080068
:103410001F4908604FF0FF3500E06D1E2548006829
:1034200000F0006008B9002DF7D11DB9FEF746FE87
:10343000042070E64FF0FF3500E06D1E1C48007858
:1034400020B91948007808B9002DF6D10DB904202B
:1034500061E61548007810B1134800785BE640F249
:10346000FF50FEF79BFB02A8FEF7D6F9064603E0E5
:1034700002A8FEF7D1F906463EB99DF808000728D4
:10348000F6D09DF808000628F2D0304643E600004A
:103490002C2C01409C0300201400002088030020F5
:1034A000180000201C0000201E0000201D0000202D
:1034B0001F000020006402401AB183880B43838000
:1034C00002E083888B438380704700000CB50020A6
:1034D000019000903448006840F480303249086020
:1034E00000BF3148006800F4003000900198401C93
:1034F0000190009818B90198B0F5A04FF1D12A4871
:10350000006800F4003010B10120009001E00020BC
:1035100000900098012846D123484030006840F0D0
:1035200080502149403108602048006840F4404004
:103530001E4908601C48083000681B4908310860B3
:103540000846006840F4004008600846006840F4FF
:10355000A05008601648091F0860081F006840F066
:103560008070091F086000BF0F48006800F00070FD
:103570000028F9D040F205700E4908600A4808306A
:10358000006820F003000849083108600846006818
:1035900040F00200086000BF03480830006800F0F7
:1035A0000C000828F8D10CBD003802400070004023
:1035B00008544007003C0240042808D14FF0E021A5
:1035C000096941F004014FF0E022116107E04FF07A
:1035D000E021096921F004014FF0E02211617047F8
:1035E00010B508F0F5F8012801D007F0BDFD10BDB9
:1035F00010B51548006840F470001349086013487E
:10360000006840F001001149086000200F490831AE
:1036100008600E4800680E4908400C4908600D48D3
:10362000091D0860081F006820F48020091F086039
:10363000002006490C310860FFF748FF4FF000609A
:1036400001498039086010BD88ED00E00038024073
:10365000FFFFF6FE1030002410B50121034800F0F2
:1036600041F80121014800F022F810BD000400409B
:1036700010B501210A4800F035F801280AD109499E
:10368000086980470021064800F048F86421044892
:1036900000F042F80121024800F009F810BD0000D6
:1036A00000080040B4010020CA4302827047CA43A8
:1036B0000282704721B1028842F00102028004E0D8
:1036C00002884FF6FE731A40028070470146486A2E
:1036D000704702460020138A0B400BB1012000E026
:1036E0000020704730B50246002000230024158AD0
:1036F00005EA0103958905EA010413B10CB1012023
:1037000000E0002030BD1AB183890B43838102E0C1
:1037100083898B4383817047C162704741627047E0
:1037200000220288184B98420ED0184B98420BD0BA
:10373000B0F1804F08D0164B984205D0154B9842F7
:1037400002D0154B984204D14FF68F731A404B8824
:103750001A43124B984207D0114B984204D04FF6AF
:10376000FF431A400B891A4302804B68C3620B88DF
:103770000385054B984202D0044B984201D18B7AC5
:10378000038601238382704700000140000401404A
:103790000004004000080040000C00400010004001
:1037A000001400407FB504460D4601210420FEF7B9
:1037B000DDF8ADF800500020ADF802000194ADF83E
:1037C000080069460D48FFF7ABFF012211460B4880
:1037D000FFF799FF01210948FFF76CFF1E208DF8C4
:1037E0000C0004208DF80D0000208DF80E00012043
:1037F0008DF80F0003A8FEF763F87FBD00080040B6
:1038000010B540F225511D4800F04AF810B31B488E
:1038100000F000F9C4B21A48008800F40040C8B9AA
:103820001748008800F4804060B10A2C03D00020C3
:103830001349088020E01248008840F400401049F5
:10384000088019E00D2C06D10D48008840F4804016
:103850000B49088010E00A480088C0F30D000949B0
:103860000C5407480088401C054908800846008819
:10387000C72801DD0020088010BD000000100140B5
:10388000B00200203006002021B1828942F40052AB
:10389000828104E082894DF6FF731A40828170476D
:1038A00070B50246002400230025002040F66A1669
:1038B000B14200D100BFC1F3421501F01F03012640
:1038C00006FA03F3012D02D19689334006E0022D5A
:1038D00002D1168A334001E0968A33400C12012649
:1038E00006FA04F41688344013B10CB1012000E04C
:1038F000002070BDF0B503460024002600250020FE
:1039000040F66A17B94200D100BF1846C1F342140D
:1039100001F01F06012707FA06F5012C01D10C3032
:1039200004E0022C01D1103000E014301AB1076815
:103930002F43076002E00768AF430760F0BD000057
:103940002DE9FF4705460E460024A14600BFA046CC
:10395000B08900B100BF2C8A24F44054F08804439D
:103960002C82AC8941F20C608443B08831890843D1
:10397000718908430443AC81AC8A24F44074B08953
:103980000443AC826846FEF731F82048854202D0F5
:103990001F48854202D1DDF80C9001E0DDF8089067
:1039A000A88900F4004040B109EBC90000EB091000
:1039B00031684900B0FBF1F707E009EBC90000EB03
:1039C000091031688900B0FBF1F76420B7FBF0F013
:1039D00004012009642101FB1078A88900F400404B
:1039E00040B1322000EBC800B0FBF1F000F007005E
:1039F000044308E0322000EB08106421B0FBF1F032
:103A000000F00F0004432C81BDE8FF870010014047
:103A10000014014001468888C0F30800704700BFC9
:103A2000FEE770B505460E46032000F04BF904464C
:103A300015B144F0030401E024F0030421460320FF
:103A400000F05AF9022000F03DF9044616B144F0A6
:103A5000030401E024F003042146022000F04CF9A5
:103A600070BD70B5044604F007042F2000F02AF959
:103A7000054625F0070545EA04012F2000F03CF932
:103A8000302000F01FF9054625F0070545EA04013E
:103A9000302000F031F970BD70B504460D4604F0D9
:103AA0003F0405F03F050CB944F040040DB945F062
:103AB00040052146342000F01FF945F4807135207F
:103AC00000F01AF970BD70B504460D4604F0030409
:103AD00005F00305E00040EA4511042000F00CF970
:103AE00070BD00001CB501210620FDF72FFF4FF42B
:103AF0004050009002208DF8040000208DF8060050
:103B000003208DF8050001208DF807006946324832
:103B1000FDF77EFA4C20009002208DF80400002072
:103B20008DF8060003208DF8050001208DF80700B0
:103B300069462A48FDF76CFA05220C212648FDF754
:103B4000AFFA05220D212448FDF7AAFA0522032128
:103B50002248FDF7A5FA052206212048FDF7A0FA24
:103B6000062202211D48FDF79BFAFDF77FFD00218B
:103B7000084600F0C1F804460CB101201CBD1B2111
:103B8000012000F0B9F84FF4D871022000F0B4F829
:103B90006C21032000F0B0F80021062000F0ACF802
:103BA00010212B2000F0A8F84FF480712F2000F096
:103BB000A3F84FF48071302000F09EF802213120EC
:103BC00000F09AF808210A2000F096F808210E204B
:103BD00000F092F80020D1E7000402400008024003
:103BE0002DE9F04105460E461746022000F06AF81E
:103BF000044615B144F00C0401E024F00C04214605
:103C0000022000F079F82C2000F05CF8044615B191
:103C100044F0330401E024F0330421462C2000F06A
:103C20006BF81EB1052000F00EF802E0002000F055
:103C30000AF81FB10720FFF714FF02E00020FFF78A
:103C400010FFBDE8F08170B5044604F007042F2092
:103C500000F038F8054625F0700545EA04112F20DC
:103C600000F04AF8302000F02DF8054625F07005E8
:103C700045EA0411302000F03FF870BD10B504464D
:103C800004F03F0421462D2000F036F844F4807102
:103C90002E2000F031F810BD70B506460D46002408
:103CA0000EB144F001041DB144F0020444F01404C8
:103CB0002146322000F020F82146332000F01CF885
:103CC00070BD00000146024830F811007047000046
:103CD0002400002010B5044604F03F040CB944F061
:103CE00040042146362000F007F844F48071372064
:103CF00000F002F810BD000070B505460C46FDF757
:103D00000FFD3420FDF7D8FCFDF756FD08B101206A
:103D100070BDC4F3002141EA4501C8B2FDF7CCFCF7
:103D2000FDF74AFD08B10220F2E7E0B2FDF7C4FC5E
:103D3000FDF742FD08B10320EAE7FDF717FD024851
:103D400020F815400020E3E7240000200FB4054BC5
:103D500010B503A9044A029800F0F8F810BC5DF809
:103D600014FB00002D720008AC0200200FB4084BB9
:103D700010B504A902AA039800F0E8F8044602A9C5
:103D8000002000F07AFC204610BC5DF814FB000017
:103D90007B4600082DED020B019820F000400190B9
:103DA0009DED000B02B0704702E008C8121F08C169
:103DB000002AFAD170477047002001E001C1121FAC
:103DC000002AFBD1704700002DE9FF5F82B000217F
:103DD000DDE90430020DDDF840B0034318D044F6AD
:103DE0001050A2F2FF3242431514119801281FD03F
:103DF000A5EB0B00401C5FEA000A4FF000064E4F97
:103E0000DFF83891B046504615D5CAF1000413E0EA
:103E1000119801244AA3012801D16FEA0B010298ED
:103E2000119AC0E90031C0E9024206B0BDE8F09F36
:103E3000CBF10000DFE704460021404A491842EB7D
:103E40000450CDE9001012E0E00707D032463B46AF
:103E500040464946FCF71FFB8046894632463B46B2
:103E600010461946FCF717FB06460F466410002C57
:103E7000EAD1DDE90401DDE90023BAF1000F06DA39
:103E8000FCF709FB42464B46FCF705FB05E0FCF757
:103E900074FB42464B46FCF770FB04460E4600227C
:103EA000284BFCF7E7FB03D84FF0FF30014607E053
:103EB0000022254B20463146FCF746FAFCF7C7FCAA
:103EC000102409E0002C0ADB0A220023FCF700FC86
:103ED000039B30321A55641E50EA0102F2D1641C71
:103EE000039AC4F111031444119A012A03D0012248
:103EF00008430DD10AE0084304D000204FF0110B15
:103F0000119072E7A3EB0B056D1E0DE05B4504DD20
:103F10004FF0000205F1010504E003DA4FF0000262
:103F2000A5F10105002AECD002981199C0E90231EF
:103F3000C0E9004579E70000000014400000F03FB0
:103F4000300000000000F0430000E03F2DE9FF4F8B
:103F500095B09B468946064600250FE2252877D175
:103F600000242746F84A0121059400E0044316F88E
:103F7000013F203B01FA03F01042F7D130782A28A4
:103F800011D06FF02F033078A0F13002092A16D833
:103F9000059A44F0020402EB820203EB4202104451
:103FA000761C0590EFE759F8042B0592002A03DAF6
:103FB000504244F40054059044F00204761C3078DA
:103FC0002E2816D116F8010F44F004042A280DD02B
:103FD0006FF02F023078A0F13003092B09D807EBDE
:103FE000870302EB4303C718761CF3E759F8047BF9
:103FF000761C30786C280FD006DC4C2817D0682847
:104000000DD06A2814D104E0742810D07A280FD17A
:104010000DE044F400140AE044F4801401E044F498
:1040200040147278824202D104F58014761C761C0A
:10403000307866280BD013DC582877D009DC0028AC
:1040400075D04528F6D04628F4D047281AD19DE1EE
:1040500018E0632835D0642879D0652812D195E11D
:10406000702873D008DC6728F1D069286FD06E28DB
:104070000DD06F2806D1B5E073282CD0752875D0E7
:10408000782874D05A46179990476D1C75E1C4F38F
:104090000250022809D003280DD0D9F800100428B6
:1040A0000DD00D6009F1040967E1D9F80010EA1795
:1040B000C1E90052F6E7D9F800100D80F2E70D7063
:1040C000F0E719F8041B8DF8001000208DF80100AE
:1040D000EA46012003E059F804AB4FF0FF306107D6
:1040E0004FF0000102D40DE008F101018846B94209
:1040F0000FDA8045F8DB1AF808100029F4D108E03F
:1041000008F1010188468142FADB1AF808100029FB
:10411000F6D105985B46A0EB080721463846179A6A
:1041200000F094FA284400EB080507E04DE029E18F
:104130000DE01AF8010B5A4617999047B8F101089B
:10414000F7D25B4621463846179A13E142E00A222D
:104150000092C4F302524FF0000A022A08D059F824
:1041600004CB032A4FEAEC710AD00DE029E02AE0E3
:1041700009F1070121F00702F2E802C1914609E0C6
:104180000FFA8CFC4FEAEC71042A03D14FFA8CFC35
:104190004FEAEC71002907DA0A460021DCF1000C35
:1041A00061EB02012D2202E0220504D52B228DF8BD
:1041B0000420012203E0E20701D02022F7E7904625
:1041C00059E00A2102E010220DE010214FF0000A10
:1041D00000910BE010224FF0000A44F0040408277D
:1041E000009203E008224FF0000A0092C4F302524A
:1041F000022A05D059F804CB0021032A08D009E08F
:1042000009F1070121F00702F2E802C1914605E039
:104210001FFA8CFC042A01D10CF0FF0C4FF00008AF
:10422000220728D5702806D0009B83F0100353EA9C
:104230000A0305D00EE040228DF80420012208E098
:104240005CEA010206D030228DF804208DF80500CA
:1042500002229046009B83F0080353EA0A030AD126
:104260005CEA010201D1620705D530228DF80420F5
:104270004FF001087F1E582804D034A003900EA8E8
:1042800002900DE036A0F9E753466046009AFCF72D
:104290001FFA84460398825C0298401E02900270C6
:1042A0005CEA0100F0D1029806A9081A00F1200A80
:1042B000600702D524F4803400E00127574502DD71
:1042C000A7EB0A0000E0002000EB0A01009005982F
:1042D0004144401A0590E00306D45B462146179AF4
:1042E000059800F0B3F90544002706E001A85A46F6
:1042F000C05D179990476D1C7F1C4745F6DBE003B6
:104300000CD55B462146179A059800F09FF90544A5
:1043100004E030205A46179990476D1C0099481EBA
:1043200000900029F5DC08E0029802995A460078CE
:10433000491C0291179990476D1CBAF10001AAF12E
:10434000010AF1DC65E10000092801003031323357
:1043500034353637383961626364656600000000C1
:1043600030313233343536373839414243444546AB
:104370000000000000F058F90544761C3078002851
:104380007FF4ECAD19B02846BDE8F08F620700D489
:10439000062709F1070222F0070CFCE80223E14698
:1043A00003F000485FEA080C02D00FF2702C0DE019
:1043B0005FEA045C02D50FF2682C07E05FEAC47C78
:1043C00002D00FF2602C01E0AFF2700C4FF0FF381A
:1043D00023F00043CDF850C065280CD006DC4528FA
:1043E00009D046281DD047283DD13DE0662818D089
:1043F00067287ED138E00021112F01DB112000E079
:10440000781CCDE9000106A90EA8FFF7DDFCDDE967
:104410000F010E9A03910021009207F1010A049105
:104420004DE04FF000400097CDE9011006A90EA81D
:10443000FFF7CAFCDDE90F0203920E9B11990022DF
:10444000DDF80CA00093049211B9791C00EB010A6D
:10445000B7EB0A0004D4C0F1FF3007F1010A049061
:10446000AAEB0700019044E0012F00DA01270021A8
:10447000112F01DD112000E03846CDE9000106A929
:104480000EA8FFF7A1FCDDE90F010E9A03910021B0
:1044900004910092BA4621070CD40399514500DAE1
:1044A0008A46BAF1010F05DD009AAAF10101515CBB
:1044B000302908D0B84202DA10F1040F06DA0121DF
:1044C000CDE9011015E0AAF10101E9E7002805DCBA
:1044D000049901440491AAEB000102E0411C5145FA
:1044E00000DD8A460499401A401C01904FF00040BC
:1044F0000290200704D40198504501DBCDF80480D8
:1045000000208DF84F0002980DF14F07B0F1004FD9
:1045100025D02B200E9002984FF0020800280CDACC
:10452000404202902D200E9007E00A210298FCF7ED
:10453000B9F83031029007F8011DB8F10001A8F177
:104540000108F2DC02980028EFD1791E0E9808705D
:10455000307800F0200040F0450007F8020D12A866
:10456000C01B00F107081498007800B1012000EB8F
:104570000A01019801EBE07105984144401A401E80
:104580000590E00306D45B462146179A059800F093
:104590005DF805441498007818B15A461799904769
:1045A0006D1CE00324D55B462146179A059800F060
:1045B0004DF805441CE00498002807DBDDE9030101
:1045C000884203DD0098405C179901E0179930207C
:1045D0005A469047049805F10105401C0490019843
:1045E000401E019004D12E205A46179990476D1C09
:1045F000BAF10001AAF1010ADDDC05E017F8010BB0
:104600005A46179990476D1CB8F10001A8F10108AE
:10461000F4DC5B462146179A0598ABE62D000000B6
:104620002B000000200000002DE9F0410446002589
:104630001E461746880404D405E039462020B047BA
:104640006D1C641EF9D52846BDE8F0812DE9F041C6
:10465000044600251E469046C80301D5302700E0D9
:104660002027880404D505E041463846B0476D1C34
:10467000641EF9D52846BDE8F0810A68531C0B601A
:10468000107070472DE9F05F2DED0A8B04468946C6
:1046900092460320B4FBF0F6B4FBF0FB5846FBF760
:1046A000DBFF41EC1A0B2046FBF7D6FF41EC1C0B5D
:1046B0009FED270B53EC102BFBF75FFF41EC1B0B1F
:1046C00053EC1A2BFBF7E1FE41EC190BB0EE490A53
:1046D000F0EE690AFFF75EFBB0EE408AF0EE608A0A
:1046E0009FED1D0B53EC102B51EC180BFBF7C2FF89
:1046F00000D2761CB00002F0D3FF054625B9002099
:10470000BDEC0A8BBDE8F09FB000CAF800002F4650
:10471000C8464FF0000B09E03A464146032000F03E
:104720001FF808F103083F1D0BF1010B0320B4FB38
:10473000F0F05845F0D80320B4FBF0F100FB114B2A
:104740003A464146584600F00BF82846D8E70000A4
:104750000000000000000840000000000000B03C25
:1047600030B504460B460021012C0FD11878010406
:10477000224800EB9140007810702048C1F30535C5
:10478000405D50703D209070D07035E0022C16D105
:10479000187800045D7800EB0521184800EB914083
:1047A000007810701548C1F30535405D507013480E
:1047B000C1F38515405D90703D20D0701CE0032C46
:1047C0001AD1187800045D7800EB05209D78411916
:1047D0000A4800EB9140007810700848C1F3053595
:1047E000405D50700548C1F38515405D907001F043
:1047F0003F00024D285CD070002030BD8ABD00080B
:1048000010B54FF44070FDF797F8A82000F0C6FBF4
:1048100000F042F84FF4FA2004F030FE542005F086
:104820007DFAFFF75FF928210846FFF735F93220B6
:10483000FFF750FA00F0C8FF0DE00BA0FFF786FA73
:104840004FF4FA7000F0CCFB0BA0FFF77FFA4FF4A7
:10485000FA7000F0C5FBFDF731FC0028EDD10AA08D
:10486000FFF774FA10BD00005344204361726420C6
:104870004572726F72210A00506C65617365204346
:104880006865636B210A0000B3CCD0F2BFAACABC32
:104890002121210A000000001CB501210420FDF7A0
:1048A00055F84FF40050009001208DF804000020CE
:1048B0008DF806008DF8050001208DF80700694687
:1048C0000148FCF7A5FB1CBD000802400648007823
:1048D000064908600448007808B9012000E000207B
:1048E000014908707047000010000020B4024142E6
:1048F00070B504460D460020E070401E2063294636
:10490000204603F0E5FB08B1042070BD04F232201C
:1049100002F0A2FE4AF65521884201D00320F4E7B6
:1049200000BF94F83400E92807D094F83400EB284D
:1049300003D094F83400E82811D1032209A104F12E
:104940006A0002F0E3FE08B90020DEE7052206A1B6
:1049500004F1860002F0DAFE08B90020D5E7022053
:10496000D3E7000046415400464154333200000072
:10497000024600E0521C107818B192F900008842FB
:10498000F8D192F9000070470246891E9069801E96
:10499000884201D8002070475389D06A03FB010088
:1049A000F9E700002DE9F04780460C4604F11A00B3
:1049B00002F052FE10B10020BDE8F087207800F030
:1049C0003F00401E00EB800101EBC0054FF00109E4
:1049D000002621E01849895D081902F03DFE0746CE
:1049E000B9F1000F11D0FF2D0BD8384602F03AFB79
:1049F000824629466D1C38F8110002F033FB8245CF
:104A000001D00020D8E7B94605E04FF6FF70874295
:104A100001D00020D0E7761C0D2EDBD3207800F0EB
:104A2000400038B1B9F1000F04D038F8150008B1D2
:104A30000020C1E70120BFE7D0BD000801460020EB
:104A400002E04910421CD0B20129FAD170472DE989
:104A5000F04782468846DAF80040B8F1000F06D1E8
:104A6000276917B1A069B84215D8012713E041465C
:104A7000504602F077FC0546022D02D20120BDE827
:104A8000F087681C08B92846F9E7A069A84201D94F
:104A90002846F4E74746606908B90020EFE700269A
:104AA000474518D17E1CA069B04200D80226314685
:104AB000504602F057FC0546012D01D0681C08B98C
:104AC0002846DCE73DB12569022D03D3A069A84241
:104AD00000D92F460026E6B93E4600BF761CA069E5
:104AE000B04204D80226BE4201D90020C7E73146B1
:104AF000504602F037FC054605B909E0012D01D00A
:104B0000681C08B92846BAE7BE42E7D10020B6E7DC
:104B100000BF4FF0FF323146204604F069F881466D
:104B2000B9F1000F08D1B8F1000F05D03246414667
:104B3000204604F05DF88146B9F1000F0DD12661E1
:104B4000D4E90510801E814202D86069401E606170
:104B5000207940F00100207107E0B9F1010F02D186
:104B60004FF0FF3000E001200646304687E70000A6
:104B70002DE9F34F85B08146069800680290D9F878
:104B80000000D0F80CA0002500BF02A804F04FFCE4
:104B900083460BF1010018B9062007B0BDE8F08F7D
:104BA000BBF5803F05D34FEA1B4228466D1C2AF80F
:104BB00010201FFA8BF4202C03DB2F2C01D05C2C4F
:104BC00000D111E0802C06DA214679A0FFF7D0FE53
:104BD00008B10620E1E7FF2D01D30620DDE72846D6
:104BE0006D1C2AF81040D0E700BF202C01DA042603
:104BF0000CE0002602E00298401C02900298007827
:104C00002F28F8D0029800785C28F4D002990698F2
:104C1000016008E0681E3AF81040202C02D02E2CCB
:104C200000D002E06D1E002DF4D100BF00202AF854
:104C300015000DB90620B0E7002700E07F1C3AF808
:104C400017002028FAD01FB93AF817002E2801D1F2
:104C500046F0030600E06D1E25B1681E3AF810000C
:104C60002E28F8D10B22202109F1200002F06DFD41
:104C70004FF00008CDF810800820039000BF3846A0
:104C80007F1C3AF8104004B966E0202C03D02E2C8B
:104C900004D1AF4202D046F00306F0E7DDE903108D
:104CA000884201D2AF4216D103980B2802D146F0B8
:104CB000030651E0AF4201D046F00306AF4200D9EF
:104CC0004AE02F46082004900B2003904FEA8860AA
:104CD0004FEA1068D3E7802C0ADB46F00206204634
:104CE00002F0C0F94FF46A71019002F081F90446B4
:104CF000FF2C11DD0398401E0499884204D846F029
:104D0000030603980490BAE722120498411C049108
:104D100009F120010A5418E024B1214627A0FFF729
:104D200027FE18B15F2446F003060EE0412C03DB9A
:104D30005A2C01DC48F00208612C06DB7A2C04DCDA
:104D400048F00108A4F1200084B20498411C0491A9
:104D500009F120010C5492E700BF99F82000E528E2
:104D600002D1052089F820000398082803D14FEAD2
:104D700088604FEA106808F00C000C2803D008F097
:104D80000300032801D146F0020606F0020048B9EC
:104D900008F0010008B146F0100608F0040008B160
:104DA00046F008062B2000F809600020F5E6000018
:104DB000222A3A3C3E3F7C7F000000002B2C3B3DEA
:104DC0005B5D00002DE9FF4F85B09A4603AA0121E3
:104DD000059800F05BFC18B1012009B0BDE8F08F28
:104DE000DDF80C904FF03F08082701E07806070E29
:104DF00037B1B9FBF7F0B0FBF8F0B0F5806FF5D83C
:104E000007B9FF274FF400720021504602F09DFCC5
:104E10000AF5DF764FF0000B444669E0069850F83B
:104E20002B50642D07D801D1484603E06420B9FB1C
:104E3000F0F0684305466019484501D8601901D370
:104E4000A9EB040505B959E0214606F1080004F074
:104E50005FFA294606F10C0004F05AFA07983071FF
:104E6000B4FBF8F0B0FBF7F00490B4FBF8F0B0FB43
:104E7000F7F107FB1100C0B20290B4FBF8F008FB99
:104E80001040401CC0B2019002987070C02104987C
:104E900001EA900001990843B0700498F07060191D
:104EA000401EB0FBF8F0B0FBF7F004906019401E14
:104EB000B0FBF8F0B0FBF7F107FB1100C0B20290B5
:104EC0006019401EB0FBF8F108FB1100401CC0B295
:104ED000019002987071C021049801EA9000019934
:104EE0000843B0710498F07110360BF1010B2C449B
:104EF000BBF1040F02D20CB14C458FD300BF4AF670
:104F000055210AF5FF7004F00FFA012300225146E3
:104F1000059800F027FC08B101205EE700205CE75F
:104F200001460B48007888420FDC094840788842E7
:104F300001DB0120704706488078884205DC044880
:104F4000C078884201DB0120F4E70020F2E700008E
:104F5000DDBD0008014610480079884219DC0E4882
:104F60004079884201DB012070470B4880798842F4
:104F700005DC0948C079884201DB0120F4E70648D6
:104F8000007A884205DC0448407A884201DB01202F
:104F9000EAE70020E8E70000DDBD000870B5044640
:104FA0000420FEF709FB0C48047025464FF47A7084
:104FB00045430120094908804FF0E020006940F096
:104FC00002004FF0E021086108464561006940F0A9
:104FD0000100086170BD0000A8020020AA020020A4
:104FE00070B5044606F0F4FB012810D00B48008889
:104FF000844206D309480088B4FBF0F5284605F042
:10500000EFFC06480088B4FBF0F100FB11444FF4BC
:105010007A7104FB01F000F003F870BDAA020020D1
:1050200070B5034600224FF0E02675690D4E3678C4
:1050300003FB06F44FF0E026B16910E04FF0E026E4
:10504000B06988420BD0884202D20E1A324402E084
:105050002E1A0E4432440146A24200D300E0EDE78E
:1050600000BF70BDA80200202DE9F04104460E46A5
:10507000D4F800800021204600F0A6FA0546EDB9DC
:10508000002700BF4046A16903F022F8054605B19C
:1050900013E0E0690078E52802D0E069007820B9E3
:1050A000781C0746B04201D107E0002701212046C5
:1050B00000F0EBF80546002DE4D000BF042D00D130
:1050C00007252846BDE8F0812DE9F04704468946CA
:1050D000204604F087F910B10120BDE8F087494669
:1050E0002046FFF751FC074627634FF4007200216A
:1050F00004F1340002F029FB60894FF40041B1EB68
:10510000402F01D8084601E06089400206464FF072
:10511000000800E07608B6F5007F05D9304601F0BA
:1051200026FFB0F10008F5D0B6F5007F17D932465A
:105130000021404602F009FB760A002500E03544D4
:105140006089A84207D97A1960783346414600F051
:1051500009FB0028F3D0404601F00FFF10E004F1F6
:1051600034080126002500E035446089A84207D9AB
:105170007A1960783346414600F0F4FA0028F3D0FB
:105180006089A84201D00120A7E70020A5E72DE90A
:10519000F0470446D4F800A00021204600F014FA9D
:1051A000064616B13046BDE8F0874FF0FF08C1460D
:1051B0004FF0FF30E06200BF5046A16902F088FF67
:1051C000064606B15EE0E06905780DB9042659E0AF
:1051D000E069C07A00F03F07A771E52D04D007F021
:1051E000080038B10F2F05D04FF0FF084FF0FF3007
:1051F000E06240E00F2F22D12B20005D00F0400044
:1052000098BB05F0400038B1E06990F80D9005F0CA
:10521000BF05A8462069E06245450CD1E069407BA6
:10522000484508D1E169DAF80C00FFF7BBFB10B183
:10523000A8F1010000E0FF2000F0FF081BE0B8F13A
:10524000000F05D1E06904F075F8484500D119E078
:105250002B20005D00F0010040B90B2204F1200179
:10526000E06902F053FA08B90CE004E04FF0FF08DF
:105270004FF0FF30E0620021204600F006F80646BD
:10528000002E99D000BF30468DE72DE9F04104464D
:1052900088462768206900F12006B6F5001F01D373
:1052A0000020A061A06910B90420BDE8F081C6F318
:1052B0000800002845D1A069401CA061606938B988
:1052C0003889B0EB561F3CD80020A0610420ECE7E1
:1052D0007889401E00EA562098BB2046616902F09A
:1052E00041F80546012D01D80220DEE7681C08B907
:1052F0000120DAE7B869A8421DD8B8F1000F03D140
:105300000020A0610420D0E720466169FFF79FFBE1
:1053100005460DB90720C8E7012D01D10220C4E7D9
:10532000681C08B90120C0E729463846FFF7CCFEC3
:1053300008B10120B9E7656129463846FFF724FB2B
:10534000A0612661C6F3080107F134000844E0615A
:105350000020AAE72DE9F05F044689460426D4F828
:1053600000A04FF0FF08C34653E05046A16902F089
:10537000AFFE064606B14FE0E06905780DB9042698
:105380004AE0E069C07A00F03F07A771E52D0AD036
:105390002E2D08D027F02000082801D1012000E0A0
:1053A0000020484502D04FF0FF082BE00F2F1DD101
:1053B00005F0400038B1E06990F80DB005F0BF0588
:1053C000A8462069E06245450CD1E069407B58451C
:1053D00008D1E169DAF80C0002F094FE10B1A8F1EE
:1053E000010000E0FF2000F0FF080BE0B8F1000F23
:1053F00004D1E06903F09EFF584502D04FF0FF3022
:10540000E06209E000212046FFF73FFF064606B1B3
:1054100002E0A0690028A8D100BF0EB10020A06161
:105420003046BDE8F09F2DE9FE4F044626682B204C
:10543000005D00F0A00010B10620BDE8FE8F4FF027
:10544000000901E009F10109F06830F819000028AD
:10545000F8D10C2204F12001684602F069F99DF8A8
:105460000B0000F0010028B340212B2001554FF024
:1054700001080EE04346694604F12000F26801F09D
:105480000BFF2046FFF783FE054605B104E008F157
:105490000108B8F1640FEDD300BFB8F1640F01D17A
:1054A0000720CAE7042D01D02846C6E79DF80B1057
:1054B0002B2001559DF80B0000F0020030B109F1DE
:1054C0000C000D21B0FBF1F0401C00E0012007466C
:1054D00039462046FFF7C8FD05464DBB781E071E1E
:1054E00026D02069A0EB4711204600F06DF8054654
:1054F000F5B904F1200003F01DFF824600BF3046DD
:10550000A16902F0E5FD054605B110E0FAB2E169D6
:105510005346F06803F008FC0120F070002120469B
:10552000FFF7B3FE054615B9781E071EE7D100BF89
:10553000C5B93046A16902F0CBFD054695B92022D8
:105540000021E06902F001F90B2204F12001E06979
:1055500002F0EEF82B20005D00F01800E1690873FE
:105560000120F070284668E72DE9F04104462668DE
:105570002769E06A401C08B9002003E02046E16A80
:1055800000F022F80546E5B900BF3046A16902F0F7
:105590009FFD054605B110E000BFE520E1690870F8
:1055A0000120F0702069B84200D306E000212046B7
:1055B000FFF76BFE0546002DE7D000BF042D00D19C
:1055C00002252846BDE8F0812DE9F04104460D464C
:1055D0002668B5F5001F02D205F01F0010B10220A9
:1055E000BDE8F0812561A7681FB93078032800DB8A
:1055F000B76A47B93089B0EB551F01D80220EFE7F1
:10560000B06AA0611CE070894FEA402811E0394679
:10561000204601F0A7FE0746781C08B90120DFE705
:10562000022F02D3B069B84201D80220D8E7A5EB17
:1056300008054545EBD239463046FFF7A5F9A0618C
:105640006761A06908B90220CAE7A06900EB55208C
:10565000A061C5F3080106F134000844E0610020B0
:10566000BEE770B50446002514B1012C05D103E056
:10567000FCF724FD054602E001E0012500BF00BF64
:105680000DB1012070BD0020FCE700002DE9F047BE
:1056900006468946154646BBB9F1000F09D0B9F157
:1056A000010F13D0B9F1020F05D0B9F1030F19D1D1
:1056B00006E0002418E04FF400702860002413E096
:1056C0000D48B0F85000288000240DE00A484FF43F
:1056D00000720023D0E912713846FAF7D9FD28602C
:1056E000002401E0042400BF02E0012E00D00124C8
:1056F0002046BDE8F0870000D80300202DE9F041E6
:1057000005460E4617461C464FF0000814B9042003
:10571000BDE8F08115B1012D16D112E0E2B2394693
:105720003046FDF7E7F8804607E0FCF7C7FCE2B239
:1057300039463046FDF7DEF88046B8F1000FF4D167
:1057400005E04FF0000802E04FF0010800BF00BF85
:10575000B8F1000F01D10020DAE70120D8E70146B7
:10576000002070472DE9F04105460E4617461C46BD
:105770004FF0000814B90420BDE8F08115B1012DE7
:1057800016D112E0E2B239463046FDF761FC8046A0
:1057900007E0FCF793FCE2B239463046FDF758FCCF
:1057A0008046B8F1000FF4D105E04FF0000802E0A8
:1057B0004FF0010800BF00BFB8F1000F01D1002079
:1057C000DAE70120D8E7000010B500240DE04FF41F
:1057D0000D7001F065FF174941F82400084650F8A4
:1057E000240000B903E0601CC4B2012CEFDB00BF51
:1057F0004FF40A7001F054FF0F4908604FF40A702B
:1058000001F04EFF0D4908604FF4007001F048FFB1
:105810000B490860012C0AD10748006838B10748D5
:10582000006820B10846006808B1002010BD0120C2
:10583000FCE70000380300203C0300204003002068
:105840004C03002038B50546284601F0EFF9044620
:105850003CB96946284605F0E9FA04460CB900202F
:105860002860204638BD38B504466946204605F014
:10587000DDFA05460DB900202060284638BD2DE927
:10588000F74F86B088469246002205A906A802F086
:10589000CBFA8146B9F1000F68D10598CAF800002B
:1058A0000598D0E90510801E814204D8059840690A
:1058B000C8F800005AE000250598007801281BD19F
:1058C00002260598019000BF314601A801F04AFD6B
:1058D0000746781C10B94FF001090CE0012F02D1E6
:1058E0004FF0020907E007B96D1C701C06460599C8
:1058F00089698842E8D32FE0059886690598D0F831
:1059000024B0002400BF54B959460BF1010B05988F
:1059100002F0DEFB8146B9F1000F00D01BE00598D4
:105920000078022808D105993431081901F094FE55
:1059300000B96D1CA41C09E005993431081901F067
:105940007FFE20F0704000B96D1C241DC4F30804D4
:10595000701E061ED7D100BFC8F8005005984561DB
:105960000598007940F0010005990871484609B092
:10597000BDE8F08F2DE9F7438EB00D4617460022A3
:1059800001A90EA802F050FA0446002C32D1002DD5
:1059900030D00198029000200490002102A8FFF767
:1059A00013FE04460CBB012102A8FFF7D3FC0446FA
:1059B000DCB90026B0460AE0404608F10108099A21
:1059C00012F800904FFA89F23046761C2A54B8F14A
:1059D0000B0FF1D300BF0020A85506B904E0701EDC
:1059E0000646285C2028F6D000BF042C02D10020F7
:1059F00028700024CCB9C7B10198016A02F068FB95
:105A0000044694B901980078032803D0042803D1F0
:105A1000642603E0432601E0272600BF00BF01996A
:105A20003431881901F00CFE3860204611B0BDE811
:105A3000F0832DE9FC4780460C46914600254646FA
:105A4000641E14E06B46012201A9484600F0B2FE34
:105A50000098012800D00CE09DF8047000BF78B2D7
:105A600006F8010B6D1C0A2F00D102E000BFA54211
:105A7000E8DB00BF0020307015B14046BDE8FC8770
:105A80000020FBE72DE9F84F04460E466946204604
:105A900005F0CCF98246BAF1000F01D194F811A0BB
:105AA000BAF1000F02D05046BDE8F88FE068B0426E
:105AB00004D2207C00F0020000B9E668D4F814900B
:105AC0004FF00008C4F81480002E68D00098408978
:105AD0004702B9F1000F11D0701EB0FBF7F1A9F128
