:020000040800F2
:10000000688301206D020008091A0008DD08000855
:10001000051A0008EF080008273C0008000000004F
:10002000000000000000000000000000AD0100081A
:10003000850E00080000000009020008DD370008F6
:10004000870200088702000887020008870200086C
:10005000870200088702000887020008870200085C
:10006000870200088702000887020008870200084C
:100070008702000887020008F50A0008210B000823
:10008000870200084D0B000887020008870200085D
:10009000870200088702000887020008870200081C
:1000A000870200088702000887020008870200080C
:1000B00087020008870200085538000887020008F8
:1000C00087020008870200088702000887020008EC
:1000D00087020008E53900086D3A00088702000829
:1000E000890E0008870200088702000887020008BE
:1000F00087020008870200088702000887020008BC
:1001000087020008651D00088702000887020008B2
:10011000870200088702000887020008870200089B
:10012000870200088702000887020008870200088B
:10013000870200088702000887020008870200087B
:10014000870200088702000887020008870200086B
:10015000870200088702000887020008870200085B
:10016000870200088702000887020008870200084B
:10017000870200088702000887020008870200083B
:100180008702000887020008DFF80CD000F068FB47
:1001900000480047FD7500086883012030BF72B633
:1001A000704762B6704780F3088870472C4B196817
:1001B0000868B0E8F04F80F30988BFF36F8F4FF005
:1001C000000080F3118870470000000008480068B4
:1001D000006880F308884FF0000080F3148862B64E
:1001E00061B6BFF34F8FBFF36F8F00DF00BF00BF5B
:1001F00008ED00E0DFF80C00016841F470010160D7
:10020000704700BF88ED00E0EFF30980BFF36F8F08
:10021000134B1A681EF0100F08BF20ED108A20E95A
:10022000F04F106009B44FF0500080F31188BFF315
:100230004F8FBFF36F8F0AF0FBFE4FF0000080F38B
:10024000118809BC19680868B0E8F04F1EF0100F5B
:1002500008BFB0EC108A80F30988BFF36F8F704736
:10026000CC020020EFF3058070470000064880476D
:1002700006480047FEE7FEE7FEE7FEE7FEE7FEE78B
:10028000FEE7FEE7FEE7FEE7ED370008890100081C
:100290002DE9F0410024061B254671F1000605DA20
:1002A00001240027D0EB070067EB0101161E73F154
:1002B000000605DA0027D2EB0702012567EB0303EE
:1002C00000F00EFA86460E4617469C46AC4204D015
:1002D0000025D0EB050E65EB010624B10020D2EB22
:1002E000000760EB030C704631463A466346BDE8B2
:1002F000F08140EA01039B0703D009E008C9121FFF
:1003000008C0042AFAD203E011F8013B00F8013BCF
:10031000521EF9D27047D2B201E000F8012B491EFB
:10032000FBD270470022F6E710B513460A46044692
:100330001946FFF7F0FF204610BD421C10F8011BC4
:100340000029FBD1801A70472DE9FE4F804681EAD3
:100350000300C00F0C46009021F0004123F000453F
:10036000B8EB0200A94105D24046214690461C4602
:100370000B46024623F00040104347D0270DC7F339
:100380000A00C3F30A510290401A019040286BDA28
:10039000C3F3130040F4801B0098924620B1002361
:1003A000D2EB030A63EB0B0B01985946C0F14002F4
:1003B000504600F0C6F906460D4650465946019A89
:1003C00000F0DEF910EB08006141002487EA1152C9
:1003D00084EAE7731A4340D0009A62B3019A012A73
:1003E0004FEA075215DC001B61EB02014FF000429F
:1003F00002EA0752CDE90042001C41F58011324665
:100400002B4600F0DEF903B0BDE8F08F40462146F0
:10041000F9E7001B61EB0201001C41F58013001895
:100420005B412018A2F5001747EB030140EAD570A5
:10043000B6196D4111E06D084FEA360645EAC07500
:100440004FEA0752001B61EB0201001C41F58011CD
:1004500049084FEA30000019514132462B4603B09B
:10046000BDE8F04F00F09EB9009801224000002343
:10047000D0EB020263EBE073009821464FEAE07490
:10048000B8EB000061EB0401E9E783F000435BE7B0
:1004900081F0004158E72DE9FE4F81EA030404F0A2
:1004A000004421F0004100944FF0000B23F0004382
:1004B00050EA01045ED052EA03045BD0C3F30A544D
:1004C000C1F30A552C44A4F2F3340194A0FB025466
:1004D000C1F3130141F48011C3F3130343F48013F8
:1004E00001FB024400FB034E840A970A44EA81544C
:1004F00047EA8357A4FB076802958D0A05FB078529
:100500004FEA932C04FB0C542705029D4FEA065832
:1005100047EA1637B5EB08056EEB070C870E920E0F
:1005200047EA811742EA8312A7FB0201B6EB0B01EF
:1005300064EB00042B0D43EA0C335E1844EB1C50B3
:10054000DA465146E7FB0201C5F313044FEA0B33C9
:1005500043EA14534FEA0432019C43EA0603A4F130
:100560000C040294009CCDE900B400F02AF903B019
:10057000BDE8F08F00200146F9E72DE9F04D81EA52
:10058000030404F0004B21F0004514464FF0000A2C
:1005900023F0004150EA050220D054EA01021DD0A8
:1005A000C5F30A570246C5F31303C1F31300C1F3A1
:1005B0000A5640F4801543F48013A7EB0608101B7D
:1005C000D64608F2FD3873EB050002D308F10108A6
:1005D00001E092185B41B8F1000F03DA00200146F8
:1005E000BDE8F08D00204FF48011064684460EE0F1
:1005F000171B73EB050705D3121B63EB05030643BB
:100600004CEA010C49084FEA300092185B4150EA6D
:100610000107EDD152EA030012D082EA040083EA16
:100620000501084305D0101BAB4106D2012200236F
:1006300006E000224FF0004302E06FF00102531089
:100640001AEB06004CEB085110EB0A0041EB0B01D2
:10065000BDE8F04D00F0A6B80EB540F2334102916E
:100660000021CDE900110A460B4600F0AAF803B0BC
:1006700000BD70B5C1F30A5201F000450024C1F37A
:10068000130140F2FF3341F480119A4201DA002055
:1006900070BD40F233439A42A2F2334203DC52422D
:1006A00000F05EF800E090402C43F1D0404270BD75
:1006B00030B5041E71F1000404DB4FF000444042E9
:1006C00064EB0101141E73F1000405DB1C464FF0BE
:1006D0000043524263EB0403994208BF904230BD8D
:1006E0002DE9F05F0546002092469B468846064667
:1006F000814640241BE0284641464746224600F0FA
:100700002FF853465A46C01A914110D31146184645
:10071000224600F016F82D1A67EB01084F462246D4
:100720000120002100F00DF817EB00094E41201EBA
:10073000A4F10104DFDC484631462A464346BDE8C1
:10074000F09F202A04DB203A00FA02F100207047D3
:100750009140C2F1200320FA03F3194390407047FF
:10076000202A04DB203A21FA02F00021704721FA06
:1007700002F3D040C2F1200291400843194670476D
:10078000202A06DBCB17203A41FA02F043EAE07355
:1007900006E041FA02F3D040C2F120029140084342
:1007A0001946704710B5141E73F1000408DA401C96
:1007B00041F1000192185B411A4301D120F0010080
:1007C00010BD2DE9F04D92469B4611B1B1FA81F270
:1007D00002E0B0FA80F220329046FFF7B2FF044602
:1007E0000F4640EA0A0041EA0B0153465A460843C5
:1007F00013D0114653EA010019D0C8F14002504607
:10080000FFF7AEFF05460E46504659464246FFF7F3
:1008100098FF084305D0012004E020463946BDE892
:10082000F08D0020054346EAE0762C4337430A98D2
:100830006305E40AA0EB08000022FD0A44EA4754DD
:100840000A3002D500200146E9E701051019694187
:10085000DDE9084500196941BDE8F04DA2E7000057
:10086000064C074D06E0E06840F0010394E80700FD
:1008700098471034AC42F6D3FFF78AFC3075030872
:100880005075030870B58C1810F8015B15F007035C
:1008900001D110F8013B2A1106D110F8012B03E019
:1008A00010F8016B01F8016B5B1EF9D12B0705D421
:1008B0000023521E0DD401F8013BFAE710F8013B6A
:1008C000CB1A921C03E013F8015B01F8015B521E86
:1008D000F9D5A142D8D3002070BD00001EF0040F4E
:1008E0000CBFEFF30880EFF3098000F093BC00BF6A
:1008F000FEE770B500254FF4803404E0802001F05D
:100900001DFA00B103E0201EA4F10104F6D100BFDE
:100910000CB9032070BD40F2FF5001F0E5F9284604
:10092000F8E7000070B5044605E01648056805F0D4
:10093000450000B100E0F8E700BF042001F0FEF937
:1009400020B1042001F0D0F9032070BD012001F096
:10095000F5F920B1012001F0C7F90120F5E70948B8
:1009600024380068A04201D01020EEE740F2FF508A
:1009700001F0BAF903482038006808210840C0B2E5
:10098000E3E70000342C014070B500264FF48035B9
:1009900005E01148046804F0450000B103E0281E9A
:1009A000A5F10105F5D100BF15B104F0040028B18F
:1009B0000326042001F098F9304670BD012001F0B3
:1009C000BDF918B10126012001F08EF940F2FF5067
:1009D00001F08AF93046F0E7342C014010B505E00B
:1009E0000B48046804F0450000B100E0F8E700BFE0
:1009F000042001F0A3F920B1042001F075F90320CF
:100A000010BD40F2FF5001F06FF90020F8E7000040
:100A1000342C01402DE9F04105460E464FF0000808
:100A200005E02048076807F0450000B100E0F8E75E
:100A300000BF042001F082F928B1042001F054F92C
:100A40000320BDE8F081012001F078F920B10120F8
:100A500001F04AF90120F4E7124824380068A8425E
:100A600001D01020EDE740F2FF5001F03DF90D48B4
:100A70002038046804F4604018B9200C30804046E7
:100A8000DFE704F4005008B11320DAE704F48040F3
:100A900008B11020D5E704F4004008B10F20D0E7DA
:100AA0004046CEE7342C014070B500264FF4803527
:100AB00005E00F48046804F0450000B103E0281E7B
:100AC000A5F10105F5D100BF15B104F0040028B16E
:100AD0000326042001F008F9304670BD04F0400000
:100AE00018B10026402001F0FFF83046F5E700007D
:100AF000342C014010B50749074800F045F901289A
:100B000006D10449044800F041F8044800688047D1
:100B100010BD00000080001858600240A8000020AE
:100B200010B50749074800F02FF9012806D10449FC
:100B3000044800F02BF804480068804710BD00000E
:100B40002080002070600240A400002010B50C49F5
:100B50000C4800F019F9012810D10949094800F0A2
:100B600015F800F051FB044604F0800028B1064857
:100B7000007820F080000449087000BF10BD00001C
:100B800000802020A0600240AE0000200246094BF9
:100B90009A4201D2084801E00648103801F000539B
:100BA0001BB1064B0B40C36002E0044B0B4083605B
:100BB0007047000010640240006002407D0F7D0F0E
:100BC00021B1026842F00102026003E0026822F0F3
:100BD0000102026070470000016821F0010101601C
:100BE0000021016041608160C1600161212141619A
:100BF0004A49884204D13D21484A103A91608CE02C
:100C000046491831884205D14FF47461434A103A7D
:100C1000916082E041493031884205D14FF474112E
:100C20003E4A103A916078E03C494831884205D10B
:100C30004FF07461394A103A91606EE03749603183
:100C4000884204D13649354A103AD16065E03349CB
:100C50007831884204D13349304A103AD1605CE09F
:100C60002E499031884204D12F492C4A103AD16044
:100C700053E02A49A831884205D14FF03D51274A17
:100C8000103AD16049E02949884204D13D21274AE0
:100C9000083A116041E025491831884205D14FF4E6
:100CA0007461224A083A116037E0204930318842A5
:100CB00005D14FF474111D4A083A11602DE01B490B
:100CC0004831884205D14FF07461184A083A1160E2
:100CD00023E016496031884204D11149134A121F9A
:100CE00011601AE011497831884204D10D490F4A48
:100CF000121F116011E00D499031884204D10A4958
:100D00000A4A121F116008E00849A831884204D13C
:100D10004FF03D51054A121F1160704710600240AC
:100D20003D000020400F002000003D2010640240E4
:100D300021B1026842F48022026003E0026822F4DA
:100D400080220260704722B1036843F400230360ED
:100D500003E0036823F4002303600161704721B1BD
:100D6000026842F02002026003E0026822F02002E2
:100D700002607047014600200A6802F001020AB1D1
:100D8000012000E00020704770B5024600200024DA
:100D90000025124EB24201D2114B01E00F4B103B25
:100DA000104E0E4036B11E2606EAD124166806EA19
:100DB000040502E0566906F0800501F000560EB108
:100DC0005C6800E01C68084E344004EA010616B175
:100DD0000DB1012000E0002070BD00001064024051
:100DE000006002403C0F3C0F7D0F7D0F10B501F0FD
:100DF00080034BB122B1436943F08003436103E0B8
:100E0000436923F08003436180290BD02AB1036832
:100E100001F01E042343036004E0036801F01E0494
:100E2000A343036010BD000010B500220268134BFD
:100E30001A40CC680B6823434C6923438C692343D5
:100E4000CC6923430C6A23434C6A23438C6A2343B3
:100E50004C6B23438C6B23431A430260426922F09C
:100E60000702D1E90B3423431A4342610B69436003
:100E70004B6883608B68C36010BD00003F801CF02E
:100E8000416070477047000008B54FF4004000F023
:100E900023F8012815D10020009069460948006810
:100EA0000AF038FD009838B14FF0805006490860CC
:100EB000BFF34F8FBFF36F8F4FF4004000F006F881
:100EC00000BF08BD1000002004ED00E001490860EB
:100ED00070470000143C014001460020034A12689C
:100EE0000A400AB1012000E000207047143C014094
:100EF000002123498279002A3AD00A461268036801
:100F00009A430B461A600A1D126803689A430B1D28
:100F10001A60027911440A6803681A430A60184A81
:100F20000832126803689A43154B08331A601A1D79
:100F3000126803689A43124B0C331A604279102AE4
:100F40000ED11A1F126803681A430D4B08331A603A
:100F50001A1D126803681A43094B0C331A600DE01E
:100F60000749427911440A6803681A430A6005E098
:100F7000027911440A6803689A430A6070470000C6
:100F8000003C01402DE9FC4107460D4600260024A7
:100F900000200090019008205B4908601020486004
:100FA000402088600020C8604FF4806008610846D7
:100FB00000F010FF1020FFF7B5FC044614B12046E6
:100FC000BDE8FC815148008800044F490860372083
:100FD0004860402088600020C8604FF4806008614D
:100FE000084600F0F7FE3720FFF79CFC04460CB1E2
:100FF0002046E5E74FF0FF3045490860082048608B
:10100000302088600220C86000200861012048610B
:10101000084600F079FE00203B4908603320486014
:10102000402088600020C8604FF480600861084656
:1010300000F0D0FE3320FFF775FC04460CB12046CB
:10104000BEE70CE04FF4001000F078FE38B13148F4
:1010500000684DF82600761C022E00D307E02D48CC
:101060004C38006840F22A6108400028EAD000BFEE
:10107000082000F063FE20B1082000F035FE0420B7
:101080009EE7022000F05AFE20B1022000F02CFE64
:10109000022095E7202000F051FE20B1202000F032
:1010A00023FE06208CE74FF4007000F047FE28B1C5
:1010B0004FF4007000F018FE072081E740F2FF5067
:1010C00000F012FE00980006009901F47F4140EA0A
:1010D0000120009901F47F0140EA1120009940EAC3
:1010E0001160686001980006019901F47F4140EAAF
:1010F0000120019901F47F0140EA1120019940EAA1
:101100001160286020465BE7A00300202400002037
:10111000B4030020802C014010B5044602A002F068
:1011200019FFE043C0B210BD7465737421210A0039
:10113000F0B50A4600210023002400BF3DE0012550
:1011400005FA01F3156805EA03049C4234D10568E9
:101150004F000326BE40B543056015794E00B540EB
:101160000668354305601579012D02D01579022DE9
:1011700016D185684F000326BE40B543856055797A
:101180004E00B540866835438560456801268E402F
:10119000B5434560456896798E40B6B235434560A3
:1011A000C5684F000326BE40B543C560D5794E00E3
:1011B000B540C6683543C560491C1029BFD3F0BD92
:1011C000F0B5002300244D07ED0E02FA05F3CE1012
:1011D00000F1200555F826504E07F70E0F26BE40A9
:1011E000B543CF1000F1200646F82750CE1000F18D
:1011F000200555F8265045EA0304CE1000F12005DD
:1012000045F82640F0BD0000014800787047000016
:10121000AE0000202949096801F0004149B1274981
:10122000096841F00041254A11608169891C81618A
:101230007047224908390968214A11621F49091F6C
:10124000097882F824101D49C91E097891621B494A
:101250000C310968D1621949891E0988118617491C
:10126000096851631549091D0968916313491031D3
:101270000968D1630021134A116000BF1149096850
:101280000029FBD00E4A01681160416851608168F5
:101290009160C168D16001691161416951618169E1
:1012A0009161C169D1610021064A116000BF054901
:1012B00009680029FBD000BFBAE700002CED00E070
:1012C000645A0020780300202DE9FF4104460F46B0
:1012D00015461E460121880300F0EEFB012188031C
:1012E00000F0FAFB00214FF4804000F0F5FBADF870
:1012F0000070ADF80240ADF804600020ADF80600C3
:1013000002200290ADF80C506946074800F068F9D9
:1013100001220221044802F075F90121024800F07F
:101320002BF9BDE8FF8100000038004070B505468C
:10133000002400260A20B5FBF0F500BF09E004EB0D
:1013400084001F4931F81000A84200D103E0601C5E
:10135000C4B20B2CF3D300BF002000F061FC0B2CB7
:1013600001D1012070BD04EB8402154B03EB420256
:10137000918804EB840203EB4202508800F056FC93
:101380001048006840F080600E49086000BF0D48BA
:10139000006800F000600028F9D004EB84000849E0
:1013A00001EB4000C68804EB840001EB400000899B
:1013B00046EA002646F4007603490E800020D1E775
:1013C00034C40008003802402038004070B590B0A6
:1013D00004460E4615460121480500F05DFB2448F1
:1013E000FFF7FAFB00BF2248FFF7C4FC0028FAD140
:1013F00020491F48FFF7CAFB002000901E480190BB
:101400000294402003900495002005904FF48060E2
:10141000069040000790800008904011099040021B
:101420000A9000200B900C900D900E906946104889
:10143000FFF7FAFC002231460D48FFF784FC01213A
:101440000B48FFF775FC012210210948FFF7CEFC7D
:101450000F208DF83C0000208DF83D008DF83E00F7
:1014600001208DF83F000FA800F0D0FA10B070BD39
:10147000706002403DF000A00C3800402DE9FF41B3
:1014800004460F4615461E4687F48070ADF80000EE
:10149000ADF80240ADF804600020ADF8060002206F
:1014A0000290ADF80C506946064800F071F8012230
:1014B0001146044802F0A6F80121024800F05CF849
:1014C000BDE8FF810034004070B590B004460E4680
:1014D00015460121480500F0DFFA2448FFF77CFBA0
:1014E00000BF2248FFF746FC0028FAD120491F48D8
:1014F000FFF74CFB4FF0C06000901E480190029433
:1015000000200390049505904FF480600690400001
:101510000790800008904011099000020A90002076
:101520000B900C900D900E9069461048FFF77CFCD4
:10153000002231460D48FFF706FC01210B48FFF75A
:10154000F7FB012210210948FFF750FC0E208DF80F
:101550003C0000208DF83D0001208DF83E008DF804
:101560003F000FA800F052FA10B070BD5860024062
:1015700000F0409F0C34004021B1828B42F4806225
:10158000828304E0828B4FF6FF331A4082837047D8
:1015900030B500220023848B4FF240052C40848319
:1015A00002240484828B0C88B4F5007F01D00C885F
:1015B00014B94FF4807308E00C88B4F5407F03D071
:1015C0000C88B4F5807F00D100238C888D892C4352
:1015D0004D882C431C4344F400642243828330BD75
:1015E0002DE9F04F0025022300244FF001090022CD
:1015F0000026002794469046B0F81CA04FF2400BFE
:101600000AEA0B0AA0F81CA04FF0020AA0F820A0DA
:10161000858BD1F808A0BAF1020F01D100BF82E09A
:10162000B1F804A0BAF1000F02D14FF0010901E0B6
:101630004FF00209DFF834A1DAF800A00AF4000A3A
:10164000BAF1000F09D0DFF824A1DAF800A02AF4DB
:10165000000ADFF818B1CBF800A0DFF810A10AF1FA
:101660007C0ADAF800A0CAF3881CDFF800A10AF1AE
:101670007C0ADAF800A0CAF30278DFF8F0A0AAF139
:10168000040ADAF800A00AF03F07DFF8E0A0AAF1A8
:10169000040ADAF800A00AF4800ABAF5800F08D12B
:1016A000DFF8CCA0BAFBF7FA0AFB0CFABAFBF8F6A3
:1016B00007E0DFF8C0A0BAFBF7FA0AFB0CFABAFBA6
:1016C000F8F6B1F806A0BAF5007F0ED14FEA162A57
:1016D0000AEB8A0A4FEA4A0AD1F808B0BAFBFBFAC9
:1016E0000AF1050A1FFA8AF20FE04FEA491AB6FB1F
:1016F000FAFA0AEB8A0A4FEA4A0AD1F808B0BAFBAA
:10170000FBFA0AF1050A1FFA8AF24FF00A0AB2FB45
:10171000FAF202F00104A2EB040ACAF34F034FF6F7
:10172000FF7A0AEA0424022B01DBFF2B01DD0223EE
:101730000024B1F806A04AEA040A4AEA030AA0F81B
:1017400020A0B1F804A0B1F80CB04AEA0B0AB1F835
:1017500002B04AEA0B0AB1F800B04AEA0B0A4AF4AE
:10176000006A4AEA05058583BDE8F08F0838024023
:1017700000127A000024F40010B501210148FFF79F
:101780001FFA10BD7060024010B500210148FFF73C
:1017900017FA10BD7060024010B501210148FFF733
:1017A0000FFA10BD5860024010B500210148FFF744
:1017B00007FA10BD586002401CB50121022000F05C
:1017C0006BF94FF44070009001208DF80400002068
:1017D0008DF8060003208DF8050001208DF8070024
:1017E00069460548FFF7A4FC012004490860044944
:1017F000C1F8A4021CBD000000040240A0824042C7
:101800000080404270B504461548006820F440202E
:10181000134908600846006840F4802008600020F2
:1018200010490860002517E0E0090E49091D08600D
:101830006006040E022003F0BFFB01200A49C1F834
:10184000A002022003F0B8FB002006490860022035
:1018500003F0B2FB681CC5B2082DE5DB70BD0000CB
:1018600000040240A08240420080404210B50F4870
:10187000006820F440200D4908600846006840F4E4
:101880008020086001200A4908600A49C1F8A002C6
:10189000042003F091FB002005490860042003F0B8
:1018A0008BFB00200349C1F8A00210BD00040240D8
:1018B000A48240420080404210B50F48006820F4E6
:1018C00040200D4908600846006840F48020086008
:1018D00000200A4908600A49C1F8A402042003F064
:1018E0006BFB0120054908600549C1F8A4020420EA
:1018F00003F062FB10BD000000040240A0824042E1
:101900000080404210B500241348006820F44020B5
:101910001149086008460068086001200F49086006
:1019200003F04AFB01200E49C1F8A00203F044FB7A
:1019300007E0601CC4B2FA2C03DDFFF7BDFF0120F5
:1019400010BD0648803800680028F2D10349091FFD
:10195000086000BFF4E7000000040240A482404297
:10196000008040421CB504460020019000902248AF
:1019700000880004214908600D20486040208860EC
:101980000020C8604FF480600861084600F022FA29
:101990001B480068009002E0194800680090009819
:1019A00000F045000028F7D0012000F0C7F920B171
:1019B000012000F099F901201CBD042000F0BEF9BF
:1019C00020B1042000F090F90320F5E70C482438FA
:1019D00000680D2801D01020EEE740F2FF5000F023
:1019E00083F907482038006801900198C0F343202C
:1019F00020700020E0E7000024000020A003002069
:101A0000342C014000BFFEE77047000070B5002194
:101A100000230F22C4781CB3174C246804F4E0643C
:101A2000C4F5E064C4F30721C1F10404E3B20A4140
:101A300044789C40E1B28478144021430C07210E85
:101A40000E4C05786155047804F01F050124AC4064
:101A500005786D11AD0005F1E025C5F8004109E0FC
:101A6000047804F01F050124AC40054D067876117A
:101A700045F8264070BD00000CED00E000E400E0F9
:101A800080E100E002490143024A11607047000012
:101A90000000FA050CED00E029B1064A1268024385
:101AA000044B1A6004E0034A12688243014B1A6037
:101AB000704700003038024029B1064A12680243DC
:101AC000044B1A6004E0034A12688243014B1A6017
:101AD000704700004038024029B1064A12680243AC
:101AE000044B1A6004E0034A12688243014B1A60F7
:101AF000704700002038024029B1064A12680243AC
:101B0000044B1A6004E0034A12688243014B1A60D6
:101B1000704700004438024029B1064A1268024367
:101B2000044B1A6004E0034A12688243014B1A60B6
:101B30007047000024380240F0B500210022002444
:101B4000022500260223324F3F6807F00C0121B125
:101B5000042905D0082937D105E02E4F076036E06B
:101B60002D4F076033E02A4F3F1F3F68C7F3805671
:101B7000274F3F1F3F6807F03F036EB1264FB7FB6B
:101B8000F3F7DFF88CC0ACF1040CDCF800C0CCF348
:101B9000881C07FB0CF40CE01E4FB7FBF3F7DFF8D3
:101BA00070C0ACF1040CDCF800C0CCF3881C07FB5F
:101BB0000CF4174F3F1F3F68C7F301477F1C7D00A0
:101BC000B4FBF5F7076002E0124F076000BF00BFEB
:101BD0000F4F3F6807F0F0010909104F7A5C076862
:101BE000D74047600A4F3F6807F4E051890A0B4F1E
:101BF0007A5C4768D7408760054F3F6807F46041CB
:101C0000490B064F7A5C4768D740C760F0BD0000BB
:101C1000083802400024F40000127A006803002013
:101C2000014988667047000000004742820142EA8D
:101C30000172014B1A607047843802407CB505463A
:101C4000002400200090019000260DB1022600E043
:101C500000262248006800F0007008B10E207CBD0C
:101C60001F49098888B26946FFF78CF904460CB110
:101C70002046F4E7019800F4802060B318480088FB
:101C80000004184908603720486040208860002020
:101C9000C8604FF480600861084600F09BF8372068
:101CA000FEF740FE04460CB12046D8E70D4806601A
:101CB00006200C494860402088600020C8604FF42E
:101CC00080600861084600F085F80620FEF72AFECD
:101CD00004462046C3E72520C1E70000142C01403C
:101CE00024000020A0030020014908607047000084
:101CF000382C01400146034A106820F0FF000843D9
:101D000010607047042C014000210B4B02681A60E0
:101D10001B1D42681A601A1D116821F0F701D0E9F5
:101D200002231A4303691A4343691A431143024ABF
:101D30000832116070470000242C01400146002049
:101D4000034A12680A400AB1012000E000207047EF
:101D5000342C01400248006800F003007047000086
:101D6000002C014010B500F08DFC10BD00210A4A86
:101D7000116847F6FF629143027D83681A43436806
:101D80001A43C3681A4303681A4303691A43114389
:101D9000014A116070470000042C014000200B49EB
:101DA0000860091D0860091D0860091D08600749D1
:101DB00024310860091D0860091D086004480349B2
:101DC000383108600020091D08607047002C014070
:101DD000FF07C0000021094B02681A601A1D116834
:101DE0006FF30A01D0E901231A43C3681A43036958
:101DF0001A431143014A121D11607047082C01401B
:101E00000149086070470000002C014070B590B097
:101E100004460E46154600BF1A48FEF7ABFF0028E1
:101E2000FAD11848FEF7D8FE4FF00060019016482E
:101E30000290039404950020059006904FF4806072
:101E40000790800008908000099000200A904FF4CD
:101E500040300B9004200C9003200D904FF40000B4
:101E60000E9080100F9001A90648FEF7DDFF20219B
:101E70000448FEF774FF01210248FEF7A1FE10B0EE
:101E800070BD000058640240802C014070B50446CB
:101E9000002516480078032802D12725284670BD62
:101EA0001248007838B111480078012803D00F4853
:101EB0000078022817D1B4F5805F02D12725284683
:101EC000EDE7E0B2FFF7BAFE054665B908480068DD
:101ED00020F4C050064908600846006820430860A6
:101EE0000846006808602846D9E700002000002066
:101EF000042C0140F0B5014600200022BE4B1B78A7
:101F000081F85630BD4B1B88A1F85430BC4B1B6880
:101F10001A0E93090B70C2F383034B7002F0030394
:101F20008B70B74B1B68C3F30742CA70B44B1B8856
:101F3000C3F307220A71B24B1A784A715B681A0E12
:101F40001301CB80AE4B5B68C3F30742CB8843EAF7
:101F50001213CB8002F00F030B72A94B9B88C3F3C3
:101F60000722D3094B72C2F380138B72C2F3401362
:101F7000CB72C2F300130B7300234B739E4B1B7881
:101F80003BB19D4B1B78012B03D09B4B1B78032B44
:101F90004FD193071B0D0B61994B1A790B6943EADB
:101FA00082030B61964B9B681A0E0B6943EA9213EE
:101FB0000B61C2F3C2030B7502F007034B75904B24
:101FC0009B68C3F3074253098B75C2F38203CB7539
:101FD00093075B0F0B768A4B1B89C3F307220B7E9B
:101FE00043EAD2130B760B695B1C0024C1E912345F
:101FF0000B7E9B1C012404FA03F3DC17D1E9125673
:10200000A5FB037C06FB03C305FB0433C1E9127384
:102010000C7A0123A3400B650024D1E912650B6DF6
:10202000A6FB037C05FB03C306FB0433C1E9127363
:102030002EE0714B1B78022B2AD1714B1A79930633
:102040009B0A0B616E4B9B681A0E0B6943EA0223D5
:102050000B616B4B9B68C3F307420B6913430B6126
:10206000674B1B89C3F307220B695B1C4FF4007499
:10207000A3FB04464FF480630025A4FB037C06FB0E
:1020800003C304FB0533C1E912734FF400730B65FE
:10209000C2F3801301F8193F93065B0E4B70584B47
:1020A0001A7A4B7843EAD2134B7002F07F038B709D
:1020B000534BDB681A0ED309CB70C2F341130B717B
:1020C000C2F382034B7193071B0F8B714C4BDB6880
:1020D000C3F307428B7943EA92138B71C2F3401327
:1020E000CB7100230B7202F001034B72444B9B89AE
:1020F000C3F30722D3098B72C2F38013CB72C2F3EE
:1021000040130B73C2F300134B73C2F381038B7341
:1021100002F00303CB733A4B1A7B53080B74012371
:102120004B74384B1B681A0ECA741939354B1B682F
:10213000C3F307421402CC85324B1B88C3F307223A
:10214000CB8D1343CB852F4B1A7814060C635B6839
:102150001A0E0B6B43EA02440C632A4B5B68C3F311
:1021600007420B6B43EA02240C63264B9B88C3F3A4
:1021700007220B6B13430B63224B1A7934235A54F7
:10218000204B9B681A0E35235A541E4B9B68C3F391
:10219000074214068C631B4B1B89C3F307228B6B0E
:1021A00043EA02448C63174B1A7A8B6B43EA02248E
:1021B0008C63144BDB681A0E8B6B13438B63114BD0
:1021C000DB68C3F307423C235B5C43EA12143C2305
:1021D0005C5413071C0DCC870A4B9B89C3F3072261
:1021E000CB8F1343CB87074B1A7B540840235C5497
:1021F000012441235C54F0BD200000202400002075
:10220000CC030020DC0300203EB500250024012182
:102210004548FFF741FC0121C802FFF76DFC012191
:10222000C802FFF779FC4FF4F850019002208DF8B6
:1022300008008DF8090000208DF80A0001208DF8B3
:102240000B0001A93948FEF773FF0420019001A992
:102250003748FEF76DFF0C2208213448FEF7B0FF27
:102260000C2209213148FEF7ABFF0C220A212F482E
:10227000FEF7A6FF0C220B212C48FEF7A1FF0C2233
:1022800011462A48FEF79CFF0C2202212848FEF73F
:1022900097FF00214FF40060FFF73EFCFFF77EFD43
:1022A00031208DF8000000208DF801008DF802002B
:1022B00001208DF803006846FFF7A8FB00F0F0F856
:1022C000044614B900F03AF804461CB91948FFF75F
:1022D00011FE044634B91749B1F85410080400F04F
:1022E00075FD044624B94FF40060FFF7CFFD0446A6
:1022F0001CB111480078032813D100BF0D4890F895
:10230000560020B10B4890F85600012801D1022553
:1023100000E000252846FFF7EDFC002000F06EFDF0
:10232000044620463EBD00000C004000000802406C
:10233000000C0240F00300202000002038B50024EB
:1023400001200090FFF706FD10B92524204638BD76
:102350004D480078042824D000204C490860022011
:102360004860C02088600020C8604FF48060086129
:102370000846FFF72FFDFEF707FB04460CB1204689
:10238000E5E743480068434908604148001D00688C
:1023900048603F480830006888603D480C3000685D
:1023A000C8603948007858B137480078012807D00C
:1023B00035480078062803D033480078022816D123
:1023C00000203249086003204860402088600020D7
:1023D000C8604FF4806008610846FFF7FBFC69465F
:1023E0000320FEF717FB04460CB12046AFE7264852
:1023F0000078032816D1BDF80000000423490860C6
:1024000003204860402088600020C8604FF480604E
:1024100008610846FFF7DEFCFEF7B6FA04460CB189
:10242000204694E71848007804282AD0BDF8000018
:1024300019490860BDF8000000041449086009202B
:102440004860C02088600020C8604FF48060086148
:102450000846FFF7BFFCFEF797FA04460CB120468A
:1024600075E70B4800680D4908600948001D0068C1
:102470004860074808300068886005480C300068EC
:10248000C860002063E7000020000020A0030020B7
:10249000142C0140DC03002024000020CC03002089
:1024A0002DE9F0470027002400260025A046A1467C
:1024B00076206E4908750020086048608860C86012
:1024C00008610846FFF752FC0320FFF799FC6848B3
:1024D000006840F480706649086000BF12E0002088
:1024E0006449086048608860C8604FF48060086193
:1024F0000846FFF76FFCFEF7FCF9044604B903E059
:10250000781CC7B24A2FEADB00BF14B12046BDE8F1
:10251000F0874FF4D5705749086008204860402084
:1025200088600020C8604FF4806008610846FFF7AB
:1025300051FCFEF7B9FA044624B901204E4908704F
:102540004FF0804900204B49086037204860402008
:1025500088600020C8604FF4806008610846FFF77B
:1025600039FC3720FEF7DEF90446002C4CD135E06B
:1025700000204049086037204860402088600020E3
:10258000C8604FF4806008610846FFF723FC3720DD
:10259000FEF7C8F904460CB12046B8E7374849EAC7
:1025A00000003449086029204860402088600020ED
:1025B000C8604FF4806008610846FFF70BFCFEF727
:1025C0000DFA04460CB12046A1E7294810300668F0
:1025D000012080EAD67080F001086D1CB8F1000F70
:1025E00003D14FF6FF708542C2D34FF6FF7085428C
:1025F00002D31B2420468AE706F08040061E33D013
:1026000002201D4908702FE01DE01D48194908608F
:1026100001204860402088600020C8604FF480603E
:1026200008610846FFF7D6FBFEF7D8F904460CB15F
:1026300020466CE70E4810300668012080EAD6700C
:1026400080F001086D1CB8F1000F03D14FF6FF7048
:102650008542DAD34FF6FF70854202D31B24204611
:1026600055E7032004490870204650E788030020FE
:10267000042C0140A0030020200000200000108056
:102680000080FF8010B54FF48070FFF757FB78B3E0
:102690004C480078012814D100204B4908600C20D8
:1026A0004860402088600020C8604FF48060086166
:1026B0000846FFF78FFB0C20FEF734F943490870FA
:1026C00002E00020414908704148006840F48070F1
:1026D0003F490860081D00684CF23A3188433C4984
:1026E000091D086001203B4908703848007810BD7A
:1026F000FFE70220FFF722FB78B10220FFF7F4FA90
:102700003348001D00684CF23A3188433049091DB6
:10271000086002202D490870E9E70820FFF70EFB4A
:1027200078B10820FFF7E0FA2948001D00684CF254
:102730003A3188432649091D08600420234908705E
:10274000D5E72020FFF7FAFA78B12020FFF7CCFA7E
:102750001F48001D00684CF23A3188431C49091D8E
:102760000860062019490870C1E71020FFF7E6FA53
:1027700078B11020FFF7B8FA1548001D00684CF238
:102780003A3188431249091D086005200F49087035
:10279000ADE74FF40070FFF7D1FA80B14FF400704D
:1027A000FFF7A2FA0A48001D00684CF23A3188434C
:1027B0000749091D086007200449087097E70020B1
:1027C00095E7000029000020A00300202A00002037
:1027D000382C01402B0000202DE9F84F8146174688
:1027E00098460A9C4FF0000AD3464D464FF0FF36FC
:1027F000B9F1000F02D12620BDE8F88F00208649EC
:10280000086086480078022805D10402780A40EA68
:10281000C8574FEA68280020814988604860401EF8
:102820000860012048610020C86008610846FFF781
:102830006BFA79481838006800F0007008B10E2073
:10284000DAE7002C21DDB4F5006F1EDC601E2040AD
:10285000D8B9204602F0BEF80090724804601020FB
:1028600070494860402088600020C8604FF4806054
:1028700008610846FFF7AEFA1020FEF753F88246CB
:10288000BAF1000F03D05046B6E72620B4E700980F
:10289000000163498860084644604FF0FF300860DB
:1028A000012048610220C860002008610846FFF747
:1028B0002BFA5C48076011205A4948604020886024
:1028C0000020C8604FF4806008610846FFF782FA74
:1028D0001120FEF727F88246BAF1000F01D05046CA
:1028E0008AE75148007800285CD1FDF758FC18E0D1
:1028F0004FF40040FFF722FA78B14FF0000B06E0EA
:1029000045485430006845F82B000BF1010BBBF132
:10291000080FF5D32035454E03E00EB904206BE7D0
:10292000761E3D480830006840F22A6108400028C1
:10293000DED00820FFF702FA20B10820FFF7D4F913
:10294000042059E70220FFF7F9F920B10220FFF730
:10295000CBF9022050E72020FFF7F0F920B120202A
:10296000FFF7C2F9062047E74FF40070FFF7E6F9DA
:1029700028B14FF40070FFF7B7F907203CE704E0F7
:1029800025485430006828602D1D4FF40010FFF7D3
:10299000D5F90028F4D1FDF704FC40F2FF50FFF711
:1029A000A3F936E020480078012832D100202049E0
:1029B00008702049087020490870174810300068D6
:1029C00040F22A3108431449103108601248006867
:1029D00040F0080010490860002221464846FFF7F1
:1029E00015FA00E0761E1548006800F0006038B95E
:1029F0001148007820B90E48007808B9002EF1D1AE
:102A00000EB90420F8E60A48007810B1084890F89A
:102A100000A05046F0E600002C2C014020000020D1
:102A2000B4030020A003002028000020FFFF7F0047
:102A30002A000020290000202B0000200064024012
:102A40002DE9FE4F83460C46914600200290002659
:102A500025462C46700240EAD5566D020BF0030065
:102A6000F0B14FF0000A18E04FF4007000904FEA08
:102A70004A20471946EBE0733A461648FFF7ACFE8A
:102A800002904FF4007213495846FDF732FC0BF5E3
:102A9000007B0AF1010000F0FF0ACA45E4DB16E002
:102AA000B9F1010F09D14FF400702A463346009066
:102AB0005846FFF791FE029009E04FF400702A4655
:102AC0003346CDE90009584600F006F80290029816
:102AD000BDE8FE8F480400202DE9FF5F17469846A9
:102AE000DDE90E464FF00009CA464FF0FF35AC490C
:102AF000009808600020AB490860AB4800780228C5
:102B000005D10402780A40EAC8574FEA6828002035
:102B1000A64988604860401E086001204861002086
:102B2000C86008610846FFF7EFF89E48183800684B
:102B300000F0007018B10E2004B0BDE8F09F002C2A
:102B400021DDB4F5006F1EDC601E2040D8B92046A0
:102B500001F040FF83469648046010209449486085
:102B6000402088600020C8604FF4806008610846FB
:102B7000FFF730F91020FDF7D5FE8146B9F1000FBF
:102B800003D04846D8E72620D6E7012E71D906FBA8
:102B900004F0B0F1007F01D32620CDE74FEA0B10FF
:102BA0008249886006FB04F048604FF0FF300860FF
:102BB000012048610220C860002008610846FFF734
:102BC000A3F87B480760122079494860402088605C
:102BD0000020C8604FF4806008610846FFF7FAF8EB
:102BE0001220FDF79FFE8146B9F1000F01D0484643
:102BF000A2E77048007800287ED1FDF7D0FA1EE0E9
:102C00004FF40040FFF79AF8A8B14FF0000A08E02F
:102C10006448543000686249096841F82A000AF1A2
:102C2000010ABAF1080FF3D35D48006820305C490F
:102C30000860614D03E00DB904207DE76D1E594821
:102C40000830006840F22A3108400028D8D0082017
:102C5000FFF774F820B10820FFF746F804206BE76F
:102C60000220FFF76BF828B10220FFF73DF80220A1
:102C700062E792E02020FFF761F820B12020FFF703
:102C800033F8062058E74FF40070FFF757F828B1E3
:102C90004FF40070FFF728F807204DE70AE041489D
:102CA000543000683E49096808603D480068001DCE
:102CB0003B4908604FF40010FFF740F80028EED1C0
:102CC0004FF48070FFF73AF820B33748007838B1F6
:102CD00035480078012803D033480078022819D1FC
:102CE0000020334908600C204860402088600020A4
:102CF000C8604FF4806000E013E008610846FFF709
:102D000069F80C20FDF70EFE8146B9F1000F01D0E5
:102D1000484611E7FDF745FA40F2FF50FEF7E4FFA1
:102D20003BE024480078012837D10020234908706F
:102D300001202349087000202249087019481030EA
:102D4000006840F22A3108431649103108601548DE
:102D5000006840F008001349086006FB04F10022F7
:102D60000098FFF753F800E06D1E1748006800F068
:102D7000006008B9002DF7D10DB90420DCE600BFD2
:102D80001048007818B90D4800780028F8D00B4892
:102D9000007810B1094890F800904846CCE6000051
:102DA0002C0000202C2C014020000020B403002027
:102DB000A003002028000020FFFF7F002A00002041
:102DC000290000202B0000200064024010B50446BA
:102DD00009480460072008494860402088600020B6
:102DE000C8604FF4806008610846FEF7F3FF0720D3
:102DF000FDF798FD10BD0000A00300200146002053
:102E0000012900D011B9024B197000E0262070474B
:102E1000280000202DE9FF5F86B017469846149DD4
:102E200000260020059004900024814603908246ED
:102E300002900195DDF818B0DDF818B0BBF1000F75
:102E400003D126200AB0BDE8F09F0020C9490860E0
:102E5000C94988604860401E086001204861002020
:102E6000C86008610846FEF74FFFC248183800687E
:102E700000F0007008B10E20E4E7C0480078022896
:102E800005D10502780A40EAC8574FEA6828002DA4
:102E90001FDDB5F5006F1CDC681E2840C8B9284648
:102EA00001F098FD0590B64805601020B4494860CF
:102EB000402088600020C8604FF4806008610846A8
:102EC000FEF788FF1020FDF72DFD06461EB13046A7
:102ED000B8E72620B6E7AB4800880004A849086098
:102EE0000D204860402088600020C8604FF480605A
:102EF00008610846FEF76EFF0D20FDF713FD06463C
:102F00000EB130469EE79B481838006803904FF09A
:102F1000FF341CE0641E9B48008800049849086048
:102F20000D204860402088600020C8604FF4806019
:102F300008610846FEF74EFF0D20FDF7F3FC06463C
:102F40000EB130467EE78B4818380068039003982E
:102F500000F4807008B9002CDCD10CB9292071E78D
:102F60008748076018208649486040208860002014
:102F7000C8604FF4806008610846FEF72BFF1820F8
:102F8000FDF7D0FC06460EB130465BE700207E49D7
:102F900008700598000178498860084645604FF040
:102FA000FF300860012048610020C86008610846C1
:102FB000FEF7AAFE4FF0FF347448007800287ED157
:102FC000FDF7EDF845E04FF48040FEF7B7FED8B3CB
:102FD0000198A0EB0900202822D20198A0EB09005B
:102FE00000F0030020B90198A0EB0900800804E07C
:102FF0000198A0EB09008008401C02904FF0000AE5
:103000000AE05C495431DBF8000008600AF1010A6B
:103010000BF1040B09F1040902988245F1D310E089
:103020004FF0000A06E05BF82A005249543108606C
:103030000AF1010ABAF1080FF5D30BF1200B09F1DF
:1030400020096FF0404404E0FFE70CB90420F9E6E2
:10305000641E48480830006840F21A6108400028A1
:10306000B1D00820FEF76AFE20B10820FEF73CFE32
:103070000420E7E60220FEF761FE20B10220FEF701
:1030800033FE0220DEE61020FEF758FE20B11020AD
:10309000FEF72AFE0520D5E64FF40070FEF74EFE3F
:1030A00030B14FF40070FEF71FFE0720CAE606E0BD
:1030B000FDF777F840F2FF50FEF716FE41E0334887
:1030C000007801283DD10020314908702E49087050
:1030D0003049087027481030006840F21A31084320
:1030E000244910310860402229460698FEF78EFEDA
:1030F0002048006840F008001E49086000E0641E97
:103100002548006800F0006008B9002CF7D11CB910
:10311000FFF77AF8042095E64FF0FF3400E0641ED4
:103120001C48007820B91A48007808B9002CF6D15C
:103130000CB9042086E61648007810B114480078CF
:1031400080E640F2FF50FEF7CFFD04A8FEF70AFC30
:10315000064603E004A8FEF705FC06463EB99DF8C6
:1031600010000728F6D09DF810000628F2D030464F
:1031700068E600002C2C0140B40300202000002051
:10318000A0030020240000202900002028000020A7
:103190002A0000202B000020006402402DE9FE4F91
:1031A00081460C46924600200290002625462C4679
:1031B000700240EAD5566D0209F00300F0B14FF0FD
:1031C000000B18E04FF4007249461948FDF791F8DA
:1031D0004FF4007000904FEA4B20471946EBE07324
:1031E0003A461348FFF716FE029009F500790BF1F5
:1031F000010000F0FF0BD345E4DB16E0BAF1010F4C
:1032000009D14FF400702A46334600904846FFF734
:1032100001FE029009E04FF400702A463346CDE9E2
:10322000000A484600F006F802900298BDE8FE8FBA
:10323000480400202DE9FF5F84B0DDE91247002635
:10324000002003900290002580468146019007FBF4
:1032500004FBDDF810A0DDF810A0BAF1000F03D1D7
:10326000262008B0BDE8F09F0020DC490860DC495A
:1032700088604860401E0860012048610020C860E6
:1032800008610846FEF740FDD4481838006800F091
:10329000007008B10E20E4E7D2480078022808D177
:1032A0000402DDE90601400A40EAC1504912CDE9B5
:1032B0000601002C1FDDB4F5006F1CDC601E2040F1
:1032C000C8B9204601F086FB0390C748046010206F
:1032D000C5494860402088600020C8604FF4806085
:1032E00008610846FEF776FD1020FDF71BFB064639
:1032F0001EB13046B5E72620B3E7012F6FD907FB93
:1033000004F0B0F1007F01D32620AAE7B548007889
:1033100038B1B4480078012803D0B24800780228B8
:103320002DD1B24800880004AF49086037204860BA
:10333000402088600020C8604FF480600861084623
:10334000FEF748FD3720FDF7EDFA06460EB1304690
:1033500087E7A54807601720A34948604020886098
:103360000020C8604FF4806008610846FEF732FD17
:103370001720FDF7D7FA06460EB1304671E79A4995
:103380000698086019204860402088600020C860C6
:103390004FF4806008610846FEF71CFD1920FDF718
:1033A000C1FA06460EB130465BE7039800018C492E
:1033B000886007FB04F048604FF0FF300860012090
:1033C00048610020C86008610846FEF79DFC8848F7
:1033D0000078002874D1451EFCF7E1FE42E0E4E0ED
:1033E0004FF48040FEF7AAFCB8B3ABEB08002028EE
:1033F0001FD2ABEB080000F0030018B9ABEB0800DC
:10340000800803E0ABEB08008008401C01904FF0FF
:1034100000090AE071495431DAF80000086009F146
:1034200001090AF1040A08F1040801988145F1D361
:1034300010E04FF0000906E05AF8290067495431BE
:10344000086009F10109B9F1080FF5D30AF1200A62
:1034500008F120086FF0404504E0FFE70DB90420B3
:10346000FFE66D1E5D480830006840F21A310840E2
:103470000028B5D00820FEF761FC20B10820FEF737
:1034800033FC0420EDE60220FEF758FC20B10220B8
:10349000FEF72AFC0220E4E61020FEF74FFC20B1E4
:1034A0001020FEF721FC0520DBE64FF40070FEF74C
:1034B00045FC30B14FF40070FEF716FC0720D0E653
:1034C0002CE04FF48070FEF739FC00B345480078DB
:1034D00038B144480078012803D0424800780228D7
:1034E00015D10020404908600C20486040208860C9
:1034F0000020C8604FF4806008610846FEF76AFC4F
:103500000C20FDF70FFA06460EB13046A9E6FCF78F
:1035100048FE40F2FF50FEF7E7FB46E034480078F3
:10352000012842D100203349087001203249087037
:1035300000203249087029481030006840F21A31E2
:10354000084326491031086007FB04F14022049823
:10355000FEF75CFC2148006840F008001F49086045
:103560004FF0FF3500E06D1E2548006800F0006058
:1035700008B9002DF7D11DB9FEF746FE042070E60C
:103580004FF0FF3500E06D1E1C48007820B9194847
:10359000007808B9002DF6D10DB9042061E6154870
:1035A000007810B1134800785BE640F2FF50FEF758
:1035B0009BFB02A8FEF7D6F9064603E002A8FEF739
:1035C000D1F906463EB99DF808000728F6D09DF8C7
:1035D00008000628F2D0304643E600002C2C0140BB
:1035E000B403002020000020A003002024000020BD
:1035F000280000202A000020290000202B000020A5
:10360000006402401AB183880B43838002E0838800
:103610008B4383807047000030B500228B071C0F5E
:103620000F2303FA04F20B4B8C1053F8243093430E
:10363000084C8D1044F8253023468C1053F8243064
:103640008C07240F00FA04F42343024C8D1044F835
:10365000253030BD0838014010B504464FF0FF3129
:103660000848006808F08CFA0748007820430649AB
:10367000087000231A4619460248006807F0D4FF74
:1036800010BD000018000020AE0000200CB5002086
:10369000019000903448006840F48030324908605E
:1036A00000BF3148006800F4003000900198401CD1
:1036B0000190009818B90198B0F5A04FF1D12A48AF
:1036C000006800F4003010B10120009001E00020FB
:1036D00000900098012846D123484030006840F00F
:1036E00080502149403108602048006840F4404043
:1036F0001E4908601C48083000681B4908310860F2
:103700000846006840F4004008600846006840F43D
:10371000A05008601648091F0860081F006840F0A4
:103720008070091F086000BF0F48006800F000703B
:103730000028F9D040F205700E4908600A480830A8
:10374000006820F003000849083108600846006856
:1037500040F00200086000BF03480830006800F035
:103760000C000828F8D10CBD003802400070004061
:1037700008544007003C024010B5044614B1012C27
:1037800013D104E007F05AFD094908700EE008481B
:10379000007848B9FF200649087007F025FD32205F
:1037A00001F0EAFB05F030FE00E000BF00BF10BDF5
:1037B000B8000020042808D14FF0E021096941F049
:1037C00004014FF0E022116107E04FF0E0210969A8
:1037D00021F004014FF0E0221161704710B508F0AC
:1037E00027FB012801D007F063FE10BD10B5154876
:1037F000006840F47000134908601348006840F006
:1038000001001149086000200F49083108600E4886
:1038100000680E4908400C4908600D48091D086001
:10382000081F006820F48020091F08600020064956
:103830000C310860FFF72AFF4FF000600149803922
:10384000086010BD88ED00E000380240FFFFF6FE82
:103850001030002410B501210A4800F035F8012885
:103860000AD10949086980470021064800F048F854
:103870006421044800F042F80121024800F009F8F0
:1038800010BD000000080040CC010020CA430282A5
:103890007047CA430282704721B1028842F0010298
:1038A000028004E002884FF6FE731A4002807047DF
:1038B0000146486A704702460020138A0B400BB14C
:1038C000012000E00020704730B5024600200023B0
:1038D0000024158A05EA0103958905EA010413B15C
:1038E0000CB1012000E0002030BD1AB183890B43E8
:1038F000838102E083898B4383817047C162704773
:103900004162704700220288184B98420ED0184B33
:1039100098420BD0B0F1804F08D0164B984205D09A
:10392000154B984202D0154B984204D14FF68F7335
:103930001A404B881A43124B984207D0114B9842B9
:1039400004D04FF6FF431A400B891A4302804B689C
:10395000C3620B880385054B984202D0044B984202
:1039600001D18B7A038601238382704700000140D6
:10397000000401400004004000080040000C00402A
:1039800000100040001400407FB504460D460121A0
:103990000420FEF791F8ADF800500020ADF80200C9
:1039A0000194ADF8080069460D48FFF7ABFF01220E
:1039B00011460B48FFF799FF01210948FFF76CFFFB
:1039C0001E208DF80C0004208DF80D0000208DF8CD
:1039D0000E0001208DF80F0003A8FEF717F87FBD39
:1039E0000008004010B540F225511D4800F05DF878
:1039F00010B31B4800F012F9C4B21A48008800F452
:103A00000040C8B91748008800F4804060B10A2C13
:103A100003D000201349088020E01248008840F4B9
:103A200000401049088019E00D2C06D10D4800888F
:103A300040F480400B49088010E00A480088C0F339
:103A40000D0009490C5407480088401C05490880AE
:103A500008460088C72801DD0020088010BD00004E
:103A600000100140C80200204806002010B540F2B6
:103A70002441024800F019F810BD00000044004045
:103A800021B1828942F40052828104E082894DF69C
:103A9000FF731A40828170471AB1838A0B43838275
:103AA00002E0838A8B438382704770B5024600240C
:103AB00000230025002040F66A16B14200D100BF65
:103AC000C1F3421501F01F03012606FA03F3012D8D
:103AD00002D19689334006E0022D02D1168A334086
:103AE00001E0968A33400C12012606FA04F4168887
:103AF000344013B10CB1012000E0002070BDF0B5DE
:103B00000346002400260025002040F66A17B9422B
:103B100000D100BF1846C1F3421401F01F0601276F
:103B200007FA06F5012C01D10C3004E0022C01D17A
:103B3000103000E014301AB107682F43076002E02C
:103B40000768AF430760F0BD2DE9FF4705460E4605
:103B50000024A14600BFA046B08900B100BF2C8A56
:103B600024F44054F08804432C82AC8941F20C6068
:103B70008443B08831890843718908430443AC8188
:103B8000AC8A24F44074B0890443AC826846FDF7E3
:103B9000D3FF2048854202D01F48854202D1DDF87C
:103BA0000C9001E0DDF80890A88900F4004040B1D5
:103BB00009EBC90000EB091031684900B0FBF1F7CF
:103BC00007E009EBC90000EB091031688900B0FB80
:103BD000F1F76420B7FBF0F004012009642101FB38
:103BE0001078A88900F4004040B1322000EBC800F2
:103BF000B0FBF1F000F00700044308E0322000EBD6
:103C000008106421B0FBF1F000F00F0004432C8198
:103C1000BDE8FF870010014000140140014688887C
:103C2000C0F30800704700BFFEE770B505460E46BA
:103C3000032000F04BF9044615B144F0030401E001
:103C400024F003042146032000F05AF9022000F07A
:103C50003DF9044616B144F0030401E024F00304E6
:103C60002146022000F04CF970BD70B5044604F006
:103C700007042F2000F02AF9054625F0070545EA3C
:103C800004012F2000F03CF9302000F01FF9054618
:103C900025F0070545EA0401302000F031F970BD38
:103CA00070B504460D4604F03F0405F03F050CB91D
:103CB00044F040040DB945F040052146342000F0A1
:103CC0001FF945F48071352000F01AF970BD70B508
:103CD00004460D4604F0030405F00305E00040EA45
:103CE0004511042000F00CF970BD00001CB5012145
:103CF0000620FDF7D1FE4FF44050009002208DF8D1
:103D0000040000208DF8060003208DF80500012036
:103D10008DF8070069463248FDF70AFA4C200090FA
:103D200002208DF8040000208DF8060003208DF895
:103D3000050001208DF8070069462A48FDF7F8F9CB
:103D400005220C212648FDF73BFA05220D212448C7
:103D5000FDF736FA052203212248FDF731FA052244
:103D600006212048FDF72CFA062202211D48FDF706
:103D700027FAFDF721FD0021084600F0C1F80446AE
:103D80000CB101201CBD1B21012000F0B9F84FF43B
:103D9000D871022000F0B4F86C21032000F0B0F8D4
:103DA0000021062000F0ACF810212B2000F0A8F82C
:103DB0004FF480712F2000F0A3F84FF48071302071
:103DC00000F09EF80221312000F09AF808210A2024
:103DD00000F096F808210E2000F092F80020D1E7BC
:103DE00000040240000802402DE9F04105460E465D
:103DF0001746022000F06AF8044615B144F00C049E
:103E000001E024F00C042146022000F079F82C2077
:103E100000F05CF8044615B144F0330401E024F0EE
:103E2000330421462C2000F06BF81EB1052000F071
:103E30000EF802E0002000F00AF81FB10720FFF79B
:103E400014FF02E00020FFF710FFBDE8F08170B51D
:103E5000044604F007042F2000F038F8054625F04A
:103E6000700545EA04112F2000F04AF8302000F0D8
:103E70002DF8054625F0700545EA0411302000F0C4
:103E80003FF870BD10B5044604F03F0421462D20D4
:103E900000F036F844F480712E2000F031F810BDA7
:103EA00070B506460D4600240EB144F001041DB164
:103EB00044F0020444F014042146322000F020F8BB
:103EC0002146332000F01CF870BD00000146024876
:103ED00030F81100704700003000002010B5044693
:103EE00004F03F040CB944F040042146362000F0B1
:103EF00007F844F48071372000F002F810BD00008C
:103F000070B505460C46FDF7B1FC3420FDF77AFC90
:103F1000FDF7F8FC08B1012070BDC4F3002141EAAF
:103F20004501C8B2FDF76EFCFDF7ECFC08B10220BC
:103F3000F2E7E0B2FDF766FCFDF7E4FC08B1032010
:103F4000EAE7FDF7B9FC024820F815400020E3E756
:103F5000300000200FB4054B10B503A9044A0298A5
:103F600000F036F810BC5DF814FB0000C5710008C5
:103F7000C40200200FB4084B10B504A902AA03988C
:103F800000F026F8044602A9002000F052FA20466C
:103F900010BC5DF814FB0000334400082DED020B4B
:103FA000019820F0004001909DED000B02B0704799
:103FB00002E008C8121F08C1002AFAD170477047F2
:103FC000002001E001C1121F002AFBD17047000050
:103FD0002DE9FF4F8DB00F460546002606E0252847
:103FE0000BD0DDE90F1290476D1C761C2878002855
:103FF000F5D111B03046BDE8F08F0024A246A146AD
:104000000122EC4900E0044315F8013F203B02FA8D
:1040100003F00842F7D128782A2810D06FF02F0239
:104020002878A0F13001092914D80AEB8A0102EBA3
:10403000410144F0020400EB010A6D1CF0E701CFDE
:104040005FEA000A03D544F40054CAF1000A44F0C0
:1040500002046D1C28782E2817D115F8010F44F0A2
:1040600004042A280ED06FF02F022878A0F1300126
:1040700009290AD809EB890102EB410100EB01098A
:104080006D1CF2E757F8049B6D1C28786C280FD044
:1040900006DC4C2817D068280DD06A2814D104E01B
:1040A000742810D07A280FD10DE044F400140AE0EF
:1040B00044F4801401E044F440146978814202D150
:1040C00004F580146D1C6D1C2A786E2A1FD00CDC40
:1040D000632A31D004DC002A8BD0582A11D1A3E006
:1040E000642A68D0692A0CD165E0732A2ED004DCDA
:1040F0006F2A73D0702A04D19BE0752A6FD0782A7A
:104100006ED01046DDE90F129047761C50E1C4F3E3
:104110000250022806D0032809D0042801CF09D074
:10412000066045E101CFF117C0E9006140E101CF30
:1041300006803DE106703BE117F8040B8DF80000A6
:1041400000208DF80100EB46012003E057F804BB86
:104150004FF0FF3061074FF0000102D40DE008F18D
:104160000101884649450FDA8045F8DB1BF8081045
:104170000029F4D108E008F1010188468142FADB08
:104180001BF808100029F6D1DDE90F23AAEB08007F
:104190008146214600F036F9304400EB080604E081
:1041A000DDE90F121BF8010B9047B8F10108F7D2B7
:1041B00021464846F7E00A21C4F302534FF0000BB2
:1041C0000891022B04D001CFC117032B09D00AE0BC
:1041D000FF1D27F00707F7E8020108E032E01FE0C3
:1041E00020E000B2C117042B01D140B2C117031E59
:1041F00071F1000307DA4FF0000CD0EB0C006CEB10
:1042000001012D2302E0230504D52B238DF8243052
:10421000012303E0E30701D02023F7E7984658E0A5
:104220000A2110E010210EE010204FF0000B089042
:104230000CE010214FF0000B44F004044FF008098B
:10424000089103E008214FF0000B0891C4F30253DA
:10425000022B04D001CF0021032B06D006E0FF1D66
:1042600027F00707F7E8020103E080B2042B00D132
:10427000C0B24FF0000823072BD5702A07D0DDF815
:1042800020C08CF0100C5CEA0B0C05D00EE0402333
:104290008DF82430012308E050EA010306D03023D2
:1042A0008DF824308DF8252002239846DDF820C0B3
:1042B0008CF0080C5CEA0B0C0BD150EA010301D125
:1042C000630706D530238DF824304FF00108A9F19B
:1042D0000109582A04D038A20B9208AA0A920BE0CE
:1042E0003AA2F9E75B46089AFCF7FAF90B9B9B5C4C
:1042F0000A9A521E0A92137050EA0102F2D10A98E9
:10430000ADEB000000F1200B600702D524F48034EF
:1043100001E04FF00109D94502DDA9EB0B0000E0F7
:10432000002000EB0B0141440890AAEB010AE003D6
:1043300006D4DDE90F232146504600F063F8064419
:104340004FF0000908E009A911F80900DDE90F1292
:10435000904709F10109761CC145F4DBE0030CD557
:10436000DDE90F232146504600F04CF8064404E0F6
:10437000DDE90F1230209047761C0899481E0890FE
:104380000029F5DC08E00A980A990078491C0A918E
:10439000DDE90F129047761CBBF10001ABF1010B78
:1043A000F1DC21465046DDE90F2300F019F8064400
:1043B0006D1C1BE6092801003031323334353637A5
:1043C0003839616263646566000000003031323361
:1043D0003435363738394142434445460000000001
:1043E0002DE9F041044600251E461746880404D4F2
:1043F00005E039462020B0476D1C641EF9D52846DB
:10440000BDE8F0812DE9F041044600251E469046A6
:10441000C80301D5302700E02027880404D505E033
:1044200041463846B0476D1C641EF9D52846BDE8A4
:10443000F0810A68531C0B60107070472DE9F05F23
:104440002DED0A8B0446894692460320B4FBF0F614
:10445000B4FBF0FB5846FCF7FFF841EC1A0B204682
:10446000FCF7FAF841EC1C0B9FED270B53EC102BDB
:10447000FCF783F841EC1B0B53EC1A2BFCF705F807
:1044800041EC190BB0EE490AF0EE690AFFF786FD20
:10449000B0EE408AF0EE608A9FED1D0B53EC102BBE
:1044A00051EC180BFCF704F900D2761CB00003F0B5
:1044B000C3F8054625B90020BDEC0A8BBDE8F09F86
:1044C000B000CAF800002F46C8464FF0000B09E0C4
:1044D0003A464146032000F01FF808F103083F1D4B
:1044E0000BF1010B0320B4FBF0F05845F0D803208A
:1044F000B4FBF0F100FB114B3A464146584600F040
:104500000BF82846D8E70000000000000000084033
:10451000000000000000B03C30B504460B4600210E
:10452000012C0FD118780104224800EB914000784B
:1045300010702048C1F30535405D50703D209070EB
:10454000D07035E0022C16D1187800045D7800EBAD
:104550000521184800EB9140007810701548C1F310
:104560000535405D50701348C1F38515405D90706E
:104570003D20D0701CE0032C1AD1187800045D781F
:1045800000EB05209D7841190A4800EB9140007826
:1045900010700848C1F30535405D50700548C1F3FF
:1045A0008515405D907001F03F00024D285CD07091
:1045B000002030BDA6C4000810B50021084600F058
:1045C00001F810BD30B591B005460C4601214805F3
:1045D000FDF762FA012280211D48FFF75DFA0021F4
:1045E0001C48FCF7EDFA4FF0006001901848001DE0
:1045F00002900395402004900594002006904FF40B
:10460000806007900020089009900A904FF40030D5
:104610000B9000200C900D900E900F9001A90D486A
:10462000FCF702FC012210210A48FCF7DFFB1120F5
:104630008DF8400004208DF8410000208DF84200E4
:1046400001208DF8430010A8FDF7E0F911B030BD4E
:1046500000440040A06002400EB501218803FDF730
:104660004BFA06210020FEF7D7FF4FF400400090E0
:1046700000208DF804000C208DF8050001208DF835
:1046800006006846FCF734FC28208DF80800062058
:104690008DF8090000208DF80A0001208DF80B002C
:1046A00002A8FDF7B3F90EBD10B54FF44070FDF749
:1046B000E9F9A82000F03EFC00F064F800F04AF8A8
:1046C000FFF7CAFF4FF4FA2004F0C0FF542005F0B2
:1046D0000BFCFFF70BFB28210846FFF7E1FA3F2010
:1046E000FFF7FCFB01F03CF80DE00EA0FFF732FCF9
:1046F0004FF4FA7000F040FC0EA0FFF72BFC4FF4D3
:10470000FA7000F039FCFDF77FFD0028EDD14FF481
:10471000E12000F063F8FFF74FFF0AA0FFF71AFC53
:1047200010BD000053442043617264204572726FD3
:1047300072210A00506C6561736520436865636B84
:10474000210A0000B3CCD0F2BFAACABC2121210AA1
:10475000000000001CB501211120FDF79DF94FF468
:104760000040009000208DF804008DF80500012025
:104770008DF8070069460248FCF7DAFC1CBD000012
:10478000000002401CB501210420FDF785F94FF41B
:104790000050009001208DF8040000208DF80600E4
:1047A0008DF8050001208DF8070069460148FCF7E7
:1047B000BFFC1CBD0008024006480078064908609E
:1047C0000448007808B9012000E000200149087081
:1047D000704700001D000020B402414210B588B0AF
:1047E000044601210846FDF757F901214804FDF769
:1047F00063F9072202212248FCF7E2FC0722032189
:104800001F48FCF7DDFC0C20069002208DF81C00F0
:104810008DF81D0000208DF81E0001208DF81F006E
:1048200006A91748FCF784FC02940020ADF80C00A0
:10483000ADF80E00ADF81000ADF814000C20ADF886
:10484000120002A90F48FFF77FF9012240F224412C
:104850000C48FFF754F926208DF8040007208DF846
:10486000050000208DF8060001208DF8070001A842
:10487000FDF7CCF801210348FFF702F908B010BD9D
:10488000000002400044004070B504460D46002080
:10489000E070401E20632946204603F057FB08B114
:1048A000042070BD04F2322002F0A2FE4AF6552127
:1048B000884201D00320F4E700BF94F83400E928CF
:1048C00007D094F83400EB2803D094F83400E8289B
:1048D00011D1032209A104F16A0002F0E3FE08B934
:1048E0000020DEE7052206A104F1860002F0DAFED0
:1048F00008B90020D5E70220D3E700004641540064
:104900004641543332000000024600E0521C107849
:1049100018B192F900008842F8D192F9000070476E
:104920000246891E9069801E884201D80020704787
:104930005389D06A03FB0100F9E700002DE9F04735
:1049400080460C4604F11A0002F052FE10B100201D
:10495000BDE8F087207800F03F00401E00EB8001AA
:1049600001EBC0054FF00109002621E01849895DDF
:10497000081902F03DFE0746B9F1000F11D0FF2DD6
:104980000BD8384602F03AFB824629466D1C38F8AF
:10499000110002F033FB824501D00020D8E7B94670
:1049A00005E04FF6FF70874201D00020D0E7761C6B
:1049B0000D2EDBD3207800F0400038B1B9F1000FA4
:1049C00004D038F8150008B10020C1E70120BFE786
:1049D000E8C400080146002002E04910421CD0B2A1
:1049E0000129FAD170472DE9F04782468846DAF866
:1049F0000040B8F1000F06D1276917B1A069B8428D
:104A000015D8012713E04146504602F077FC0546D1
:104A1000022D02D20120BDE8F087681C08B92846A3
:104A2000F9E7A069A84201D92846F4E7474660693A
:104A300008B90020EFE70026474518D17E1CA06981
:104A4000B04200D802263146504602F057FC0546D7
:104A5000012D01D0681C08B92846DCE73DB1256965
:104A6000022D03D3A069A84200D92F460026E6B93B
:104A70003E4600BF761CA069B04204D80226BE4262
:104A800001D90020C7E73146504602F037FC054601
:104A900005B909E0012D01D0681C08B92846BAE71C
:104AA000BE42E7D10020B6E700BF4FF0FF323146EB
:104AB000204604F03CF88146B9F1000F08D1B8F166
:104AC000000F05D032464146204604F030F88146BA
:104AD000B9F1000F0DD12661D4E90510801E814285
:104AE00002D86069401E6061207940F001002071A9
:104AF00007E0B9F1010F02D14FF0FF3000E00120D3
:104B00000646304687E700002DE9F34F85B0814621
:104B1000069800680290D9F80000D0F80CA0002593
:104B200000BF02A804F049FC83460BF1010018B94C
:104B3000062007B0BDE8F08FBBF5803F05D34FEAF4
:104B40001B4228466D1C2AF810201FFA8BF4202CDB
:104B500003DB2F2C01D05C2C00D111E0802C06DA75
:104B6000214679A0FFF7D0FE08B10620E1E7FF2D2E
:104B700001D30620DDE728466D1C2AF81040D0E757
:104B800000BF202C01DA04260CE0002602E0029887
:104B9000401C0290029800782F28F8D002980078E4
:104BA0005C28F4D002990698016008E0681E3AF883
:104BB0001040202C02D02E2C00D002E06D1E002DC3
:104BC000F4D100BF00202AF815000DB90620B0E787
:104BD000002700E07F1C3AF817002028FAD01FB900
:104BE0003AF817002E2801D146F0030600E06D1EAA
:104BF00025B1681E3AF810002E28F8D10B2220218A
:104C000009F1200002F06DFD4FF00008CDF8108092
:104C10000820039000BF38467F1C3AF8104004B9C2
:104C200066E0202C03D02E2C04D1AF4202D046F0F7
:104C30000306F0E7DDE90310884201D2AF4216D146
:104C400003980B2802D146F0030651E0AF4201D091
:104C500046F00306AF4200D94AE02F4608200490F0
:104C60000B2003904FEA88604FEA1068D3E7802C4E
:104C70000ADB46F00206204602F0C0F94FF46A71E2
:104C8000019002F081F90446FF2C11DD0398401ECB
:104C90000499884204D846F0030603980490BAE7C2
:104CA00022120498411C049109F120010A5418E0D1
:104CB00024B1214627A0FFF727FE18B15F2446F054
:104CC00003060EE0412C03DB5A2C01DC48F00208FD
:104CD000612C06DB7A2C04DC48F00108A4F12000EA
:104CE00084B20498411C049109F120010C5492E70C
:104CF00000BF99F82000E52802D1052089F820009E
:104D00000398082803D14FEA88604FEA106808F03A
:104D10000C000C2803D008F00300032801D146F052
:104D2000020606F0020048B908F0010008B146F09A
:104D3000100608F0040008B146F008062B2000F821
:104D400009600020F5E60000222A3A3C3E3F7C7FC5
:104D5000000000002B2C3B3D5B5D00002DE9FF4F68
:104D600085B09A4603AA0121059800F05BFC18B1B2
:104D7000012009B0BDE8F08FDDF80C904FF03F083E
:104D8000082701E07806070E37B1B9FBF7F0B0FB52
:104D9000F8F0B0F5806FF5D807B9FF274FF400722F
:104DA0000021504602F09DFC0AF5DF764FF0000B23
:104DB000444669E0069850F82B50642D07D801D17D
:104DC000484603E06420B9FBF0F0684305466019EB
:104DD000484501D8601901D3A9EB040505B959E08C
:104DE000214606F1080004F059FA294606F10C00A4
:104DF00004F054FA07983071B4FBF8F0B0FBF7F008
:104E00000490B4FBF8F0B0FBF7F107FB1100C0B25F
:104E10000290B4FBF8F008FB1040401CC0B20190B7
:104E200002987070C021049801EA9000019908432B
:104E3000B0700498F0706019401EB0FBF8F0B0FB41
:104E4000F7F004906019401EB0FBF8F0B0FBF7F1EA
:104E500007FB1100C0B202906019401EB0FBF8F1D0
:104E600008FB1100401CC0B2019002987071C02173
:104E7000049801EA900001990843B0710498F07118
:104E800010360BF1010B2C44BBF1040F02D20CB114
:104E90004C458FD300BF4AF655210AF5FF7004F048
:104EA00009FA012300225146059800F027FC08B1B9
:104EB00001205EE700205CE701460B48007888424D
:104EC0000FDC09484078884201DB01207047064822
:104ED0008078884205DC0448C078884201DB0120E4
:104EE000F4E70020F2E70000F5C40008014610488E
:104EF0000079884219DC0E484079884201DB0120A4
:104F000070470B488079884205DC0948C07988429F
:104F100001DB0120F4E70648007A884205DC0448FA
:104F2000407A884201DB0120EAE70020E8E7000040
:104F3000F5C4000870B504460420FEF73BFC0C489D
:104F4000047025464FF47A704543012009490880D2
:104F50004FF0E020006940F002004FF0E0210861CE
:104F600008464561006940F00100086170BD00001D
:104F7000C0020020C202002070B5044606F058FFAF
:104F8000012810D00B480088844206D309480088C5
:104F9000B4FBF0F5284605F009FE06480088B4FB8E
:104FA000F0F100FB11444FF47A7104FB01F000F0C2
:104FB00003F870BDC202002070B5034600224FF016
:104FC000E02675690D4E367803FB06F44FF0E026B7
:104FD000B16910E04FF0E026B06988420BD08842FA
:104FE00002D20E1A324402E02E1A0E443244014616
:104FF000A24200D300E0EDE700BF70BDC002002078
:105000002DE9F04104460E46D4F8008000212046E8
:1050100000F0A6FA0546EDB9002700BF4046A16999
:1050200002F094FF054605B113E0E0690078E52839
:1050300002D0E069007820B9781C0746B04201D15F
:1050400007E000270121204600F0EBF80546002D7F
:10505000E4D000BF042D00D107252846BDE8F0812B
:105060002DE9F04704468946204604F081F910B145
:105070000120BDE8F08749462046FFF751FC07466E
:1050800027634FF40072002104F1340002F029FB81
:1050900060894FF40041B1EB402F01D8084601E090
:1050A0006089400206464FF0000800E07608B6F539
:1050B000007F05D9304601F026FFB0F10008F5D099
:1050C000B6F5007F17D932460021404602F009FBB1
:1050D000760A002500E035446089A84207D97A198C
:1050E00060783346414600F009FB0028F3D0404683
:1050F00001F00FFF10E004F134080126002500E064
:1051000035446089A84207D97A1960783346414608
:1051100000F0F4FA0028F3D06089A84201D0012001
:10512000A7E70020A5E72DE9F0470446D4F800A042
:105130000021204600F014FA064616B13046BDE8BC
:10514000F0874FF0FF08C1464FF0FF30E06200BF2C
:105150005046A16902F0FAFE064606B15EE0E0693B
:1051600005780DB9042659E0E069C07A00F03F07E0
:10517000A771E52D04D007F0080038B10F2F05D036
:105180004FF0FF084FF0FF30E06240E00F2F22D1D8
:105190002B20005D00F0400098BB05F0400038B1C6
:1051A000E06990F80D9005F0BF05A8462069E0621F
:1051B00045450CD1E069407B484508D1E169DAF802
:1051C0000C00FFF7BBFB10B1A8F1010000E0FF20CD
:1051D00000F0FF081BE0B8F1000F05D1E06904F012
:1051E0006FF8484500D119E02B20005D00F0010068
:1051F00040B90B2204F12001E06902F053FA08B92A
:105200000CE004E04FF0FF084FF0FF30E0620021B7
:10521000204600F006F80646002E99D000BF304622
:105220008DE72DE9F041044688462768206900F1A2
:105230002006B6F5001F01D30020A061A06910B9B7
:105240000420BDE8F081C6F30800002845D1A0691C
:10525000401CA061606938B93889B0EB561F3CD852
:105260000020A0610420ECE77889401E00EA562067
:1052700098BB2046616902F041F80546012D01D82E
:105280000220DEE7681C08B90120DAE7B869A84205
:105290001DD8B8F1000F03D10020A0610420D0E791
:1052A00020466169FFF79FFB05460DB90720C8E757
:1052B000012D01D10220C4E7681C08B90120C0E714
:1052C00029463846FFF7CCFE08B10120B9E76561F1
:1052D00029463846FFF724FBA0612661C6F3080182
:1052E00007F134000844E0610020AAE72DE9F05FEF
:1052F000044689460426D4F800A04FF0FF08C346B0
:1053000053E05046A16902F021FE064606B14FE087
:10531000E06905780DB904264AE0E069C07A00F03A
:105320003F07A771E52D0AD02E2D08D027F02000C9
:10533000082801D1012000E00020484502D04FF0AC
:10534000FF082BE00F2F1DD105F0400038B1E069B8
:1053500090F80DB005F0BF05A8462069E06245450C
:105360000CD1E069407B584508D1E169DAF80C00BE
:1053700002F006FE10B1A8F1010000E0FF2000F0ED
:10538000FF080BE0B8F1000F04D1E06903F098FFCB
:10539000584502D04FF0FF30E06209E0002120467E
:1053A000FFF73FFF064606B102E0A0690028A8D13A
:1053B00000BF0EB10020A0613046BDE8F09F2DE98E
:1053C000FE4F044626682B20005D00F0A00010B1BF
:1053D0000620BDE8FE8F4FF0000901E009F1010948
:1053E000F06830F819000028F8D10C2204F12001EF
:1053F000684602F069F99DF80B0000F0010028B33F
:1054000040212B2001554FF001080EE0434669462C
:1054100004F12000F26801F00BFF2046FFF783FE45
:10542000054605B104E008F10108B8F1640FEDD3B9
:1054300000BFB8F1640F01D10720CAE7042D01D0E5
:105440002846C6E79DF80B102B2001559DF80B0050
:1054500000F0020030B109F10C000D21B0FBF1F0B9
:10546000401C00E00120074639462046FFF7C8FDF2
:1054700005464DBB781E071E26D02069A0EB4711BC
:10548000204600F06DF80546F5B904F1200003F060
:1054900017FF824600BF3046A16902F057FD05465E
:1054A00005B110E0FAB2E1695346F06803F0DCFBA5
:1054B0000120F07000212046FFF7B3FE054615B924
:1054C000781E071EE7D100BFC5B93046A16902F0BA
:1054D0003DFD054695B920220021E06902F001F961
:1054E0000B2204F12001E06902F0EEF82B20005DB0
:1054F00000F01800E16908730120F070284668E7A1
:105500002DE9F041044626682769E06A401C08B985
:10551000002003E02046E16A00F022F80546E5B9E4
:1055200000BF3046A16902F011FD054605B110E04B
:1055300000BFE520E16908700120F0702069B842E1
:1055400000D306E000212046FFF76BFE0546002D44
:10555000E7D000BF042D00D102252846BDE8F08128
:105560002DE9F04104460D462668B5F5001F02D22C
:1055700005F01F0010B10220BDE8F0812561A76889
:105580001FB93078032800DBB76A47B93089B0EB20
:10559000551F01D80220EFE7B06AA0611CE07089B6
:1055A0004FEA402811E03946204601F0A7FE0746A1
:1055B000781C08B90120DFE7022F02D3B069B84296
:1055C00001D80220D8E7A5EB08054545EBD23946BE
:1055D0003046FFF7A5F9A0616761A06908B902200C
:1055E000CAE7A06900EB5520A061C5F3080106F1E8
:1055F00034000844E0610020BEE770B50446002591
:1056000014B1012C05D103E0FCF7FEFD054602E0D4
:1056100001E0012500BF00BF0DB1012070BD0020D9
:10562000FCE700002DE9F04706468946154646BBD3
:10563000B9F1000F09D0B9F1010F13D0B9F1020F80
:1056400005D0B9F1030F19D106E0002418E04FF49A
:1056500000702860002413E00D48B0F85000288046
:1056600000240DE00A484FF400720023D0E91271C3
:105670003846FAF70DFE2860002401E0042400BF3C
:1056800002E0012E00D001242046BDE8F087000092
:10569000F00300202DE9F04105460E4617461C4652
:1056A0004FF0000814B90420BDE8F08115B1012DB8
:1056B00016D112E0E2B239463046FDF7C1F9804614
:1056C00007E0FCF7A1FDE2B239463046FDF7B8F934
:1056D0008046B8F1000FF4D105E04FF0000802E079
:1056E0004FF0010800BF00BFB8F1000F01D100204A
:1056F000DAE70120D8E70146002070472DE9F041A4
:1057000005460E4617461C464FF0000814B9042003
:10571000BDE8F08115B1012D16D112E0E2B2394693
:105720003046FDF73BFD804607E0FCF76DFDE2B239
:1057300039463046FDF732FD8046B8F1000FF4D10E
:1057400005E04FF0000802E04FF0010800BF00BF85
:10575000B8F1000F01D10020DAE70120D8E70000FE
:1057600010B500240DE04FF40D7001F065FF1749EE
:1057700041F82400084650F8240000B903E0601CFA
:10578000C4B2012CEFDB00BF4FF40A7001F054FFEC
:105790000F4908604FF40A7001F04EFF0D49086090
:1057A0004FF4007001F048FF0B490860012C0AD14A
:1057B0000748006838B10748006820B1084600680B
:1057C00008B1002010BD0120FCE7000050030020BC
:1057D00054030020580300206403002038B5054618
:1057E000284601F0EFF904463CB96946284605F021
:1057F000DDFC04460CB900202860204638BD38B5D1
:1058000004466946204605F0D1FC05460DB9002046
:105810002060284638BD2DE9F74F86B0884692466D
:10582000002205A906A802F03DFA8146B9F1000F51
:1058300068D10598CAF800000598D0E90510801EC7
:10584000814204D805984069C8F800005AE0002554
:105850000598007801281BD102260598019000BF09
:10586000314601A801F04AFD0746781C10B94FF0F7
:1058700001090CE0012F02D14FF0020907E007B93E
:105880006D1C701C0646059989698842E8D32FE093
:10589000059886690598D0F824B0002400BF54B953
:1058A00059460BF1010B059802F050FB8146B9F106
:1058B000000F00D01BE005980078022808D1059958
:1058C0003431081901F094FE00B96D1CA41C09E0E4
:1058D00005993431081901F07FFE20F0704000B9BD
:1058E0006D1C241DC4F30804701E061ED7D100BF12
:1058F000C8F80050059845610598007940F001000E
:1059000005990871484609B0BDE8F08F2DE9F743C5
:105910008EB00D461746002201A90EA802F0C2F96A
:105920000446002C32D1002D30D001980290002086
:105930000490002102A8FFF713FE04460CBB0121CE
:1059400002A8FFF7D3FC0446DCB90026B0460AE003
:10595000404608F10108099A12F800904FFA89F2BE
:105960003046761C2A54B8F10B0FF1D300BF00204B
:10597000A85506B904E0701E0646285C2028F6D01B
:1059800000BF042C02D1002028700024CCB9C7B17C
:105990000198016A02F0DAFA044694B90198007895
:1059A000032803D0042803D1642603E0432601E042
:1059B000272600BF00BF01993431881901F00CFE81
:1059C0003860204611B0BDE8F0832DE9FC478046E1
:1059D0000C46914600254646641E14E06B460122A3
:1059E00001A9484600F0B2FE0098012800D00CE062
:1059F0009DF8047000BF78B206F8010B6D1C0A2FE9
:105A000000D102E000BFA542E8DB00BF00203070FB
:105A100015B14046BDE8FC870020FBE72DE9F84FB3
:105A200004460E466946204605F0C0FB8246BAF1A0
:105A3000000F01D194F811A0BAF1000F02D0504626
:105A4000BDE8F88FE068B04204D2207C00F002008C
:105A500000B9E668D4F814904FF00008C4F8148038
:105A6000002E68D0009840894702B9F1000F11D08C
:105A7000701EB0FBF7F1A9F10100B0FBF7F0814215
:105A800008D3A9F10100791E884360616069361A64
:105A9000A56912E0A5687DB900212046FEF7A3FFA5
:105AA0000546012D02D102206074C9E7681C10B9B7
:105AB00001206074C4E7A560A561002D3BD024E0FF
:105AC000F61B606938446061207C00F0020040B140
:105AD00000BF29462046FEF786FF054635B9002659
