:020000040800F2
:1000000020A900205D020008C10B0008810800083B
:10001000BD0B0008DD080008F31300080000000015
:100020000000000000000000000000009D0100082A
:10003000E108000800000000F9010008ED0E0008CA
:1000400077020008770200087702000877020008AC
:10005000770200087702000877020008770200089C
:10006000770200087702000877020008770200088C
:10007000770200087702000877020008770200087C
:10008000770200087702000877020008770200086C
:10009000770200087702000877020008770200085C
:1000A000770200087702000877020008770200084C
:1000B0007702000877020008650F00087702000841
:1000C000770200087702000877020008770200082C
:1000D00077020008D51100087702000877020008AF
:1000E000E508000877020008770200087702000898
:1000F00077020008770200087702000877020008FC
:1001000077020008770200089D0F000877020008B8
:1001100077020008770200087702000877020008DB
:1001200077020008770200087702000877020008CB
:1001300077020008770200087702000877020008BB
:1001400077020008770200087702000877020008AB
:10015000770200087702000877020008770200089B
:10016000770200087702000877020008770200088B
:10017000770200087702000877020008770200087B
:100180007702000877020008DFF80CD000F0ACFA24
:10019000004800479120000820A900202C4B196836
:1001A0000868B0E8F04F80F30988BFF36F8F4FF015
:1001B000000080F3118870470000000008480068C4
:1001C000006880F308884FF0000080F3148862B65E
:1001D00061B6BFF34F8FBFF36F8F00DF00BF00BF6B
:1001E00008ED00E0DFF80C00016841F470010160E7
:1001F000704700BF88ED00E0EFF30980BFF36F8F19
:10020000134B1A681EF0100F08BF20ED108A20E96A
:10021000F04F106009B44FF0500080F31188BFF325
:100220004F8FBFF36F8F04F04FFD4FF0000080F34E
:10023000118809BC19680868B0E8F04F1EF0100F6B
:1002400008BFB0EC108A80F30988BFF36F8F704746
:1002500070010020EFF305807047000006488047DA
:1002600006480047FEE7FEE7FEE7FEE7FEE7FEE79B
:10027000FEE7FEE7FEE7FEE7FD0E00088901000845
:1002800040EA01039B0703D009E008C9121F08C018
:10029000042AFAD203E011F8013B00F8013B521E98
:1002A000F9D27047D2B201E000F8012B491EFBD20F
:1002B00070470022F6E710B513460A460446194671
:1002C000FFF7F0FF204610BD421C10F8011B00296B
:1002D000FBD1801A7047034611F8012B00F8012B5F
:1002E000002AF9D11846704730B50B460146002068
:1002F0002022012409E021FA02F59D4205D303FAE8
:1003000002F5491B04FA02F52844151EA2F1010268
:10031000F1DC30BD2DE9F05F0546002092469B469A
:1003200088460646814640241BE02846414647460B
:10033000224600F0FAF953465A46C01A914110D3AA
:1003400011461846224600F0E1F92D1A67EB010824
:100350004F4622460120002100F0D8F917EB000992
:100360004E41201EA4F10104DFDC484631462A46F6
:100370004346BDE8F09F2DE9FE4F804681EA030029
:10038000C00F0C46009021F0004123F00045B8EB6F
:100390000200A94105D24046214690461C460B4624
:1003A000024623F00040104347D0270DC7F30A0050
:1003B000C3F30A510290401A019040286BDAC3F34C
:1003C000130040F4801B0098924620B10023D2EB2A
:1003D000030A63EB0B0B01985946C0F140025046EB
:1003E00000F094F906460D4650465946019A00F031
:1003F000ACF910EB08006141002487EA115284EA4D
:10040000E7731A4340D0009A62B3019A012A4FEA77
:10041000075215DC001B61EB02014FF0004202EABB
:100420000752CDE90042001C41F5801132462B46AF
:1004300000F0ACF903B0BDE8F08F40462146F9E783
:10044000001B61EB0201001C41F5801300185B41A9
:100450002018A2F5001747EB030140EAD570B61942
:100460006D4111E06D084FEA360645EAC0754FEA66
:100470000752001B61EB0201001C41F58011490885
:100480004FEA30000019514132462B4603B0BDE817
:10049000F04F00F06CB90098012240000023D0EB2F
:1004A000020263EBE073009821464FEAE074B8EB78
:1004B000000061EB0401E9E783F000435BE781F0B2
:1004C000004158E72DE9FE4F81EA030404F000449F
:1004D00021F0004100944FF0000B23F0004350EA5C
:1004E00001045ED052EA03045BD0C3F30A54C1F3A3
:1004F0000A552C44A4F2F3340194A0FB0254C1F336
:10050000130141F48011C3F3130343F4801301FB7F
:10051000024400FB034E840A970A44EA815447EAE6
:100520008357A4FB076802958D0A05FB07854FEAF0
:10053000932C04FB0C542705029D4FEA065847EA0A
:100540001637B5EB08056EEB070C870E920E47EADF
:10055000811742EA8312A7FB0201B6EB0B0164EBA1
:1005600000042B0D43EA0C335E1844EB1C50DA46B2
:100570005146E7FB0201C5F313044FEA0B3343EA8C
:1005800014534FEA0432019C43EA0603A4F10C041D
:100590000294009CCDE900B400F0F8F803B0BDE887
:1005A000F08F00200146F9E72DE9F04D81EA0304C0
:1005B00004F0004B21F0004514464FF0000A23F0F0
:1005C000004150EA050220D054EA01021DD0C5F3D3
:1005D0000A570246C5F31303C1F31300C1F30A56C9
:1005E00040F4801543F48013A7EB0608101BD64691
:1005F00008F2FD3873EB050002D308F1010801E0B1
:1006000092185B41B8F1000F03DA00200146BDE803
:10061000F08D00204FF48011064684460EE0171B33
:1006200073EB050705D3121B63EB050306434CEA86
:10063000010C49084FEA300092185B4150EA01076B
:10064000EDD152EA030012D082EA040083EA0501E8
:10065000084305D0101BAB4106D20122002306E05F
:1006600000224FF0004302E06FF0010253101AEB3A
:1006700006004CEB085110EB0A0041EB0B01BDE802
:10068000F04D00F074B8C1F30A52C1F3130140F207
:10069000FF3341F480119A4202DA0020014670478C
:1006A00040F233439A42A2F2334202DC524200F05B
:1006B0003CB800F02BB8000030B5041E71F1000406
:1006C00004DB4FF00044404264EB0101141E73F15F
:1006D000000405DB1C464FF00043524263EB040369
:1006E000994208BF904230BD064C074D06E0E068D5
:1006F00040F0010394E8070098471034AC42F6D369
:10070000FFF746FD94610008B4610008202A04DB6D
:10071000203A00FA02F1002070479140C2F1200314
:1007200020FA03F3194390407047202A04DB203A53
:1007300021FA02F00021704721FA02F3D040C2F101
:1007400020029140084319467047202A06DBCB1748
:10075000203A41FA02F043EAE07306E041FA02F37C
:10076000D040C2F12002914008431946704710B5AD
:10077000141E73F1000408DA401C41F100019218C4
:100780005B411A4301D120F0010010BD2DE9F04D6D
:1007900092469B4611B1B1FA81F202E0B0FA80F2C2
:1007A00020329046FFF7B2FF04460F4640EA0A00A7
:1007B00041EA0B0153465A46084313D0114653EA07
:1007C000010019D0C8F140025046FFF7AEFF0546C0
:1007D0000E46504659464246FFF798FF084305D05B
:1007E000012004E020463946BDE8F08D0020054395
:1007F00046EAE0762C4337430A986305E40AA0EB07
:1008000008000022FD0A44EA47540A3002D50020BD
:100810000146E9E7010510196941DDE908450019BC
:100820006941BDE8F04DA2E770B58C1810F8015B86
:1008300015F0070301D110F8013B2A1106D110F879
:10084000012B03E010F8016B01F8016B5B1EF9D17D
:100850002B0705D40023521E0DD401F8013BFAE703
:1008600010F8013BCB1A921C03E013F8015B01F86E
:10087000015B521EF9D5A142D8D3002070BD000003
:100880001EF0040F0CBFEFF30880EFF3098000F0B7
:1008900031B900000FB400B5B5B037A80190C92137
:1008A00002A8019B369A00F0CBFD00200190411E6A
:1008B0000848006804F066FF02A907A000F09CFD4C
:1008C00000231A4619460348006804F0AFFC35B00F
:1008D0005DF814FB0C0000202573000000BFFEE74C
:1008E0007047000008B54FF4004000F035F80128CB
:1008F0001ED11048006820F400400E490860002016
:10090000009069460C48006804F006FE009838B173
:100910004FF0805009490860BFF34F8FBFF36F8FCE
:1009200007A000F069FD4FF4004000F00FF800BF91
:1009300008BD0000003C01401000002004ED00E074
:10094000CDE2B2BFD6D0B6CF0A00000001490860A0
:1009500070470000143C014001460020034A126821
:100960000A400AB1012000E000207047143C014019
:10097000002123498279002A3AD00A461268036886
:100980009A430B461A600A1D126803689A430B1DAE
:100990001A60027911440A6803681A430A60184A07
:1009A0000832126803689A43154B08331A601A1DFF
:1009B000126803689A43124B0C331A604279102A6A
:1009C0000ED11A1F126803681A430D4B08331A60C0
:1009D0001A1D126803681A43094B0C331A600DE0A4
:1009E0000749427911440A6803681A430A6005E01E
:1009F000027911440A6803689A430A60704700004C
:100A0000003C014010B5044602A000F0F5FCE043B4
:100A1000C0B210BD7465737421210A00F0B50A4696
:100A200000210023002400BF3DE0012505FA01F369
:100A3000156805EA03049C4234D105684F0003267B
:100A4000BE40B543056015794E00B5400668354394
:100A500005601579012D02D01579022D16D1856812
:100A60004F000326BE40B543856055794E00B54022
:100A7000866835438560456801268E40B5434560EC
:100A8000456896798E40B6B235434560C5684F00DB
:100A90000326BE40B543C560D5794E00B540C66853
:100AA0003543C560491C1029BFD3F0BDF0B5002304
:100AB00000244D07ED0E02FA05F3CE1000F12005DB
:100AC00055F826504E07F70E0F26BE40B543CF10FF
:100AD00000F1200646F82750CE1000F1200555F809
:100AE000265045EA0304CE1000F1200545F82640C3
:100AF000F0BD00002949096801F0004149B12749CA
:100B0000096841F00041254A11608169891C8161B1
:100B10007047224908390968214A11621F49091F93
:100B2000097882F824101D49C91E097891621B4971
:100B30000C310968D1621949891E09881186174943
:100B4000096851631549091D0968916313491031FA
:100B50000968D1630021134A116000BF1149096877
:100B60000029FBD00E4A016811604168516081681C
:100B70009160C168D1600169116141695161816908
:100B80009161C169D1610021064A116000BF054928
:100B900009680029FBD000BFBAE700002CED00E097
:100BA000DCA400200402002001460348006808B9C4
:100BB00001207047FF20FCE73C02404200BFFEE7F7
:100BC0007047000070B5002100230F22C4781CB3C9
:100BD000174C246804F4E064C4F5E064C4F307210E
:100BE000C1F10404E3B20A4144789C40E1B2847844
:100BF000144021430C07210E0E4C057861550478F2
:100C000004F01F050124AC4005786D11AD0005F11D
:100C1000E025C5F8004109E0047804F01F0501242F
:100C2000AC40054D0678761145F8264070BD0000B1
:100C30000CED00E000E400E080E100E00249014347
:100C4000024A1160704700000000FA050CED00E058
:100C500029B1064A12680243044B1A6004E0034AB1
:100C600012688243014B1A6070470000303802401E
:100C700029B1064A12680243044B1A6004E0034A91
:100C800012688243014B1A607047000040380240EE
:100C900029B1064A12680243044B1A6004E0034A71
:100CA00012688243014B1A607047000044380240CA
:100CB000F0B5002100220024022500260223324F35
:100CC0003F6807F00C0121B1042905D0082937D16C
:100CD00005E02E4F076036E02D4F076033E02A4FC6
:100CE0003F1F3F68C7F38056274F3F1F3F6807F0FD
:100CF0003F036EB1264FB7FBF3F7DFF88CC0ACF1C2
:100D0000040CDCF800C0CCF3881C07FB0CF40CE0EE
:100D10001E4FB7FBF3F7DFF870C0ACF1040CDCF842
:100D200000C0CCF3881C07FB0CF4174F3F1F3F6833
:100D3000C7F301477F1C7D00B4FBF5F7076002E0B5
:100D4000124F076000BF00BF0F4F3F6807F0F00170
:100D50000909104F7A5C0768D74047600A4F3F681F
:100D600007F4E051890A0B4F7A5C4768D7408760E7
:100D7000054F3F6807F46041490B064F7A5C4768AE
:100D8000D740C760F0BD0000083802400024F400DE
:100D900000127A00F401002030B500228B071C0FEE
:100DA0000F2303FA04F20B4B8C1053F824309343B7
:100DB000084C8D1044F8253023468C1053F824300D
:100DC0008C07240F00FA04F42343024C8D1044F8DE
:100DD000253030BD083801400CB50020019000904E
:100DE0003448006840F480303249086000BF314820
:100DF000006800F4003000900198401C01900098B9
:100E000018B90198B0F5A04FF1D12A48006800F454
:100E1000003010B10120009001E000200090009807
:100E2000012846D123484030006840F080502149D5
:100E3000403108602048006840F440401E49086086
:100E40001C48083000681B490831086008460068E3
:100E500040F4004008600846006840F4A050086074
:100E60001648091F0860081F006840F08070091FBD
:100E7000086000BF0F48006800F000700028F9D03B
:100E800040F205700E4908600A480830006820F0FA
:100E900003000849083108600846006840F0020075
:100EA000086000BF03480830006800F00C00082804
:100EB000F8D10CBD003802400070004008544007D3
:100EC000003C0240042808D14FF0E021096941F0BC
:100ED00004014FF0E022116107E04FF0E0210969C1
:100EE00021F004014FF0E0221161704710B504F0C9
:100EF000A1FD012801D004F0DDF810BD10B51548A2
:100F0000006840F47000134908601348006840F01E
:100F100001001149086000200F49083108600E489F
:100F200000680E4908400C4908600D48091D08601A
:100F3000081F006820F48020091F0860002006496F
:100F40000C310860FFF748FF4FF00060014980391D
:100F5000086010BD88ED00E000380240FFFFF6FE9B
:100F60001030002410B501210A4800F04BF8012888
:100F70000AD10949086980470021064800F05EF857
:100F80006421044800F058F80121024800F01FF8DD
:100F900010BD0000000800407000002010B50121C5
:100FA000074800F02FF8012804D106480068401CCB
:100FB000044908600121024800F009F810BD000052
:100FC000000C00401C000020CA4302827047CA4344
:100FD0000282704721B1028842F00102028004E0DF
:100FE00002884FF6FE731A40028070470146486A35
:100FF000704702460020138A0B400BB1012000E02D
:101000000020704730B50246002000230024158AD6
:1010100005EA0103958905EA010413B10CB1012029
:1010200000E0002030BD1AB183890B43838102E0C8
:1010300083898B4383817047C162704741627047E7
:1010400000220288184B98420ED0184B98420BD0C1
:10105000B0F1804F08D0164B984205D0154B9842FE
:1010600002D0154B984204D14FF68F731A404B882B
:101070001A43124B984207D0114B984204D04FF6B6
:10108000FF431A400B891A4302804B68C3620B88E6
:101090000385054B984202D0044B984201D18B7ACC
:1010A0000386012383827047000001400004014051
:1010B0000004004000080040000C00400010004008
:1010C000001400407FB504460D4601210420FFF7BF
:1010D000CFFDADF800500020ADF802000194ADF84E
:1010E000080069460D48FFF7ABFF012211460B4887
:1010F000FFF799FF01210948FFF76CFF1E208DF8CB
:101100000C0004208DF80D0000208DF80E00012049
:101110008DF80F0003A8FFF755FD7FBD00080040C4
:10112000F8B5054625B9C92216A118A000F064F942
:10113000284601F0B1FE0446012C03D117A0FFF7A9
:10114000A9FB1CE01948006804F092FF06463246ED
:10115000214617A0FFF79EFB601C04460146284667
:1011600003F0ACFE002000904FF47A7004FB00F214
:10117000002304211648006804F02AFF00BF00BFC6
:10118000F8BD00006D61696E2E6300004572726FDC
:10119000723A25732C25640D0A000000B6A8CAB166
:1011A000C6F7B5A5B4CEBBD8B5F70A001400002029
:1011B000B6A8CAB1C6F7D6D8B8B4BBD8B5F72564B7
:1011C0002CB5A5B4CED7B4CCAC25640A0000000081
:1011D0001800002010B540F225511D4800F04AF8D3
:1011E00010B31B4800F000F9C4B21A48008800F49C
:1011F0000040C8B91748008800F4804060B10A2C4C
:1012000003D000201349088020E01248008840F4F1
:1012100000401049088019E00D2C06D10D480088C7
:1012200040F480400B49088010E00A480088C0F371
:101230000D0009490C5407480088401C05490880E6
:1012400008460088C72801DD0020088010BD000086
:10125000001001406C0100200802002021B18289A9
:1012600042F40052828104E082894DF6FF731A40F5
:101270008281704770B502460024002300250020BB
:1012800040F66A16B14200D100BFC1F3421501F029
:101290001F03012606FA03F3012D02D1968933407C
:1012A00006E0022D02D1168A334001E0968A3340CF
:1012B0000C12012606FA04F41688344013B10CB15E
:1012C000012000E0002070BDF0B503460024002698
:1012D0000025002040F66A17B94200D100BF184629
:1012E000C1F3421401F01F06012707FA06F5012C8D
:1012F00001D10C3004E0022C01D1103000E0143098
:101300001AB107682F43076002E00768AF43076020
:10131000F0BD00002DE9FF4705460E460024A1461A
:1013200000BFA046B08900B100BF2C8A24F440540D
:10133000F08804432C82AC8941F20C608443B0886D
:1013400031890843718908430443AC81AC8A24F491
:101350004074B0890443AC826846FFF7A9FC20487A
:10136000854202D01F48854202D1DDF80C9001E091
:10137000DDF80890A88900F4004040B109EBC900ED
:1013800000EB091031684900B0FBF1F707E009EB09
:10139000C90000EB091031688900B0FBF1F7642047
:1013A000B7FBF0F004012009642101FB1078A88943
:1013B00000F4004040B1322000EBC800B0FBF1F077
:1013C00000F00700044308E0322000EB081064211D
:1013D000B0FBF1F000F00F0004432C81BDE8FF8763
:1013E000001001400014014001468888C0F3080045
:1013F000704700BFFEE700000FB4054B10B503A90E
:10140000044A029800F004F910BC5DF814FB0000D7
:1014100075200008680100200FB4084B10B504A91E
:1014200002AA039800F0F4F8044602A9002000F094
:1014300091FC204610BC5DF814FB0000551D00080F
:101440007CB5044600201D46164600290BD0491ED7
:10145000CDE90041044B6A462946304600F0D8F8F1
:10146000009A002111707CBD3F1D000802E008C8F1
:10147000121F08C1002AFAD170477047002001E00E
:1014800001C1121F002AFBD1704700002DE9FF5F48
:1014900082B00021DDE90430020DDDF840B00343E5
:1014A00018D044F61050A2F2FF324243151411989E
:1014B00001281FD0A5EB0B00401C5FEA000A4FF08B
:1014C00000064E4FDFF83891B046504615D5CAF1A8
:1014D000000413E0119801244AA3012801D16FEA06
:1014E0000B010298119AC0E90031C0E9024206B02E
:1014F000BDE8F09FCBF10000DFE704460021404A41
:10150000491842EB0450CDE9001012E0E00707D083
:1015100032463B4640464946FEF7D4FF8046894660
:1015200032463B4610461946FEF7CCFF06460F46AC
:101530006410002CEAD1DDE90401DDE90023BAF1F1
:10154000000F06DAFEF7BEFF42464B46FEF7BAFF33
:1015500005E0FFF729F842464B46FFF725F8044619
:101560000E460022284BFFF7A7F803D84FF0FF30B4
:10157000014607E00022254B20463146FEF7FBFEE0
:10158000FFF781F8102409E0002C0ADB0A2200236F
:10159000FEF7C0FE039B30321A55641E50EA01026A
:1015A000F2D1641C039AC4F111031444119A012A64
:1015B00003D0012208430DD10AE0084304D00020E3
:1015C0004FF0110B119072E7A3EB0B056D1E0DE0B0
:1015D0005B4504DD4FF0000205F1010504E003DA8C
:1015E0004FF00002A5F10105002AECD002981199F4
:1015F000C0E90231C0E9004579E70000000014406D
:101600000000F03F300000000000F0430000E03F29
:101610002DE9FF4F95B09B468946064600250FE20F
:10162000252877D100242746F84A0121059400E0B7
:10163000044316F8013F203B01FA03F01042F7D1B2
:1016400030782A2811D06FF02F033078A0F13002C3
:10165000092A16D8059A44F0020402EB820203EB31
:1016600042021044761C0590EFE759F8042B0592CE
:10167000002A03DA504244F40054059044F0020476
:10168000761C30782E2816D116F8010F44F0040489
:101690002A280DD06FF02F023078A0F13003092BEB
:1016A00009D807EB870302EB4303C718761CF3E75F
:1016B00059F8047B761C30786C280FD006DC4C2857
:1016C00017D068280DD06A2814D104E0742810D0EF
:1016D0007A280FD10DE044F400140AE044F4801499
:1016E00001E044F440147278824202D104F580147F
:1016F000761C761C307866280BD013DC582877D0FF
:1017000009DC002875D04528F6D04628F4D04728B3
:101710001AD19DE118E0632835D0642879D0652876
:1017200012D195E1702873D008DC6728F1D06928C0
:101730006FD06E280DD06F2806D1B5E073282CD05D
:10174000752875D0782874D05A46179990476D1C23
:1017500075E1C4F30250022809D003280DD0D9F84E
:10176000001004280DD00D6009F1040967E1D9F8D3
:101770000010EA17C1E90052F6E7D9F800100D8011
:10178000F2E70D70F0E719F8041B8DF80010002047
:101790008DF80100EA46012003E059F804AB4FF050
:1017A000FF3061074FF0000102D40DE008F10101A4
:1017B0008846B9420FDA8045F8DB1AF8081000298C
:1017C000F4D108E008F1010188468142FADB1AF8F9
:1017D00008100029F6D105985B46A0EB08072146C2
:1017E0003846179A00F094FA284400EB080507E001
:1017F0004DE029E10DE01AF8010B5A461799904780
:10180000B8F10108F7D25B4621463846179A13E132
:1018100042E00A220092C4F302524FF0000A022A68
:1018200008D059F804CB032A4FEAEC710AD00DE036
:1018300029E02AE009F1070121F00702F2E802C1DC
:10184000914609E00FFA8CFC4FEAEC71042A03D1AF
:101850004FFA8CFC4FEAEC71002907DA0A460021A6
:10186000DCF1000C61EB02012D2202E0220504D51F
:101870002B228DF80420012203E0E20701D0202270
:10188000F7E7904659E00A2102E010220DE010210E
:101890004FF0000A00910BE010224FF0000A44F0D4
:1018A00004040827009203E008224FF0000A009287
:1018B000C4F30252022A05D059F804CB0021032AAE
:1018C00008D009E009F1070121F00702F2E802C19E
:1018D000914605E01FFA8CFC042A01D10CF0FF0CA4
:1018E0004FF00008220728D5702806D0009B83F00F
:1018F000100353EA0A0305D00EE040228DF80420BD
:10190000012208E05CEA010206D030228DF80420B2
:101910008DF8050002229046009B83F0080353EAED
:101920000A030AD15CEA010201D1620705D530221F
:101930008DF804204FF001087F1E582804D034A0F1
:1019400003900EA802900DE036A0F9E753466046DA
:10195000009AFEF7DFFC84460398825C0298401EE2
:10196000029002705CEA0100F0D1029806A9081A00
:1019700000F1200A600702D524F4803400E001273A
:10198000574502DDA7EB0A0000E0002000EB0A014A
:10199000009005984144401A0590E00306D45B4648
:1019A0002146179A059800F0B3F90544002706E090
:1019B00001A85A46C05D179990476D1C7F1C47458A
:1019C000F6DBE0030CD55B462146179A059800F03C
:1019D0009FF9054404E030205A46179990476D1C42
:1019E0000099481E00900029F5DC08E00298029951
:1019F0005A460078491C0291179990476D1CBAF11C
:101A00000001AAF1010AF1DC65E1000009280100EA
:101A10003031323334353637383961626364656664
:101A20000000000030313233343536373839414226
:101A3000434445460000000000F058F90544761C78
:101A4000307800287FF4ECAD19B02846BDE8F08F5F
:101A5000620700D4062709F1070222F0070CFCE810
:101A60000223E14603F000485FEA080C02D00FF2BF
:101A7000702C0DE05FEA045C02D50FF2682C07E0E1
:101A80005FEAC47C02D00FF2602C01E0AFF2700C70
:101A90004FF0FF3823F00043CDF850C065280CD03C
:101AA00006DC452809D046281DD047283DD13DE019
:101AB000662818D067287ED138E00021112F01DB7D
:101AC000112000E0781CCDE9000106A90EA8FFF75F
:101AD000DDFCDDE90F010E9A03910021009207F170
:101AE000010A04914DE04FF000400097CDE901104C
:101AF00006A90EA8FFF7CAFCDDE90F0203920E9BB0
:101B000011990022DDF80CA00093049211B9791C00
:101B100000EB010AB7EB0A0004D4C0F1FF3007F173
:101B2000010A0490AAEB0700019044E0012F00DABB
:101B300001270021112F01DD112000E03846CDE9F9
:101B4000000106A90EA8FFF7A1FCDDE90F010E9A1E
:101B50000391002104910092BA4621070CD4039905
:101B6000514500DA8A46BAF1010F05DD009AAAF163
:101B70000101515C302908D0B84202DA10F1040F9B
:101B800006DA0121CDE9011015E0AAF10101E9E72A
:101B9000002805DC049901440491AAEB000102E04D
:101BA000411C514500DD8A460499401A401C0190B1
:101BB0004FF000400290200704D40198504501DB0B
:101BC000CDF8048000208DF84F0002980DF14F07EA
:101BD000B0F1004F25D02B200E9002984FF0020854
:101BE00000280CDA404202902D200E9007E00A21D6
:101BF0000298FEF779FB3031029007F8011DB8F129
:101C00000001A8F10108F2DC02980028EFD1791E4A
:101C10000E980870307800F0200040F0450007F87A
:101C2000020D12A8C01B00F107081498007800B13B
:101C3000012000EB0A01019801EBE0710598414495
:101C4000401A401E0590E00306D45B462146179AD1
:101C5000059800F05DF805441498007818B15A46CC
:101C6000179990476D1CE00324D55B462146179ACF
:101C7000059800F04DF805441CE00498002807DBA7
:101C8000DDE90301884203DD0098405C179901E01B
:101C9000179930205A469047049805F10105401CD9
:101CA00004900198401E019004D12E205A461799A5
:101CB00090476D1CBAF10001AAF1010ADDDC05E0D4
:101CC00017F8010B5A46179990476D1CB8F100019F
:101CD000A8F10108F4DC5B462146179A0598ABE6AB
:101CE0002D0000002B000000200000002DE9F04135
:101CF000044600251E461746880404D405E03946EC
:101D00002020B0476D1C641EF9D52846BDE8F0813F
:101D10002DE9F041044600251E469046C80301D532
:101D2000302700E02027880404D505E041463846E6
:101D3000B0476D1C641EF9D52846BDE8F0814A689D
:101D4000002A06D00A68531C0B6010704868401EB9
:101D5000486070470A68531C0B60107070470EB5DE
:101D600001218803FEF794FF0F210020FFF714F8EC
:101D70004FF40040009000208DF804000C208DF8F6
:101D8000050001208DF806006846FEF7F1FD2820C9
:101D90008DF8080006208DF8090000208DF80A0053
:101DA00001208DF80B0002A8FEF70CFF0EBD00000D
:101DB00010B54FF44070FEF741FFA82000F09CF8EA
:101DC00000F032F800F018F8FFF7C9FF4FF4E130E7
:101DD00001F0A2F8542001F0D7FC02F093FB02A01E
:101DE000FFF70AFB10BD0000B3CCD0F2BFAACABCFB
:101DF0002121210A000000001CB501210846FEF740
:101E000027FF4FF40040009000208DF804000320CD
:101E10008DF8050001208DF8070069460148FEF79E
:101E2000FDFD1CBD000002401CB501210420FEF791
:101E30000FFF4FF40050009001208DF804000020A7
:101E40008DF806008DF8050001208DF80700694621
:101E50000148FEF7E3FD1CBD00080240064800787B
:101E6000064908600448007808B9012000E0002015
:101E7000014908707047000020000020B402414270
:101E80007FB50446002654251A4890FBF5F061689A
:101E9000B0FBF1F086B201212068FEF7E9FE701E6A
:101EA0000290681E80B2ADF804000020ADF8060074
:101EB000ADF80C0001A9A068FFF7C2F8A08998B19D
:101EC000A1890122A068FFF7AEF8A07B8DF8000081
:101ED000E07B8DF80100207C8DF8020001208DF858
:101EE00003006846FEF76EFE0121A068FFF772F856
:101EF0007FBD000000BD010570B504460420FEF75B
:101F0000E1FF0C48047025464FF47A7045430120E8
:101F1000094908804FF0E020006940F002004FF0CE
:101F2000E021086108464561006940F00100086150
:101F300070BD0000640100206601002070B50446F9
:101F400003F078FD012810D00B480088844206D3A6
:101F500009480088B4FBF0F5284602F0EFFA06487D
:101F60000088B4FBF0F100FB11444FF47A7104FBDC
:101F700001F000F003F870BD6601002070B5034663
:101F800000224FF0E02675690D4E367803FB06F40B
:101F90004FF0E026B16910E04FF0E026B0698842CA
:101FA0000BD0884202D20E1A324402E02E1A0E449E
:101FB00032440146A24200D300E0EDE700BF70BD0D
:101FC000640100202DE9F04707463E462EB94FF444
:101FD000AE621AA11EA0FFF70FFA214800688642E0
:101FE00001D1002426E002F015F975691D48D0F8EA
:101FF00000901D48D0F8008002F050F94D4501D006
:10200000454501D1022415E0184885420BD1B06A3C
:1020100038B996F85C00012801D102240AE00324B3
:1020200008E0022406E01248854200D00DB90424DD
:1020300000E001242046BDE8F08700002E2E5C461B
:1020400072656552544F535C7461736B732E6300F9
:102050004572726F723A25732C25640D0A000000D8
:10206000700100207401002078010020A0040020ED
:102070008C04002000BF054A128802F04002002AAA
:10208000F9D0C2B2014B9A807047000000100140A5
:102090001CB5FFF78DFE0748012100238022CDE902
:1020A000001005A1084803F095FC02F0ABFD00BF4D
:1020B000FEE7000000000020765461736B546173EA
:1020C0006B496E6974000000B14D00082DE9F041C4
:1020D00005460E461C4807681C480068001D01F0B4
:1020E000F3FF50B91948006890F82C10012088407F
:1020F00017490968814316480160681C38B936B130
:1021000012480168091D134802F078F81AE07C199A
:102110000E4800684460BC4207D20C480168091DA3
:102120000D48006802F050F80CE008480168091DED
:102130000A48006802F048F809480068844201D261
:1021400007480460BDE8F081840100207001002090
:1021500088010020A00400207801002074010020E4
:10216000A001002010B5044602F054F8244800688D
:10217000401C234908602348006840B92148046096
:102180000846006801280DD100F02CFA0AE01E482C
:10219000006838B91B480068C06AE16A884201D803
:1021A0001848046019480068401C1849086008462F
:1021B0000068606494F82C10012088401449096874
:1021C000084313490860E16A01EB8101114A02EBFF
:1021D0008100211D02F012F802F060F80A48006840
:1021E00068B108480068C06AE16A884207D24FF0C7
:1021F000805009490860BFF34F8FBFF36F8F10BD48
:1022000080010020700100208C0100209C01002032
:10221000880100201003002004ED00E010B501F05B
:10222000F9FF10480068D0B90F4801F0BDFF0F4812
:1022300001F0BAFF0C480E4908600C480D490860CF
:1022400000220C210A2002F061FF064908600846BE
:10225000006820B108A10348006802F017F902F0F5
:102260001DF810BDBC010020B4040020C8040020EB
:10227000B4010020B8010020546D7251000000002C
:1022800010B516E001F0C6FF0C48C068C468201DF8
:1022900001F01AFF0A480068401E09490860094811
:1022A0000068401E0749086001F0F8FF204600F072
:1022B0005FF8044800680028E4D110BD8C040020B9
:1022C000800100207C01002070B504460D46206C82
:1022D00070B1216CE0680144E160D4E902108842E9
:1022E00001D32168E1602846226CE168FDF7C8FF50
:1022F00070BD2DE9F04104460F4615464FF0000829
:10230000A66B206C48B9206800282CD1A06803F087
:1023100057FC80460020A06025E07DB93946226C3C
:102320006068FDF7ADFF216C606808446060D4E927
:102330000101884217D32068606014E03946226C9E
:10234000E068FDF79DFF216CE068411AE1602168BB
:10235000E068884203D2216CA068411AE160022D36
:1023600001D106B1761E701CA0634046BDE8F08125
:1023700010B50446206B01F0C9FF204601F0C6FFEE
:1023800010BD01464A6A22B10A6B1268C2F1100000
:1023900000E00020704700000146084A12681268F9
:1023A0000AB9012200E000220A600A6822B9034A41
:1023B0001268D268106800E000207047B401002065
:1023C00030B54FF42043174800F007042CB1C01D6E
:1023D00020F00700134C041B1B1B0246124C22600A
:1023E0000024114D6C60D018083820F007000F4C05
:1023F000206000240D4D2D686C600C4D2D682C6004
:102400001146441A4C60094C24680C60084D4C6815
:102410002C60084D4C682C604FF00044064D2C6039
:1024200030BD0000DC040020C8010020D0010020E5
:10243000D8010020D4010020E401002000BFFFF7F4
:102440001FFFFCE710B5044654B10020A0602060D7
:102450000021E16000231A461946204602F0E6FEFC
:1024600010BD2DE9F04106460D4617469846069CDC
:102470000DB9246000E02760E66325640121204651
:1024800002F07CFE84F850800020A064BDE8F0815A
:102490002DE9F05F82460E4690469B460A9F0C9CB3
:1024A0004FEA8801A522206BFDF7FCFEA8F1010090
:1024B000216B01EB800929F0070909F0070008B931
:1024C000012000E0002028B94FF459721EA123A07A
:1024D000FEF792FF86B1002507E0715D04F134003C
:1024E0004155705D00B902E06D1C102DF5D300BFA1
:1024F00000214320015502E0002084F83400102F11
:1025000000D30F27E762E76400202065201D01F05B
:1025100058FE04F1180001F054FE2461C7F11000C8
:10252000A061646200206065A06584F85C005A4682
:102530005146484600F0D6FC20600B9808B10B9835
:102540000460BDE8F09F00002E2E5C467265655267
:10255000544F535C7461736B732E63004572726FDA
:10256000723A25732C25640D0A0000002DE9F0470E
:1025700006460D4617469846DDE908940DB1012040
:1025800000E0002028B940F265120CA111A0FEF76E
:1025900033FF8CB1FFF742FE2660A561C4F81C80B2
:1025A000C4F82090201D01F00CFE2FB194F82800F3
:1025B00040F0040084F82800BDE8F0872E2E5C4629
:1025C00072656552544F535C74696D6572732E6306
:1025D000000000004572726F723A25732C25640D5D
:1025E0000A00000010B5002407E004EB84010F4A44
:1025F00002EB810001F0D8FD641C102CF5D30C48CF
:1026000001F0D2FD0B4801F0CFFD0B4801F0CCFDED
:102610000A4801F0C9FD0A4801F0C6FD044809490D
:10262000086004480849086010BD0000100300203D
:102630005004002064040020780400208C04002052
:10264000A0040020740100207801002010B501468C
:10265000164800E0006803688B42FBD302464368DB
:1026600013448B4204D143684C68234443600146C1
:102670000A464B6813440468A34211D10C4C03680A
:102680002468A34208D04B680468646823444B6004
:1026900003681B680B6005E0054B1B680B6001E0DD
:1026A00003680B60884200D0016010BDC8010020A3
:1026B000D00100202DE9F04104460D4616461F4684
:1026C0004FF0000865602461B5420CD8F01BA16989
:1026D000884202D34FF0010811E0211D094800682B
:1026E00001F072FD0BE0BE4204D2BD4202D34FF0B6
:1026F000010804E0211D0448006801F065FD404622
:10270000BDE8F081B8010020B401002070B5054695
:1027100001F080FDA86B08B9012400E0002401F05D
:10272000BDFD204670BD70B5054601F073FDA86B78
:10273000E96B884201D1012400E0002401F0AEFDE4
:10274000204670BD2DE9F04707460C46904600260E
:10275000206848B3204641684968416000F108019B
:1027600042688A4202D14168496841604168D1F8B3
:102770000C9000BF204641684968416000F10801A3
:1027800042688A4202D14168496841604168CD6827
:1027900006EBC60007EB800143460122284601F004
:1027A0008DFF761C4D45E5D13046BDE8F087000031
:1027B000F1B50098846C00262CB940F649321AA174
:1027C0001EA0FEF719FEA06BE16B884201D201202A
:1027D00000E0002028B940F64A3213A117A0FEF706
:1027E0000BFEA06BE16B88421BD294F9455000228E
:1027F00069462046FFF77DFD0646681C60B9606AA1
:1028000008B9012000E0002050B904F1240003F0D1
:102810009FFA28B1012603E0681C40B284F8450005
:1028200000BF3046F8BD00002E2E5C467265655232
:10283000544F535C71756575652E63004572726FF8
:10284000723A25732C25640D0A000000F8B5054680
:102850000F4617480068C068C468201D01F034FCAA
:1028600094F8280000F00400C0B1A06941192B467B
:102870003A462046FFF71EFFB0B1002003462A4625
:1028800001460090204603F0A3FB06462EB940F215
:10289000112208A10DA0FEF7AFFD05E094F8280075
:1028A00020F0010084F828002046216A8847F8BDFE
:1028B000B40100202E2E5C4672656552544F535C65
:1028C00074696D6572732E63000000004572726F4B
:1028D000723A25732C25640D0A00000070B586B08D
:1028E00080E0039800287DDB059C606908B9012021
:1028F00000E0002010B9201D01F0E6FB02A800F066
:10290000E7F8054603980A286AD2DFE800F00905CF
:1029100007343C590608353D00BF00BF00BF00BF6B
:1029200094F8280040F0010084F828000498A26977
:10293000811803462A462046FFF7BCFED0B1204648
:10294000216A884794F8280000F0040090B1002024
:1029500000900498A169421800231946204603F00C
:1029600037FB06462EB94FF44B7224A129A0FEF77F
:1029700043FD00BF35E000BF94F8280020F00100BF
:1029800084F828002DE000BF94F8280040F00100F2
:1029900084F828000498A061A06908B1012000E033
:1029A000002028B94FF4517214A11AA0FEF724FD9B
:1029B000A06941192B462A462046FFF77BFE10E00E
:1029C00094F8280000F0020018B9204601F09EFC9F
:1029D00005E094F8280020F0010084F8280000E0C9
:1029E00000BF00BF002203A90E48006802F012FEDB
:1029F00000287FF476AF06B070BD00002E2E5C4636
:102A000072656552544F535C74696D6572732E63C1
:102A1000000000004572726F723A25732C25640D18
:102A20000A000000BC010020F8B505460C4602F083
:102A300043F9684600F04CF80646009820BB44B9BC
:102A4000B54206D803F0DEF931462846FFF7FEFE10
:102A50001CE03CB10E480068006808B9012000E0A5
:102A600000200446A91B22460A48006801F024FD04
:102A700003F0C8F950B94FF0805007490860BFF320
:102A80004F8FBFF36F8F01E003F0BCF9F8BD00007A
:102A9000B8010020BC01002004ED00E00A490968EB
:102AA000096809B9012100E0002121B14FF0FF318F
:102AB000064A116006E004490968C968C868034A03
:102AC000416811607047000074010020A0010020DF
:102AD00070B5044602F0BEFF05460748006885420F
:102AE00004D200F00BF80120206001E000202060FB
:102AF00001480560284670BDC40100202DE9F84357
:102B00002FE022480068C068056820480068C06857
:102B1000C468201D01F0D8FA2046216A884794F83D
:102B2000280000F00400E0B1A0694619AE4207D9C0
:102B300066602461211D1548006801F045FB10E026
:102B4000002003462A4601460090204603F040FA42
:102B500007462FB940F29D320DA113A0FEF74CFCA1
:102B600000BF0A480068006808B9012000E00020A2
:102B70000028C6D00548D0F800800F4800680349F7
:102B800008600D48C0F80080BDE8F883B40100205B
:102B90002E2E5C4672656552544F535C74696D65A8
:102BA00072732E63000000004572726F723A2573D3
:102BB0002C25640D0A000000B80100200246002107
:102BC00001E0521C491C1078A528FAD0890888B267
:102BD000704700000B480068401C08B9012000E065
:102BE000002020B9E52208A112A0FEF705FC00BFD5
:102BF000502080F31188BFF34F8FBFF36F8F00BF5A
:102C000000BFFEE7E80100202E2E5C46726565528B
:102C1000544F535C706F727461626C655C525644C1
:102C2000535C41524D5F434D34465C706F72742E5D
:102C3000630000004572726F723A25732C25640D93
:102C40000A00000008B500BF6846FFF7A5FB044670
:102C500020460099FFF7E8FEFFF740FEF4E770B565
:102C6000044601F0D7FA94F9455019E0A06C30B150
:102C70002046FFF79DFD88B101F0ECFE0EE0606A92
:102C800008B9012000E0002038B904F1240003F065
:102C90005FF818B101F0DEFE00E003E0681E45B207
:102CA000002DE3DC00BFFF2084F8450001F0F6FAB8
:102CB00001F0B0FA94F9445010E0206908B90120FD
:102CC00000E0002048B904F1100003F041F808B119
:102CD00001F0C0FE681E45B200E001E0002DECDC12
:102CE00000BFFF2084F8440001F0D8FA70BD70B531
:102CF00005460E4631462846FDF7EDFA2846FDF713
:102D0000E3FA044602E020202855641C0F2CFAD375
:102D100000202855281970BD2DE9F04104464FF0D8
:102D2000000801F0C9FF4048006808B9FFF748FBF8
:102D30003E4800682040002864D1A4B1083404F063
:102D4000070080B104F00700C0F10800044404F05B
:102D5000070008B9012000E0002020B9972234A123
:102D60003DA0FEF749FB002C4CD03F480068844250
:102D700048D83E4E3046056801E02E462D6868680A
:102D8000A04202D228680028F7D12748006885426F
:102D900038D0306800F10808286830606868001B87
:102DA000102813D92F1907F0070008B9012000E0F7
:102DB000002020B9C4221EA127A0FEF71DFB6868D1
:102DC000001B78606C603846FFF740FC2649686855
:102DD0000968081A244908600846006824490968F7
:102DE000884203D220480068214908600F4968687A
:102DF000096808436860002028601E480068401C7D
:102E00001C49086002F0FEFF08F0070008B9012025
:102E100000E0002028B940F2051205A10EA0FEF73F
:102E2000EBFA4046BDE8F081D0010020E40100202B
:102E30002E2E5C4672656552544F535C706F7274EF
:102E400061626C655C4D656D4D616E675C68656166
:102E5000705F342E630000004572726F723A257302
:102E60002C25640D0A000000D4010020C8010020B8
:102E7000D8010020DC0100200648006830B1054977
:102E8000096801F15000096D491C016001480068A2
:102E9000704700007001002070B5044626462CB92A
:102EA00040F2FE3205A10BA0FEF7A6FA01F0B2F93E
:102EB000F56901F0F3F9284670BD00002E2E5C463E
:102EC00072656552544F535C74696D6572732E63FD
:102ED000000000004572726F723A25732C25640D54
:102EE0000A000000001F4FF080730360001F21F0F4
:102EF00001030360001F054B036014380260001FCC
:102F00006FF002030360203870470000D52B0008E3
:102F1000014608687047000010B588B004460121DA
:102F20000846FDF795FE01211020FDF7B1FE0722AE
:102F300009212348FDF7BAFD07220A212048FDF7A1
:102F4000B5FD4FF4C060069002208DF81C008DF88E
:102F50001D0000208DF81E0001208DF81F0006A91D
:102F60001748FDF75BFD02940020ADF80C00ADF8AA
:102F70000E00ADF81000ADF814000C20ADF81200F2
:102F800002A91048FEF7C6F901210E48FEF766F9BE
:102F9000012240F225510B48FEF796F925208DF8C5
:102FA000040003208DF8050000208DF806000120A4
:102FB0008DF8070001A8FDF705FE08B010BD000060
:102FC00000000240001001400149087070470000F5
:102FD0002100002030B595B0054613AB12AA09A90F
:102FE000284600F039FA044614B1204615B030BD29
:102FF0000020149026E0224909689DF8502001EB3A
:10300000C20113AB11AA486801A900F025FA0446D1
:103010000CB12046EAE709A901A800F0BBFC60B9A1
:103020009DF844009DF84810884201DD0220DDE74C
:103030009DF85000124988750AE09DF85000401C28
:10304000C0B214900E48007D9DF850108842D2DC2A
:1030500000BF0B48007D9DF85010884201D104202C
:10306000C4E714A9284600F0D7FA04460CB120465C
:10307000BCE79DF85000024948750020B6E7000003
:10308000700000202DE9F0419AB09C48847D007DBD
:10309000A04202DC1AB0BDE8F0819849096801EB52
:1030A000C40106AB07AA486808A900F0D5F908A929
:1030B00093A0FEF7A1F9002644E09048008B01217F
:1030C000B1400840D8B122218FA0FEF795F93046D3
:1030D00000F028FB89492431471839468BA0FEF7B8
:1030E0008BF9222188A0FEF787F9304600F01AFB01
:1030F00082492431084410A941F8260018E03046DE
:1031000000F010FB7D492431085810A941F8260031
:103110007A48C07D30B910A850F826107CA0FEF780
:103120006BF905E010A850F826107AA0FEF764F9B4
:103130009DF81C00401EB04202D078A0FEF75CF95A
:10314000701CC6B29DF81C008642B6DB74A0FEF768
:1031500053F900F039FB6948407D0B280DD2DFE8B8
:1031600000F0060D151E27323F4E5F72870063493F
:10317000096851F834008047054690E05F4A1268BC
:1031800052F8341010988847054688E05B4B1B685E
:1031900053F83420DDE91001904705467FE0574F92
:1031A0003F6857F8343010A807C89847054676E0BE
:1031B000DFF848C1DCF800C05CF8347010A80FC814
:1031C000B84705466BE01498DFF830C10090DCF892
:1031D00000C05CF8347010A80FC8B84705465EE020
:1031E000DDE91401DFF814C1CDE90001DCF800C00D
:1031F0005CF8347010A80FC8B84705464FE0DDE909
:1032000014121698DFF8F4C0CDE900120290DCF831
:1032100000C05CF8347010A80FC8B84705463EE0FF
:10322000DDE91423DDE91610DFF8D0C0CDE9002375
:10323000CDE90210DCF800C05CF8347010A80FC8AB
:10324000B84705462BE0DDE91523DDE91710CDE988
:103250000123CDE903101498DFF8A0C00090DCF83A
:1032600000C05CF8347010A80FC8B847054616E0D7
:10327000DDE91623DDE91810CDE90223CDE90410BC
:10328000DDE91401DFF874C0CDE90001DCF800C00D
:103290005CF8347010A80FC8B847054600BF00BFDF
:1032A00000F050FA9DF8180001280CD11348C07D99
:1032B00020B929461BA0FEF79FF807E029461BA06E
:1032C000FEF79AF802E018A0FEF796F80B4890F87F
:1032D000EC0088B10948D0F8F0000A21B0FBF1F207
:1032E00001FB12070548D0F8F000B0FBF1F83A46B0
:1032F000414611A0FEF780F800BFCBE67000002029
:103300000D0A2573280000002563000025730000C6
:10331000256C750030582558000000002C00000076
:10332000290000003D256C753B0D0A003D305825F5
:10333000583B0D0A0000000046756E6374696F6E9D
:103340002052756E2054696D653A25642E253164CE
:103350006D730D0A00000000F0B50346154600200D
:1033600000220026002455E01F782C2F01D104B93B
:1033700001221F78292F01D01F780FB904B94AE024
:10338000002E34D11F78302F02DB1F78392F11DD4A
:103390001F78612F02DB1F78662F0BDD1F78412F0E
:1033A00002DB1F78462F05DD1F78582F02D01F78CB
:1033B000782F0CD102B12EE01F78612F03DB1F782C
:1033C000203F0F7001E01F780F70491C1FE01F782D
:1033D000222F04D102B11EE00126012417E01F783C
:1033E000202F14D01F782C2F11D0FF2613E01F7828
:1033F000222F00D1002402B10DE044B11F785C2FD0
:1034000002D15B1C471CF8B21F780F70491C471C87
:10341000F8B25B1CA8E700BF00270F702E70F0BD4C
:1034200010B50446002010700BE020780870641C72
:10343000491C1078401C10701078984201DB012064
:1034400010BD2078202802D020780028EDD100205F
:10345000087000BFF4E700002DE9FF4F85B08046FB
:1034600089460027002004900390012002904FF02D
:10347000000B002544461DE02078202816D005F0DA
:103480007F00052812DA0DB945F0800505F07F00B0
:10349000042803D120782A2800D00EE0207805F0F7
:1034A0007F010DF80100681CC5B202E0852D00D136
:1034B00003E0641C20780028DED100BF8DB100201D
:1034C00005F07F010DF8010051A1684600F062FA95
:1034D00018B900210898017002E0012108980170D4
:1034E00000254FF0000A444614E0641C0AF1010074
:1034F00000F0FF0A2078202802D020782A2809D15D
:10350000204600F0D7F90646282E03D02A2E01D0F7
:10351000CDF810A02078282802D020780028E4D107
:103520004446049810B10498401C04444FF0000A2B
:10353000002654E0207810B94FF0010A50E02078BE
:10354000282803D116B9781CC7B213E0207829289F
:1035500008D13EB917B1781EC7B201E04FF0010A99
:1035600047B93DE02078222804D10EB9012000E0BF
:103570000020064647B9207820282FD0207889F8E7
:10358000000009F1010929E020782C2804D101204C
:103590000290681CC5B214E02078202811D0207851
:1035A00028280ED04DB9BBF1050F06DA20780DF8AA
:1035B0000B000BF1010000F0FF0B0298401CC0B2A1
:1035C0000290012F0AD10298022807D10298401CCC
:1035D000C0B202900398401CC0B20390641CA9E7DB
:1035E00000BF0398012809D100200DF80B0008A1A5
:1035F000684600F0CFF908B90020039007990398B6
:103600000870002089F80000504609B0BDE8F08F2E
:10361000766F6964000000002DE9F043B5B00546FF
:103620000F460024002604E000213D488155701C0F
:10363000C6B20A2EF8DB06E06D1C287818B9012006
:1036400035B0BDE8F08328782828F5D16D1C61E0FD
:1036500034AA69462846FFF77FFE064635449DF8A2
:10366000D00020B1012827D0FF284CD149E09DF897
:10367000000000B333A9684600F027F906460EB1F2
:103680000220DDE7204600F04DF825490A31339A43
:103690000A50A1F12400008B0121A1408843204958
:1036A0001A39088304211E480155601CC4B20A2C33
:1036B00001DD0320C4E726E0684600F087F9401CDE
:1036C00000F0FF08204600F02DF815490A3100EB04
:1036D00001094946684600F06EF911481A38018B15
:1036E0000120A040014388B20D491A3908830C48D3
:1036F00000F80480601CC4B20A2C01DD03209FE79F
:1037000001E002209CE700BF2878292801D0287812
:1037100000B900E09CE700BF3C70002090E700008B
:103720008A00002002460020002105E0044B5B5C7B
:103730000344D8B24B1CD9B29142F7DB704700006A
:103740008A00002010B501210D48FDF752FC012828
:1037500008D10C48D0F8F0004FF6FF710844094931
:10376000C1F8F0000648FDF741FC0649D1F8F01019
:1037700008440449C1F8F0000846D0F8F00010BD34
:10378000000800407000002010B5044604EBC4009F
:1037900000EB04100122C2EB800081B24FF47A707A
:1037A000FDF790FC01200149C87510BD7000002094
:1037B00010B50246012000E050430B1EA1F10104A8
:1037C000E1B2F9D110BD000010B501210848FDF7A4
:1037D000FBFB4FF6FF710648FDF72EFC0021044865
:1037E000FDF72CFC00200349C1F8F00010BD0000DB
:1037F000000800407000002070B51D48008800F4EB
:103800000040002833D01A4805780020194948554F
:10381000194881681748884704461CB91649C86882
:10382000804721E0134800F0DDF80546012D00D067
:103830002C46CCB1012C06D0022C08D0032C0AD087
:10384000042C10D10BE00DA0FDF7D6FD0BE00EA06F
:10385000FDF7D2FD07E00FA0FDF7CEFD03E010A0BD
:10386000FDF7CAFD00BF00BF00200149088070BD00
:103870006C0100200802002070000020BAAFCAFDD1
:10388000B4EDCEF3210D0A00B2CECAFDB4EDCEF3F5
:10389000210D0A00B2CECAFDCCABB6E0210D0A0064
:1038A000CEB4D5D2B5BDC6A5C5E4B5C4BAAFCAFDC0
:1038B000210D0A000146491C00E0491C0878202817
:1038C00001D10029F9D1087870472DE9F043074666
:1038D0000E4600254FF00A083C46002030601FE0ED
:1038E0002078392802DC207830280ADA2078462827
:1038F00002DC2078412804DA2078582809D1012DEB
:1039000007D12078412801DB4FF01008681CC5B2B0
:1039100005E0207800B904E00120BDE8F083641CD4
:10392000DEE700BF3C46B8F1100F0FD1032D01DADE
:103930000220F2E72078302806D16078582803D199
:10394000A41CA81EC5B204E00320E6E70DB90420BC
:10395000E3E71BE00DB1681EC5B22078392806DC0C
:103960002078302803DB2078A0F1300902E02078AD
:10397000A0F1370929464046FFF71AFF316809FBD5
:1039800000103060641C207800B900E0E2E700BF5E
:103990000020C2E702460AE010780B78984201D076
:1039A00001207047107800B902E0521C491CF3E76F
:1039B00000BF0020F5E706E002780A70027802B93D
:1039C00002E0401C491CF7E700BF70470146002099
:1039D00005E00A7802B903E0421CD0B2491CF8E7BE
:1039E00000BF704710B58CB004461E230BAA03A974
:1039F0002046FFF715FD0090009810B101200CB093
:103A000010BD9DF82C00044400200B900EE04048AF
:103A10009DF82C2050F8221003A8FFF7BBFF00B937
:103A200008E09DF82C00401CC0B20B909DF82C00C3
:103A30000728ECD300BF9DF82C00072863D2DFE8ED
:103A400000F004053C5E6564630000BF31A0FDF733
:103A5000D3FC31A0FDF7D0FC3FA0FDF7CDFC4EA07C
:103A6000FDF7CAFC5CA0FDF7C7FC6BA0FDF7C4FC2A
:103A700079A0FDF7C1FC86A0FDF7BEFC8BA0FDF789
:103A8000BBFC90A0FDF7B8FC94A0FDF7B5FC99A095
:103A9000FDF7B2FC9EA0FDF7AFFCA4A0FDF7ACFCC7
:103AA000B0A0FDF7A9FCBDA0FDF7A6FCC8A0FDF7DE
:103AB000A3FCD4A0FDF7A0FC9AE216A0FDF79CFCA5
:103AC000E0A0FDF799FC00200B900EE0ED480068A7
:103AD0009DF82C2000EBC2004168EBA0FDF78CFCA8
:103AE0009DF82C00401CC0B20B90E648007D9DF86C
:103AF0002C108842EADC07A0FDF77EFC78E205A0E6
:103B0000FDF77AFCC4E171E245E219E2ECE1000064
:103B1000240000200D0A00002D2D2D2D2D2D2D2DE2
:103B20002D2D2D2D2D2D2D2D2D2D2D2D2D2D2D2DC5
:103B300055534D4152542056332E312D2D2D2D2DC0
:103B40002D2D2D2D2D2D2D2D2D2D2D2D2D2D2D2DA5
:103B50002D2D2D200D0A00002020202055534D41F1
:103B60005254CAC7D3C9414C49454E54454BBFAACC
:103B7000B7A2B5C4D2BBB8F6C1E9C7C9B5C4B4AE23
:103B8000BFDAB5F7CAD4BBA5BDBBD7E9BCFE2CCD07
:103B9000A8B9FD200D0A0000CBFC2CC4E3BFC9D29C
:103BA000D4CDA8B9FDB4AEBFDAD6FACAD6B5F7D32C
:103BB000C3B3CCD0F2C0EFC3E6B5C4C8CEBACEBA58
:103BC000AFCAFD2CB2A2D6B4D0D02ED2F2B4CB2C38
:103BD000C4E3BFC90D0A0000D2D4CBE6D2E2B8FCE0
:103BE000B8C4BAAFCAFDB5C4CAE4C8EBB2CECAFD08
:103BF00028D6A7B3D6CAFDD7D62831302F3136BD47
:103C0000F8D6C629A1A2D7D6B7FBB4AEA1A2BAAF47
:103C1000CAFDC8EB0D0A0000BFDAB5D8D6B7B5C8E3
:103C2000D7F7CEAAB2CECAFD292CB5A5B8F6BAAF41
:103C3000CAFDD7EEB6E0D6A7B3D63130B8F6CAE49F
:103C4000C8EBB2CECAFD2CB2A2D6A7B3D6BAAFCAC1
:103C5000FDB7B5200D0A0000BBD8D6B5CFD4CABE7B
:103C60002ED0C2D4F6B2CECAFDCFD4CABEBDF8D6CD
:103C7000C6C9E8D6C3B9A6C4DC2CD0C2D4F6BDF8F8
:103C8000D6C6D7AABBBBB9A6C4DC2E0D0A0000005D
:103C9000BCBCCAF5D6A7B3D63A7777772E6F7065D6
:103CA0006E6564762E636F6D0D0A000055534D41AD
:103CB0005254D3D037B8F6CFB5CDB3C3FCC1EE3A2A
:103CC0000D0A00003F3A202020202020BBF1C8A18F
:103CD000B0EFD6FAD0C5CFA20D0A000068656C70AF
:103CE0003A202020BBF1C8A1B0EFD6FAD0C5CFA2B0
:103CF0000D0A00006C6973743A202020BFC9D3C339
:103D0000B5C4BAAFCAFDC1D0B1ED0D0A0A000000BA
:103D100069643A2020202020BFC9D3C3BAAFCAFDAE
:103D2000B5C44944C1D0B1ED0D0A0A006865783ABE
:103D300020202020B2CECAFD3136BDF8D6C6CFD461
:103D4000CABE2CBAF3B8FABFD5B8F12BCAFDD7D684
:103D5000BCB4D6B4D0D0BDF8D6C6D7AABBBB0D0A6A
:103D60000A0000006465633A20202020B2CECAFD1C
:103D70003130BDF8D6C6CFD4CABE2CBAF3B8FABF1C
:103D8000D5B8F12BCAFDD7D6BCB4D6B4D0D0BDF8C7
:103D9000D6C6D7AABBBB0D0A0A00000072756E74A6
:103DA000696D653A312CBFAAC6F4BAAFCAFDD4CB4F
:103DB000D0D0BCC6CAB13B302CB9D8B1D5BAAFCA85
:103DC000FDD4CBD0D0BCC6CAB13B0D0A0A0000005E
:103DD000C7EBB0B4D5D5B3CCD0F2B1E0D0B4B8F124
:103DE000CABDCAE4C8EBBAAFCAFDC3FBBCB0B2CE11
:103DF000CAFDB2A2D2D4BBD8B3B5BCFCBDE1CAF8EF
:103E00002E0D0A002D2D2D2D2D2D2D2D2D2D2D2D51
:103E10002D2D2D2D2D2D2D2D2D2D2D2D2D2D414C9F
:103E200049454E54454B2D2D2D2D2D2D2D2D2D2D10
:103E30002D2D2D2D2D2D2D2D2D2D2D2D2D2D2D20BF
:103E40000D0A00002D2D2D2D2D2D2D2D2D2D2D2D3F
:103E50002D2D2D2D2D2D2D2D2D2D2D2D2DBAAFCAE6
:103E6000FDC7E5B5A52D2D2D2D2D2D2D2D2D2D2D60
:103E70002D2D2D2D2D2D2D2D2D2D2D2D2D2D2D2D72
:103E8000200D0A007000002025730D0A00000000BC
:103E900059A0FDF7B1FA00200B901AE066490968B5
:103EA0009DF82C2001EBC20101AB02AA486803A9CE
:103EB000FFF7D2FA604800689DF82C1050F83120C6
:103EC00003A95EA0FDF798FA9DF82C00401CC0B233
:103ED0000B905948007D9DF82C108842DEDCAFF233
:103EE000CC30FDF789FA83E0AFF2D830FDF784FAE1
:103EF0000BAA03A92046FFF72FFA9DF82C00C8B99A
:103F0000694603A8FFF7E1FC0B909DF82C0020B94F
:103F10004FA00099FDF770FA0EE09DF82C000428E0
:103F200001D002206BE54DA0FDF766FA0120424961
:103F3000C87501E0022062E547A0FDF75DFA57E091
:103F400045A0FDF759FA0BAA03A92046FFF704FA8A
:103F50009DF82C00C8B9694603A8FFF7B6FC0B9082
:103F60009DF82C0020B942A00099FDF745FA0EE01B
:103F70009DF82C00042801D0022040E53FA0FDF769
:103F80003BFA00202C49C87501E0022037E532A039
:103F9000FDF732FA2CE030A0FDF72EFA0BAA03A9A8
:103FA0002046FFF7D9F99DF82C00C8B9694603A847
:103FB000FFF78BFC0B909DF82C0078B91E490098F8
:103FC00081F8EC00084690F8EC0018B130A0FDF73D
:103FD00013FA07E035A0FDF70FFA03E002200EE523
:103FE00002200CE51CA0FDF707FA01E0012006E520
:103FF00000BF002003E500002D2D2D2D2D2D2D2D92
:104000002D2D2D2D2D2D2D2D2D2D2D2D2D2D2D2DE0
:104010002DBAAFCAFD204944202D2D2D2D2D2D2D3B
:104020002D2D2D2D2D2D2D2D2D2D2D2D2D2D2D2DC0
:104030002D2D2D2D200D0A007000002025732069E4
:10404000642069733A0D0A3058253038580D0A003B
:104050004845583A305825580D0A00003136BDF809
:10406000D6C6B2CECAFDCFD4CABE210D0A0000000A
:104070004445433A256C750D0A0000003130BDF807
:10408000D6C6B2CECAFDCFD4CABE210D0A000000EA
:1040900052756E2054696D652043616C63756C6167
:1040A00074696F6E204F4E0D0A00000052756E202D
:1040B00054696D652043616C63756C6174696F6EE2
:1040C000204F46460D0A000001460A69D1E9013039
:1040D0009860D1E9010358605068884201D188682E
:1040E0005060002008611068401E10601068704722
:1040F0002DE9F0410546884616460024102700F0B9
:10410000DBFD2248006880453AD300BF7F1E07EBE5
:1041100087021F4B03EB820104EBC40205EB820014
:104120000122FEF70FFB0444002FEFD104EBC40182
:1041300005EB8100022217490968FEF703FB0444DE
:1041400004EBC40105EB8100022213490968FEF764
:10415000F9FA044404EBC40105EB810004220F4981
:10416000FEF7F0FA044404EBC40105EB81000322DE
:104170000B49FEF7E7FA044416B10A4800683060BC
:1041800001F040FE2046BDE8F081000080010020E3
:104190001003002074010020780100208C0400200E
:1041A000A00400201C00002000F1080141604FF035
:1041B000FF31816000F10801C160016100210160EF
:1041C000704700210161704710B502460B685C1C06
:1041D0000CB9106907E002F1080000E0406844688B
:1041E00024689C42FAD944684C604C68A16088609D
:1041F00041600A611468641C146010BD42684A6022
:1042000093688B60936859609160086103685B1CD8
:104210000360704710B500BF502080F31188BFF3D2
:104220004F8FBFF36F8F00BF0B480068401C0A49D7
:1042300008600846006801280DD108480068C0B22F
:1042400008B9012000E0002028B940F2A71204A11B
:104250000EA0FDF7D1F810BDE801002004ED00E04C
:104260002E2E5C4672656552544F535C706F7274AB
:1042700061626C655C525644535C41524D5F434DE4
:1042800034465C706F72742E630000004572726F6A
:10429000723A25732C25640D0A00000010B50B48F6
:1042A000006828B94FF4D77209A114A0FDF7A4F84B
:1042B00006480068401E054908600846006820B9A5
:1042C000002080F3118800BF00BF10BDE80100206E
:1042D0002E2E5C4672656552544F535C706F72743B
:1042E00061626C655C525644535C41524D5F434D74
:1042F00034465C706F72742E630000004572726FFA
:10430000723A25732C25640D0A00000070B506462C
:104310003546002E3AD0083D2C461D496068096894
:10432000084008B1012000E0002028B940F219122D
:1043300018A122A0FDF760F8206808B9012000E06C
:10434000002028B94FF48D7212A11CA0FDF754F87B
:104350000F49606809680840C0B12068B0B90C49CD
:10436000606809688843606000F0A6FC17496068CF
:1043700009680844154908602046FEF767F91448A3
:104380000068401C1249086001F03CFD70BD00004F
:10439000E40100202E2E5C4672656552544F535C3A
:1043A000706F727461626C655C4D656D4D616E67B6
:1043B0005C686561705F342E630000004572726F47
:1043C000723A25732C25640D0A000000D4010020E8
:1043D000E001002000204FF0E021086188610248E0
:1043E00048610720086170473F90020070B5FBF7F5
:1043F00031FF0546102D11D305F1E02090F8F04370
:1044000010480078844201DB012000E0002028B938
:1044100040F2FF220CA117A0FCF7EEFF194800683C
:1044200000F4E06018490968884201D8012000E0E2
:10443000002028B940F20F3203A10EA0FCF7DCFFE8
:1044400070BD0000EC0100202E2E5C4672656552A6
:10445000544F535C706F727461626C655C52564469
:10446000535C41524D5F434D34465C706F72742E05
:10447000630000004572726F723A25732C25640D3B
:104480000A0000000CED00E0F001002002460020D0
:104490000BE0084B53F8303033B9064B43F830107B
:1044A00003EBC0035A6002E0401C0828F1D300BFB0
:1044B00070470000D00200202DE9F04105460E466D
:1044C00017462C46FFF7A6FE94F94400401C10B98D
:1044D000002084F8440094F94500401C10B90020E5
:1044E00084F84500FFF7DAFEA06B28B93A4631465A
:1044F00004F1240000F0DEFA2046FEF7B0FBBDE830
:10450000F081000000B585B044F6206001900A48B3
:1045100002900820009032208DF80E0005208DF8C2
:104520000F0000208DF810000120ADF80C00684647
:10453000FDF7A6FC05B000BD000C004070B50446B8
:104540000025ACB10F48006808B9012000E0002048
:1045500028B940F244520CA110A0FCF74DFF00F026
:10456000ABFB00212046FDF7B1FD01F04BFC0546F9
:104570003DB94FF080500D490860BFF34F8FBFF336
:104580006F8F70BDA80100202E2E5C4672656552AB
:10459000544F535C7461736B732E63004572726F7A
:1045A000723A25732C25640D0A00000004ED00E02A
:1045B00070B50546FFF72EFE15B92D48006800E0DE
:1045C00028460446201DFFF77FFD78B9E06A00EB1E
:1045D0008000284951F8200040B994F82C1001209F
:1045E000884025490968814323480160A06A18B1C1
:1045F00004F11800FFF768FD20480068401C1F49BF
:1046000008601B480068844209D1211D1C48FFF73F
:10461000F5FD1C480068401C1A49086009E01A486A
:104620000068401E184908602046FDF7A1FEFEF70D
:1046300035FAFFF733FE15480068C0B10C48006832
:10464000844214D11248006808B9012000E000201B
:1046500028B940F2DA420FA113A0FCF7CDFE4FF0CB
:10466000805015490860BFF34F8FBFF36F8F70BD47
:104670007001002010030020880100209C01002010
:104680008C0400207C010020800100208C0100208F
:10469000A80100202E2E5C4672656552544F535C73
:1046A0007461736B732E63004572726F723A257377
:1046B0002C25640D0A00000004ED00E02DE9F04116
:1046C00007460C4690461E4617B91C48006800E095
:1046D00038460546256005F134006060E86A2061CF
:1046E000286BE061686CA060E86C6061686DA06137
:1046F000052E12D011480068854202D10020207397
:104700000FE02673032E0CD100F0D6FAA86A08B188
:104710000220207301F076FB03E02846FDF752FCEF
:104720002073B8F1000F04D0286BFEF747FA2084FD
:1047300001E000202084BDE8F0810000700100202D
:10474000FEB040E04FF0FF311F48006801F01AF85A
:104750001420FFF7F3FE0020FCF726FA01282AD1E7
:1047600001F078F90446002003462246012100901A
:104770001648006801F02CFC15A0FCF78BF821A06E
:10478000FCF788F801A800F0F7F801A929A0FCF7C8
:1047900081F82AA0FCF77EF801A800F077F801A9BB
:1047A00024A0FCF777F800F0B1FB044621462EA0C8
:1047B000FCF770F800E000BF00BF3348006840F429
:1047C000004031490860BDE71000002014000020BF
:1047D0003D3D3D3D3D3D3D3D3D3D3D3D3D3D3D3D09
:1047E0003D3D3D3D3D3D3D3D3D3D3D3D3D3D3D3DF9
:1047F0003D3D3D3D3D3D3D3D3D3D3D3D3D3D3D3DE9
:104800003D0D0A00C8CECEF1C3FB20202020202081
:10481000C8CECEF1D7B4CCAC20D3C5CFC8BCB6205F
:104820002020CAA3D3E0D5BB20C8CECEF1D0F2BAA7
:10483000C50D0A0025730D0A000000000D0AC8CE40
:10484000CEF1C3FB20202020202020D4CBD0D0BC10
:10485000C6CAFD202020202020202020CAB9D3C392
:10486000C2CA0D0A00000000B5B1C7B0B6AFCCACEB
:10487000C4DAB4E6CAA3D3E0B4F3D0A1203D202526
:1048800064D7D6BDDA0D0A00003C01402DE9F8439B
:104890000646002030702748D0F80080014609689D
:1048A00001EBC1018800FEF737FA0546002D3FD025
:1048B0006A4641462846FFF71BFC80466421009863
:1048C000B0FBF1F00090009800282ED000242AE0E0
:1048D00004EBC40005EB800080690099B0FBF1F7A0
:1048E00004EBC40005EB800041683046FEF7FFF999
:1048F000064657B104EBC40005EB80003B460EA111
:1049000082693046FCF788FD08E004EBC40005EB43
:1049100080000CA182693046FCF77EFD3046FBF733
:10492000D3FC0644641C4445D2D32846FFF7EEFC72
:10493000BDE8F88380010020092575090925752542
:10494000250D0A0009257509093C3125250D0A00A8
:104950000349096801600349096841607047000024
:10496000980100208401002005E0FDF777FA4FF45C
:10497000FA70FFF7E3FDF8E72DE9FC410646002059
:1049800030702F4807680146096801EBC1018800B3
:10499000FEF7C2F90546002D50D0002239462846C0
:1049A000FFF7A6FB0746002443E004EBC40005EB39
:1049B0008000007B062813D2DFE800F00306090C14
:1049C0000F134FF058080FE04FF052080CE04FF073
:1049D000420809E04FF0530806E04FF0440803E0B6
:1049E00000BF4FF0000800BF00BF04EBC40005EBA0
:1049F000800041683046FEF77AF9064604EBC400B1
:104A000005EB8000806804EBC40105EB8101098C93
:104A1000CDE9001004EBC40005EB8000424609A17B
:104A200003693046FCF7F8FC3046FBF74DFC0644C2
:104A3000641CBC42B9D32846FFF768FCBDE8FC8182
:104A4000800100200925630925750925750925754B
:104A50000D0A000001200149086070479401002000
:104A600070B504460D462CB940F6FA3207A10CA0E9
:104A7000FCF7C2FC0E48016818312046FFF7A4FB82
:104A800001212846FDF722FB70BD00002E2E5C465A
:104A900072656552544F535C7461736B732E63007F
:104AA0004572726F723A25732C25640D0A0000005E
:104AB0007001002070B505460E4614462DB940F62B
:104AC000254209A10DA0FCF797FC10480168183198
:104AD0002846FFF793FB0CB14FF0FF3621463046D6
:104AE000FDF7F4FA70BD00002E2E5C46726565522B
:104AF000544F535C7461736B732E63004572726F15
:104B0000723A25732C25640D0A0000007001002004
:104B10002DE9F04706460F4634464FF00109002EB6
:104B200056D0206D28B941F262022AA12EA0FCF7CE
:104B300063FCE06CB84201D23D4600E0E56CE06AFF
:104B4000A84245D0206D012842D12B4800688442FC
:104B500001D0012000E0002028B941F27D021DA112
:104B600021A0FCF749FCD4F82C80E562A06900F094
:104B7000004010B9C5F11000A06108EB88011F4A80
:104B800002EB81016069884201D1012000E0002030
:104B9000F0B1201DFFF798FA40B994F82C100120CD
:104BA00088401749096881431548016094F82C1022
:104BB0000120884012490968084311490860E16AE8
:104BC00001EB81010D4A02EB8100211DFFF716FB6D
:104BD000BDE8F0872E2E5C4672656552544F535CDB
:104BE0007461736B732E63004572726F723A257332
:104BF0002C25640D0A000000700100201003002025
:104C0000880100201CB51B4800210B468222CDE9FB
:104C1000001019A11A4800F0DDFE0446012C02D153
:104C200001F09CF90446012C17D100BF502080F3FD
:104C30001188BFF34F8FBFF36F8F00BF4FF0FF306E
:104C40001049086001201049086000200F490860E1
:104C50000F49086000F060F90BE0601C08B101200A
:104C600000E0002028B940F62A020AA10EA0FCF7B5
:104C7000C3FB1CBDA401002049444C4500000000BA
:104C80003D240008A00100208C01002084010020A8
:104C90001C0000202E2E5C4672656552544F535CFA
:104CA0007461736B732E63004572726F723A257371
:104CB0002C25640D0A00000002480068401C0149D0
:104CC00008607047A801002010B52848006818B196
:104CD00001202749086047E0002025490860254851
:104CE0000068254908600846006824490968884228
:104CF0000BD92349096801F15400496D1E4A126815
:104D00001E4B1B68D21A114401601B4800681B49E6
:104D100008601C480068B0FA80F0C0F11F0404EB82
:104D20008400194951F8200008B1012000E000205A
:104D300028B940F6E13215A119A0FCF75DFB04EBA0
:104D40008401114A02EB810041684968416000F129
:104D5000080142688A4202D141684968416041685D
:104D6000C968074A116000BF10BD0000A8010020FB
:104D7000940100201C000020B0010020AC010020A4
:104D80007001002088010020100300202E2E5C46B8
:104D900072656552544F535C7461736B732E63007C
:104DA0004572726F723A25732C25640D0A0000005B
:104DB0007CB50546FFF72EFA012000F095F9294948
:104DC000086003220021012000F0A0F926490860B4
:104DD00026480123002241F28831009024A001F0EE
:104DE000A1F8264908602148022301224FF47A7174
:104DF000009023A001F096F82449086000F02AFEF4
:104E00000446002003462246012100901B4800680A
:104E100001F0DEF800F01EFE0446002003462246A4
:104E2000012100901948006801F0D2F818480521C6
:104E300000234022CDE9001016A1194800F0CAFD58
:104E40001848042100238A01CDE9001016A1194851
:104E500000F0C0FD18480068FFF7AAFBFFF71EFA34
:104E60007CBD00000C000020100000202111000873
:104E700074696D65726F6E6C79000000140000201B
:104E800074696D657272657065000000180000201D
:104E900004000020765461736B4C45440000000010
:104EA0006949000808000020765461736B476574F7
:104EB0004B657900414700080000002070B50446AA
:104EC0000D4626462CB940F20E4205A10AA0FCF779
:104ED00093FAFFF79FF9F561FFF7E0F970BD000065
:104EE0002E2E5C4672656552544F535C74696D6535
:104EF00072732E63000000004572726F723A257360
:104F00002C25640D0A00000001607047014800680C
:104F100070470000D40100201CB55048006850497B
:104F2000884201D0012000E0002028B940F235126B
:104F30004CA157A0FCF760FA484800684849491E50
:104F4000884201D0012000E0002028B94FF49B7274
:104F500044A14FA0FCF750FA514C20460078019034
:104F6000FF20214608700846007800909DF8000058
:104F700000F0F0009DF80010884201D1012000E00F
:104F8000002028B940F24F1236A141A0FCF734FAB4
:104F90009DF8000000F05000424908700720424987
:104FA000086009E040480068401E3F4908609DF8DD
:104FB00000004006000E00909DF8000000F0800008
:104FC0008028EFD038480068C0F10700042801D1DC
:104FD000012000E0002028B94FF4B17221A12CA0DB
:104FE000FCF70AFA30480068C0F10700042801D134
:104FF000012000E0002028B940F26B1219A124A082
:10500000FCF7FAF9284800680002274908600846BA
:10501000008800F4E06008602149019808700F489A
:105020002030006840F470000C49203108600846C8
:10503000006840F070400860FFF7CCF900201B4981
:105040000860FBF7CFF81A48006840F04040184964
:105050000860FBF7B3F800201CBD000000ED00E085
:1050600071C20F412E2E5C4672656552544F535CDF
:10507000706F727461626C655C525644535C41524D
:105080004D5F434D34465C706F72742E63000000B8
:105090004572726F723A25732C25640D0A00000068
:1050A00000E400E0EC010020F0010020E801002015
:1050B00034EF00E010B500BF502080F31188BFF33B
:1050C0004F8FBFF36F8F00BF00F0CAFC18B14FF0D5
:1050D00080500449086000BF002080F3118800BFA1
:1050E00010BD000004ED00E02DE9F041044601266A
:1050F000002722460021012000F008F80546284636
:10510000FDF7A0F92846BDE8F08100002DE9F8433D
:1051100005460E4617460DB1012000E0002028B9D3
:105120004FF4BB720CA111A0FCF766F905FB06F960
:1051300009F15400FDF7F0FD04464CB1A04608F11A
:1051400054083B464246314628460094FDF789F90B
:105150002046BDE8F88300002E2E5C46726565523D
:10516000544F535C71756575652E63004572726F9F
:10517000723A25732C25640D0A00000070B50546AF
:105180000E462C462CB940F203121EA122A0FCF7B9
:1051900033F9FFF73FF8D4E90F12206801FB020052
:1051A000A0600020A06320686060E06B401E226C5D
:1051B000216800FB0211E160FF2084F8440084F8BC
:1051C00045009EB9206908B9012000E00020A8B977
:1051D00004F1100000F0BCFD80B14FF08050124986
:1051E0000860BFF34F8FBFF36F8F07E004F110002B
:1051F000FEF7DAFF04F12400FEF7D6FFFFF74EF8C2
:10520000012070BD2E2E5C4672656552544F535C72
:1052100071756575652E63004572726F723A2573FC
:105220002C25640D0A00000004ED00E02DE9FF4785
:1052300082B0064688461D464FF0000934462CB918
:1052400040F2EA2264A169A0FCF7D6F8B8F1000F99
:1052500001D1206C08B9012000E0002028B940F2FB
:10526000EB225DA161A0FCF7C7F8022D02D1E06B33
:10527000012801D1012000E0002028B94FF43B7241
:1052800055A15AA0FCF7B8F800F0D4FB08B904986F
:1052900008B9012000E0002028B940F2EF224EA119
:1052A00052A0FCF7A9F800BFFEF7B4FFA06BE16BBA
:1052B000884201D3022D3ED1D4F838A02A46414677
:1052C0002046FDF716F80746A06C88B1022D02D1E2
:1052D000BAF1000F29D12046FDF76AFA28B34FF042
:1052E000805046490860BFF34F8FBFF36F8F1CE0BB
:1052F000606A08B9012000E0002068B904F12400C8
:1053000000F026FD88B14FF080503C490860BFF3A3
:105310004F8FBFF36F8F08E03FB14FF08050374998
:105320000860BFF34F8FBFF36F8FFEF7B7FF012009
:1053300006B0BDE8F087049818B9FEF7AFFF00206B
:10534000F6E7B9F1000F04D16846FFF701FB4FF013
:105350000109FEF7A3FFFFF7AFFCFEF75BFF94F92F
:105360004400401C10B9002084F8440094F9450022
:10537000401C10B9002084F84500FEF78FFF04A9F7
:10538000684600F0D9FAF8B92046FDF7CCF9A8B183
:1053900004F110000499FFF763FB2046FDF75FFC62
:1053A00000F030FD00287FF47FAF4FF080501349AC
:1053B0000860BFF34F8FBFF36F8F75E72046FDF78F
:1053C0004EFC00F01FFD6FE72046FDF748FC00F0A3
:1053D00019FD0020ACE700002E2E5C467265655278
:1053E000544F535C71756575652E63004572726F1D
:1053F000723A25732C25640D0A00000004ED00E0CC
:105400002DE9F84F80468A4615461E4644462CB97B
:105410004FF46F7237A13CA0FBF7EEFFBAF1000F1B
:1054200001D1206C08B9012000E0002028B940F229
:10543000BD3230A134A0FBF7DFFF022E02D1E06BBA
:10544000012801D1012000E0002028B940F2BE323D
:1054500028A12DA0FBF7D0FFFEF7C8FF00BF502109
:10546000EFF3118081F31188BFF34F8FBFF36F8F7C
:1054700000BF0746A06BE16B884201D3022E30D1FA
:1054800094F945B0A06B0090324651462046FCF797
:1054900030FF0BF10100E0B9A06C58B1022E01D130
:1054A0000098D8B92046FDF783F9B8B1B5B101200D
:1054B000286013E0606A08B9012000E0002068B9A4
:1054C00004F1240000F044FC40B13DB1012028600B
:1054D00004E00BF1010040B284F845004FF00109EF
:1054E00001E04FF0000900BF87F3118800BF484674
:1054F000BDE8F88F2E2E5C4672656552544F535CA2
:1055000071756575652E63004572726F723A257309
:105510002C25640D0A0000002DE9F04707460D46D2
:105520003C462CB940F2644231A136A0FBF764FF3F
:10553000206C08B9012000E0002028B94FF48D62EA
:105540002BA130A0FBF758FF206808B9A06808B964
:10555000012000E0002028B940F26D4224A129A0DA
:10556000FBF74AFFFEF742FF00BF5021EFF3118027
:1055700081F31188BFF34F8FBFF36F8F00BF0646D3
:10558000D4F83890E06B484528D994F945A009F142
:105590000100A0630AF10100C0B9A06C38B1204637
:1055A000FDF706F9B8B1B5B10120286013E0606AD3
:1055B00008B9012000E0002068B904F1240000F0DF
:1055C000C7FB40B13DB10120286004E00AF10100B1
:1055D00040B284F845004FF0010801E04FF00008A8
:1055E00000BF86F3118800BF4046BDE8F087000089
:1055F0002E2E5C4672656552544F535C717565750D
:10560000652E63004572726F723A25732C25640D06
:105610000A0000002DE9F74183B005460E464FF021
:1056200000082C462CB940F204524CA150A0FBF7C4
:10563000E3FE0EB9206C08B9012000E0002028B973
:105640004FF4A16245A14AA0FBF7D6FE00F0F2F9A3
:1056500008B9059808B9012000E0002028B940F2F7
:105660000D523EA142A0FBF7C7FE00BFFEF7D2FDE0
:10567000A76BF7B131462046FCF726FE781EA063E3
:10568000206908B9012000E0002060B904F1100091
:1056900000F05EFB38B14FF0805039490860BFF32D
:1056A0004F8FBFF36F8FFEF7F9FD012006B0BDE805
:1056B000F081059818B9FEF7F1FD0020F6E7B8F182
:1056C000000F04D101A8FFF743F94FF00108FEF7DE
:1056D000E5FDFFF7F1FAFEF79DFD94F94400401C4B
:1056E00010B9002084F8440094F94500401C10B91A
:1056F000002084F84500FEF7D1FD05A901A800F0BF
:105700001BF9F0B92046FDF701F8A0B104F124001F
:105710000599FFF7A5F92046FDF7A1FA00F072FB05
:105720000028A3D14FF0805015490860BFF34F8F78
:10573000BFF36F8F9AE72046FDF791FA00F062FB06
:1057400094E72046FDF78BFA00F05CFB2046FCF75F
:10575000DDFF00288AD00020A8E700002E2E5C463E
:1057600072656552544F535C71756575652E6300A3
:105770004572726F723A25732C25640D0A00000081
:1057800004ED00E02DE9F34182B005464FF000083A
:105790002C4600262CB940F295525DA161A0FBF782
:1057A0002BFE206C08B9012000E0002028B940F24F
:1057B000995257A15BA0FBF71FFE00F03BF908B917
:1057C000039808B9012000E0002028B940F29E5259
:1057D0004FA154A0FBF710FE00BFFEF71BFDA76B07
:1057E000FFB1781EA063206810B9FDF745FBA060EB
:1057F000206908B9012000E0002060B904F1100020
:1058000000F0A6FA38B14FF080504A490860BFF363
:105810004F8FBFF36F8FFEF741FD012004B0BDE84D
:10582000F081039870B90EB9012000E0002028B97A
:1058300040F2E55236A13BA0FBF7DEFDFEF72EFD60
:105840000020EBE7B8F1000F04D16846FFF780F8BD
:105850004FF00108FEF722FDFFF72EFAFEF7DAFC03
:1058600094F94400401C10B9002084F8440094F9D5
:105870004500401C10B9002084F84500FEF70EFDDD
:1058800003A9684600F058F840BB2046FCF73EFFED
:10589000F0B1206838B9FEF7BDFCA06800F0FCF953
:1058A0000646FEF7FBFC04F124000399FFF7D8F845
:1058B0002046FDF7D4F900F0A5FA00288DD14FF06D
:1058C00080501C490860BFF34F8FBFF36F8F84E790
:1058D0002046FDF7C4F900F095FA7EE72046FDF773
:1058E000BEF900F08FFA2046FCF710FF0028EED03A
:1058F0005EB1FEF78FFC2046FCF743FD07463946B4
:10590000A068FFF705F9FEF7C9FC002086E7000054
:105910002E2E5C4672656552544F535C71756575E9
:10592000652E63004572726F723A25732C25640DE3
:105930000A00000004ED00E070B505460C462DB9E4
:1059400040F6CE4218A11DA0FBF756FD2CB940F63B
:10595000CF4215A119A0FBF74FFDFEF75BFC1B48DA
:1059600002686868131A2068401C08B9002617E00E
:10597000174928680968884204D06868904201D8AD
:1059800001260DE02068984207D92068C01A2060DF
:105990002846FEF7DDFF002602E0002020600126F9
:1059A000FEF77CFC304670BD2E2E5C46726565525B
:1059B000544F535C7461736B732E63004572726F46
:1059C000723A25732C25640D0A0000008401002022
:1059D000980100202DE9FF4F85B080468946174683
:1059E000DDE912ABB800FDF797F9064656B1602025
:1059F000FDF792F904460CB1266304E03046FEF749
:105A000085FC00E000247CB10020CDE900ABCDE9AD
:105A100002403A4649464046089BFCF739FD20467D
:105A2000FCF7A0FB012501E04FF0FF35284609B047
:105A3000BDE8F08F0549096809B9012005E004496E
:105A4000096809B9022000E0002070478C0100209D
:105A5000A801002001490868704700008401002067
:105A60002DE9F0414FF0000841480068002877D147
:105A700040480068451C3F480560EDB93E48006855
:105A8000006808B9012000E0002028B940F6A922EA
:105A90003AA13FA0FBF7B0FC3748076840480068D0
:105AA000354908603E4807603E480068401C3D4953
:105AB0000860FCF7F3FF00BF3B48006885423CD319
:105AC00000BF2D480068006808B9012000E00020F0
:105AD00020B14FF0FF30344908602DE026480068BF
