:020000040800F2
:10000000280B002011020008950900089903000838
:1000100091090008AB030008A30F000800000000CE
:10002000000000000000000000000000550A000869
:10003000AF03000800000000110A00086D0B000863
:100040002B0200082B0200082B0200082B020008DC
:100050002B0200082B0200082B0200082B020008CC
:100060002B0200082B0200082B0200082B020008BC
:100070002B0200082B0200082B0200082B020008AC
:100080002B0200082B0200082B0200082B0200089C
:100090002B0200082B0200082B0200082B0200088C
:1000A0002B0200082B0200082B0200082B0200087C
:1000B0002B020008D90B00082D0D00082B020008A8
:1000C0002B0200082B0200082B0200082B0200085C
:1000D0002B020008BD0E00082B0200082B020008AE
:1000E0002B0200082B0200082B0200082B0200083C
:1000F0002B0200082B0200082B0200082B0200082C
:100100002B0200082B0200082B0200082B0200081B
:100110002B0200082B0200082B0200082B0200080B
:100120002B0200082B0200082B0200082B020008FB
:100130002B0200082B0200082B0200082B020008EB
:100140002B0200082B0200082B0200082B020008DB
:100150002B0200082B0200082B0200082B020008CB
:100160002B0200082B0200082B0200082B020008BB
:100170002B0200082B0200082B0200082B020008AB
:100180002B0200082B020008DFF80CD000F0C6F8A4
:100190000048004795160008280B00200246D2E8C8
:1001A0004F0F411CC2E8431F03B1F8E770470246F6
:1001B00052E8000F411C42E8001303B1F8E7704712
:1001C000024652E8000F42E8001303B1F9E7704716
:1001D000024652E8000F830103D3BFF32F8F0020A4
:1001E000704700F00040084342E8000303B1F0E725
:1001F0007047024652E8000F800103D2BFF32F8FF1
:100200000020704742E8001303B1F3E70120704774
:100210000648804706480047FEE7FEE7FEE7FEE7A0
:10022000FEE7FEE7FEE7FEE7FEE7FEE7710B0008EC
:100230008901000840EA01039B0703D009E008C9CF
:10024000121F08C0042AFAD203E011F8013B00F89B
:10025000013B521EF9D27047D2B201E000F8012BE7
:10026000491EFBD270470022F6E710B513460A4636
:1002700004461946FFF7F0FF204610BD2DE9F05F58
:100280000546002092469B46884606468146402405
:100290001BE0284641464746224600F02FF85346C9
:1002A0005A46C01A914110D311461846224600F012
:1002B00016F82D1A67EB01084F462246012000214F
:1002C00000F00DF817EB00094E41201EA4F10104C7
:1002D000DFDC484631462A464346BDE8F09F202AE7
:1002E00004DB203A00FA02F1002070479140C2F18D
:1002F000200320FA03F3194390407047202A04DBBF
:10030000203A21FA02F00021704721FA02F3D0408E
:10031000C2F120029140084319467047064C074D30
:1003200006E0E06840F0010394E8070098471034C5
:10033000AC42F6D3FFF72CFFFC2800081C2900086C
:1003400070B58C1810F8015B15F0070301D110F897
:10035000013B2A1106D110F8012B03E010F8016BC4
:1003600001F8016B5B1EF9D12B0705D40023521E47
:100370000DD401F8013BFAE710F8013BCB1A921CAF
:1003800003E013F8015B01F8015B521EF9D5A142AD
:10039000D8D3002070BD00001EF0040F0CBFEFF397
:1003A0000880EFF3098000F099BA00BFFEE77047BC
:1003B0000146074A12780AB9002008E0054AC1F34D
:1003C000C623D25CC1F30223DA4002F00100704779
:1003D000000700208006002070B500BF0C48866929
:1003E00000F00CFA054600BF294609481830FFF70F
:1003F000E7FE044600BFB442F0D1A54206D200BFDA
:1004000003481030FFF7D3FE00BF00BF284670BD81
:10041000000700202DE9F04104460D46164620460F
:10042000FFF7C6FF10B90120BDE8F081FFF7D4FF48
:100430000746A4B200BFEFF3058010B14FF40020CF
:1004400000E00020044344F0407033462A46394619
:1004500000F08EF880464046E6E72DE9FC4704466A
:1004600088461546B8F1000F01D0802D02D9002032
:10047000BDE8FC872046FFF79BFF08B90120F7E79E
:10048000FFF7AAFF8246A4B200BFEFF3058010B1C8
:100490004FF4002000E000200443464645B9002305
:1004A0001A465146204600F063F807463846DFE713
:1004B000082D16D80020009001902A463146684643
:1004C000FFF7B8FE4FF4E02000EA0540044344F093
:1004D00040705146DDE9002300F04AF807463846EF
:1004E000C6E700F0F3F94FF4E02101EA0049306873
:1004F0000090706801900836083D44EA090444F011
:1005000080705146DDE9002300F032F807460FB94C
:100510000020ADE74FF6017049EA000410E03068B2
:100520000090706801900836083D51462046DDE98C
:10053000002300F01DF80746641C0FB9002097E760
:10054000082DECD80020009001902A4631466846DC
:10055000FFF770FE24F47F4444EA052444F0007061
:100560005146DDE9002300F003F8074638467FE7EF
:100570002DE9FF4F81B0884691469A464FF0070B10
:1005800051E000BF2E48FFF712FE064606F03F007E
:100590002C4901EB0014B0094FF4700101EA00513D
:1005A0000091DDE9001008434FF0805101EAD801C5
:1005B00008434FF0005101EA990108434FF0804190
:1005C00001EA5A01084340F04065294604F10C0055
:1005D000FFF7FEFD054605F0806010B385F08065ED
:1005E00085F0004505F0004728F0004038432060C2
:1005F00029F00040384360602AF000403843A06092
:10060000294604F10C00FFF7F4FD48B100BF0C4887
:10061000001DFFF7CCFD00BF012005B0BDE8F08F45
:1006200004E0ABF1010BBBF1000FAAD100BF00BF8A
:1006300003480830FFF7BBFD00BF0020EDE70000D6
:100640000407002080020020F0B506460C4615463F
:10065000FF2C01D2FF2D01D30020F0BD002200238A
:100660001AE0012098403040A0B1214610E002EB92
:10067000D1000B4F385C01F0070C012707FA0CF78B
:10068000384302EBD107DFF818C00CF80700491C0B
:10069000A942ECD920325B1C042BE2D30120DCE719
:1006A000800600202DE9F05F8246894600204149FE
:1006B000087080214048FFF7D6FD18213F4800F020
:1006C00031FF80463B48006A3D49884208D00846D1
:1006D000384908620846A0F802800120C8610FE08E
:1006E00034484088404506D03248A0F802800120B6
:1006F0003049C86104E02F48C069401C2D49C861D9
:100700002C48C06901280BD100202A494870486054
:100710008860C8604FF480612A48FFF7A4FD0FE0AD
:1007200000270BE0274800EB0715E86800F0806021
:1007300018B1E86820F04060E8607F1C402FF1D3DA
:100740001C48C06901280FD100F064F804461CB1B0
:1007500000F05AF8064600E00026164846610020E0
:1007600014498861086102E000F054F80446ECB1D5
:10077000FE2200215046FFF767FFEF2211460F20AF
:10078000FFF762FFFE2211460420FFF75DFFFFF72F
:1007900023FE8346074800235946C2690A48FFF7EB
:1007A000E7FEB9F1000F01D000F010F82046BDE8D7
:1007B000F09F00000007002080060020502800085D
:1007C0006B27A5E18002002000FF000310B5094857
:1007D000007808B1012010BD012006490870FFF71C
:1007E000FBFD044600231A4621460348FFF7C0FEDE
:1007F0000120F0E70007002001FF000301484068E6
:1008000070470000001000E00148006870470000D9
:10081000040000200648006840F080700449086029
:100820000448006840F00100024908600120704758
:10083000FCED00E0001000E0F0B50A4600210023C6
:10084000002400BF3DE0012505FA01F3156805EA23
:1008500003049C4234D105684F000326BE40B543D3
:10086000056015794E00B540066835430560157979
:10087000012D02D01579022D16D185684F0003266F
:10088000BE40B543856055794E00B5408668354316
:100890008560456801268E40B54345604568967978
:1008A0008E40B6B235434560C5684F000326BE4052
:1008B000B543C560D5794E00B540C6683543C560BF
:1008C000491C1029BFD3F0BD0183704710B5024801
:1008D000FFF764FC10BD00000107002029490968EA
:1008E00001F0004149B12749096841F00041254A1A
:1008F00011608169891C8161704722490839096842
:10090000214A11621F49091F097882F824101D49E4
:10091000C91E097891621B490C310968D1621949D5
:10092000891E098811861749096851631549091DEF
:1009300009689163134910310968D1630021134A92
:10094000116000BF114909680029FBD00E4A0168F7
:1009500011604168516081689160C168D16001692E
:1009600011614169516181699161C169D161002160
:10097000064A116000BF054909680029FBD000BF85
:10098000BAE700002CED00E034020020280000202F
:1009900000BFFEE77047000070B5002100230F2262
:1009A000C4781CB3174C246804F4E064C4F5E06414
:1009B000C4F30721C1F10404E3B20A4144789C4026
:1009C000E1B28478144021430C07210E0E4C0578C7
:1009D0006155047804F01F050124AC4005786D11C1
:1009E000AD0005F1E025C5F8004109E0047804F008
:1009F0001F050124AC40054D0678761145F82640C8
:100A000070BD00000CED00E000E400E080E100E0DB
:100A10007047000029B1064A12680243044B1A606D
:100A200004E0034A12688243014B1A6070470000D9
:100A30003038024029B1064A12680243044B1A605A
:100A400004E0034A12688243014B1A6070470000B9
:100A500040380240704700000CB500200190009023
:100A60003448006840F480303249086000BF3148A3
:100A7000006800F4003000900198401C019000983C
:100A800018B90198B0F5A04FF1D12A48006800F4D8
:100A9000003010B10120009001E00020009000988B
:100AA000012846D123484030006840F08050214959
:100AB000403108602048006840F440401E4908600A
:100AC0001C48083000681B49083108600846006867
:100AD00040F4004008600846006840F4A0500860F8
:100AE0001648091F0860081F006840F08070091F41
:100AF000086000BF0F48006800F000700028F9D0BF
:100B000040F205700E4908600A480830006820F07D
:100B100003000849083108600846006840F00200F8
:100B2000086000BF03480830006800F00C00082887
:100B3000F8D10CBD00380240007000400854400756
:100B4000003C0240042808D14FF0E021096941F03F
:100B500004014FF0E022116107E04FF0E021096944
:100B600021F004014FF0E02211617047704700004E
:100B700010B51548006840F4700013490860134828
:100B8000006840F001001149086000200F49083159
:100B900008600E4800680E4908400C4908600D487E
:100BA000091D0860081F006820F48020091F0860E4
:100BB000002006490C310860FFF74EFF4FF000603F
:100BC00001498039086010BD88ED00E0003802401E
:100BD000FFFFF6FE1030002410B50121304800F070
:100BE000DFF8012856D12F48008828B938222EA1D5
:100BF0004FF46F40FFF70EFC2A480088401C29493B
:100C0000088008460088B0F5FA7F0DDD00200880D6
:100C10003F2225A14EF62070FFF7FCFB2848007804
:100C200020F001002649087026480088401C25490C
:100C3000088008460088B0F5FA6F07DD00200880BC
:100C40001F48007820F002001D4908701E480088E7
:100C5000401C1D49088008460088B0F5FA7F07DD72
:100C6000002008801648007820F00400144908701D
:100C700016480088401C1549088008460088B0F5D1
:100C80007A7F07DD002008800D48007820F00800FA
:100C90000B4908700121024800F067F810BD000000
:100CA000000400401C0000202E2E5C4253505C5378
:100CB00072635C6273705F74696D65722E630000AD
:100CC000000000201A0000201E000020200000204C
:100CD0007FB505460C4601210220FFF7ABFE0295C9
:100CE000ADF804400020ADF80600ADF80C0001A9F5
:100CF0000D4800F073F8012211460B4800F061F82E
:100D00000121094800F034F81D208DF80000012071
:100D10008DF8010003208DF8020001208DF80300FA
:100D20006846FFF739FE7FBD0004004010B5012181
:100D30000A4800F035F801280AD1094908698047B6
:100D40000021064800F048F86421044800F042F809
:100D50000121024800F009F810BD00000008004021
:100D600068000020CA4302827047CA43028270476B
:100D700021B1028842F00102028004E002884FF6AD
:100D8000FE731A40028070470146486A7047024667
:100D90000020138A0B400BB1012000E000207047B7
:100DA00030B50246002000230024158A05EA01031D
:100DB000958905EA010413B10CB1012000E000207F
:100DC00030BD1AB183890B43838102E083898B4351
:100DD00083817047C1627047416270470022028878
:100DE000184B98420ED0184B98420BD0B0F1804F60
:100DF00008D0164B984205D0154B984202D0154B9F
:100E0000984204D14FF68F731A404B881A43124B05
:100E1000984207D0114B984204D04FF6FF431A4036
:100E20000B891A4302804B68C3620B880385054B0C
:100E3000984202D0044B984201D18B7A0386012359
:100E4000838270470000014000040140000400401C
:100E500000080040000C004000100040001400405A
:100E60007FB504460D4601210420FFF7E3FDADF8F0
:100E700000500020ADF802000194ADF8080069466A
:100E80000D48FFF7ABFF012211460B48FFF799FF12
:100E900001210948FFF76CFF1E208DF80C0003208C
:100EA0008DF80D008DF80E0001208DF80F0003A8BD
:100EB000FFF772FD7FBD00000008004010B540F252
:100EC00025511D4800F03EF810B31B4800F064F8AF
:100ED000C4B21A48008800F40040C8B91748008816
:100EE00000F4804060B10A2C03D000201349088030
:100EF00020E01248008840F400401049088019E0C2
:100F00000D2C06D10D48008840F480400B49088024
:100F100010E00A480088C0F30D0009490C54074846
:100F20000088401C0549088008460088C72801DD64
:100F30000020088010BD00000010014026000020A5
:100F40006C01002070B5024600240023002500201B
:100F500040F66A16B14200D100BFC1F3421501F05C
:100F60001F03012606FA03F3012D02D196893340AF
:100F700006E0022D02D1168A334001E0968A334002
:100F80000C12012606FA04F41688344013B10CB191
:100F9000012000E0002070BD01468888C0F30800F1
:100FA000704700BFFEE700000FB4054B10B503A962
:100FB000044A029800F018F810BC5DF814FB000019
:100FC000751600086801002002E008C8121F08C159
:100FD000002AFAD170477047002001E001C1121FBA
:100FE000002AFBD1704700002DE9FF4F8DB00F465E
:100FF0000546002606E025280BD0DDE90F129047B4
:101000006D1C761C28780028F5D111B03046BDE85B
:10101000F08F0024A246A1460122EC4900E00443DF
:1010200015F8013F203B02FA03F00842F7D1287877
:101030002A2810D06FF02F022878A0F1300109295A
:1010400014D80AEB8A0102EB410144F0020400EBE0
:10105000010A6D1CF0E701CF5FEA000A03D544F4F2
:101060000054CAF1000A44F002046D1C28782E28AE
:1010700017D115F8010F44F004042A280ED06FF0A0
:101080002F022878A0F1300109290AD809EB89013B
:1010900002EB410100EB01096D1CF2E757F8049BDC
:1010A0006D1C28786C280FD006DC4C2817D06828D7
:1010B0000DD06A2814D104E0742810D07A280FD1FA
:1010C0000DE044F400140AE044F4801401E044F418
:1010D00040146978814202D104F580146D1C6D1CA6
:1010E0002A786E2A1FD00CDC632A31D004DC002A57
:1010F0008BD0582A11D1A3E0642A68D0692A0CD178
:1011000065E0732A2ED004DC6F2A73D0702A04D1D4
:101110009BE0752A6FD0782A6ED01046DDE90F1259
:101120009047761C50E1C4F30250022806D00328F1
:1011300009D0042801CF09D0066045E101CFF1179D
:10114000C0E9006140E101CF06803DE106703BE16E
:1011500017F8040B8DF8000000208DF80100EB4615
:10116000012003E057F804BB4FF0FF3061074FF058
:10117000000102D40DE008F10101884649450FDA6B
:101180008045F8DB1BF808100029F4D108E008F1CD
:10119000010188468142FADB1BF808100029F6D1CC
:1011A000DDE90F23AAEB08008146214600F036F95D
:1011B000304400EB080604E0DDE90F121BF8010BD8
:1011C0009047B8F10108F7D221464846F7E00A21D6
:1011D000C4F302534FF0000B0891022B04D001CF4F
:1011E000C117032B09D00AE0FF1D27F00707F7E816
:1011F000020108E032E01FE020E000B2C117042B3A
:1012000001D140B2C117031E71F1000307DA4FF09C
:10121000000CD0EB0C006CEB01012D2302E0230548
:1012200004D52B238DF82430012303E0E30701D0FC
:101230002023F7E7984658E00A2110E010210EE03D
:1012400010204FF0000B08900CE010214FF0000B25
:1012500044F004044FF00809089103E008214FF01E
:10126000000B0891C4F30253022B04D001CF0021DC
:10127000032B06D006E0FF1D27F00707F7E8020161
:1012800003E080B2042B00D1C0B24FF00008230766
:101290002BD5702A07D0DDF820C08CF0100C5CEA4A
:1012A0000B0C05D00EE040238DF82430012308E01C
:1012B00050EA010306D030238DF824308DF8252024
:1012C00002239846DDF820C08CF0080C5CEA0B0C79
:1012D0000BD150EA010301D1630706D530238DF805
:1012E00024304FF00108A9F10109582A04D038A28E
:1012F0000B9208AA0A920BE03AA2F9E75B46089A19
:10130000FEF7BCFF0B9B9B5C0A9A521E0A9213705D
:1013100050EA0102F2D10A98ADEB000000F1200B77
:10132000600702D524F4803401E04FF00109D9456B
:1013300002DDA9EB0B0000E0002000EB0B014144B3
:101340000890AAEB010AE00306D4DDE90F23214649
:10135000504600F063F806444FF0000908E009A980
:1013600011F80900DDE90F12904709F10109761C17
:10137000C145F4DBE0030CD5DDE90F2321465046DF
:1013800000F04CF8064404E0DDE90F1230209047ED
:10139000761C0899481E08900029F5DC08E00A9898
:1013A0000A990078491C0A91DDE90F129047761CD2
:1013B000BBF10001ABF1010BF1DC21465046DDE948
:1013C0000F2300F019F806446D1C1BE609280100E4
:1013D00030313233343536373839616263646566AB
:1013E000000000003031323334353637383941426D
:1013F00043444546000000002DE9F0410446002525
:101400001E461746880404D405E039462020B0471C
:101410006D1C641EF9D52846BDE8F0812DE9F04128
:10142000044600251E469046C80301D5302700E03B
:101430002027880404D505E041463846B0476D1C96
:10144000641EF9D52846BDE8F08110B5A82000F04B
:101450008BF800F021F801210F20FFF723F9FFF7A7
:10146000B5F942F2CF010920FFF732FC00F03CF859
:1014700010BD00000648007806490860044800785E
:1014800008B9012000E00020014908707047000001
:1014900018000020800241421CB501210420FFF702
:1014A000B9FA012000908DF8040000208DF80600A4
:1014B0008DF8050001208DF8070069460848FFF700
:1014C000BBF901210846FFF7A5FA402000906946C4
:1014D0000448FFF7B1F901210148FFF7F5F91CBDF8
:1014E00000080240000002401CB501210220FFF765
:1014F00091FA0320009001208DF8040000208DF85F
:10150000060003208DF8050001208DF807006946CC
:101510000348FFF791F903210148FFF7D5F91CBDF6
:101520000004024030B502464FF6FF7018E012F892
:10153000015B80EA052008230FE000F400443CB181
:101540004FF6FF7404EA400041F22104604003E0DA
:101550004FF6FF7404EA40005B1E002BEDD1491EDC
:101560000029E4D130BD000010B504466FF004003E
:10157000FFF7E8FAE11704EB5171C1F3C701074A1D
:1015800011701046007800EB4001C1EBC0104FF61F
:10159000FF7101EAC0000249088010BD220000204E
:1015A0002400002070B504464FF4077094FBF0F05F
:1015B000C6B24FF4077094FBF0F100FB114085B206
:1015C00005E04FF4077000F02FF8701EC6B2002E31
:1015D000F7D115B1284600F027F870BD0146114A31
:1015E00012784A434FF0E0235A6100229A611A466A
:1015F000126942F001021A6100BF4FF0E022106947
:1016000000F001021AB100F48032002AF5D04FF048
:10161000E022126922F001024FF0E0231A61002259
:101620009A617047220000200146114A12884A43FD
:101630004FF0E0235A6100229A611A46126942F083
:1016400001021A6100BF4FF0E022106900F00102B0
:101650001AB100F48032002AF5D04FF0E02212696E
:1016600022F001024FF0E0231A6100229A617047D4
:101670002400002070B505460C460548844203D17D
:10168000284600F041F870BD4FF0FF30FBE7000046
:101690006801002000BFFFF7D8FE2DE01748007852
:1016A00000F0010038B91548007840F001001349F6
:1016B0000870FFF7DFFE1148007800F0020028B93B
:1016C0000E48007840F002000C4908700B48007882
:1016D00000F0040028B90948007840F004000749E8
:1016E00008700648007800F0080028B90348007820
:1016F00040F0080001490870D0E700000000002019
:10170000014608687047000010B504460F4800689D
:10171000082802D34FF0FF3010BD0C480268006863
:10172000401C0A4B18600A48845418460068082870
:1017300001D00A2C08D10548054902680548FEF782
:101740008CFE0020014908602046E5E75C0100208E
:101750006001002000FE020030B595B0054613ABD5
:1017600012AA09A9284600F039FA044614B1204605
:1017700015B030BD0020149026E0224909689DF87C
:10178000502001EBC20113AB11AA486801A900F077
:1017900025FA04460CB12046EAE709A901A800F0A1
:1017A000BBFC60B99DF844009DF84810884201DDFB
:1017B0000220DDE79DF85000124988750AE09DF887
:1017C0005000401CC0B214900E48007D9DF850108F
:1017D0008842D2DC00BF0B48007D9DF85010884243
:1017E00001D10420C4E714A9284600F0D7FA044622
:1017F0000CB12046BCE79DF8500002494875002016
:10180000B6E70000680000202DE9F0419AB09C483E
:10181000847D007DA04202DC1AB0BDE8F0819849C9
:10182000096801EBC40106AB07AA486808A900F0E3
:10183000D5F908A993A0FFF7B7FB002644E090482C
:10184000008B0121B1400840D8B122218FA0FFF7C1
:10185000ABFB304600F028FB894924314718394654
:101860008BA0FFF7A1FB222188A0FFF79DFB30464C
:1018700000F01AFB82492431084410A941F82600DF
:1018800018E0304600F010FB7D492431085810A9BB
:1018900041F826007A48C07D30B910A850F82610CB
:1018A0007CA0FFF781FB05E010A850F826107AA075
:1018B000FFF77AFB9DF81C00401EB04202D078A0D2
:1018C000FFF772FB701CC6B29DF81C008642B6DBA7
:1018D00074A0FFF769FB00F039FB6948407D0B28D5
:1018E0000DD2DFE800F0060D151E27323F4E5F7265
:1018F00087006349096851F834008047054690E045
:101900005F4A126852F8341010988847054688E0FC
:101910005B4B1B6853F83420DDE910019047054606
:101920007FE0574F3F6857F8343010A807C89847F2
:10193000054676E0DFF848C1DCF800C05CF834709A
:1019400010A80FC8B84705466BE01498DFF830C1FF
:101950000090DCF800C05CF8347010A80FC8B847DD
:1019600005465EE0DDE91401DFF814C1CDE90001B0
:10197000DCF800C05CF8347010A80FC8B847054602
:101980004FE0DDE914121698DFF8F4C0CDE900123B
:101990000290DCF800C05CF8347010A80FC8B8479B
:1019A00005463EE0DDE91423DDE91610DFF8D0C07E
:1019B000CDE90023CDE90210DCF800C05CF83470FA
:1019C00010A80FC8B84705462BE0DDE91523DDE96F
:1019D0001710CDE90123CDE903101498DFF8A0C05A
:1019E0000090DCF800C05CF8347010A80FC8B8474D
:1019F000054616E0DDE91623DDE91810CDE90223DE
:101A0000CDE90410DDE91401DFF874C0CDE900016F
:101A1000DCF800C05CF8347010A80FC8B847054661
:101A200000BF00BF00F050FA9DF8180001280CD14B
:101A30001348C07D20B929461BA0FFF7B5FA07E07F
:101A400029461BA0FFF7B0FA02E018A0FFF7ACFA96
:101A50000B4890F8EC0088B10948D0F8F0000A2152
:101A6000B0FBF1F201FB12070548D0F8F000B0FB23
:101A7000F1F83A46414611A0FFF796FA00BFCBE6CF
:101A8000680000200D0A257328000000256300006F
:101A900025730000256C75003058255800000000A3
:101AA0002C000000290000003D256C753B0D0A004C
:101AB0003D305825583B0D0A0000000046756E6306
:101AC00074696F6E2052756E2054696D653A256495
:101AD0002E2531646D730D0A00000000F0B5034639
:101AE0001546002000220026002455E01F782C2FE8
:101AF00001D104B901221F78292F01D01F780FB915
:101B000004B94AE0002E34D11F78302F02DB1F7851
:101B1000392F11DD1F78612F02DB1F78662F0BDD57
:101B20001F78412F02DB1F78462F05DD1F78582FC5
:101B300002D01F78782F0CD102B12EE01F78612FD0
:101B400003DB1F78203F0F7001E01F780F70491CE6
:101B50001FE01F78222F04D102B11EE001260124CC
:101B600017E01F78202F14D01F782C2F11D0FF26BC
:101B700013E01F78222F00D1002402B10DE044B100
:101B80001F785C2F02D15B1C471CF8B21F780F70C6
:101B9000491C471CF8B25B1CA8E700BF00270F7068
:101BA0002E70F0BD10B50446002010700BE02078B8
:101BB0000870641C491C1078401C10701078984202
:101BC00001DB012010BD2078202802D020780028D9
:101BD000EDD10020087000BFF4E700002DE9FF4FB1
:101BE00085B080468946002700200490039001209C
:101BF00002904FF0000B002544461DE0207820287D
:101C000016D005F07F00052812DA0DB945F08005E1
:101C100005F07F00042803D120782A2800D00EE0A8
:101C2000207805F07F010DF80100681CC5B202E0C4
:101C3000852D00D103E0641C20780028DED100BF90
:101C40008DB1002005F07F010DF8010051A168461B
:101C500000F062FA18B900210898017002E0012131
:101C60000898017000254FF0000A444614E0641CF7
:101C70000AF1010000F0FF0A2078202802D0207825
:101C80002A2809D1204600F0D7F90646282E03D08D
:101C90002A2E01D0CDF810A02078282802D0207854
:101CA0000028E4D14446049810B10498401C044430
:101CB0004FF0000A002654E0207810B94FF0010AD6
:101CC00050E02078282803D116B9781CC7B213E059
:101CD0002078292808D13EB917B1781EC7B201E093
:101CE0004FF0010A47B93DE02078222804D10EB90F
:101CF000012000E00020064647B9207820282FD098
:101D0000207889F8000009F1010929E020782C28C1
:101D100004D101200290681CC5B214E0207820286C
:101D200011D0207828280ED04DB9BBF1050F06DA66
:101D300020780DF80B000BF1010000F0FF0B02986A
:101D4000401CC0B20290012F0AD10298022807D18C
:101D50000298401CC0B202900398401CC0B203908D
:101D6000641CA9E700BF0398012809D100200DF8E1
:101D70000B0008A1684600F0CFF908B900200390D5
:101D8000079903980870002089F80000504609B0B0
:101D9000BDE8F08F766F6964000000002DE9F04324
:101DA000B5B005460F460024002604E000213D485A
:101DB0008155701CC6B20A2EF8DB06E06D1C28782F
:101DC00018B9012035B0BDE8F08328782828F5D16E
:101DD0006D1C61E034AA69462846FFF77FFE06467F
:101DE00035449DF8D00020B1012827D0FF284CD1E0
:101DF00049E09DF8000000B333A9684600F027F9D8
:101E000006460EB10220DDE7204600F04DF82549D8
:101E10000A31339A0A50A1F12400008B0121A1401C
:101E2000884320491A39088304211E480155601C43
:101E3000C4B20A2C01DD0320C4E726E0684600F0A6
:101E400087F9401C00F0FF08204600F02DF81549E6
:101E50000A3100EB01094946684600F06EF9114865
:101E60001A38018B0120A040014388B20D491A396C
:101E700008830C4800F80480601CC4B20A2C01DD01
:101E800003209FE701E002209CE700BF2878292873
:101E900001D0287800B900E09CE700BF3C7000202A
:101EA00090E700008200002002460020002105E0AB
:101EB000044B5B5C0344D8B24B1CD9B29142F7DBB4
:101EC000704700008200002010B501210D48FEF788
:101ED0005EFF012808D10C48D0F8F0004FF6FF71E2
:101EE00008440949C1F8F0000648FEF74DFF0649CD
:101EF000D1F8F01008440449C1F8F0000846D0F8C1
:101F0000F00010BD000800406800002010B5044635
:101F100004EBC40000EB04100122C2EB800081B28C
:101F20004FF47A70FEF79CFF01200149C87510BD7F
:101F30006800002010B50246012000E050430B1E4F
:101F4000A1F10104E1B2F9D110BD000010B50121E9
:101F50000848FEF707FF4FF6FF710648FEF73AFF05
:101F600000210448FEF738FF00200349C1F8F000C3
:101F700010BD0000000800406800002070B51D483A
:101F8000008800F40040002833D01A48057800206B
:101F900019494855194881681748884704461CB9AB
:101FA0001649C868804721E0134800F0DDF805466F
:101FB000012D00D02C46CCB1012C06D0022C08D02B
:101FC000032C0AD0042C10D10BE00DA0FEF7ECFF7F
:101FD0000BE00EA0FEF7E8FF07E00FA0FEF7E4FF1E
:101FE00003E010A0FEF7E0FF00BF00BF00200149A2
:101FF000088070BD260000206C01002068000020D1
:10200000BAAFCAFDB4EDCEF3210D0A00B2CECAFDBF
:10201000B4EDCEF3210D0A00B2CECAFDCCABB6E0D2
:10202000210D0A00CEB4D5D2B5BDC6A5C5E4B5C450
:10203000BAAFCAFD210D0A000146491C00E0491C47
:102040000878202801D10029F9D1087870472DE9B6
:10205000F04307460E4600254FF00A083C46002094
:1020600030601FE02078392802DC207830280ADA36
:102070002078462802DC2078412804DA2078582885
:1020800009D1012D07D12078412801DB4FF010083C
:10209000681CC5B205E0207800B904E00120BDE865
:1020A000F083641CDEE700BF3C46B8F1100F0FD18F
:1020B000032D01DA0220F2E72078302806D160787B
:1020C000582803D1A41CA81EC5B204E00320E6E7EB
:1020D0000DB90420E3E71BE00DB1681EC5B22078FE
:1020E000392806DC2078302803DB2078A0F130097D
:1020F00002E02078A0F1370929464046FFF71AFF91
:10210000316809FB00103060641C207800B900E0E1
:10211000E2E700BF0020C2E702460AE010780B7831
:10212000984201D001207047107800B902E0521C9B
:10213000491CF3E700BF0020F5E706E002780A70CB
:10214000027802B902E0401C491CF7E700BF704763
:102150000146002005E00A7802B903E0421CD0B233
:10216000491CF8E700BF704710B58CB004461E2329
:102170000BAA03A92046FFF715FD0090009810B1A7
:1021800001200CB010BD9DF82C00044400200B90E1
:102190000EE040489DF82C2050F8221003A8FFF7CD
:1021A000BBFF00B908E09DF82C00401CC0B20B90AA
:1021B0009DF82C000728ECD300BF9DF82C000728C1
:1021C00063D2DFE800F004053C5E6564630000BF95
:1021D00031A0FEF7E9FE31A0FEF7E6FE3FA0FEF7D4
:1021E000E3FE4EA0FEF7E0FE5CA0FEF7DDFE6BA076
:1021F000FEF7DAFE79A0FEF7D7FE86A0FEF7D4FE42
:102200008BA0FEF7D1FE90A0FEF7CEFE94A0FEF7C5
:10221000CBFE99A0FEF7C8FE9EA0FEF7C5FEA4A0C7
:10222000FEF7C2FEB0A0FEF7BFFEBDA0FEF7BCFEEB
:10223000C8A0FEF7B9FED4A0FEF7B6FE9AE216A03B
:10224000FEF7B2FEE0A0FEF7AFFE00200B900EE01E
:10225000ED4800689DF82C2000EBC2004168EBA01F
:10226000FEF7A2FE9DF82C00401CC0B20B90E64881
:10227000007D9DF82C108842EADC07A0FEF794FE52
:1022800078E205A0FEF790FEC4E171E245E219E2B2
:10229000ECE100002C0000200D0A00002D2D2D2D5A
:1022A0002D2D2D2D2D2D2D2D2D2D2D2D2D2D2D2D5E
:1022B0002D2D2D2D55534D4152542056332E312D59
:1022C0002D2D2D2D2D2D2D2D2D2D2D2D2D2D2D2D3E
:1022D0002D2D2D2D2D2D2D200D0A0000202020200C
:1022E00055534D415254CAC7D3C9414C49454E5428
:1022F000454BBFAAB7A2B5C4D2BBB8F6C1E9C7C99E
:10230000B5C4B4AEBFDAB5F7CAD4BBA5BDBBD7E977
:10231000BCFE2CCDA8B9FD200D0A0000CBFC2CC4BE
:10232000E3BFC9D2D4CDA8B9FDB4AEBFDAD6FACADC
:10233000D6B5F7D3C3B3CCD0F2C0EFC3E6B5C4C8AB
:10234000CEBACEBAAFCAFD2CB2A2D6B4D0D02ED25D
:10235000F2B4CB2CC4E3BFC90D0A0000D2D4CBE643
:10236000D2E2B8FCB8C4BAAFCAFDB5C4CAE4C8EB7F
:10237000B2CECAFD28D6A7B3D6CAFDD7D6283130EB
:102380002F3136BDF8D6C629A1A2D7D6B7FBB4AE39
:10239000A1A2BAAFCAFDC8EB0D0A0000BFDAB5D8DA
:1023A000D6B7B5C8D7F7CEAAB2CECAFD292CB5A5E7
:1023B000B8F6BAAFCAFDD7EEB6E0D6A7B3D631307D
:1023C000B8F6CAE4C8EBB2CECAFD2CB2A2D6A7B307
:1023D000D6BAAFCAFDB7B5200D0A0000BBD8D6B536
:1023E000CFD4CABE2ED0C2D4F6B2CECAFDCFD4CA84
:1023F000BEBDF8D6C6C9E8D6C3B9A6C4DC2CD0C2C7
:10240000D4F6BDF8D6C6D7AABBBBB9A6C4DC2E0D80
:102410000A000000BCBCCAF5D6A7B3D63A777777D6
:102420002E6F70656E6564762E636F6D0D0A000009
:1024300055534D415254D3D037B8F6CFB5CDB3C371
:10244000FCC1EE3A0D0A00003F3A20202020202057
:10245000BBF1C8A1B0EFD6FAD0C5CFA20D0A0000DB
:1024600068656C703A202020BBF1C8A1B0EFD6FAA5
:10247000D0C5CFA20D0A00006C6973743A202020E9
:10248000BFC9D3C3B5C4BAAFCAFDC1D0B1ED0D0A3F
:102490000A00000069643A2020202020BFC9D3C36D
:1024A000BAAFCAFDB5C44944C1D0B1ED0D0A0A00A6
:1024B0006865783A20202020B2CECAFD3136BDF8BA
:1024C000D6C6CFD4CABE2CBAF3B8FABFD5B8F12B52
:1024D000CAFDD7D6BCB4D6B4D0D0BDF8D6C6D7AA1C
:1024E000BBBB0D0A0A0000006465633A202020206F
:1024F000B2CECAFD3130BDF8D6C6CFD4CABE2CBAD2
:10250000F3B8FABFD5B8F12BCAFDD7D6BCB4D6B450
:10251000D0D0BDF8D6C6D7AABBBB0D0A0A000000B2
:1025200072756E74696D653A312CBFAAC6F4BAAF84
:10253000CAFDD4CBD0D0BCC6CAB13B302CB9D8B1BF
:10254000D5BAAFCAFDD4CBD0D0BCC6CAB13B0D0AF8
:102550000A000000C7EBB0B4D5D5B3CCD0F2B1E0DF
:10256000D0B4B8F1CABDCAE4C8EBBAAFCAFDC3FB68
:10257000BCB0B2CECAFDB2A2D2D4BBD8B3B5BCFCFB
:10258000BDE1CAF82E0D0A002D2D2D2D2D2D2D2D3E
:102590002D2D2D2D2D2D2D2D2D2D2D2D2D2D2D2D6B
:1025A0002D2D414C49454E54454B2D2D2D2D2D2D76
:1025B0002D2D2D2D2D2D2D2D2D2D2D2D2D2D2D2D4B
:1025C0002D2D2D200D0A00002D2D2D2D2D2D2D2DE5
:1025D0002D2D2D2D2D2D2D2D2D2D2D2D2D2D2D2D2B
:1025E0002DBAAFCAFDC7E5B5A52D2D2D2D2D2D2D4D
:1025F0002D2D2D2D2D2D2D2D2D2D2D2D2D2D2D2D0B
:102600002D2D2D2D200D0A006800002025730D0AA8
:102610000000000059A0FEF7C7FC00200B901AE054
:10262000664909689DF82C2001EBC20101AB02AAA2
:10263000486803A9FFF7D2FA604800689DF82C109B
:1026400050F8312003A95EA0FEF7AEFC9DF82C00E7
:10265000401CC0B20B905948007D9DF82C10884258
:10266000DEDCAFF2CC30FEF79FFC83E0AFF2D83077
:10267000FEF79AFC0BAA03A92046FFF72FFA9DF854
:102680002C00C8B9694603A8FFF7E1FC0B909DF840
:102690002C0020B94FA00099FEF786FC0EE09DF8B3
:1026A0002C00042801D002206BE54DA0FEF77CFC35
:1026B00001204249C87501E0022062E547A0FEF70B
:1026C00073FC57E045A0FEF76FFC0BAA03A9204658
:1026D000FFF704FA9DF82C00C8B9694603A8FFF774
:1026E000B6FC0B909DF82C0020B942A00099FEF793
:1026F0005BFC0EE09DF82C00042801D0022040E590
:102700003FA0FEF751FC00202C49C87501E00220D3
:1027100037E532A0FEF748FC2CE030A0FEF744FC81
:102720000BAA03A92046FFF7D9F99DF82C00C8B9D8
:10273000694603A8FFF78BFC0B909DF82C0078B935
:102740001E49009881F8EC00084690F8EC0018B19A
:1027500030A0FEF729FC07E035A0FEF725FC03E0DA
:1027600002200EE502200CE51CA0FEF71DFC01E096
:10277000012006E500BF002003E500002D2D2D2DD2
:102780002D2D2D2D2D2D2D2D2D2D2D2D2D2D2D2D79
:102790002D2D2D2D2DBAAFCAFD204944202D2D2DD4
:1027A0002D2D2D2D2D2D2D2D2D2D2D2D2D2D2D2D59
:1027B0002D2D2D2D2D2D2D2D200D0A0068000020F2
:1027C00025732069642069733A0D0A305825303822
:1027D000580D0A004845583A305825580D0A00004F
:1027E0003136BDF8D6C6B2CECAFDCFD4CABE210D91
:1027F0000A0000004445433A256C750D0A000000AC
:102800003130BDF8D6C6B2CECAFDCFD4CABE210D76
:102810000A00000052756E2054696D652043616C9A
:1028200063756C6174696F6E204F4E0D0A00000075
:1028300052756E2054696D652043616C63756C61DF
:1028400074696F6E204F46460D0A000001607047A4
:1028500001000101400000008002002080060020ED
:1028600000070020000000003F00000064656300D6
:102870006964000072756E74696D650068656C70DE
:10288000000000006C697374000000006865780047
:10289000766F69642077726974655F616464722819
:1028A00075333220616464722C7533322076616C2A
:1028B0002900000075333220726561645F616464D1
:1028C000722875333220616464722900766F6964FE
:1028D0002064656C61795F6D7328753136206E6D8B
:1028E00073290000766F69642064656C61795F7597
:1028F0007328753332206E75732900001C29000877
:10290000000000206C01000040030008742900084A
:102910006C010020BC090000D80F000842FF847A37
:10292000030A0009140102030406070809136828B2
:102930001B087C041A84041A70041A8C041A6C0490
:102940001A74041301171B08B4081A4D041A9004D2
:1029500013A5151B08CC081ADD081AE40822481430
:10296000200D1F1B0859281309181B087D0C1A0479
:042970006F01EC0007
:040000050800018965
:00000001FF
