:020000040800F2
:10000000A8E200206D020008F510000809090008A8
:10001000F11000081B09000807320008000000006A
:100020000000000000000000000000009D0100082A
:10003000150D000800000000F9010008C92D000896
:10004000870200088702000887020008870200086C
:10005000870200088702000887020008870200085C
:10006000870200088702000887020008870200084C
:10007000870200088702000887020008870200083C
:10008000870200088702000887020008870200082C
:10009000870200088702000887020008870200081C
:1000A000870200088702000887020008870200080C
:1000B00087020008412E0008592E00088702000818
:1000C00087020008870200088702000887020008EC
:1000D00087020008E92F000887020008870200084D
:1000E00087020008870200088702000887020008CC
:1000F00087020008870200088702000887020008BC
:10010000870200081514000887020008870200080B
:10011000870200088702000887020008870200089B
:10012000870200088702000887020008870200088B
:10013000870200088702000887020008870200087B
:10014000870200088702000887020008870200086B
:10015000870200088702000887020008870200085B
:10016000870200088702000887020008870200084B
:10017000870200088702000887020008870200083B
:100180008702000887020008DFF80CD000F07EFB31
:1001900000480047B96B0008A8E200202C4B196802
:1001A0000868B0E8F04F80F30988BFF36F8F4FF015
:1001B000000080F3118870470000000008480068C4
:1001C000006880F308884FF0000080F3148862B65E
:1001D00061B6BFF34F8FBFF36F8F00DF00BF00BF6B
:1001E00008ED00E0DFF80C00016841F470010160E7
:1001F000704700BF88ED00E0EFF30980BFF36F8F19
:10020000134B1A681EF0100F08BF20ED108A20E96A
:10021000F04F106009B44FF0500080F31188BFF325
:100220004F8FBFF36F8F09F0F7FF4FF0000080F39F
:10023000118809BC19680868B0E8F04F1EF0100F6B
:1002400008BFB0EC108A80F30988BFF36F8F704746
:1002500028000020EFF305807047000030BF72B621
:10026000704762B6704780F3088870470648804739
:1002700006480047FEE7FEE7FEE7FEE7FEE7FEE78B
:10028000FEE7FEE7FEE7FEE7D92D0008890100083A
:100290002DE9F0410024061B254671F1000605DA20
:1002A00001240027D0EB070067EB0101161E73F154
:1002B000000605DA0027D2EB0702012567EB0303EE
:1002C00000F00CFA86460E4617469C46AC4204D017
:1002D0000025D0EB050E65EB010624B10020D2EB22
:1002E000000760EB030C704631463A466346BDE8B2
:1002F000F08140EA01039B0703D009E008C9121FFF
:1003000008C0042AFAD203E011F8013B00F8013BCF
:10031000521EF9D27047D2B201E000F8012B491EFB
:10032000FBD270470022F6E710B513460A46044692
:100330001946FFF7F0FF204610BD421C10F8011BC4
:100340000029FBD1801A70472DE9FE4F804681EAD3
:100350000300C00F0C46009021F0004123F000453F
:10036000B8EB0200A94105D24046214690461C4602
:100370000B46024623F00040104347D0270DC7F339
:100380000A00C3F30A510290401A019040286BDA28
:10039000C3F3130040F4801B0098924620B1002361
:1003A000D2EB030A63EB0B0B01985946C0F14002F4
:1003B000504600F0C4F906460D4650465946019A8B
:1003C00000F0DCF910EB08006141002487EA1152CB
:1003D00084EAE7731A4340D0009A62B3019A012A73
:1003E0004FEA075215DC001B61EB02014FF000429F
:1003F00002EA0752CDE90042001C41F58011324665
:100400002B4600F0DCF903B0BDE8F08F40462146F2
:10041000F9E7001B61EB0201001C41F58013001895
:100420005B412018A2F5001747EB030140EAD570A5
:10043000B6196D4111E06D084FEA360645EAC07500
:100440004FEA0752001B61EB0201001C41F58011CD
:1004500049084FEA30000019514132462B4603B09B
:10046000BDE8F04F00F09CB9009801224000002345
:10047000D0EB020263EBE073009821464FEAE07490
:10048000B8EB000061EB0401E9E783F000435BE7B0
:1004900081F0004158E72DE9FE4F81EA030404F0A2
:1004A000004421F0004100944FF0000B23F0004382
:1004B00050EA01045ED052EA03045BD0C3F30A544D
:1004C000C1F30A552C44A4F2F3340194A0FB025466
:1004D000C1F3130141F48011C3F3130343F48013F8
:1004E00001FB024400FB034E840A970A44EA81544C
:1004F00047EA8357A4FB076802958D0A05FB078529
:100500004FEA932C04FB0C542705029D4FEA065832
:1005100047EA1637B5EB08056EEB070C870E920E0F
:1005200047EA811742EA8312A7FB0201B6EB0B01EF
:1005300064EB00042B0D43EA0C335E1844EB1C50B3
:10054000DA465146E7FB0201C5F313044FEA0B33C9
:1005500043EA14534FEA0432019C43EA0603A4F130
:100560000C040294009CCDE900B400F028F903B01B
:10057000BDE8F08F00200146F9E72DE9F04D81EA52
:10058000030404F0004B21F0004514464FF0000A2C
:1005900023F0004150EA050220D054EA01021DD0A8
:1005A000C5F30A570246C5F31303C1F31300C1F3A1
:1005B0000A5640F4801543F48013A7EB0608101B7D
:1005C000D64608F2FD3873EB050002D308F10108A6
:1005D00001E092185B41B8F1000F03DA00200146F8
:1005E000BDE8F08D00204FF48011064684460EE0F1
:1005F000171B73EB050705D3121B63EB05030643BB
:100600004CEA010C49084FEA300092185B4150EA6D
:100610000107EDD152EA030012D082EA040083EA16
:100620000501084305D0101BAB4106D2012200236F
:1006300006E000224FF0004302E06FF00102531089
:100640001AEB06004CEB085110EB0A0041EB0B01D2
:10065000BDE8F04D00F0A4B800F0004230F00040DA
:100660000AD0C10D01F56071C0F3160042EA0151D4
:10067000C208400711437047002001467047000040
:1006800030B5041E71F1000404DB4FF00044404219
:1006900064EB0101141E73F1000405DB1C464FF0EE
:1006A0000043524263EB0403994208BF904230BDBD
:1006B00030B50B46014600202022012409E021FA32
:1006C00002F59D4205D303FA02F5491B04FA02F52F
:1006D0002844151EA2F10102F1DC30BD2DE9F05FC6
:1006E0000546002092469B468846064681464024A1
:1006F0001BE0284641464746224600F02FF8534665
:100700005A46C01A914110D311461846224600F0AD
:1007100016F82D1A67EB01084F46224601200021EA
:1007200000F00DF817EB00094E41201EA4F1010462
:10073000DFDC484631462A464346BDE8F09F202A82
:1007400004DB203A00FA02F1002070479140C2F128
:10075000200320FA03F3194390407047202A04DB5A
:10076000203A21FA02F00021704721FA02F3D0402A
:10077000C2F120029140084319467047202A06DB47
:10078000CB17203A41FA02F043EAE07306E041FA5F
:1007900002F3D040C2F1200291400843194670474D
:1007A00010B5141E73F1000408DA401C41F1000179
:1007B00092185B411A4301D120F0010010BD2DE9D0
:1007C000F04D92469B4611B1B1FA81F202E0B0FAC7
:1007D00080F220329046FFF7B2FF04460F4640EA0F
:1007E0000A0041EA0B0153465A46084313D011460A
:1007F00053EA010019D0C8F140025046FFF7AEFF9E
:1008000005460E46504659464246FFF798FF0843B4
:1008100005D0012004E020463946BDE8F08D0020D7
:10082000054346EAE0762C4337430A986305E40A19
:10083000A0EB08000022FD0A44EA47540A3002D522
:1008400000200146E9E7010510196941DDE9084585
:1008500000196941BDE8F04DA2E7C1F30A52C1F3A6
:10086000130140F2FF3341F480119A4202DA002072
:100870000146704740F233439A42A2F2334202DC0F
:100880005242FFF76BBFFFF75ABF0000064C074DFF
:1008900006E0E06840F0010394E807009847103450
:1008A000AC42F6D3FFF774FCAC620308CC620308D9
:1008B00070B58C1810F8015B15F0070301D110F822
:1008C000013B2A1106D110F8012B03E010F8016B4F
:1008D00001F8016B5B1EF9D12B0705D40023521ED2
:1008E0000DD401F8013BFAE710F8013BCB1A921C3A
:1008F00003E013F8015B01F8015B521EF9D5A14238
:10090000D8D3002070BD00001EF0040F0CBFEFF321
:100910000880EFF3098000F041BB00BFFEE770B52F
:1009200000254FF4803404E0802000F05FFD00B12A
:1009300003E0201EA4F10104F6D100BF0CB903208E
:1009400070BD40F2FF5000F027FD2846F8E7000098
:1009500070B5044605E01648056805F0450000B18D
:1009600000E0F8E700BF042000F040FD20B10420C3
:1009700000F012FD032070BD012000F037FD20B112
:10098000012000F009FD0120F5E70948243800683E
:10099000A04201D01020EEE740F2FF5000F0FCFC36
:1009A00003482038006808210840C0B2E3E700008F
:1009B000342C014070B500264FF4803505E0114815
:1009C000046804F0450000B103E0281EA5F101050C
:1009D000F5D100BF15B104F0040028B103260420AE
:1009E00000F0DAFC304670BD012000F0FFFC18B1C9
:1009F0000126012000F0D0FC40F2FF5000F0CCFCBA
:100A00003046F0E7342C014010B505E00B4804688F
:100A100004F0450000B100E0F8E700BF042000F05A
:100A2000E5FC20B1042000F0B7FC032010BD40F22B
:100A3000FF5000F0B1FC0020F8E70000342C01402A
:100A40002DE9F04105460E464FF0000805E020482C
:100A5000076807F0450000B100E0F8E700BF042098
:100A600000F0C4FC28B1042000F096FC0320BDE88F
:100A7000F081012000F0BAFC20B1012000F08CFCD4
:100A80000120F4E7124824380068A84201D0102061
:100A9000EDE740F2FF5000F07FFC0D48203804687D
:100AA00004F4604018B9200C30804046DFE704F4BD
:100AB000005008B11320DAE704F4804008B1102098
:100AC000D5E704F4004008B10F20D0E74046CEE758
:100AD000342C014070B500264FF4803505E00F48F6
:100AE000046804F0450000B103E0281EA5F10105EB
:100AF000F5D100BF15B104F0040028B1032604208D
:100B000000F04AFC304670BD04F0400018B10026E9
:100B1000402000F041FC3046F5E70000342C014055
:100B200021B1026842F00102026003E0026822F093
:100B30000102026070470000016821F001010160BC
:100B40000021016041608160C1600161212141613A
:100B50004A49884204D13D21484A103A91608CE0CC
:100B600046491831884205D14FF47461434A103A1E
:100B7000916082E041493031884205D14FF47411CF
:100B80003E4A103A916078E03C494831884205D1AC
:100B90004FF07461394A103A91606EE03749603124
:100BA000884204D13649354A103AD16065E033496C
:100BB0007831884204D13349304A103AD1605CE040
:100BC0002E499031884204D12F492C4A103AD160E5
:100BD00053E02A49A831884205D14FF03D51274AB8
:100BE000103AD16049E02949884204D13D21274A81
:100BF000083A116041E025491831884205D14FF487
:100C00007461224A083A116037E020493031884245
:100C100005D14FF474111D4A083A11602DE01B49AB
:100C20004831884205D14FF07461184A083A116082
:100C300023E016496031884204D11149134A121F3A
:100C400011601AE011497831884204D10D490F4AE8
:100C5000121F116011E00D499031884204D10A49F8
:100C60000A4A121F116008E00849A831884204D1DD
:100C70004FF03D51054A121F11607047106002404D
:100C80003D000020400F002000003D201064024085
:100C900021B1026842F02002026003E0026822F003
:100CA000200202607047014600200A6802F001023B
:100CB0000AB1012000E000207047000010B50022BA
:100CC0000268134B1A40CC680B6823434C692343DA
:100CD0008C692343CC6923430C6A23434C6A234326
:100CE0008C6A23434C6B23438C6B23431A4302606F
:100CF000426922F00702D1E90B3423431A434261CF
:100D00000B6943604B6883608B68C36010BD000053
:100D10003F801CF0704700002DE9FC4107460D465E
:100D20000026002400200090019008205B49086004
:100D300010204860402088600020C8604FF4806028
:100D40000861084600F09EFB1020FFF701FE0446F4
:100D500014B12046BDE8FC815148008800044F4989
:100D6000086037204860402088600020C8604FF449
:100D700080600861084600F085FB3720FFF7E8FD3A
:100D800004460CB12046E5E74FF0FF3045490860C6
:100D900008204860302088600220C8600020086178
:100DA00001204861084600F007FB00203B4908602D
:100DB00033204860402088600020C8604FF4806085
:100DC0000861084600F05EFB3320FFF7C1FD0446D2
:100DD0000CB12046BEE70CE04FF4001000F006FB1B
:100DE00038B1314800684DF82600761C022E00D339
:100DF00007E02D484C38006840F22A61084000287E
:100E0000EAD000BF082000F0F1FA20B1082000F07D
:100E1000C3FA04209EE7022000F0E8FA20B1022085
:100E200000F0BAFA022095E7202000F0DFFA20B1A6
:100E3000202000F0B1FA06208CE74FF4007000F09B
:100E4000D5FA28B14FF4007000F0A6FA072081E728
:100E500040F2FF5000F0A0FA00980006009901F45B
:100E60007F4140EA0120009901F47F0140EA11200E
:100E7000009940EA1160686001980006019901F448
:100E80007F4140EA0120019901F47F0140EA1120ED
:100E9000019940EA1160286020465BE7F0020020DB
:100EA0001C00002004030020802C014010B50446E3
:100EB00002A002F0ABF9E043C0B210BD74657374D8
:100EC00021210A00F0B50A4600210023002400BFBA
:100ED0003DE0012505FA01F3156805EA03049C428B
:100EE00034D105684F000326BE40B543056015792F
:100EF0004E00B5400668354305601579012D02D0D6
:100F00001579022D16D185684F000326BE40B543E2
:100F1000856055794E00B5408668354385604568E3
:100F200001268E40B5434560456896798E40B6B23D
:100F300035434560C5684F000326BE40B543C560D4
:100F4000D5794E00B540C6683543C560491C1029A7
:100F5000BFD3F0BDF0B5002300244D07ED0E02FA1B
:100F600005F3CE1000F1200555F826504E07F70E78
:100F70000F26BE40B543CF1000F1200646F827509B
:100F8000CE1000F1200555F8265045EA0304CE1096
:100F900000F1200545F82640F0BD00002949096808
:100FA00001F0004149B12749096841F00041254A53
:100FB00011608169891C816170472249083909687B
:100FC000214A11621F49091F097882F824101D491E
:100FD000C91E097891621B490C310968D16219490F
:100FE000891E098811861749096851631549091D29
:100FF00009689163134910310968D1630021134ACC
:10100000116000BF114909680029FBD00E4A016830
:1010100011604168516081689160C168D160016967
:1010200011614169516181699161C169D161002199
:10103000064A116000BF054909680029FBD000BFBE
:10104000BAE700002CED00E0B4590020C8020020EF
:101050001CB504460020019000902248008800043E
:10106000214908600D204860402088600020C86049
:101070004FF480600861084600F004FA1B480068DD
:10108000009002E0194800680090009800F04500C8
:101090000028F7D0012000F0A9F920B1012000F0CC
:1010A0007BF901201CBD042000F0A0F920B1042030
:1010B00000F072F90320F5E70C48243800680D2889
:1010C00001D01020EEE740F2FF5000F065F907482C
:1010D0002038006801900198C0F343202070002060
:1010E000E0E700001C000020F0020020342C01404A
:1010F00000BFFEE77047000070B5002100230F22FB
:10110000C4781CB3174C246804F4E064C4F5E064AC
:10111000C4F30721C1F10404E3B20A4144789C40BE
:10112000E1B28478144021430C07210E0E4C05785F
:101130006155047804F01F050124AC4005786D1159
:10114000AD0005F1E025C5F8004109E0047804F0A0
:101150001F050124AC40054D0678761145F8264060
:1011600070BD00000CED00E000E400E080E100E074
:1011700002490143024A1160704700000000FA056D
:101180000CED00E029B1064A12680243044B1A60D4
:1011900004E0034A12688243014B1A607047000062
:1011A0003038024029B1064A12680243044B1A60E3
:1011B00004E0034A12688243014B1A607047000042
:1011C0004038024029B1064A12680243044B1A60B3
:1011D00004E0034A12688243014B1A607047000022
:1011E0004438024029B1064A12680243044B1A608F
:1011F00004E0034A12688243014B1A607047000002
:1012000024380240F0B500210022002402250026E7
:101210000223324F3F6807F00C0121B1042905D0A9
:10122000082937D105E02E4F076036E02D4F0760C3
:1012300033E02A4F3F1F3F68C7F38056274F3F1FB9
:101240003F6807F03F036EB1264FB7FBF3F7DFF8B7
:101250008CC0ACF1040CDCF800C0CCF3881C07FB9C
:101260000CF40CE01E4FB7FBF3F7DFF870C0ACF1E5
:10127000040CDCF800C0CCF3881C07FB0CF4174FFF
:101280003F1F3F68C7F301477F1C7D00B4FBF5F7A4
:10129000076002E0124F076000BF00BF0F4F3F68BA
:1012A00007F0F0010909104F7A5C0768D7404760E2
:1012B0000A4F3F6807F4E051890A0B4F7A5C476890
:1012C000D7408760054F3F6807F46041490B064FE0
:1012D0007A5C4768D740C760F0BD0000083802401C
:1012E0000024F40000127A00B60200207CB5054606
:1012F000002400200090019000260DB1022600E09D
:1013000000262248006800F0007008B10E207CBD65
:101310001F49098888B26946FFF7FEFC04460CB1F4
:101320002046F4E7019800F4802060B31848008854
:101330000004184908603720486040208860002079
:10134000C8604FF480600861084600F09BF83720C1
:10135000FFF7FEFA04460CB12046D8E70D480660B8
:1013600006200C494860402088600020C8604FF487
:1013700080600861084600F085F80620FFF7E8FA6B
:1013800004462046C3E72520C1E70000142C014095
:101390001C000020F0020020014908607047000096
:1013A000382C01400146034A106820F0FF00084332
:1013B00010607047042C014000210B4B02681A603A
:1013C0001B1D42681A601A1D116821F0F701D0E94F
:1013D00002231A4303691A4343691A431143024A19
:1013E0000832116070470000242C014001460020A3
:1013F000034A12680A400AB1012000E00020704749
:10140000342C01400248006800F0030070470000DF
:10141000002C014010B500F08DFC10BD00210A4ADF
:10142000116847F6FF629143027D83681A4343685F
:101430001A43C3681A4303681A4303691A431143E2
:10144000014A116070470000042C014000200B4944
:101450000860091D0860091D0860091D086007492A
:1014600024310860091D0860091D0860044803490B
:10147000383108600020091D08607047002C0140C9
:10148000FF07C0000021094B02681A601A1D11688D
:101490006FF30A01D0E901231A43C3681A430369B1
:1014A0001A431143014A121D11607047082C014074
:1014B0000149086070470000002C014070B590B0F1
:1014C00004460E46154600BF1A48FFF7ECFB0028FD
:1014D000FAD11848FFF730FB4FF000600190164832
:1014E0000290039404950020059006904FF48060CC
:1014F0000790800008908000099000200A904FF427
:1015000040300B9004200C9003200D904FF400000D
:101510000E9080100F9001A90648FFF7CFFB202105
:101520000448FFF7B5FB01210248FFF7F9FA10B0B4
:1015300070BD000058640240802C014070B5044624
:10154000002516480078032802D12725284670BDBB
:101550001248007838B111480078012803D00F48AC
:101560000078022817D1B4F5805F02D127252846DC
:10157000EDE7E0B2FFF7BAFE054665B90848006836
:1015800020F4C050064908600846006820430860FF
:101590000846006808602846D9E7000018000020C7
:1015A000042C0140F0B5014600200022BE4B1B7800
:1015B00081F85630BD4B1B88A1F85430BC4B1B68DA
:1015C0001A0E93090B70C2F383034B7002F00303EE
:1015D0008B70B74B1B68C3F30742CA70B44B1B88B0
:1015E000C3F307220A71B24B1A784A715B681A0E6C
:1015F0001301CB80AE4B5B68C3F30742CB8843EA51
:101600001213CB8002F00F030B72A94B9B88C3F31C
:101610000722D3094B72C2F380138B72C2F34013BB
:10162000CB72C2F300130B7300234B739E4B1B78DA
:101630003BB19D4B1B78012B03D09B4B1B78032B9D
:101640004FD193071B0D0B61994B1A790B6943EA34
:1016500082030B61964B9B681A0E0B6943EA921347
:101660000B61C2F3C2030B7502F007034B75904B7D
:101670009B68C3F3074253098B75C2F38203CB7592
:1016800093075B0F0B768A4B1B89C3F307220B7EF4
:1016900043EAD2130B760B695B1C0024C1E91234B8
:1016A0000B7E9B1C012404FA03F3DC17D1E91256CC
:1016B000A5FB037C06FB03C305FB0433C1E91273DE
:1016C0000C7A0123A3400B650024D1E912650B6D50
:1016D000A6FB037C05FB03C306FB0433C1E91273BD
:1016E0002EE0714B1B78022B2AD1714B1A7993068D
:1016F0009B0A0B616E4B9B681A0E0B6943EA02232F
:101700000B616B4B9B68C3F307420B6913430B617F
:10171000674B1B89C3F307220B695B1C4FF40074F2
:10172000A3FB04464FF480630025A4FB037C06FB67
:1017300003C304FB0533C1E912734FF400730B6557
:10174000C2F3801301F8193F93065B0E4B70584BA0
:101750001A7A4B7843EAD2134B7002F07F038B70F6
:10176000534BDB681A0ED309CB70C2F341130B71D4
:10177000C2F382034B7193071B0F8B714C4BDB68D9
:10178000C3F307428B7943EA92138B71C2F3401380
:10179000CB7100230B7202F001034B72444B9B8907
:1017A000C3F30722D3098B72C2F38013CB72C2F347
:1017B00040130B73C2F300134B73C2F381038B739B
:1017C00002F00303CB733A4B1A7B53080B740123CB
:1017D0004B74384B1B681A0ECA741939354B1B6889
:1017E000C3F307421402CC85324B1B88C3F3072294
:1017F000CB8D1343CB852F4B1A7814060C635B6893
:101800001A0E0B6B43EA02440C632A4B5B68C3F36A
:1018100007420B6B43EA02240C63264B9B88C3F3FD
:1018200007220B6B13430B63224B1A7934235A5450
:10183000204B9B681A0E35235A541E4B9B68C3F3EA
:10184000074214068C631B4B1B89C3F307228B6B67
:1018500043EA02448C63174B1A7A8B6B43EA0224E7
:101860008C63144BDB681A0E8B6B13438B63114B29
:10187000DB68C3F307423C235B5C43EA12143C235E
:101880005C5413071C0DCC870A4B9B89C3F30722BA
:10189000CB8F1343CB87074B1A7B540840235C54F0
:1018A000012441235C54F0BD180000201C000020DE
:1018B0001C0300202C0300203EB50025002401213C
:1018C0004548FFF75FFC0121C802FFF77BFC0121BF
:1018D000C802FFF787FC4FF4F850019002208DF802
:1018E00008008DF8090000208DF80A0001208DF80D
:1018F0000B0001A93948FFF7E5FA0420019001A97E
:101900003748FFF7DFFA0C2208213448FFF722FBA3
:101910000C2209213148FFF71DFB0C220A212F4818
:10192000FFF718FB0C220B212C48FFF713FB0C22AE
:1019300011462A48FFF70EFB0C2202212848FFF728
:1019400009FB00214FF40060FFF74CFCFFF77EFD20
:1019500031208DF8000000208DF801008DF8020084
:1019600001208DF803006846FFF7C6FB00F0F0F891
:10197000044614B900F03AF804461CB91948FFF7B8
:1019800011FE044634B91749B1F85410080400F0A8
:1019900075FD044624B94FF40060FFF7CFFD0446FF
:1019A0001CB111480078032813D100BF0D4890F8EE
:1019B000560020B10B4890F85600012801D10225AD
:1019C00000E000252846FFF7EDFC012000F06EFD49
:1019D000044620463EBD00000C00400000080240C6
:1019E000000C0240400300201800002038B50024FD
:1019F00001200090FFF706FD10B92524204638BDD0
:101A00004D480078042824D000204C49086002206A
:101A10004860C02088600020C8604FF48060086182
:101A20000846FFF72FFDFEF7C5FF04460CB1204620
:101A3000E5E743480068434908604148001D0068E5
:101A400048603F480830006888603D480C300068B6
:101A5000C8603948007858B137480078012807D065
:101A600035480078062803D033480078022816D17C
:101A70000020324908600320486040208860002030
:101A8000C8604FF4806008610846FFF7FBFC6946B8
:101A90000320FEF7D5FF04460CB12046AFE72648E9
:101AA0000078032816D1BDF800000004234908601F
:101AB00003204860402088600020C8604FF48060A8
:101AC00008610846FFF7DEFCFEF774FF04460CB120
:101AD000204694E71848007804282AD0BDF8000072
:101AE00019490860BDF80000000414490860092085
:101AF0004860C02088600020C8604FF480600861A2
:101B00000846FFF7BFFCFEF755FF04460CB1204620
:101B100075E70B4800680D4908600948001D00681A
:101B20004860074808300068886005480C30006845
:101B3000C860002063E7000018000020F0020020C9
:101B4000142C01402C0300201C0000201C0300204A
:101B50002DE9F0470027002400260025A046A146D5
:101B600076206E4908750020086048608860C8606B
:101B700008610846FFF752FC0320FFF799FC68480C
:101B8000006840F480706649086000BF12E00020E1
:101B90006449086048608860C8604FF480600861EC
:101BA0000846FFF76FFCFEF7BAFE044604B903E0EF
:101BB000781CC7B24A2FEADB00BF14B12046BDE84B
:101BC000F0874FF4D57057490860082048604020DE
:101BD00088600020C8604FF4806008610846FFF705
:101BE00051FCFEF777FF044624B901204E490870E6
:101BF0004FF0804900204B49086037204860402062
:101C000088600020C8604FF4806008610846FFF7D4
:101C100039FC3720FEF79CFE0446002C4CD135E001
:101C2000002040490860372048604020886000203C
:101C3000C8604FF4806008610846FFF723FC372036
:101C4000FEF786FE04460CB12046B8E7374849EA5D
:101C50000000344908602920486040208860002046
:101C6000C8604FF4806008610846FFF70BFCFEF780
:101C7000CBFE04460CB12046A1E729481030066887
:101C8000012080EAD67080F001086D1CB8F1000FC9
:101C900003D14FF6FF708542C2D34FF6FF708542E5
:101CA00002D31B2420468AE706F08040061E33D06C
:101CB00002201D4908702FE01DE01D4819490860E9
:101CC00001204860402088600020C8604FF4806098
:101CD00008610846FFF7D6FBFEF796FE04460CB1F6
:101CE00020466CE70E4810300668012080EAD67066
:101CF00080F001086D1CB8F1000F03D14FF6FF70A2
:101D00008542DAD34FF6FF70854202D31B2420466A
:101D100055E7032004490870204650E7D802002008
:101D2000042C0140F0020020180000200000108068
:101D30000080FF8010B54FF48070FFF757FB78B339
:101D40004C480078012814D100204B4908600C2031
:101D50004860402088600020C8604FF480600861BF
:101D60000846FFF78FFB0C20FEF7F2FD4349087091
:101D700002E00020414908704148006840F480704A
:101D80003F490860081D00684CF23A3188433C49DD
:101D9000091D086001203B4908703848007810BDD3
:101DA000FFE70220FFF722FB78B10220FFF7F4FAE9
:101DB0003348001D00684CF23A3188433049091D10
:101DC000086002202D490870E9E70820FFF70EFBA4
:101DD00078B10820FFF7E0FA2948001D00684CF2AE
:101DE0003A3188432649091D0860042023490870B8
:101DF000D5E72020FFF7FAFA78B12020FFF7CCFAD8
:101E00001F48001D00684CF23A3188431C49091DE7
:101E10000860062019490870C1E71020FFF7E6FAAC
:101E200078B11020FFF7B8FA1548001D00684CF291
:101E30003A3188431249091D086005200F4908708E
:101E4000ADE74FF40070FFF7D1FA80B14FF40070A6
:101E5000FFF7A2FA0A48001D00684CF23A318843A5
:101E60000749091D086007200449087097E700200A
:101E700095E7000021000020F00200202200002051
:101E8000382C0140230000202DE9F84F81461746E9
:101E900098460A9C4FF0000AD3464D464FF0FF3655
:101EA000B9F1000F02D12620BDE8F88F0020864945
:101EB000086086480078022805D10402780A40EAC2
:101EC000C8574FEA68280020814988604860401E52
:101ED0000860012048610020C86008610846FFF7DB
:101EE0006BFA79481838006800F0007008B10E20CD
:101EF000DAE7002C21DDB4F5006F1EDC601E204007
:101F0000D8B9204601F028FF0090724804601020E4
:101F100070494860402088600020C8604FF48060AD
:101F200008610846FFF7AEFA1020FEF711FD824661
:101F3000BAF1000F03D05046B6E72620B4E7009868
:101F4000000163498860084644604FF0FF30086034
:101F5000012048610220C860002008610846FFF7A0
:101F60002BFA5C48076011205A494860402088607D
:101F70000020C8604FF4806008610846FFF782FACD
:101F80001120FEF7E5FC8246BAF1000F01D0504661
:101F90008AE75148007800285CD1FEF760F918E024
:101FA0004FF40040FFF722FA78B14FF0000B06E043
:101FB00045485430006845F82B000BF1010BBBF18C
:101FC000080FF5D32035454E03E00EB904206BE72A
:101FD000761E3D480830006840F22A61084000281B
:101FE000DED00820FFF702FA20B10820FFF7D4F96D
:101FF000042059E70220FFF7F9F920B10220FFF78A
:10200000CBF9022050E72020FFF7F0F920B1202083
:10201000FFF7C2F9062047E74FF40070FFF7E6F933
:1020200028B14FF40070FFF7B7F907203CE704E050
:1020300025485430006828602D1D4FF40010FFF72C
:10204000D5F90028F4D1FEF70CF940F2FF50FFF764
:10205000A3F936E020480078012832D10020204939
:10206000087020490870204908701748103000682F
:1020700040F22A31084314491031086012480068C0
:1020800040F0080010490860002221464846FFF74A
:1020900015FA00E0761E1548006800F0006038B9B7
:1020A0001148007820B90E48007808B9002EF1D107
:1020B0000EB90420F8E60A48007810B1084890F8F4
:1020C00000A05046F0E600002C2C01401800002033
:1020D00004030020F002002020000020FFFF7F000A
:1020E0002200002021000020230000200064024084
:1020F0002DE9FE4F83460C469146002002900026B3
:1021000025462C46700240EAD5566D020BF00300BE
:10211000F0B14FF0000A18E04FF4007000904FEA61
:102120004A20471946EBE0733A461648FFF7ACFEE3
:1021300002904FF4007213495846FEF7DAF80BF597
:10214000007B0AF1010000F0FF0ACA45E4DB16E05B
:10215000B9F1010F09D14FF400702A4633460090BF
:102160005846FFF791FE029009E04FF400702A46AE
:102170003346CDE90009584600F006F8029002986F
:10218000BDE8FE8F980300202DE9FF5F17469846B3
:10219000DDE90E464FF00009CA464FF0FF35AC4965
:1021A000009808600020AB490860AB48007802281E
:1021B00005D10402780A40EAC8574FEA682800208F
:1021C000A64988604860401E0860012048610020E0
:1021D000C86008610846FFF7EFF89E4818380068A5
:1021E00000F0007018B10E2004B0BDE8F09F002C84
:1021F00021DDB4F5006F1EDC601E2040D8B92046FA
:1022000001F0AAFD83469648046010209449486076
:10221000402088600020C8604FF480600861084654
:10222000FFF730F91020FEF793FB8146B9F1000F5C
:1022300003D04846D8E72620D6E7012E71D906FB01
:1022400004F0B0F1007F01D32620CDE74FEA0B1058
:102250008249886006FB04F048604FF0FF30086058
:10226000012048610220C860002008610846FFF78D
:10227000A3F87B48076012207949486040208860B5
:102280000020C8604FF4806008610846FFF7FAF844
:102290001220FEF75DFB8146B9F1000F01D04846E0
:1022A000A2E77048007800287ED1FDF7D8FF1EE035
:1022B0004FF40040FFF79AF8A8B14FF0000A08E089
:1022C0006448543000686249096841F82A000AF1FC
:1022D000010ABAF1080FF3D35D48006820305C4969
:1022E0000860614D03E00DB904207DE76D1E59487B
:1022F0000830006840F22A3108400028D8D0082071
:10230000FFF774F820B10820FFF746F804206BE7C8
:102310000220FFF76BF828B10220FFF73DF80220FA
:1023200062E792E02020FFF761F820B12020FFF75C
:1023300033F8062058E74FF40070FFF757F828B13C
:102340004FF40070FFF728F807204DE70AE04148F6
:10235000543000683E49096808603D480068001D27
:102360003B4908604FF40010FFF740F80028EED119
:102370004FF48070FFF73AF820B33748007838B14F
:1023800035480078012803D033480078022819D155
:102390000020334908600C204860402088600020FD
:1023A000C8604FF4806000E013E008610846FFF762
:1023B00069F80C20FEF7CCFA8146B9F1000F01D084
:1023C000484611E7FDF74DFF40F2FF50FEF7E4FFEE
:1023D0003BE024480078012837D1002023490870C9
:1023E0000120234908700020224908701948103044
:1023F000006840F22A310843164910310860154838
:10240000006840F008001349086006FB04F1002250
:102410000098FFF753F800E06D1E1748006800F0C1
:10242000006008B9002DF7D10DB90420DCE600BF2B
:102430001048007818B90D4800780028F8D00B48EB
:10244000007810B1094890F800904846CCE60000AA
:10245000240000202C2C0140180000200403002040
:10246000F002002020000020FFFF7F00220000205B
:1024700021000020230000200064024010B5044623
:10248000094804600720084948604020886000200F
:10249000C8604FF4806008610846FEF7F3FF07202C
:1024A000FEF756FA10BD0000F002002001460020A1
:1024B000012900D011B9024B197000E026207047A5
:1024C000200000202DE9FF5F86B017469846149D36
:1024D0000026002005900490002481460390824647
:1024E00002900195DDF818B0DDF818B0BBF1000FCF
:1024F00003D126200AB0BDE8F09F0020C94908603A
:10250000C94988604860401E086001204861002079
:10251000C86008610846FEF74FFFC24818380068D7
:1025200000F0007008B10E20E4E7C04800780228EF
:1025300005D10502780A40EAC8574FEA6828002DFD
:102540001FDDB5F5006F1CDC681E2840C8B92846A1
:1025500001F002FC0590B64805601020B4494860BF
:10256000402088600020C8604FF480600861084601
:10257000FEF788FF1020FEF7EBF906461EB1304645
:10258000B8E72620B6E7AB4800880004A8490860F1
:102590000D204860402088600020C8604FF48060B3
:1025A00008610846FEF76EFF0D20FEF7D1F90646DA
:1025B0000EB130469EE79B481838006803904FF0F4
:1025C000FF341CE0641E9B480088000498490860A2
:1025D0000D204860402088600020C8604FF4806073
:1025E00008610846FEF74EFF0D20FEF7B1F90646DA
:1025F0000EB130467EE78B48183800680390039888
:1026000000F4807008B9002CDCD10CB9292071E7E6
:10261000874807601820864948604020886000206D
:10262000C8604FF4806008610846FEF72BFF182051
:10263000FEF78EF906460EB130465BE700207E4974
:1026400008700598000178498860084645604FF099
:10265000FF300860012048610020C860086108461A
:10266000FEF7AAFE4FF0FF347448007800287ED1B0
:10267000FDF7F5FD45E04FF48040FEF7B7FED8B317
:102680000198A0EB0900202822D20198A0EB0900B4
:1026900000F0030020B90198A0EB0900800804E0D5
:1026A0000198A0EB09008008401C02904FF0000A3E
:1026B0000AE05C495431DBF8000008600AF1010AC5
:1026C0000BF1040B09F1040902988245F1D310E0E3
:1026D0004FF0000A06E05BF82A00524954310860C6
:1026E0000AF1010ABAF1080FF5D30BF1200B09F139
:1026F00020096FF0404404E0FFE70CB90420F9E63C
:10270000641E48480830006840F21A6108400028FA
:10271000B1D00820FEF76AFE20B10820FEF73CFE8B
:102720000420E7E60220FEF761FE20B10220FEF75A
:1027300033FE0220DEE61020FEF758FE20B1102006
:10274000FEF72AFE0520D5E64FF40070FEF74EFE98
:1027500030B14FF40070FEF71FFE0720CAE606E016
:10276000FDF77FFD40F2FF50FEF716FE41E03348D3
:10277000007801283DD10020314908702E490870A9
:102780003049087027481030006840F21A31084379
:10279000244910310860402229460698FEF78EFE33
:1027A0002048006840F008001E49086000E0641EF0
:1027B0002548006800F0006008B9002CF7D11CB96A
:1027C000FFF77AF8042095E64FF0FF3400E0641E2E
:1027D0001C48007820B91A48007808B9002CF6D1B6
:1027E0000CB9042086E61648007810B11448007829
:1027F00080E640F2FF50FEF7CFFD04A8FEF728FC6C
:10280000064603E004A8FEF723FC06463EB99DF801
:1028100010000728F6D09DF810000628F2D03046A8
:1028200068E600002C2C0140040300201800002062
:10283000F00200201C0000202100002020000020C9
:102840002200002023000020006402402DE9FE4FFA
:1028500081460C46924600200290002625462C46D2
:10286000700240EAD5566D0209F00300F0B14FF056
:10287000000B18E04FF4007249461948FDF739FD86
:102880004FF4007000904FEA4B20471946EBE0737D
:102890003A461348FFF716FE029009F500790BF14E
:1028A000010000F0FF0BD345E4DB16E0BAF1010FA5
:1028B00009D14FF400702A46334600904846FFF78E
:1028C00001FE029009E04FF400702A463346CDE93C
:1028D000000A484600F006F802900298BDE8FE8F14
:1028E000980300202DE9FF5F84B0DDE91247002640
:1028F000002003900290002580468146019007FB4E
:1029000004FBDDF810A0DDF810A0BAF1000F03D130
:10291000262008B0BDE8F09F0020DC490860DC49B3
:1029200088604860401E0860012048610020C8603F
:1029300008610846FEF740FDD4481838006800F0EA
:10294000007008B10E20E4E7D2480078022808D1D0
:102950000402DDE90601400A40EAC1504912CDE90E
:102960000601002C1FDDB4F5006F1CDC601E20404A
:10297000C8B9204601F0F0F90390C7480460102060
:10298000C5494860402088600020C8604FF48060DE
:1029900008610846FEF776FD1020FDF7D9FF0646D0
:1029A0001EB13046B5E72620B3E7012F6FD907FBEC
:1029B00004F0B0F1007F01D32620AAE7B5480078E3
:1029C00038B1B4480078012803D0B2480078022812
:1029D0002DD1B24800880004AF4908603720486014
:1029E000402088600020C8604FF48060086108467D
:1029F000FEF748FD3720FDF7ABFF06460EB1304627
:102A000087E7A54807601720A349486040208860F1
:102A10000020C8604FF4806008610846FEF732FD70
:102A20001720FDF795FF06460EB1304671E79A492B
:102A30000698086019204860402088600020C8601F
:102A40004FF4806008610846FEF71CFD1920FDF771
:102A50007FFF06460EB130465BE7039800018C49C4
:102A6000886007FB04F048604FF0FF3008600120E9
:102A700048610020C86008610846FEF79DFC884850
:102A80000078002874D1451EFDF7E9FB42E0E4E040
:102A90004FF48040FEF7AAFCB8B3ABEB0800202847
:102AA0001FD2ABEB080000F0030018B9ABEB080035
:102AB000800803E0ABEB08008008401C01904FF059
:102AC00000090AE071495431DAF80000086009F1A0
:102AD00001090AF1040A08F1040801988145F1D3BB
:102AE00010E04FF0000906E05AF829006749543118
:102AF000086009F10109B9F1080FF5D30AF1200ABC
:102B000008F120086FF0404504E0FFE70DB904200C
:102B1000FFE66D1E5D480830006840F21A3108403B
:102B20000028B5D00820FEF761FC20B10820FEF790
:102B300033FC0420EDE60220FEF758FC20B1022011
:102B4000FEF72AFC0220E4E61020FEF74FFC20B13D
:102B50001020FEF721FC0520DBE64FF40070FEF7A5
:102B600045FC30B14FF40070FEF716FC0720D0E6AC
:102B70002CE04FF48070FEF739FC00B34548007834
:102B800038B144480078012803D042480078022830
:102B900015D10020404908600C2048604020886022
:102BA0000020C8604FF4806008610846FEF76AFCA8
:102BB0000C20FDF7CDFE06460EB13046A9E6FDF726
:102BC00050FB40F2FF50FEF7E7FB46E03448007848
:102BD000012842D100203349087001203249087091
:102BE00000203249087029481030006840F21A313C
:102BF000084326491031086007FB04F1402204987D
:102C0000FEF75CFC2148006840F008001F4908609E
:102C10004FF0FF3500E06D1E2548006800F00060B1
:102C200008B9002DF7D11DB9FEF746FE042070E665
:102C30004FF0FF3500E06D1E1C48007820B91948A0
:102C4000007808B9002DF6D10DB9042061E61548C9
:102C5000007810B1134800785BE640F2FF50FEF7B1
:102C60009BFB02A8FEF7F4F9064603E002A8FEF774
:102C7000EFF906463EB99DF808000728F6D09DF802
:102C800008000628F2D0304643E600002C2C014014
:102C90000403002018000020F00200201C00002087
:102CA000200000202200002021000020230000201E
:102CB000006402400CB50020019000903448006888
:102CC00040F480303249086000BF3148006800F4A9
:102CD000003000900198401C0190009818B90198AC
:102CE000B0F5A04FF1D12A48006800F4003010B1CF
:102CF0000120009001E0002000900098012846D1BA
:102D000023484030006840F080502149403108603D
:102D10002048006840F440401E4908601C480830C4
:102D200000681B49083108600846006840F400400C
:102D300008600846006840F4A05008601648091F63
:102D40000860081F006840F08070091F086000BF1D
:102D50000F48006800F000700028F9D040F20570BC
:102D60000E4908600A480830006820F0030008494E
:102D7000083108600846006840F00200086000BFA3
:102D800003480830006800F00C000828F8D10CBD9A
:102D9000003802400070004008544007003C0240E8
:102DA000042808D14FF0E021096941F004014FF0F7
:102DB000E022116107E04FF0E021096921F00401F0
:102DC0004FF0E0221161704710B507F0E7FF0128CE
:102DD00001D007F0C3FB10BD10B51548006840F4E2
:102DE0007000134908601348006840F00100114961
:102DF000086000200F49083108600E4800680E493D
:102E000008400C4908600D48091D0860081F00684B
:102E100020F48020091F0860002006490C3108605A
:102E2000FFF748FF4FF0006001498039086010BD8E
:102E300088ED00E000380240FFFFF6FE103000246D
:102E400010B50121034800F041F80121014800F0CC
:102E500022F810BD0004004010B501210A4800F01E
:102E600035F801280AD10949086980470021064838
:102E700000F048F86421044800F042F801210248BB
:102E800000F009F810BD000000080040B801002063
:102E9000CA4302827047CA430282704721B1028846
:102EA00042F00102028004E002884FF6FE731A40ED
:102EB000028070470146486A704702460020138A24
:102EC0000B400BB1012000E00020704730B50246F6
:102ED000002000230024158A05EA0103958905EAEC
:102EE000010413B10CB1012000E0002030BD1AB183
:102EF00083890B43838102E083898B4383817047FD
:102F0000C16270474162704700220288184B9842A4
:102F10000ED0184B98420BD0B0F1804F08D0164B12
:102F2000984205D0154B984202D0154B984204D1D7
:102F30004FF68F731A404B881A43124B984207D0B2
:102F4000114B984204D04FF6FF431A400B891A43A5
:102F500002804B68C3620B880385054B984202D000
:102F6000044B984201D18B7A0386012383827047F8
:102F7000000001400004014000040040000800403F
:102F8000000C004000100040001400407FB50446D3
:102F90000D4601210420FEF705F9ADF80050002090
:102FA000ADF802000194ADF8080069460D48FFF73E
:102FB000ABFF012211460B48FFF799FF0121094899
:102FC000FFF76CFF1E208DF80C0003208DF80D001C
:102FD0008DF80E0001208DF80F0003A8FEF78CF885
:102FE0007FBD00000008004010B540F225511D488B
:102FF00000F04AF810B31B4800F000F9C4B21A48B8
:10300000008800F40040C8B91748008800F48040E8
:1030100060B10A2C03D000201349088020E0124838
:10302000008840F400401049088019E00D2C06D1BA
:103030000D48008840F480400B49088010E00A48A1
:103040000088C0F30D0009490C5407480088401C53
:103050000549088008460088C72801DD002008804F
:1030600010BD000000100140B4020020EC58002008
:1030700021B1828942F40052828104E082894DF6B6
:10308000FF731A408281704770B502460024002306
:103090000025002040F66A16B14200D100BFC1F3FE
:1030A000421501F01F03012606FA03F3012D02D198
:1030B0009689334006E0022D02D1168A334001E0A2
:1030C000968A33400C12012606FA04F4168834401E
:1030D00013B10CB1012000E0002070BDF0B5034633
:1030E000002400260025002040F66A17B94200D1CE
:1030F00000BF1846C1F3421401F01F06012707FA6A
:1031000006F5012C01D10C3004E0022C01D1103065
:1031100000E014301AB107682F43076002E0076827
:10312000AF430760F0BD00002DE9FF4705460E469E
:103130000024A14600BFA046B08900B100BF2C8A80
:1031400024F44054F08804432C82AC8941F20C6092
:103150008443B08831890843718908430443AC81B2
:10316000AC8A24F44074B0890443AC826846FEF70C
:1031700049F82048854202D01F48854202D1DDF837
:103180000C9001E0DDF80890A88900F4004040B1FF
:1031900009EBC90000EB091031684900B0FBF1F7F9
:1031A00007E009EBC90000EB091031688900B0FBAA
:1031B000F1F76420B7FBF0F004012009642101FB62
:1031C0001078A88900F4004040B1322000EBC8001C
:1031D000B0FBF1F000F00700044308E0322000EB00
:1031E00008106421B0FBF1F000F00F0004432C81C3
:1031F000BDE8FF87001001400014014001468888A7
:10320000C0F30800704700BFFEE700000FB4054B95
:1032100010B503A9044A029800F0EEF810BC5DF85E
:1032200014FB000075670008B00200200FB4084BC3
:1032300010B504A902AA039800F0DEF8044602A91A
:10324000002000F070FC204610BC5DF814FB00006C
:10325000273B000802E008C8121F08C1002AFAD163
:1032600070477047002001E001C1121F002AFBD106
:10327000704700002DE9FF5F82B00021DDE90430D6
:10328000020DDDF840B0034318D044F61050A2F20E
:10329000FF3242431514119801281FD0A5EB0B00F3
:1032A000401C5FEA000A4FF000064E4FDFF83891ED
:1032B000B046504615D5CAF1000413E01198012418
:1032C0004AA3012801D16FEA0B010298119AC0E9C3
:1032D0000031C0E9024206B0BDE8F09FCBF100002A
:1032E000DFE704460021404A491842EB0450CDE98B
:1032F000001012E0E00707D032463B464046494600
:10330000FDF7C9F88046894632463B4610461946C5
:10331000FDF7C1F806460F466410002CEAD1DDE93E
:103320000401DDE90023BAF1000F06DAFDF7B3F876
:1033300042464B46FDF7AFF805E0FDF71EF9424661
:103340004B46FDF71AF904460E460022284BFDF7BE
:1033500097F903D84FF0FF30014607E00022254BD4
:1033600020463146FCF7F0FFFDF777FA102409E01C
:10337000002C0ADB0A220023FDF7B0F9039B303250
:103380001A55641E50EA0102F2D1641C039AC4F17A
:1033900011031444119A012A03D0012208430DD1CC
:1033A0000AE0084304D000204FF0110B119072E79F
:1033B000A3EB0B056D1E0DE05B4504DD4FF0000235
:1033C00005F1010504E003DA4FF00002A5F1010563
:1033D000002AECD002981199C0E90231C0E90045F9
:1033E00079E70000000014400000F03F30000000CA
:1033F0000000F0430000E03F2DE9FF4F95B09B46F1
:103400008946064600250FE2252877D10024274665
:10341000F84A0121059400E0044316F8013F203BDF
:1034200001FA03F01042F7D130782A2811D06FF05A
:103430002F033078A0F13002092A16D8059A44F0FB
:10344000020402EB820203EB42021044761C059058
:10345000EFE759F8042B0592002A03DA504244F4AE
:103460000054059044F00204761C30782E2816D1C2
:1034700016F8010F44F004042A280DD06FF02F0233
:103480003078A0F13003092B09D807EB870302EB52
:103490004303C718761CF3E759F8047B761C307891
:1034A0006C280FD006DC4C2817D068280DD06A286D
:1034B00014D104E0742810D07A280FD10DE044F420
:1034C00000140AE044F4801401E044F440147278DB
:1034D000824202D104F58014761C761C307866286E
:1034E0000BD013DC582877D009DC002875D045288C
:1034F000F6D04628F4D047281AD19DE118E0632879
:1035000035D0642879D0652812D195E1702873D020
:1035100008DC6728F1D069286FD06E280DD06F289D
:1035200006D1B5E073282CD0752875D0782874D0D2
:103530005A46179990476D1C75E1C4F30250022852
:1035400009D003280DD0D9F8001004280DD00D6043
:1035500009F1040967E1D9F80010EA17C1E900523E
:10356000F6E7D9F800100D80F2E70D70F0E719F8D2
:10357000041B8DF8001000208DF80100EA460120A0
:1035800003E059F804AB4FF0FF3061074FF0000142
:1035900002D40DE008F101018846B9420FDA8045F6
:1035A000F8DB1AF808100029F4D108E008F101014D
:1035B00088468142FADB1AF808100029F6D10598EE
:1035C0005B46A0EB080721463846179A00F094FAAC
:1035D000284400EB080507E04DE029E10DE01AF86A
:1035E000010B5A4617999047B8F10108F7D25B468C
:1035F00021463846179A13E142E00A220092C4F3AA
:1036000002524FF0000A022A08D059F804CB032ACC
:103610004FEAEC710AD00DE029E02AE009F1070138
:1036200021F00702F2E802C1914609E00FFA8CFC92
:103630004FEAEC71042A03D14FFA8CFC4FEAEC718B
:10364000002907DA0A460021DCF1000C61EB0201D7
:103650002D2202E0220504D52B228DF80420012220
:1036600003E0E20701D02022F7E7904659E00A2163
:1036700002E010220DE010214FF0000A00910BE053
:1036800010224FF0000A44F004040827009203E0DF
:1036900008224FF0000A0092C4F30252022A05D019
:1036A00059F804CB0021032A08D009E009F10701E9
:1036B00021F00702F2E802C1914605E01FFA8CFCF6
:1036C000042A01D10CF0FF0C4FF00008220728D586
:1036D000702806D0009B83F0100353EA0A0305D03C
:1036E0000EE040228DF80420012208E05CEA01028D
:1036F00006D030228DF804208DF805000222904675
:10370000009B83F0080353EA0A030AD15CEA010232
:1037100001D1620705D530228DF804204FF0010851
:103720007F1E582804D034A003900EA802900DE00C
:1037300036A0F9E753466046009AFCF7CFFF84466F
:103740000398825C0298401E029002705CEA0100BD
:10375000F0D1029806A9081A00F1200A600702D5E4
:1037600024F4803400E00127574502DDA7EB0A006E
:1037700000E0002000EB0A01009005984144401A47
:103780000590E00306D45B462146179A059800F0A1
:10379000B3F90544002706E001A85A46C05D179911
:1037A00090476D1C7F1C4745F6DBE0030CD55B465C
:1037B0002146179A059800F09FF9054404E030204F
:1037C0005A46179990476D1C0099481E0090002991
:1037D000F5DC08E0029802995A460078491C0291EB
:1037E000179990476D1CBAF10001AAF1010AF1DCAA
:1037F00065E10000092801003031323334353637B5
:10380000383961626364656600000000303132332C
:1038100034353637383941424344454600000000CC
:1038200000F058F90544761C307800287FF4ECADA0
:1038300019B02846BDE8F08F620700D4062709F1C9
:10384000070222F0070CFCE80223E14603F00048DF
:103850005FEA080C02D00FF2702C0DE05FEA045C06
:1038600002D50FF2682C07E05FEAC47C02D00FF2A9
:10387000602C01E0AFF2700C4FF0FF3823F00043F2
:10388000CDF850C065280CD006DC452809D0462864
:103890001DD047283DD13DE0662818D067287ED14D
:1038A00038E00021112F01DB112000E0781CCDE968
:1038B000000106A90EA8FFF7DDFCDDE90F010E9A55
:1038C00003910021009207F1010A04914DE04FF0AD
:1038D00000400097CDE9011006A90EA8FFF7CAFC29
:1038E000DDE90F0203920E9B11990022DDF80CA076
:1038F0000093049211B9791C00EB010AB7EB0A009E
:1039000004D4C0F1FF3007F1010A0490AAEB0700CC
:10391000019044E0012F00DA01270021112F01DD81
:10392000112000E03846CDE9000106A90EA8FFF7F6
:10393000A1FCDDE90F010E9A039100210491009290
:10394000BA4621070CD40399514500DA8A46BAF1E8
:10395000010F05DD009AAAF10101515C302908D060
:10396000B84202DA10F1040F06DA0121CDE90110A4
:1039700015E0AAF10101E9E7002805DC04990144FA
:103980000491AAEB000102E0411C514500DD8A468A
:103990000499401A401C01904FF00040029020070B
:1039A00004D40198504501DBCDF8048000208DF847
:1039B0004F0002980DF14F07B0F1004F25D02B209A
:1039C0000E9002984FF0020800280CDA4042029054
:1039D0002D200E9007E00A210298FCF769FE303195
:1039E000029007F8011DB8F10001A8F10108F2DC0E
:1039F00002980028EFD1791E0E980870307800F0F8
:103A0000200040F0450007F8020D12A8C01B00F18D
:103A100007081498007800B1012000EB0A01019812
:103A200001EBE07105984144401A401E0590E00307
:103A300006D45B462146179A059800F05DF80544C8
:103A40001498007818B15A46179990476D1CE003F6
:103A500024D55B462146179A059800F04DF8054499
:103A60001CE00498002807DBDDE90301884203DD40
:103A70000098405C179901E0179930205A4690470A
:103A8000049805F10105401C04900198401E019026
:103A900004D12E205A46179990476D1CBAF10001A7
:103AA000AAF1010ADDDC05E017F8010B5A46179967
:103AB00090476D1CB8F10001A8F10108F4DC5B46E9
:103AC0002146179A0598ABE62D0000002B00000058
:103AD000200000002DE9F041044600251E4617464F
:103AE000880404D405E039462020B0476D1C641ECC
:103AF000F9D52846BDE8F0812DE9F04104460025BE
:103B00001E469046C80301D5302700E020278804D0
:103B100004D505E041463846B0476D1C641EF9D512
:103B20002846BDE8F0810A68531C0B60107070478E
:103B300010B54FF44070FDF71BFBA82000F0BCFB54
:103B400000F038F84FF4E13004F004FE542005F0A2
:103B500041FA00F0C7FF0DE00AA0FFF757FB4FF452
:103B6000FA7000F0CBFB0BA0FFF750FB4FF4FA709C
:103B700000F0C4FBFDF7A0FE0028EDD109A0FFF77F
:103B800045FB10BD53442043617264204572726F3F
:103B900072210A00506C6561736520436865636B30
:103BA000210A0000B3CCD0F2BFAACABC2121210A4D
:103BB000000000001CB501210420FDF7E3FA4FF4DA
:103BC0000050009001208DF8040000208DF80600C0
:103BD0008DF8050001208DF8070069460148FDF7C2
:103BE00071F91CBD000802400648007806490860CB
:103BF0000448007808B9012000E00020014908705D
:103C00007047000014000020B402414270B5044621
:103C10000D460020E070401E60632946204603F0F8
:103C200079FC08B1042070BD04F2362002F0B8FF20
:103C30004AF65521884201D00320F4E700BF94F8EA
:103C40003800E92807D094F83800EB2803D094F81E
:103C50003800E82811D1032209A104F16E0002F016
:103C6000FFFF08B90020DEE7052206A104F18A0063
:103C700002F0F6FF08B90020D5E70220D3E70000E4
:103C8000464154004641543332000000024600E0F1
:103C9000521C107818B192F900008842F8D192F9BC
:103CA000000070470246891ED069801E884201D8F4
:103CB000002070475389106B03FB0100F9E70000F7
:103CC0002DE9F04780460C4604F11A0002F068FF27
:103CD00010B10020BDE8F087207800F03F00401EC2
:103CE00000EB800101EBC0054FF00109002621E047
:103CF0001849895D081902F053FF0746B9F1000F12
:103D000011D0FF2D0BD8384602F050FC82462946D0
:103D10006D1C38F8110002F049FC824501D00020EA
:103D2000D8E7B94605E04FF6FF70874201D0002082
:103D3000D0E7761C0D2EDBD3207800F0400038B1A0
:103D4000B9F1000F04D038F8150008B10020C1E720
:103D50000120BFE7A0B300080146002002E049109F
:103D6000421CD0B20129FAD170472DE9F0478246B2
:103D70008846DAF80040B8F1000F06D1676917B13C
:103D8000E069B84215D8012713E04146504602F0D9
:103D90008DFD0546022D02D20120BDE8F087681C8A
:103DA00008B92846F9E7E069A84201D92846F4E7AE
:103DB0004746A06908B90020EFE70026474518D11B
:103DC0007E1CE069B04200D802263146504602F01F
:103DD0006DFD0546012D01D0681C08B92846DCE7B9
:103DE0003DB16569022D03D3E069A84200D92F4691
:103DF0000026E6B93E4600BF761CE069B04204D812
:103E00000226BE4201D90020C7E73146504602F0E3
:103E10004DFD054605B909E0012D01D0681C08B922
:103E20002846BAE7BE42E7D10020B6E700BF4FF010
:103E3000FF323146204604F015F98146B9F1000FF2
:103E400008D1B8F1000F05D032464146204604F0B3
:103E500009F98146B9F1000F0DD16661D4E9061068
:103E6000801E814202D8A069401EA061207940F0E6
:103E70000100207107E0B9F1010F02D14FF0FF30CE
:103E800000E001200646304687E700002DE9F34FA9
:103E900085B08146069800680290D9F80000D0F8F5
:103EA0000CA0002500BF02A804F02DFC83460BF1F6
:103EB000010018B9062007B0BDE8F08FBBF5803FC0
:103EC00005D34FEA1B4228466D1C2AF810201FFA22
:103ED0008BF4202C03DB2F2C01D05C2C00D111E0C3
:103EE000802C06DA214679A0FFF7D0FE08B1062023
:103EF000E1E7FF2D01D30620DDE728466D1C2AF8F7
:103F00001040D0E700BF202C01DA04260CE0002688
:103F100002E00298401C0290029800782F28F8D006
:103F2000029800785C28F4D002990698016008E0B5
:103F3000681E3AF81040202C02D02E2C00D002E04F
:103F40006D1E002DF4D100BF00202AF815000DB918
:103F50000620B0E7002700E07F1C3AF81700202871
:103F6000FAD01FB93AF817002E2801D146F00306FF
:103F700000E06D1E25B1681E3AF810002E28F8D119
:103F80000B22202109F1200002F089FE4FF00008E9
:103F9000CDF810800820039000BF38467F1C3AF807
:103FA000104004B966E0202C03D02E2C04D1AF427F
:103FB00002D046F00306F0E7DDE90310884201D2A3
:103FC000AF4216D103980B2802D146F0030651E008
:103FD000AF4201D046F00306AF4200D94AE02F4677
:103FE000082004900B2003904FEA88604FEA106885
:103FF000D3E7802C0ADB46F00206204602F0D6FA10
:104000004FF46A71019002F097FA0446FF2C11DD1B
:104010000398401E0499884204D846F0030603988A
:104020000490BAE722120498411C049109F120017E
:104030000A5418E024B1214627A0FFF727FE18B143
:104040005F2446F003060EE0412C03DB5A2C01DC12
:1040500048F00208612C06DB7A2C04DC48F00108E9
:10406000A4F1200084B20498411C049109F12001BC
:104070000C5492E700BF99F82000E52802D10520F2
:1040800089F820000398082803D14FEA88604FEA96
:10409000106808F00C000C2803D008F00300032877
:1040A00001D146F0020606F0020048B908F001000E
:1040B00008B146F0100608F0040008B146F0080602
:1040C0002B2000F809600020F5E60000222A3A3C87
:1040D0003E3F7C7F000000002B2C3B3D5B5D0000E1
:1040E0002DE9FF4F85B09A4603AA0121059800F0FB
:1040F0005BFC18B1012009B0BDE8F08FDDF80C9031
:104100004FF03F08082701E07806070E37B1B9FBEA
:10411000F7F0B0FBF8F0B0F5806FF5D807B9FF27DE
:104120004FF400720021504602F0B9FD0AF5DF7627
:104130004FF0000B444669E0069850F82B50642D70
:1041400007D801D1484603E06420B9FBF0F068438A
:1041500005466019484501D8601901D3A9EB04054B
:1041600005B959E0214606F1080004F03DFA294658
:1041700006F10C0004F038FA07983071B4FBF8F03F
:10418000B0FBF7F00490B4FBF8F0B0FBF7F107FBDD
:104190001100C0B20290B4FBF8F008FB1040401CC4
:1041A000C0B2019002987070C021049801EA90009A
:1041B00001990843B0700498F0706019401EB0FB7C
:1041C000F8F0B0FBF7F004906019401EB0FBF8F077
:1041D000B0FBF7F107FB1100C0B202906019401E5E
:1041E000B0FBF8F108FB1100401CC0B2019002982E
:1041F0007071C021049801EA900001990843B071E0
:104200000498F07110360BF1010B2C44BBF1040F34
:1042100002D20CB14C458FD300BF4AF655210AF5A6
:10422000FF7004F0EDF9012300225146059800F0DB
:1042300027FC08B101205EE700205CE701460B483F
:10424000007888420FDC09484078884201DB012071
:10425000704706488078884205DC0448C078884268
:1042600001DB0120F4E70020F2E70000ADB3000815
:10427000014610480079884219DC0E48407988428E
:1042800001DB012070470B488079884205DC094832
:10429000C079884201DB0120F4E70648007A8842B1
:1042A00005DC0448407A884201DB0120EAE700206F
:1042B000E8E70000ADB3000870B504460420FEF73F
:1042C0006FFD0C48047025464FF47A704543012079
:1042D000094908804FF0E020006940F002004FF0EB
:1042E000E021086108464561006940F0010008616D
:1042F00070BD0000AC020020AE02002070B5044684
:1043000006F04CFD012810D00B480088844206D3EB
:1043100009480088B4FBF0F5284605F0F9FC06488A
:104320000088B4FBF0F100FB11444FF47A7104FBF8
:1043300001F000F003F870BDAE02002070B5034636
:1043400000224FF0E02675690D4E367803FB06F427
:104350004FF0E026B16910E04FF0E026B0698842E6
:104360000BD0884202D20E1A324402E02E1A0E44BA
:1043700032440146A24200D300E0EDE700BF70BD29
:10438000AC0200202DE9F04104460E46D4F800802E
:104390000021204600F0A6FA0546EDB9002700BF2F
:1043A0004046A16903F0B6F8054605B113E0E0699F
:1043B0000078E52802D0E069007820B9781C07462B
:1043C000B04201D107E000270121204600F0EBF8C0
:1043D0000546002DE4D000BF042D00D10725284656
:1043E000BDE8F0812DE9F04704468946204604F0F7
:1043F00065F910B10120BDE8F08749462046FFF776
:1044000051FC074667634FF40072002104F1380045
:1044100002F045FC60894FF40041B1EB402F01D818
:10442000084601E06089400206464FF0000800E0BF
:104430007608B6F5007F05D9304602F026F8B0F1CF
:104440000008F5D0B6F5007F17D932460021404666
:1044500002F025FC760A002500E035446089A84278
:1044600007D97A1960783346414600F009FB0028E5
:10447000F3D0404602F00FF810E004F138080126AE
:10448000002500E035446089A84207D97A19607890
:104490003346414600F0F4FA0028F3D06089A84280
:1044A00001D00120A7E70020A5E72DE9F047044649
:1044B000D4F800A00021204600F014FA064616B1F8
:1044C0003046BDE8F0874FF0FF08C1464FF0FF309F
:1044D000E06200BF5046A16903F01CF8064606B131
:1044E0005EE0E06905780DB9042659E0E069C07A1C
:1044F00000F03F07A771E52D04D007F0080038B1A0
:104500000F2F05D04FF0FF084FF0FF30E06240E082
:104510000F2F22D12B20005D00F0400098BB05F04A
:10452000400038B1E06990F80D9005F0BF05A8464D
:104530002069E06245450CD1E069407B484508D1DF
:10454000E169DAF80C00FFF7BBFB10B1A8F101003C
:1045500000E0FF2000F0FF081BE0B8F1000F05D1DC
:10456000E06904F053F8484500D119E02B20005DC4
:1045700000F0010040B90B2204F12001E06902F0D3
:104580006FFB08B90CE004E04FF0FF084FF0FF307C
:10459000E0620021204600F006F80646002E99D081
:1045A00000BF30468DE72DE9F04104468846276874
:1045B000206900F12006B6F5001F01D30020A0619C
:1045C000A06910B90420BDE8F081C6F308000028F6
:1045D00045D1A069401CA061606938B93889B0EB49
:1045E000561F3CD80020A0610420ECE77889401ECB
:1045F00000EA562098BB2046616902F057F905464B
:10460000012D01D80220DEE7681C08B90120DAE795
:10461000F869A8421DD8B8F1000F03D10020A061AD
:104620000420D0E720466169FFF79FFB05460DB9DE
:104630000720C8E7012D01D10220C4E7681C08B992
:104640000120C0E729463846FFF7CCFE08B101201B
:10465000B9E7656129463846FFF724FBA06126616A
:10466000C6F3080107F138000844E0610020AAE71A
:104670002DE9F05F044689460426D4F800A04FF0E7
:10468000FF08C34653E05046A16902F043FF0646C7
:1046900006B14FE0E06905780DB904264AE0E0690B
:1046A000C07A00F03F07A771E52D0AD02E2D08D063
:1046B00027F02000082801D1012000E00020484513
:1046C00002D04FF0FF082BE00F2F1DD105F0400066
:1046D00038B1E06990F80DB005F0BF05A846206933
:1046E000E06245450CD1E069407B584508D1E1695D
:1046F000DAF80C0002F028FF10B1A8F1010000E088
:10470000FF2000F0FF080BE0B8F1000F04D1E069D2
:1047100003F07CFF584502D04FF0FF30E06209E023
:1047200000212046FFF73FFF064606B102E0A069E0
:104730000028A8D100BF0EB10020A0613046BDE81E
:10474000F09F2DE9FE4F044626682B20005D00F007
:10475000A00010B10620BDE8FE8F4FF0000901E077
:1047600009F10109F06830F819000028F8D10C228D
:1047700004F12001684602F085FA9DF80B0000F074
:10478000010028B340212B2001554FF001080EE015
:104790004346694604F12000F26802F021F8204601
:1047A000FFF783FE054605B104E008F10108B8F102
:1047B000640FEDD300BFB8F1640F01D10720CAE741
:1047C000042D01D02846C6E79DF80B102B2001557B
:1047D0009DF80B0000F0020030B109F10C000D2132
:1047E000B0FBF1F0401C00E00120074639462046AE
:1047F000FFF7C8FD05464DBB781E071E26D0206971
:10480000A0EB4711204600F06DF80546F5B904F11C
:10481000200003F0FBFE824600BF3046A16902F093
:1048200079FE054605B110E0FAB2E1695346F06839
:1048300003F0B4FC0120F07000212046FFF7B3FE26
:10484000054615B9781E071EE7D100BFC5B9304629
:10485000A16902F05FFE054695B920220021E069BA
:1048600002F01DFA0B2204F12001E06902F00AFABD
:104870002B20005D00F01800E16908730120F07042
:10488000284668E72DE9F041044626682769E06A72
:10489000401C08B9002003E02046E16A00F022F83D
:1048A0000546E5B900BF3046A16902F033FE054672
:1048B00005B110E000BFE520E16908700120F0704B
:1048C0002069B84200D306E000212046FFF76BFEC6
:1048D0000546002DE7D000BF042D00D10225284653
:1048E000BDE8F0812DE9F04104460D462668B5F596
:1048F000001F02D205F01F0010B10220BDE8F081B8
:104900002561A7681FB93078032800DBF76A47B92B
:104910003089B0EB551F01D80220EFE7F06AA061A3
:104920001CE070894FEA402811E03946204601F02A
:10493000BDFF0746781C08B90120DFE7022F02D32C
:10494000F069B84201D80220D8E7A5EB0805454533
:10495000EBD239463046FFF7A5F9A0616761A0693F
:1049600008B90220CAE7A06900EB5520A061C5F391
:10497000080106F138000844E0610020BEE770B588
:104980000446002514B1012C05D103E0FCF794FF87
:10499000054602E001E0012500BF00BF0DB1012086
:1049A00070BD0020FCE700002DE9F047064689466F
:1049B000154646BBB9F1000F09D0B9F1010F13D06C
:1049C000B9F1020F05D0B9F1030F19D106E00024A7
:1049D00018E04FF400702860002413E00D48B0F890
:1049E0005000288000240DE00A484FF40072002394
:1049F000D0E912713846FBF74BFC2860002401E037
:104A0000042400BF02E0012E00D001242046BDE8AE
:104A1000F0870000400300202DE9F04105460E46D6
:104A200017461C464FF0000814B90420BDE8F08179
:104A300015B1012D16D112E0E2B239463046FDF72C
:104A400057FB804607E0FCF737FFE2B239463046B5
:104A5000FDF74EFB8046B8F1000FF4D105E04FF0B2
:104A6000000802E04FF0010800BF00BFB8F1000FDE
:104A700001D10020DAE70120D8E701460020704785
:104A80002DE9F04105460E4617461C464FF000083A
:104A900014B90420BDE8F08115B1012D16D112E042
:104AA000E2B239463046FDF7D1FE804607E0FCF71A
:104AB00003FFE2B239463046FDF7C8FE8046B8F142
:104AC000000FF4D105E04FF0000802E04FF00108BC
:104AD00000BF00BFB8F1000F01D10020DAE70120CC
:104AE000D8E7000010B500240DE04FF40E7002F07E
:104AF00081F8174941F82400084650F8240000B90D
:104B000003E0601CC4B2012CEFDB00BF4FF40A705D
:104B100002F070F80F4908604FF40A7002F06AF86A
:104B20000D4908604FF4007002F064F80B4908600A
:104B3000012C0AD10748006838B10748006820B145
:104B40000846006808B1002010BD0120FCE7000005
:104B5000AC000020B0000020B4000020C000002005
:104B600038B50546284601F0A1FA04465CB9694605
:104B7000284605F0F9FB04462CB9002028600021E6
:104B8000009803F03FFE204638BD38B5044669461C
:104B9000204605F0E9FB05462DB9002020600021E4
:104BA000009803F02FFE284638BD2DE9F74F86B058
:104BB00089469246002205A906A802F051FB8046CC
:104BC000B8F1000F68D10598CAF800000598D0E93F
:104BD0000610801E814204D805988069C9F800003B
:104BE0005AE000250598007801281BD10226059877
:104BF000019000BF314601A801F058FE0746781C1D
:104C000010B94FF001080CE0012F02D14FF002085B
:104C100007E007B96D1C701C06460599C9698842F2
:104C2000E8D32FE00598C6690598D0F828B000248D
:104C300000BF54B959460BF1010B059802F06AFC0C
:104C40008046B8F1000F00D01BE0059800780228DC
:104C500008D105993831081901F0A2FF00B96D1C7F
:104C6000A41C09E005993831081901F08DFF20F0E6
:104C7000704000B96D1C241DC4F30804701E061E8C
:104C8000D7D100BFC9F80050059885610598007913
:104C900040F00100059908714146059803F0B2FD06
:104CA000404609B0BDE8F08F2DE9F7438EB00D46C0
:104CB0001746002201A90EA802F0D2FA0446002CE1
:104CC00032D1002D30D001980290002004900021B4
:104CD00002A8FFF707FE04460CBB012102A8FFF75C
:104CE000C7FC0446DCB90026B0460AE0404608F19D
:104CF0000108099A12F800904FFA89F23046761CA2
:104D00002A54B8F10B0FF1D300BF0020A85506B903
:104D100004E0701E0646285C2028F6D000BF042C54
:104D200002D1002028700024CCB9C7B10198416A93
:104D300002F0F0FB044694B901980078032803D0F0
:104D4000042803D1642603E0432601E0272600BFA0
:104D500000BF01993831881901F016FF38602146EB
:104D6000019803F04FFD204611B0BDE8F0832DE916
:104D7000FC4780460C46914600254646641E14E0DA
:104D80006B46012201A9484600F00AFF009801285D
:104D900000D00CE09DF8047000BF78B206F8010B5B
:104DA0006D1C0A2F00D102E000BFA542E8DB00BF66
:104DB0000020307015B14046BDE8FC870020FBE7BD
:104DC0002DE9F84F04460E466946204605F0CCFA18
:104DD0008146B9F1000F01D194F81190B9F1000F9B
:104DE00006D04946009803F00DFD4846BDE8F88F0F
:104DF000E068B04204D2207C00F0020000B9E6680E
:104E0000D4F814A04FF00008C4F81480002E7CD011
:104E1000009840894702BAF1000F11D0701EB0FB14
:104E2000F7F1AAF10100B0FBF7F0814208D3AAF133
:104E30000100791E884360616069361AA5691CE02B
:104E4000A568CDB900212046FEF78FFF0546012D4C
:104E500007D1022060740221009803F0D3FC0220E5
:104E6000C4E7681C38B9012060740121009803F080
:104E7000C9FC0120BAE7A560A561002D4CD02EE049
:104E8000F61B606938446061207C00F0020040B18C
:104E900000BF29462046FEF768FF054635B90026C3
:104EA0001FE02946204601F001FD0546681C38B97F
:104EB000012060740121009803F0A4FC012095E713
:104EC000012D03D90098C069A84207D80220607458
:104ED0000221009803F096FC022087E7A561BE42FC
:104EE000CED800BF606930446061C6F3080060B18D
:104EF00029460098FEF7D6FE8046B8F1000F09D18A
:104F0000022060740221009800E005E003F07AFCC2
:104F100002206BE708EB5628E1686069884205D9F2
:104F20006069E060207C40F040002074A08AC0F3FB
:104F3000080070B3E06940452BD0207C00F0800071
:104F4000A0B1E26900994878012304F12801FFF734
:104F500097FD38B1012060740121009803F052FCE4
:104F6000012043E7207C00F07F00207400994878FE
:104F70000123424604F12801FFF74EFD38B101201C
:104F800060740121009803F03DFC01202EE7C4F875
:104F90001C804946009803F035FC484626E72DE979
:104FA000F14191B00222694611A802F059F9044674
:104FB000002C7ED1009805904FF4007001F065FA46
:104FC00006463EB91121009803F01CFC112012B0D6
:104FD000BDE8F0810098C66005A8119901F07AFB40
:104FE000044604B9082400BF042C6AD1009801903B
:104FF000002101A8FEF7B9FE0546002405B90724E3
:10500000012D00D10224681C00B9012401F0BEFC6E
:105010008046BCBB29460098FFF7E4F904468CBBE8
:105020000B2220210098383001F039FE2E20009903
:1050300081F838001021009880F84310414600980C
:105040004E3003F0D1FA2A4600993831009803F027
:10505000B9FA2022009938310098583001F012FE38
:105060002E21009880F85910079F3A460099583130
:10507000009803F0A7FA01200099C87005A8FFF76F
:1050800060FB0446C4B90C9901F11600414603F0D7
:10509000ABFA2A460C99009803F094FA10200C9968
:1050A000C87201200099C8702CB9009803F0BEFAAC
:1050B00000E009E0044604E00022294601A803F0CC
:1050C000ECF9304601F0E7F92146009803F09AFB2D
:1050D00020467CE72DE9FF4F99B00F46154619A8E9
:1050E00001F015FD03900398002803DA0B201DB092
:1050F000BDE8F08FFC49039851F8200028B1002149
:10510000F94A039852F8200001700398C0B2169033
:105110000020159007B9F54F1698FFF730FC029064
:10512000029800F0010008B10320E0E7029800F0C7
:10513000040008B10A20DAE778681390139838B9A8
:1051400013AA03211698FFF72FFC08B10120139032
:10515000139840B11398B0F5004F04D81398401E2F
:105160001399084008B1012013904FF40079387862
:1051700000F00F0018907878012804DB7878022876
:1051800001DC787800E001200690B96889B1B9683F
:10519000B1F5004F0DD848464FEAE97109EBD161EE
:1051A0004911BA68B2FBF1F301FB132109B9B968DF
:1051B00001E04FF400710591F868B0F1807F05D8E7
:1051C000F868411E084008B9F86800E00020079020
:1051D0000798B0FBF9F007901C98B0FBF9F0149019
:1051E000149808B9112082E72C462CB9149901FBB8
:1051F00009F001F04AF904460CB9112077E70020C4
:105200001190109000BF11AA01211698FFF7CCFB56
:1052100028B115B9204601F03EF9012067E718983A
:1052200000F0080040B911983F2805D93F201090A0
:10523000DDE91001081A11901198802805D215B9DE
:10524000204601F028F90E2051E700BF00BF079863
:10525000802801D980200790189800F0020030B112
:10526000189800F0010010B94FF003080CE01898EE
:1052700000F0010028B915B9204601F00CF91320FF
:1052800035E74FF0020800BF00BF00BF079EB8F12E
:10529000030F31D1A6B911984FEA504B002004906A
:1052A000012603E00498401C04907600904904987D
:1052B00031F8100020B1049831F810005845F1D9A8
:1052C0001198B0FBF6FA082000EB8A004844401E13
:1052D000B0FBF9F0099020200A90002008904FF6CA
:1052E000F570824502D9834882453BD915B92046DD
:1052F00001F0D1F80E20FAE6A6B911984FEA103B5A
:1053000000200490012603E00498401C04907600DD
:105310007949049831F8100020B1049831F8100050
:105320005845F1D91198B0FBF6FA40F6F570824570
:1053300003D9042000EB4A0B07E04FF001080AEB09
:105340004A00401C032101EB500B0BEB0900401EEF
:10535000B0FBF9F0099001200A9005984001B0FBDC
:10536000F9F008900A99109808440F90069A099944
:105370000F9801FB0201089808440E9013990E98AB
:105380000844401E491E20EA01010E98A1EB000BC3
:10539000B8F1030F06D10A9858440A900F98584460
:1053A0000F9013E00698BBFBF0F100FB11B038B191
:1053B000ABF1010B0A98401C0A900F98401C0F900B
:1053C0000698BBFBF0F10998084409900E9800EB91
:1053D00006111098081A1199884205D915B9204666
:1053E00001F059F80E2082E611990A980A1A0699D6
:1053F000099800FB11210898081AB0FBF6FAB8F1D9
:10540000030F0FD14FF6F57082450BD8079818B9E6
:105410007008079000B148E015B9204601F03BF84C
:105420000E2064E6B8F1020F31D14FF6F5708245D7
:105430001CD9079830B94020B0EB460F02D370005A
:10544000079032E0189800F0020010B14FF0030806
:105450002BE0079820B970000790802800D824E03E
:1054600015B9204601F017F80E2040E640F6F57019
:1054700082450CD8079820B970000790802800D882
:1054800013E015B9204601F006F80E202FE6B8F11A
:10549000010F09D140F6F570824505D915B92046AE
:1054A00000F0F9FF0E2022E600E0EFE600BF4A46DA
:1054B0000021204601F0F3FB0B2210A1204601F051
:1054C000E1FB494604F10B0003F09AF866730A9871
:1054D00081B204F10E0003F093F806982074B8F13D
:1054E000030F11D1002010E0A4000020E8B3000851
:1054F000D8B30008F5FFFF0FCAB30008EBFE904DCC
:1055000053444F53352E3000059881B204F11100F9
:1055100003F076F81198B0F5803F06D2119881B269
:1055200004F1130003F06CF804E004F12000119979
:1055300003F05AF8F82060753F2104F1180003F0D9
:105540005FF8FF2104F11A0003F05AF804F11C007F
:10555000109903F049F8B8F1030F28D101F016FAB9
:105560000146009004F1430003F03EF804F12400EA
:10557000099903F039F8022104F12C0003F034F802
:10558000012104F1300003F03BF8062104F1320060
:1055900003F036F8802084F84000292084F8420087
:1055A000132294A104F1470001F06CFB19E001F013
:1055B000EDF90146009004F1270003F015F8099871
:1055C00081B204F1160003F01BF8802084F8240057
:1055D000292084F8260013228BA104F12B0001F06E
:1055E00051FB4AF6552104F5FF7003F009F8012339
:1055F0002146109A1698FFF743FA28B115B92046AC
:1056000000F049FF012072E5B8F1030F33D1012307
:10561000109A921D21461698FFF732FA4A46002149
:10562000204601F03CFB7D49204602F0DDFF7C492D
:1056300004F5F27002F0D8FFAAF1010104F5F4704C
:1056400002F0D2FF022104F5F67002F0CDFF4AF617
:10565000552104F5FF7002F0D3FF0123109AD21DEB
:1056600021461698FFF70CFA0123109A521C214686
:105670001698FFF705FA149800FB09F2002120465E
:1056800001F00DFB0F980D900020049048E0B8F158
:10569000030F10D16FF00701204602F0A5FF4FF075
:1056A000FF31201D02F0A0FF6FF0704104F10800EF
:1056B00002F09AFF0AE0B8F1010F01D1594801E068
:1056C0006FF007000146204602F08EFF0998129005
:1056D00000BF14991298884201D9149800E01298DA
:1056E00083465B4621460D9A1698FFF7C9F928B103
:1056F00015B9204600F0CFFE0120F8E44A4600210B
:10570000204601F0CCFA0D9858440D901298A0EB69
:105710000B00129012980028DBD10498401C0490D2
:10572000069904988842B2D3B8F1030F01D13046EC
:1057300000E00898129000BF14991298884201D98D
:10574000149800E0129883465B4621460D9A1698FD
:10575000FFF796F928B115B9204600F09CFE01200C
:10576000C5E40D9858440D901298A0EB0B001290D0
:1057700012980028E0D100BFB8F1030F02D10C202D
:1057800017900DE01198B0F5803F02D306201790D6
:1057900006E0B8F1020F01D1042000E001201790CB
:1057A00000BF189800F0080090B911980B900020E5
:1057B0000C9023460BA9DDE91602FEF791FC01903F
:1057C000019828B115B9204600F065FE01988EE4D5
:1057D000002211461698FFF7E7F828B115B92046C0
:1057E00000F059FE012082E415B9204600F053FE76
:1057F00000207CE44E4F204E414D45202020204685
:1058000041543332202020004E4F204E414D452040
:105810002020204641542020202020005252614167
:1058200072724161F8FFFF00F7B582B01646039827
:10583000019001A801F06BF90546002D02DA0B205A
:1058400005B0F0BD154850F825403CB1206900F086
:1058500015FE08B90220F3E700202070029850B12D
:10586000002002990870E8B20299103100F0F9FDA9
:1058700008B90220E4E70949029841F825000EB969
:105880000020DDE7002202A903A801F0E9FC074699
:105890003946029802F0B6FF3846D1E7A40000204E
:1058A0002DE9F74F90B0044616461CB9092013B0F5
:1058B000BDE8F08F06F03F06324603A911A801F0BB
:1058C000CFFC0546002D73D1039804904FF400706F
:1058D00000F0DBFD8346BBF1000F05D111210398D9
:1058E00002F090FF1120E2E70398C0F80CB004A882
:1058F000119900F0EFFE05462DB99DF83B0000F030
:10590000800000B1062506F01C00002851D045B1EA
:10591000042D03D104A8FEF714FF054646F008063F
:105920000AE09DF8160000F0110008B1072503E019
:1059300006F0040000B10825002D4BD106F0080048
:10594000002847D00B99039801F00BF9814601F02C
:105950001DF801900B9901F10E00019902F044FE2F
:1059600020200B99C87200220B99039802F02AFE9E
:105970000B9901F11C00002102F036FE0120039971
:10598000C870B9F1000F25D00398D0F834A00022D8
:10599000494604A802F081FD0546DDB95146039849
:1059A00001F0B8FD0546A9F101000399486111E035
:1059B00079E07DB99DF8160000F0100008B10425CB
:1059C00008E006F0020028B19DF8160000F0010082
:1059D00000B107254DB906F0080008B146F04006B1
:1059E0000398406B20620B986062002D58D10B9990
:1059F000039801F0B6F8A0600B9901F11C0001F0CA
:105A0000C3F8E060039820600398C088A0802674E3
:105A100000206074E06160614FF40072002104F1C5
:105A2000280001F03CF906F0200058B3E06848B3C4
:105A3000E06860610398408940020290A768D4F84A
:105A40000C800DE03946204600F030FF0746012F5C
:105A500000D80225781C00B901250298A8EB00089F
:105A600015B902988045EDD8A7615DB9C8F3080063
:105A700040B139460398FEF715F98246BAF1000F96
:105A800001D102250CE00AEB5820E061E26903999C
:105A90004878012304F12801FEF7BEFF00B101257B
:105AA000584600F0F8FC0DB100202060294603980C
:105AB00002F0A8FE2846FAE673B582B0044614B98F
:105AC000092004B070BD002201A903A801F0C8FBA1
:105AD0000546002D34D1019820604FF4007000F08D
